:100000000C942A000C9447000C9447000C94470071
:100010000C9447000C9447000C9447000C94470044
:100020000C9447000C9447000C9447000C94CE01AC
:100030000C940D020C9447000C9447000C9447005C
:100040000C9447000C9447000C9447000C94470014
:100050000C94470011241FBECFE5D4E0DEBFCDBF16
:1000600010E0A0E6B0E0E4E0F9E102C005900D92F6
:10007000A43FB107D9F723E0A4EFB0E001C01D927F
:10008000A137B207E1F70E9496060C94800C0C94FD
:1000900000000F931F93CF93DF938B01FC01C4816A
:1000A000D581C930D10510F0C8E0D0E0AE01415093
:1000B0005109FC01668177816F5F7F4FC8010E9403
:1000C0000A09C00FD11F8AE088831982C801DF9115
:1000D000CF911F910F910895AB98AA98A39AA29AD5
:1000E00094989598969897988C9A8D9A8E9A8F9ABC
:1000F000AE98A69AAD98A59AAF9AA79A08958FB987
:10010000779BFECF08958FEF8FB9779BFECF8FB18E
:100110000895AE9A82E08A95F1F700C0AE980895EE
:10012000CF939091F400911118C0C82F80E00E94E5
:100130007F008C2F0E947F0084E62FEF39EF90E044
:10014000215030409040E1F700C000008150A9F7F5
:100150000E94890081E08093F400CF9108958091FE
:10016000F400813091F4809162000E947F002FEFB3
:1001700083ED90E3215080409040E1F700C0000003
:100180000E94890082E08093F4000895DF92EF924C
:10019000FF920F931F93CF93DF932091F4002330AE
:1001A00031F560FD24C0D42E8B017C01EC01CE0121
:1001B0008E199F098017910760F4839BFECF888179
:1001C0000E947F0089810E947F000E948900229600
:1001D000EECFDD2061F02FEF84E39CE021508040E2
:1001E0009040E1F700C0000084E08093F400DF91CC
:1001F000CF911F910F91FF90EF90DF900895909114
:10020000F700981781F191E0811101C090E090FD15
:10021000949A90FF949890FD959A90FF959890FDF0
:10022000969A90FF969890FD979A90FF97989CE0E9
:10023000B09B10C0882371F02FEF30E742E02150CF
:1002400030404040E1F700C00000915089F702C003
:10025000882329F0B09BFCCF91E0811101C090E090
:100260008093F70001C090E0892F08959091F600E7
:10027000981751F091E0811101C090E090FDAB9A88
:1002800090FFAB988093F60008959091F500981731
:1002900089F091E0811101C090E090FDAA9A90FF51
:1002A000AA9891E0811190E090FDAD9A90FFAD98F1
:1002B0008093F50008950F931F93CF93DF93CDB7ED
:1002C000DEB72A970FB6F894DEBF0FBECDBFFC0194
:1002D0008B01DB011C9284819581892B09F444C038
:1002E000A681B7819C919D3459F1A8F49134E1F530
:1002F000BE016F5F7F4FCF010E94490040E150E097
:1003000060E070E00E94E4077093FD006093FC00E1
:100310006BE870E026C0963519F0973539F024C0A7
:10032000FB01919360E870E0CF011CC0839B05C086
:10033000B09B03C065E870E014C068E870E011C0CD
:10034000BE016F5F7F4FCF010E944900FC01808199
:100350008E3611F083E201C080E2809362006DE886
:1003600070E0C8010E940309C8012A960FB6F894EC
:10037000DEBF0FBECDBFDF91CF911F910F910895CA
:10038000CF93C82F8A3019F48DE00E94C0015D9B85
:10039000FECFCCB980E090E0CF9108951F920F92EC
:1003A0000FB60F9211242F933F938F939F93EF9348
:1003B000FF938CB12091E1029091E2022917F8F4A9
:1003C000E091E502F091E6029F012F5F3F4F8083AD
:1003D0008091E802815021F48091E202281B3109CA
:1003E0008093E8023093E6022093E5029FB7F894E9
:1003F0008091E1028F5F8093E1029FBF03C081E0A3
:100400008093FE00FF91EF919F918F913F912F91EB
:100410000F900FBE0F901F9018951F920F920FB65E
:100420000F9211242F933F938F939F93EF93FF93FA
:100430008091D902882301F1E091DB02F091DC0286
:100440009F012F5F3F4F90818091DF02815021F407
:100450008091DA02281B31093093DC022093DB0201
:100460008093DF022FB7F8948091D9028150809356
:10047000D9022FBF9CB901C05598FF91EF919F9170
:100480008F913F912F910F900FBE0F901F90189555
:10049000909300018093FF000895CF93CFB7A0E021
:1004A000B0E09C01AD0184E0220F331F441F551FB3
:1004B0008A95D1F760E072E18AE790E00E94BB077D
:1004C0002150310930BD29B9F89488E98AB986E804
:1004D00080BD80B5806280BD8CB15F99FDCF80EC1E
:1004E0008BB9CFBF40E869E572E081EE92E00E94EF
:1004F000630340E869EE72E089ED92E00E946303D5
:1005000080ED97E0909300018093FF00CF910895D4
:10051000682F89ED92E00E946D03559A0895EF923D
:10052000FF920F931F93CF93DF938C017B01C091B8
:10053000FF00D0910001E114F104E1F02097C1F037
:10054000F80180810E94880287FF08C08FEC97E045
:100550000197F1F700C000002197EDCF91E0E91A73
:10056000F108C091FF00D09100010F5F1F4FE3CF52
:100570008FEF01C080E0DF91CF911F910F91FF902D
:10058000EF900895CF92DF92EF92FF920F931F9317
:10059000CF93DF9300D0CDB7DEB76C017B01009124
:1005A000FF0010910001672BA9F48FEF26C091E0A6
:1005B000E91AF1080091FF0010910001C6010196AF
:1005C0002981F6012083E114F104B1F06C010115D9
:1005D000110559F3BE016F5F7F4F81EE92E00E94DB
:1005E000910387FFE4CF8FEC97E00197F1F700C00C
:1005F000000001501109EBCF80E00F900F90DF91C8
:10060000CF911F910F91FF90EF90DF90CF900895C1
:10061000CF92DF92EF92FF920F931F93CF93DF93CE
:1006200000D0CDB7DEB77C018B01672B19F58FEFBA
:1006300026C08FEC97E00197F1F700C00000CA9444
:10064000CD28A9F3CC24C394D12CBE016F5F7F4F7A
:1006500081EE92E00E94910387FDEBCF01501109DA
:1006600097012F5F3F4F8981F701808301151105A5
:1006700029F0790182E0C82ED12CE7CF80E00F90DD
:100680000F90DF91CF911F910F91FF90EF90DF902E
:10069000CF9008951AB80895FC01A281B3819D01FD
:1006A0002F5F3F4F8C919681915019F49181291BB6
:1006B00031093383228396832FB7F8949081915028
:1006C00090832FBF0895FC01108275836483738328
:1006D00062834183478346830895FC019081818131
:1006E0009817B8F4A481B5819D012F5F3F4F6C939B
:1006F0008781815019F48181281B310987833583D3
:1007000024839FB7F89480818F5F80839FBF80E0B0
:1007100008958FEF0895FC0120812223E1F30C94CA
:100720004C03CF93DF93FC012081222331F0EB01B6
:100730000E944C03888380E001C08FEFDF91CF914E
:100740000895680F791FFC012191CF0130E0E8E0A6
:10075000DA01A227B32756954795A0FF04C0F8E019
:100760004F27F4E85F2736952795E15089F76817FA
:10077000790749F7CA018095909598278927982786
:100780000895CF93DF9300D0CDB7DEB798278927A0
:1007900098270F900F90DF91CF910895CF93DF931B
:1007A00000D000D0CDB7DEB70E94DD070F900F90CC
:1007B0000F900F90DF91CF9108950F931F93CF93D8
:1007C000DF931F92CDB7DEB78C018AE189834FEFAB
:1007D0005FEF61E070E0CE0101960E94A103AC01E1
:1007E00066E070E0C8010E94A103F8016481758190
:1007F0006115710529F0AC01868197810E94A103E2
:100800000F90DF91CF911F910F91089590EE980F67
:100810009F3508F08EE20895EF92FF920F931F9399
:10082000CF93DF931F92CDB7DEB78C017C01E60E2C
:10083000F71E0E151F05C9F061E070E0CE010196AC
:100840000E94C20287FF02C08FEF10C08981F801A9
:1008500081938F018A3169F761E070E0CE010196E2
:100860000E94C20287FDF0CFE4CF80E00F90DF91BD
:10087000CF911F910F91FF90EF9008956F927F920B
:100880008F929F92AF92BF92CF92DF92EF92FF92A0
:100890000F931F93CF93DF931F92CDB7DEB7B82E80
:1008A000A92E4B018AE18983EB2CF92E612C712C46
:1008B00000E010E0C70101966C010815190540F42D
:1008C000F70180818A3121F00F5F1F4F7601F2CF4F
:1008D000B801661977098B2D9A2D0E948F02BC2CC6
:1008E000AD2CF70180818A3179F461E070E0CE01AE
:1008F00001960E948F0261E070E0CE0101960E9495
:100900008F020F5F1F4F380108151905F8F280E0BC
:100910000F90DF91CF911F910F91FF90EF90DF909B
:10092000CF90BF90AF909F908F907F906F900895E1
:10093000EF92FF920F931F93CF93DF93CDB7DEB764
:100940002A970FB6F894DEBF0FBECDBF8C017B0196
:1009500061E070E0CE010A960E94C20287FF02C0E9
:100960008FEF86C061E070E0CE0109960E94C2025E
:1009700087FDF6CF8A858A3159F729852A3141F3D7
:10098000F8012193CF0165E070E00E940C0487FD1F
:100990006FC0F801648175817C836B83762767273C
:1009A000762775836483828193819E838D839827C4
:1009B0008927982793838283E616F70608F455C0A3
:1009C0002181213021F490935201809351016115CE
:1009D000710549F462E070E0CE0107960E940C04B4
:1009E00087FF09C045C0F801868197810E940C04E9
:1009F00087FFF0CF3DC0EF80F884FA82E982FE24C1
:100A0000EF24FE24F801F186E086C8010E94DD0390
:100A10008E159F0561F580E08530E1F0A82FB0E0EC
:100A20009D01220F331FA20FB31FAF58BF4F119666
:100A30004D915C9112974115510551F0F8012081BB
:100A40009C91291305C08A87C801FA01099502C043
:100A50008F5FE2CF8091570190915801019690935A
:100A600058018093570180E003C08CEF01C08BEFE9
:100A70002A960FB6F894DEBF0FBECDBFDF91CF919F
:100A80001F910F91FF90EF900895CF92DF92FF9208
:100A90000F931F93CF93DF938C01D62FF42E690110
:100AA00010920101C0E0B601C8010E9498048F3F76
:100AB00004F1CA304CF581111AC0F80190819034CC
:100AC00091F381818430C1F0D923C1F08F1118C016
:100AD000F2E0FF1217C0F8012281338180915301A7
:100AE000909154012817390769F08DEF0EC0CF5F40
:100AF000DACFCA3054F008C08AEF07C089EF05C0CA
:100B000088EF03C080E001C08FEFDF91CF911F918C
:100B10000F91FF90DF90CF900895CF92DF92EF92E8
:100B2000FF920F931F93CF93DF93CDB7DEB76397F9
:100B30000FB6F894DEBF0FBECDBF7A01690189837D
:100B40006A83623029F4009151011091520104C06E
:100B500000915701109158011C830B83613021F4DF
:100B60001093540100935301FE82ED82D886CF8208
:100B7000CE0101960E94DD039C878B8798278927E9
:100B800098279A8B898B1E870D871027012710279E
:100B90001C830B83F88AEF869E2D8F2D9E838D8379
:100BA0008AE18B8B61E070E0CE0143960E948F0258
:100BB00066E070E0CE0101960E943E04E114F1046B
:100BC00021F0B701C6010E943E0462E070E0CE0150
:100BD00041960E943E0480915501909156010196E4
:100BE000909356018093550163960FB6F894DEBF3B
:100BF0000FBECDBFDF91CF911F910F91FF90EF906E
:100C0000DF90CF900895CF93DF93CDB7DEB7EC9709
:100C10000FB6F894DEBF0FBECDBF9E012F5B3F4FD6
:100C2000F901419151919F016CE370E0CE01019671
:100C30000E945F09EC960FB6F894DEBF0FBECDBFE1
:100C4000DF91CF910895982FE1E7F0E08FEF2081B9
:100C5000291303C07283618380E0339620E0E0387B
:100C6000F207A9F70895CF93DF93EC018FE890E0A6
:100C70000E942F0988811F928F938AEA90E09F93A8
:100C80008F930E94190989811F928F9388EB90E0BE
:100C90009F938F930E9419098B818F938A818F93E1
:100CA00086EC90E09F938F930E9419098D818F931A
:100CB0008C818F9380ED90E09F938F930E94190910
:100CC00089858F9388858F938AED90E09F938F938A
:100CD0000E9419098DB79EB744960FB6F8949EBF2F
:100CE0000FBE8DBF8881803471F48F818F938E8188
:100CF0008F9388EE90E09F938F930E9419090F9035
:100D00000F900F900F90DF91CF91089520E030E089
:100D100040E050E062E081E00C948D0520E030E09E
:100D200040E050E062E080E10C948D05CF93DF93CA
:100D3000CDB7DEB76E970FB6F894DEBF0FBECDBF4E
:100D400089E591E09C8F8B8F2FEF83ED90E321500D
:100D500080409040E1F700C000000E946C0080E0FD
:100D600096E90E944D0288EC90E00E944802789437
:100D7000CE0101966C0103E08091F700882311F009
:100D8000839905C08091F400823009F06CC060E066
:100D900071E0CE0145960E949804811164C08E894D
:100DA000813009F060C019828D89843071F040F47F
:100DB000823041F5B601CE0145960E945B0122C00A
:100DC000803171F0803261F01DC01092F40080918A
:100DD000FC009091FD000E9490000E94AF0012C0A4
:100DE0000093F40041E0803209F040E0698D7A8D93
:100DF0008B8D9C8D0E94C60011E08D89803219F484
:100E000010E001C011E08981882361F0F6010190B2
:100E10000020E9F73197AF014C195D09960162E0B6
:100E20008D8908C08D89813039F420E030E040E0C0
:100E300050E062E00E948D05111115C09FEF21E185
:100E40008AE7915020408040E1F700C0000080E038
:100E50000E94FF0098E088E10FB6F894A89581BD44
:100E60000FBE91BDFFCF10E0812C912C86B399B3BA
:100E700095FBEE24E0F8F12C82FBAA24A0F8B12C1B
:100E800082FD0AC0E114F10439F480E00E944501BA
:100E900080E00E94360170CF9FE728E381E0915007
:100EA00020408040E1F700C00000AB2809F44CC0AE
:100EB00081149104A1F581E00E94FF00882309F4C8
:100EC0004EC09FE728E381E0915020408040E1F749
:100ED00000C0000081E00E9445018FE097E2019789
:100EE000F1F700C0000080E00E9445019FEF24E37D
:100EF0008CE0915020408040E1F700C0000081E08C
:100F00000E9436019FE728E381E091502040804015
:100F1000E1F700C0000080E00E94360122C01111FC
:100F200005C081E00E94360110E001C011E098E2A6
:100F30008916910418F080E00E94FF002FEF821ABA
:100F4000920AEF28A1F005C080E00E943601EF2848
:100F500051F081E00E9445011092F40087CF1123E7
:100F600001F311E0EBCF80E00E9445018ECF80E0DD
:100F70000E9445017BCFA1E21A2EAA1BBB1BFD01DB
:100F80000DC0AA1FBB1FEE1FFF1FA217B307E40768
:100F9000F50720F0A21BB30BE40BF50B661F771FC0
:100FA000881F991F1A9469F76095709580959095A0
:100FB0009B01AC01BD01CF010895692796276927E0
:100FC0007827872778270895A0E0B0E0EAEEF7E0D9
:100FD0000C943B0C5C016B017A016115710519F0F1
:100FE000FB0191838083E114F10429F0C70102978A
:100FF000839708F0E5C0E5012196F5011081812F66
:1010000090E00E94FA08892B11F05E01F4CF1D32A6
:1010100029F42196F501118101E007C01B3221F46A
:10102000E5012296F501118100E0E114F10409F1D6
:10103000F0E1EF16F10429F43FC010E3E114F104EC
:1010400021F128E0E216F10401F154F4E2E0EE1699
:10105000F10421F5812C912CA12CB0E4BB2E3EC0D3
:10106000FAE0EF16F10439F020E1E216F104B1F4F0
:1010700030C0103319F1FAE0EF2EF12CACEC8A2ECF
:10108000982CA82CACE0BA2E29C078E0E72EF12CE1
:10109000812C912CA12CE0E1BE2E20C060E070E0FC
:1010A00080E090E897010F2C000C440B550B0E9438
:1010B000BB0749015A0112C0103359F488818F7D52
:1010C000883509F0BACF19812296026080E1E82EB6
:1010D000F12C812C912CA12C68E0B62E40E060E030
:1010E00070E0CB0127010F2C000C66087708FE0189
:1010F00050ED352E310E29E0231570F42FEB210F22
:101100002A3118F439EC332E06C02FE9210F2A3189
:1011100018F529EA322E310E232D30E02E153F0529
:10112000DCF447FD16C086169706A806B90670F0CF
:10113000A30192010E941F0C630D711D811D911D61
:1011400061307105810520E8920710F04FEF01C072
:1011500041E021961081CBCF202F2170C114D10402
:1011600071F0442329F02197F601D183C08307C091
:1011700001FF19C02297F601D183C08314C047FF35
:1011800012C0222329F060E070E080E090E804C003
:101190006FEF7FEF8FEF9FE722E230E030936A033B
:1011A0002093690309C0222381F090958095709562
:1011B00061957F4F8F4F9F4F462F372F282F12C09B
:1011C00040E030E020E090E00DC097FFF5CF82E2F4
:1011D00090E090936A03809369036FEF7FEF8FEF46
:1011E0009FE7EACF642F732F822FCDB7DEB7E1E1FF
:1011F0000C94570C91110C946C0B803219F089509F
:101200008550C8F70895FB01DC0101900D92002084
:10121000E1F70895FB01DC014150504048F0019096
:101220000D920020C9F701C01D9241505040E0F7D7
:101230000895A0E0B0E0EFE1F9E00C944A0CAE01B3
:101240004B5F5F4FFA0161917191AF0180916D0326
:1012500090916E030E948B09E2E00C94660C0F9350
:101260001F93CF93DF93E0916D03F0916E03238181
:1012700021FF1BC08C01D0E0C0E0F80181918F01FB
:1012800060916D0370916E03DB011896ED91FC91F6
:101290001997882331F00995892B79F3DFEFCFEF88
:1012A000ECCF8AE00995892B19F08FEF9FEF02C0F0
:1012B0008D2F9C2FDF91CF911F910F910895AEE05C
:1012C000B0E0E5E6F9E00C94480C8C01FA0186E008
:1012D0008C831A83098377FF02C060E070E8CB013A
:1012E00001979E838D83A901BF01CE0101960E94C3
:1012F0008B094D815E8157FD0AC02F8138854217C9
:1013000053070CF49A01F801E20FF31F10822E9696
:10131000E4E00C94640CABE0B0E0E1E9F9E00C949B
:101320003A0C6C017B018A01FC01178216828381D1
:1013300081FFCCC1CE0101963C01F6019381F701FA
:1013400093FD859193FF81917F01882309F4BAC1B0
:10135000853239F493FD859193FF81917F01853228
:1013600029F4B60190E00E94850BE7CF912C212C47
:10137000312CFFE1F315D8F08B3279F038F480325C
:1013800079F08332A1F4232D20611DC08D3261F0EC
:10139000803369F4232D216016C0832D8260382E9E
:1013A000E32DE4603E2E2AC0F32DF8601DC037FC0B
:1013B0002DC020ED280F2A3040F08E32B9F436FCD3
:1013C00081C1232D2064322E19C036FE06C08AE06A
:1013D000989E200D1124922E11C0EAE02E9E200D21
:1013E0001124222EF32DF0623F2E08C08C3621F4FA
:1013F000832D8068382E02C0883641F4F70193FDB2
:10140000859193FF81917F018111B3CF982F9F7DAB
:101410009554933028F40C5F1F4F9FE399830DC0C0
:10142000833631F0833771F0833509F059C021C01C
:10143000F801808189830E5F1F4F88248394912C4B
:10144000530113C02801F2E04F0E511CF801A08097
:10145000B18036FE03C0692D70E002C06FEF7FEFF0
:10146000C5010E947A0B4C018201F32DFF773F2EBC
:1014700016C0280122E0420E511CF801A080B18064
:1014800036FE03C0692D70E002C06FEF7FEFC5012B
:101490000E946F0B4C01F32DF0683F2E820133FC4C
:1014A0001BC0822D90E088169906B0F4B60180E248
:1014B00090E00E94850B2A94F4CFF50137FC8591CA
:1014C00037FE81915F01B60190E00E94850B2110EB
:1014D0002A9421E0821A91088114910471F7E8C0DE
:1014E000843611F0893641F5F80137FE07C0608176
:1014F0007181828193810C5F1F4F08C0608171816F
:10150000072E000C880B990B0E5F1F4FF32DFF76F3
:101510003F2E97FF09C090958095709561957F4FFC
:101520008F4F9F4FF0683F2E2AE030E0A3010E94CA
:10153000C10B882E861845C0853731F4232D2F7EA8
:10154000B22E2AE030E025C0932D997FB92E8F3638
:10155000C1F018F4883579F0B5C0803719F08837B4
:1015600021F0B0C0E92FE061BE2EB4FE0DC0FB2D0E
:10157000F460BF2E09C034FE0AC0292F2660B22EA7
:1015800006C028E030E005C020E130E002C020E1E4
:1015900032E0F801B7FE07C06081718182819381DA
:1015A0000C5F1F4F06C06081718180E090E00E5F8C
:1015B0001F4FA3010E94C10B882E8618FB2DFF77B9
:1015C0003F2E36FE0DC0232D2E7FA22E891458F4F7
:1015D00034FE0BC032FC09C0832D8E7EA82E05C0C0
:1015E000B82CA32C03C0B82C01C0B92CA4FE0FC08A
:1015F000FE01E80DF11D8081803321F49A2D997E42
:10160000A92E09C0A2FE06C0B394B39404C08A2DCB
:10161000867809F0B394A3FC11C0A0FE06C0B214F2
:1016200088F4280C922C9B180EC0B21460F4B601FA
:1016300080E290E00E94850BB394F7CFB21418F4C7
:101640002B1802C0982C212CA4FE10C0B60180E3F8
:1016500090E00E94850BA2FE17C0A1FC03C088E7A2
:1016600090E002C088E590E0B6010CC08A2D867833
:1016700059F0A1FE02C08BE201C080E2A7FC8DE21E
:10168000B60190E00E94850B891438F4B60180E31E
:1016900090E00E94850B9A94F7CF8A94F301E80DAD
:1016A000F11D8081B60190E00E94850B8110F5CF7D
:1016B000222009F442CEB60180E290E00E94850B20
:1016C0002A94F6CFF6018681978102C08FEF9FEFB3
:1016D0002B96E2E10C94560C992788270895FC017B
:1016E0000590615070400110D8F7809590958E0F4D
:1016F0009F1F0895FC016150704001900110D8F7C0
:10170000809590958E0F9F1F08950F931F93CF93F1
:10171000DF93FB01238121FD03C08FEF9FEF2CC0DE
:1017200022FF16C046815781248135814217530715
:1017300044F4A081B1819D012F5F3F4F318320830D
:101740008C93268137812F5F3F4F3783268314C0C8
:101750008B01EC01FB010084F185E02D0995892BBB
:10176000E1F6D80116968D919C91179701961796E0
:101770009C938E931697CE01DF91CF911F910F917D
:101780000895FA01AA27283051F1203181F1E89417
:101790006F936E7F6E5F7F4F8F4F9F4FAF4FB1E064
:1017A0003ED0B4E03CD0670F781F891F9A1FA11D5F
:1017B000680F791F8A1F911DA11D6A0F711D811D60
:1017C000911DA11D20D009F468943F912AE0269F25
:1017D00011243019305D3193DEF6CF010895462F84
:1017E0004770405D4193B3E00FD0C9F7F6CF462F65
:1017F0004F70405D4A3318F0495D31FD40524193CE
:1018000002D0A9F7EACFB4E0A6959795879577958A
:101810006795BA95C9F700976105710508959B0111
:10182000AC010A2E06945795479537952795BA959A
:10183000C9F7620F731F841F951FA01D0895DB0158
:101840008F939F930E942F0CBF91AF91A29F800D09
:10185000911DA39F900DB29F900D112408950E9499
:10186000710CA59F900DB49F900DA49F800D911DAC
:10187000112408952F923F924F925F926F927F9220
:101880008F929F92AF92BF92CF92DF92EF92FF9290
:101890000F931F93CF93DF93CDB7DEB7CA1BDB0B3C
:1018A0000FB6F894DEBF0FBECDBF09942A883988E1
:1018B00048885F846E847D848C849B84AA84B984E8
:1018C000C884DF80EE80FD800C811B81AA81B981F4
:1018D000CE0FD11D0FB6F894DEBF0FBECDBFED0108
:1018E0000895A29FB001B39FC001A39F700D811DF9
:1018F0001124911DB29F700D811D1124911D089519
:04190000F894FFCF89
:10190400FFFF230000000200000000C001000000EF
:101914000001000004000008000002000040000074
:10192400302E320A0057720057770041004D002DC7
:101934002D72656376276420612076616C6964206A
:10194400636F6D6D616E642D2D00636D643A2020AC
:101954003078253032780A00747970653A2030780E
:10196400253032780A0069643A20202025640A0070
:1019740073697A653A2025640A006372633A202009
:101984003078253032780A007374723A2020272583
:0419940073270A00AB
:00000001FF
