:100000000C9438000C94A1060C94B4080C94600075
:100010000C9460000C9460000C9460000C946000E0
:100020000C9460000C9460000C9460000C94690ABD
:100030000C9460000C9460000C9460000C946000C0
:100040000C9460000C9460000C94770A0C9460008F
:100050000C94C9010C9409020C9460000C9460008B
:100060000C9460000C9460000C9460000C94600090
:1000700011241FBECFEFD0E1DEBFCDBFF894A8950D
:1000800084B7877F84BFE0E6F0E080818861808369
:10009000108212E0A0E0B1E0E0E5F2E202C00590DB
:1000A0000D92A83BB107D9F725E0A8EBB2E001C05B
:1000B0001D92AE38B207E1F70E94C50A0C942611D2
:1000C0000C9400000F931F93CF93DF938B01FC01DF
:1000D000C481D581C930D10510F0C8E0D0E0AE01AF
:1000E00041505109FC01668177816F5F7F4FC801E4
:1000F0000E94B00DC00FD11F8AE088831982C80109
:10010000DF91CF911F910F91089541984098399AAE
:10011000389A5E98569A2C98249A08958EBD0DB4FC
:1001200007FEFDCF08958FEF8EBD0DB407FEFDCF06
:100130008EB508952C9A82E08A95F1F700C02C982C
:100140000895CF939091B802911118C0C82F80E004
:100150000E948E008C2F0E948E0084E62FEF39EFD4
:1001600090E0215030409040E1F700C00000815005
:10017000A9F70E949A0081E08093B802CF91089578
:100180008091B802813091F4809102010E948E002A
:100190002FEF83ED90E3215080409040E1F700C0C5
:1001A00000000E949A0082E08093B8020895DF92D6
:1001B000EF92FF920F931F93CF93DF932091B8029A
:1001C000233031F560FD24C0D42E8B017C01EC017D
:1001D000CE018E199F098017910760F44F9BFECFC7
:1001E00088810E948E0089810E948E000E949A0060
:1001F0002296EECFDD2061F02FEF84E39CE02150CA
:1002000080409040E1F700C0000084E08093B80295
:10021000DF91CF911F910F91FF90EF90DF900895A4
:100220009091BB029817F1F091E0811101C090E02C
:1002300090FD5E9A90FF5E98019B03C08111FCCFF8
:100240000DC0882359F02FEF33ED90E3215030405B
:100250009040E1F700C0000091E001C090E0809381
:10026000BB0201C090E0892F08959091BA029817BF
:1002700051F091E0811101C090E090FD419A90FF12
:1002800041988093BA0208959091B902981751F05D
:1002900091E0811101C090E090FD409A90FF40985C
:1002A0008093B90208950F931F93CF93DF93CDB737
:1002B000DEB72A970FB6F894DEBF0FBECDBFFC01A4
:1002C0008B01DB011C9284819581892B09F444C048
:1002D000A681B7819C919D3459F1A8F49134E1F540
:1002E000BE016F5F7F4FCF010E94620040E150E08E
:1002F00060E070E00E948A0C7093C1026093C002BB
:100300006FE472E026C0963519F0973539F024C0B5
:10031000FB01919361E271E0CF011CC04F9B05C0CE
:10032000019B03C069E472E014C06CE472E011C088
:10033000BE016F5F7F4FCF010E946200FC01808190
:100340008E3611F083E201C080E28093020161E504
:1003500072E0C8010E94A90DC8012A960FB6F89450
:10036000DEBF0FBECDBFDF91CF911F910F910895DA
:10037000CF93C82F8A3019F48DE00E94B801809184
:10038000C00085FFFCCFC093C60080E090E0CF9115
:1003900008951F920F920FB60F9211242F933F933F
:1003A0008F939F93EF93FF938091C6002091FE045B
:1003B0009091FF042917F8F4E0910205F0910305EC
:1003C0009F012F5F3F4F808380910505815021F46D
:1003D0008091FF04281B31098093050530930305A4
:1003E000209302059FB7F8948091FE048F5F80935D
:1003F000FE049FBF03C081E08093C202FF91EF9192
:100400009F918F913F912F910F900FBE0F901F9052
:1004100018951F920F920FB60F9211242F933F93AE
:100420008F939F93EF93FF938091F604882309F1B4
:10043000E091F804F091F9049F012F5F3F4F908104
:100440008091FC04815021F48091F704281B31092C
:100450003093F9042093F8048093FC042FB7F894A8
:100460008091F60481508093F6042FBF9093C600CC
:1004700005C08091C1008F7D8093C100FF91EF91F5
:100480009F918F913F912F910F900FBE0F901F90D2
:1004900018959093C4028093C3020895CF93CFB769
:1004A000A0E0B0E09C01AD0184E0220F331F441FA7
:1004B000551F8A95D1F760E072E18AE790E00E94CB
:1004C000610C215031093093C5002093C400F89489
:1004D00088E98093C10086E08093C2008091C600C5
:1004E0008091C00087FDFACF80EC8093C000CFBF21
:1004F00040E866E774E08EEF94E00E946E0340E807
:1005000066E075E086EF94E00E946E0380ED97E070
:100510009093C4028093C302CF910895682F86EF11
:1005200094E00E947803E1ECF0E090819062908387
:100530000895EF92FF920F931F93CF93DF938C0157
:100540007B01C091C302D091C402E114F104E1F037
:100550002097C1F0F80180810E948E0287FF08C0B9
:100560008FEC97E00197F1F700C000002197EDCFE5
:1005700091E0E91AF108C091C302D091C4020F5F63
:100580001F4FE3CF8FEF01C080E0DF91CF911F912C
:100590000F91FF90EF900895CF92DF92EF92FF922C
:1005A0000F931F93CF93DF9300D0CDB7DEB76C01CD
:1005B0007B010091C3021091C402672BA9F48FEF55
:1005C00026C091E0E91AF1080091C3021091C4021B
:1005D000C60101962981F6012083E114F104B1F0EE
:1005E0006C010115110559F3BE016F5F7F4F8EEF4E
:1005F00094E00E949C0387FFE4CF8FEC97E0019783
:10060000F1F700C0000001501109EBCF80E00F901E
:100610000F90DF91CF911F910F91FF90EF90DF909E
:10062000CF900895CF92DF92EF92FF920F931F9396
:10063000CF93DF9300D0CDB7DEB77C018B01672B62
:1006400019F58FEF26C08FEC97E00197F1F700C006
:100650000000CA94CD28A9F3CC24C394D12CBE01A8
:100660006F5F7F4F8EEF94E00E949C0387FDEBCF7E
:100670000150110997012F5F3F4F8981F701808356
:100680000115110529F0790182E0C82ED12CE7CFA0
:1006900080E00F900F90DF91CF911F910F91FF900D
:1006A000EF90DF90CF9008951092C1000895FC0163
:1006B000A281B3819D012F5F3F4F8C919681915014
:1006C00019F49181291B31093383228396832FB733
:1006D000F8949081915090832FBF0895FC0110826F
:1006E000758364837383628341834783468308955C
:1006F000FC01908181819817B8F4A481B5819D0196
:100700002F5F3F4F6C938781815019F48181281BA3
:1007100031098783358324839FB7F89480818F5F65
:1007200080839FBF80E008958FEF0895FC012081B2
:100730002223E1F30C945703CF93DF93FC01208134
:10074000222331F0EB010E945703888380E001C02F
:100750008FEFDF91CF910895680F791FFC012191F0
:10076000CF0130E0E8E0DA01A227B327569547959C
:10077000A0FF04C0F8E04F27F4E85F2736952795DF
:10078000E15089F76817790749F7CA018095909574
:100790009827892798270895CF93DF9300D0CDB766
:1007A000DEB79827892798270F900F90DF91CF9178
:1007B0000895CF93DF9300D000D0CDB7DEB70E946D
:1007C000830C0F900F900F900F90DF91CF910895B1
:1007D0000F931F93CF93DF931F92CDB7DEB78C019A
:1007E0008AE189834FEF5FEF61E070E0CE0101960F
:1007F0000E94AC03AC0166E070E0C8010E94AC034B
:10080000F801648175816115710529F0AC0186815B
:1008100097810E94AC030F90DF91CF911F910F91B0
:10082000089590EE980F9F3508F08EE20895EF92AC
:10083000FF920F931F93CF93DF931F92CDB7DEB735
:100840008C017C01E60EF71E0E151F05C9F061E054
:1008500070E0CE0101960E94CC0287FF02C08FEFAC
:1008600010C08981F80181938F018A3169F761E0B5
:1008700070E0CE0101960E94CC0287FDF0CFE4CF5C
:1008800080E00F90DF91CF911F910F91FF90EF903B
:1008900008956F927F928F929F92AF92BF92CF9264
:1008A000DF92EF92FF920F931F93CF93DF931F92EC
:1008B000CDB7DEB7B82EA92E4B018AE18983EB2C88
:1008C000F92E612C712C00E010E0C70101966C013B
:1008D0000815190540F4F70180818A3121F00F5F76
:1008E0001F4F7601F2CFB801661977098B2D9A2D2B
:1008F0000E949902BC2CAD2CF70180818A3179F4D9
:1009000061E070E0CE0101960E94990261E070E022
:10091000CE0101960E9499020F5F1F4F3801081502
:100920001905F8F280E00F90DF91CF911F910F91A0
:10093000FF90EF90DF90CF90BF90AF909F908F90FF
:100940007F906F900895EF92FF920F931F93CF9334
:10095000DF93CDB7DEB72A970FB6F894DEBF0FBE90
:10096000CDBF8C017B0161E070E0CE010A960E9450
:10097000CC0287FF02C08FEF86C061E070E0CE013D
:1009800009960E94CC0287FDF6CF8A858A3159F7F5
:1009900029852A3141F3F8012193CF0165E070E008
:1009A0000E94170487FD6FC0F801648175817C8304
:1009B0006B8376276727762775836483828193818B
:1009C0009E838D8398278927982793838283E616B1
:1009D000F70608F455C02181213021F490931603C5
:1009E000809315036115710549F462E070E0CE0152
:1009F00007960E94170487FF09C045C0F801868149
:100A000097810E94170487FFF0CF3DC0EF80F884E4
:100A1000FA82E982FE24EF24FE24F801F186E086C2
:100A2000C8010E94E8038E159F0561F580E08530BE
:100A3000E1F0A82FB0E09D01220F331FA20FB31FDA
:100A4000AF5EBE4F11964D915C91129741155105C5
:100A500051F0F80120819C91291305C08A87C801B3
:100A6000FA01099502C08F5FE2CF80911B0390913C
:100A70001C03019690931C0380931B0380E003C02A
:100A80008CEF01C08BEF2A960FB6F894DEBF0FBE35
:100A9000CDBFDF91CF911F910F91FF90EF900895FF
:100AA000CF92DF92FF920F931F93CF93DF938C012E
:100AB000D62FF42E69011092C502C0E0B601C8011C
:100AC0000E94A3048F3F04F1CA304CF581111AC073
:100AD000F8019081903491F381818430C1F0D92361
:100AE000C1F08F1118C0F2E0FF1217C0F801228187
:100AF000338180911703909118032817390769F003
:100B00008DEF0EC0CF5FDACFCA3054F008C08AEF45
:100B100007C089EF05C088EF03C080E001C08FEFF8
:100B2000DF91CF911F910F91FF90DF90CF900895AB
:100B3000CF92DF92EF92FF920F931F93CF93DF93A9
:100B4000CDB7DEB763970FB6F894DEBF0FBECDBF4B
:100B50007A01690189836A83623029F4009115035F
:100B60001091160304C000911B0310911C031C83F9
:100B70000B83613021F41093180300931703FE8256
:100B8000ED82D886CF82CE0101960E94E8039C8731
:100B90008B879827892798279A8B898B1E870D87A3
:100BA0001027012710271C830B83F88AEF869E2DC0
:100BB0008F2D9E838D838AE18B8B61E070E0CE0167
:100BC00043960E94990266E070E0CE0101960E9471
:100BD0004904E114F10421F0B701C6010E9449045F
:100BE00062E070E0CE0141960E94490480911903B1
:100BF00090911A03019690931A03809319036396B8
:100C00000FB6F894DEBF0FBECDBFDF91CF911F911D
:100C10000F91FF90EF90DF90CF900895CF93DF93E7
:100C2000CDB7DEB7EC970FB6F894DEBF0FBECDBFE1
:100C30009E012F5B3F4FF901419151919F016CE360
:100C400070E0CE0101960E94050EEC960FB6F89466
:100C5000DEBF0FBECDBFDF91CF910895982FE1E1A8
:100C6000F1E08FEF2081291303C07283618380E05C
:100C7000339621E0E032F207A9F70895CF93DF938E
:100C8000EC0183E592E00E94D50D88811F928F933D
:100C90008EE692E09F938F930E94BF0D89811F92F1
:100CA0008F938CE792E09F938F930E94BF0D8B816F
:100CB0008F938A818F938AE892E09F938F930E940B
:100CC000BF0D8D818F938C818F9384E992E09F93E8
:100CD0008F930E94BF0D89858F9388858F938EE9AE
:100CE00092E09F938F930E94BF0D8DB79EB744965D
:100CF0000FB6F8949EBF0FBE8DBF8881803471F40B
:100D00008F818F938E818F938CEA92E09F938F9344
:100D10000E94BF0D0F900F900F900F90DF91CF9119
:100D2000089520E030E040E050E062E081E00C9483
:100D3000980520E030E040E050E062E080E10C9473
:100D400098051F920F920FB60F9211242F933F9385
:100D50008F939F93EF93FF9380914B0381111BC05F
:100D600080914A038B3070F480914A03833050F0B5
:100D700080912403869580932403189B03C0806888
:100D8000809324038091690081608093690081E0F1
:100D900080934B032FC0809169008E7F8093690000
:100DA00010924B0380914A03815080934A038091B3
:100DB0004A0381111FC080912403E0914803F09100
:100DC00049039F012F5F3F4F30934903209348030E
:100DD0008083809145038F5F809345032554334082
:100DE00030F085E293E090934903809348038BE0D1
:100DF00080934A03FF91EF919F918F913F912F91A3
:100E00000F900FBE0F901F90189585E293E090937E
:100E100047038093460390934903809348031092BD
:100E200045030895E89AE9E6F0E0808182608083D6
:100E300080818E7F80830E94050710924B038BE098
:100E400080934A030895809145038823E1F3E0915C
:100E50004603F09147039F012F5F3F4F30934703B5
:100E60002093460380812554334030F025E233E05F
:100E700030934703209346039091450391509093FC
:100E80004503089595B591117DC0E898209A529A2E
:100E9000289A5A9A5A98EFEEF0E03197F1F700C08D
:100EA00000002898F5E3FA95F1F70000529825E83C
:100EB0002A95F1F7000016BC95E095BD30E090E072
:100EC00041E04A9B03C025B52111FBCF25B5222364
:100ED00081F1983068F4582F517025B180FF02C01D
:100EE000216001C02E7F25B951113427869526C077
:100EF000983041F425B130FD02C0216001C02E7F41
:100F000025B91CC0209852989A30C1F4189B03C090
:100F100085B58111FBCF95B5189B05C04A9B03C0D1
:100F200085B58111F9CF85B5882319F081E091113C
:100F30000FC080E00DC025B5222311F04A9BFBCFE6
:100F400025B52223B1F39F5F9B3008F4BACFF1CFD0
:100F50002098529891E09CBBE89A15BC882391F0A8
:100F60008FE798E3E1E081509040E040E1F700C076
:100F7000000080914503882329F00E94230791E017
:100F80008A3F09F090E0892F0895CF93C3E02FEFB7
:100F900080E792E0215080409040E1F700C00000DF
:100FA0008FEF0E944207882389F00E9423078A3A24
:100FB00069F482EF0E944207882341F00E942307D0
:100FC0008B3A21F40E94230781E003C0C150F9F657
:100FD00080E0CF910895DF92EF92FF920F931F93DD
:100FE000CF93DF93D1E018E2CAE20AE18BE2F82E58
:100FF00097E2E92E29E2D22E80914503882309F455
:10100000ABC00E942307803E19F4D0932303F4CF92
:1010100020912303803FA9F090E0FC01222319F0E6
:10102000EA54FE4F02C0EA5DFE4F808180932203A6
:10103000809122038F3F41F4C0932003D09222037A
:1010400005C0D093210385C01092200380911F0317
:10105000883321F080911E03882399F1D0931E03D9
:1010600010922003809122038B3021F140F48930CB
:10107000A9F0B8F4883019F5E09222031DC0803140
:1010800099F028F48C30D9F40093220315C08B31E9
:1010900071F08036A1F4F09222030EC0E092220398
:1010A00010C0109322030DC0009322030AC0F092D7
:1010B000220307C010932203C093200302C01092A2
:1010C0001E03809122038A33B9F480912103811198
:1010D00013C08DEE0E94420780911D03811102C052
:1010E00084E001C080E00E94420781E090911D03EE
:1010F000911180E080931D0390912103992329F0A1
:1011000080912203806880932203209122038091A2
:101110001F032817B9F080912003882321F0911133
:1011200002C00E948E02809122030E948E02809152
:101130002003882339F090912103992319F08068C6
:101140000E948E028091220380931F03109221033C
:1011500020E02093230350CFDF91CF911F910F9177
:10116000FF90EF90DF9008951F920F920FB60F92AD
:1011700011242F933F938F939F93EF93FF9380912D
:10118000730381111BC0809172038B3070F48091C6
:101190007203833050F080914C03869580934C030A
:1011A000199B03C0806880934C0380916900846020
:1011B0008093690081E0809373032FC08091690060
:1011C0008B7F80936900109273038091720381502A
:1011D000809372038091720381111FC080914C0330
:1011E000E0917003F09171039F012F5F3F4F3093A7
:1011F000710320937003808380916D038F5F8093D0
:101200006D032D56334030F08DE493E090937103DD
:10121000809370038BE080937203FF91EF919F9115
:101220008F913F912F910F900FBE0F901F901895A7
:101230008DE493E090936F0380936E03909371031A
:101240008093700310926D030895E99AE9E6F0E047
:1012500080818860808380818B7F80830E941809D1
:10126000109273038BE080937203089580916D0355
:101270008823E1F3E0916E03F0916F039F012F5FEC
:101280003F4F30936F0320936E0380812D56334080
:1012900030F02DE433E030936F0320936E03909190
:1012A0006D03915090936D0308959091B100911149
:1012B0008CC0E998299A5B9A219A539A5B98EFEE31
:1012C000F0E03197F1F700C000002998F5E3FA95B6
:1012D000F1F70000539825E82A95F1F700001092E5
:1012E000B20097E09093B10030E090E041E04B9B7A
:1012F00004C02091B1002111FACF2091B100222326
:10130000C1F1983068F4582F517025B180FF02C0A8
:10131000226001C02D7F25B95111342786952FC039
:10132000983041F425B130FD02C0226001C02D7F0C
:1013300025B925C021985398EAE1EA95F1F700C054
:101340009A30E9F4199B04C08091B1008111FACF61
:101350009091B100199B06C04B9B04C08091B100D5
:101360008111F8CF8091B100882319F081E09111AB
:1013700011C080E00FC02091B100222311F04B9BDF
:10138000FACF2091B1002223A1F39F5F9B3008F494
:10139000AECFEFCF2198539892E09CBBE99A109280
:1013A000B100882391F0FFE728E381E0F15020406D
:1013B0008040E1F700C0000080916D03882329F090
:1013C0000E94360991E08A3F09F090E0892F089544
:1013D000CF93C3E02FEF80E792E021508040904010
:1013E000E1F700C000008FEF0E945509882371F0DB
:1013F0008FE097E20197F1F700C000000E943609E4
:101400008A3A21F40E94360981E003C0C15011F7E5
:1014100080E0CF910895CF92DF92EF92FF921F93D9
:10142000CF93DF9300D000D0CDB7DEB7809101011C
:101430008F3FA9F1882311F014E001C013E08091DF
:101440006D03811760F1CE0101966C017C010E9451
:101450003609F70181937F018E2F8C198117B8F31C
:10146000E981E770E150E33028F4F0E0EA5BFD4FFA
:10147000808101C088EF0E948E028A810E948E02C4
:101480008B8181950F900F900F900F90DF91CF91EE
:101490001F91FF90EF90DF90CF900C948E020F90F1
:1014A0000F900F900F90DF91CF911F91FF90EF90D1
:1014B000DF90CF900895EEE6F0E080818160808338
:1014C000E0E7F0E080818160808315BC1092B1007C
:1014D00008951F920F920FB60F9211241092B1002F
:1014E0001092B2000F900FBE0F901F9018951F9290
:1014F0000F920FB60F92112415BC16BC0F900FBEA1
:101500000F901F90189587B18F7087B9239A2B9AE7
:101510002298089508952B9886B18095809375033D
:1015200090912001891781F18FEF0E948E02109215
:1015300074031A9B03C080E8809374038091750341
:1015400084FF05C09091740391609093740385FFAC
:1015500005C09091740392609093740386FF05C058
:101560009091740394609093740387FF05C08091F9
:101570007403886080937403809174030E948E02C8
:1015800080917503809320010895CF93DF93CDB7A9
:10159000DEB76E970FB6F894DEBF0FBECDBF86E7FD
:1015A00093E09C8F8B8F2FEF83ED90E32150804051
:1015B0009040E1F700C000000E94850085E89EE1B0
:1015C0000E944E0288EC90E00E94490278940F9AA3
:1015D000179A2FEF89E698E1215080409040E1F77B
:1015E00000C0000017982FEF83ED90E3215080405A
:1015F0009040E1F700C0000000E0712CCE010196A0
:101600006C0189E5682E93E0592E8091BB028823F6
:1016100011F04F9905C08091B802823009F072C074
:1016200060E071E0CE0145960E94A30481116AC07A
:101630008E89813009F066C019828D89843071F0FD
:1016400040F4823061F5B601CE0145960E94530107
:1016500026C0803189F0803279F021C01092B80222
:10166000259A279A6CBC8091C0029091C1020E9479
:10167000A1000E94C00013C05092B80241E0803225
:1016800009F040E0698D7A8D8B8D9C8D0E94D7008A
:101690008D89803221F42598279810E001C011E04F
:1016A0008981882361F0F60101900020E9F73197E4
:1016B000AF014C195D09960162E08D8908C08D89E2
:1016C000813039F420E030E040E050E062E00E94F8
:1016D0009805111117C09FEF21E18AE79150204032
:1016E0008040E1F700C0000080E00E94100198E017
:1016F00088E10FB6F894A895809360000FBE909390
:101700006000FFCF10E0812C912C89B199B194FB3E
:10171000EE24E0F8F12C85FBAA24A0F8B12C85FD7D
:1017200004C0E114F10409F4B3C09FE728E381E0A9
:10173000915020408040E1F700C00000AB2809F440
:1017400099C08114910409F082C081E00E941001C7
:10175000882309F4AFC09FE728E381E0915020403F
:101760008040E1F700C0000081E00E9444018FE06A
:1017700097E20197F1F700C0000080E00E94440169
:101780009FEF24E38CE0915020408040E1F700C0BF
:10179000000081E00E9435019FE728E381E091503D
:1017A00020408040E1F700C0000080E00E94350149
:1017B00085E89EE10E944E020E945B0A0E94830A15
:1017C0000E9412070E9425099FEF21EE84E09150AC
:1017D00020408040E1F700C0000071101EC00E9450
:1017E000E8098823D1F083EF0E94550984E60E941E
:1017F000550988EE0E94550982E00E94550982EF42
:101800000E9455090E9436098093010184EF0E94CD
:1018100055090E94180977247394011148C00E9449
:10182000C507882309F444C082EF0E9442070E9442
:1018300023078093000184EF0E94420783EF0E94F8
:10184000420780E00E9442070E94050730C0111144
:1018500004C081E00E94350110E098E289169104ED
:1018600018F080E00E9410012FEF821A920AEF28F0
:1018700021F105C080E00E943501EF2831F081E0C0
:101880000E9444011092B80240CF80E00E944401BF
:1018900080E00E94440180E00E94350171100E94A6
:1018A0000B0A01110E94EB070E948B0AAECE01E0E9
:1018B00011E0DACF1111D8CFCCCF80E00E944401E3
:1018C00024CFA1E21A2EAA1BBB1BFD010DC0AA1F2B
:1018D000BB1FEE1FFF1FA217B307E407F50720F099
:1018E000A21BB30BE40BF50B661F771F881F991F14
:1018F0001A9469F760957095809590959B01AC015D
:10190000BD01CF0108956927962769277827872782
:1019100078270895A0E0B0E0E0E9FCE00C94E11045
:101920005C016B017A016115710519F0FB0191836E
:101930008083E114F10429F0C7010297839708F02E
:10194000E5C0E5012196F5011081812F90E00E940C
:10195000A00D892B11F05E01F4CF1D3229F42196E0
:10196000F501118101E007C01B3221F4E501229647
:10197000F501118100E0E114F10409F1F0E1EF1645
:10198000F10429F43FC010E3E114F10421F128E04F
:10199000E216F10401F154F4E2E0EE16F10421F54F
:1019A000812C912CA12CB0E4BB2E3EC0FAE0EF16A6
:1019B000F10439F020E1E216F104B1F430C0103343
:1019C00019F1FAE0EF2EF12CACEC8A2E982CA82C11
:1019D000ACE0BA2E29C078E0E72EF12C812C912CB6
:1019E000A12CE0E1BE2E20C060E070E080E090E835
:1019F00097010F2C000C440B550B0E94610C490100
:101A00005A0112C0103359F488818F7D883509F04E
:101A1000BACF19812296026080E1E82EF12C812C48
:101A2000912CA12C68E0B62E40E060E070E0CB0184
:101A300027010F2C000C66087708FE0150ED352EAB
:101A4000310E29E0231570F42FEB210F2A3118F401
:101A500039EC332E06C02FE9210F2A3118F529EA77
:101A6000322E310E232D30E02E153F05DCF447FDDC
:101A700016C086169706A806B90670F0A301920153
:101A80000E94C510630D711D811D911D613071058E
:101A9000810520E8920710F04FEF01C041E0219648
:101AA0001081CBCF202F2170C114D10471F04423B9
:101AB00029F02197F601D183C08307C001FF19C027
:101AC0002297F601D183C08314C047FF12C022239E
:101AD00029F060E070E080E090E804C06FEF7FEFF5
:101AE0008FEF9FE722E230E0309387052093860551
:101AF00009C0222381F090958095709561957F4F64
:101B00008F4F9F4F462F372F282F12C040E030E0D5
:101B100020E090E00DC097FFF5CF82E290E0909337
:101B20008705809386056FEF7FEF8FEF9FE7EACF02
:101B3000642F732F822FCDB7DEB7E1E10C94FD1037
:101B400091110C941210803219F089508550C8F709
:101B50000895FB01DC0101900D920020E1F708954A
:101B6000FB01DC014150504048F001900D920020F3
:101B7000C9F701C01D9241505040E0F70895A0E020
:101B8000B0E0E5ECFDE00C94F010AE014B5F5F4F70
:101B9000FA0161917191AF0180918A0590918B0555
:101BA0000E94310EE2E00C940C110F931F93CF931F
:101BB000DF93E0918A05F0918B05238121FF1BC003
:101BC0008C01D0E0C0E0F80181918F0160918A051D
:101BD00070918B05DB011896ED91FC911997882384
:101BE00031F00995892B79F3DFEFCFEFECCF8AE065
:101BF0000995892B19F08FEF9FEF02C08D2F9C2F35
:101C0000DF91CF911F910F910895AEE0B0E0EBE02E
:101C1000FEE00C94EE108C01FA0186E08C831A83AE
:101C2000098377FF02C060E070E8CB0101979E83D3
:101C30008D83A901BF01CE0101960E94310E4D8115
:101C40005E8157FD0AC02F813885421753070CF477
:101C50009A01F801E20FF31F10822E96E4E00C9433
:101C60000A11ABE0B0E0E7E3FEE00C94E0106C0199
:101C70007B018A01FC0117821682838181FFCCC11E
:101C8000CE0101963C01F6019381F70193FD859108
:101C900093FF81917F01882309F4BAC1853239F419
:101CA00093FD859193FF81917F01853229F4B601DF
:101CB00090E00E942B10E7CF912C212C312CFFE1DA
:101CC000F315D8F08B3279F038F4803279F0833222
:101CD000A1F4232D20611DC08D3261F0803369F4A1
:101CE000232D216016C0832D8260382EE32DE46001
:101CF0003E2E2AC0F32DF8601DC037FC2DC020ED0C
:101D0000280F2A3040F08E32B9F436FC81C1232DE1
:101D10002064322E19C036FE06C08AE0989E200D3F
:101D20001124922E11C0EAE02E9E200D1124222EA5
:101D3000F32DF0623F2E08C08C3621F4832D80688D
:101D4000382E02C0883641F4F70193FD859193FF48
:101D500081917F018111B3CF982F9F7D955493304E
:101D600028F40C5F1F4F9FE399830DC0833631F039
:101D7000833771F0833509F059C021C0F8018081A3
:101D800089830E5F1F4F88248394912C530113C0C5
:101D90002801F2E04F0E511CF801A080B18036FE00
:101DA00003C0692D70E002C06FEF7FEFC5010E9494
:101DB00020104C018201F32DFF773F2E16C0280121
:101DC00022E0420E511CF801A080B18036FE03C013
:101DD000692D70E002C06FEF7FEFC5010E94151002
:101DE0004C01F32DF0683F2E820133FC1BC0822D85
:101DF00090E088169906B0F4B60180E290E00E9467
:101E00002B102A94F4CFF50137FC859137FE819190
:101E10005F01B60190E00E942B1021102A9421E06E
:101E2000821A91088114910471F7E8C0843611F088
:101E3000893641F5F80137FE07C0608171818281E2
:101E400093810C5F1F4F08C060817181072E000CC9
:101E5000880B990B0E5F1F4FF32DFF763F2E97FFD8
:101E600009C090958095709561957F4F8F4F9F4FDA
:101E7000F0683F2E2AE030E0A3010E946710882E10
:101E8000861845C0853731F4232D2F7EB22E2AE0E7
:101E900030E025C0932D997FB92E8F36C1F018F40C
:101EA000883579F0B5C0803719F0883721F0B0C097
:101EB000E92FE061BE2EB4FE0DC0FB2DF460BF2EF5
:101EC00009C034FE0AC0292F2660B22E06C028E0C1
:101ED00030E005C020E130E002C020E132E0F8014E
:101EE000B7FE07C060817181828193810C5F1F4FB3
:101EF00006C06081718180E090E00E5F1F4FA301FA
:101F00000E946710882E8618FB2DFF773F2E36FE25
:101F10000DC0232D2E7FA22E891458F434FE0BC041
:101F200032FC09C0832D8E7EA82E05C0B82CA32CB0
:101F300003C0B82C01C0B92CA4FE0FC0FE01E80DEF
:101F4000F11D8081803321F49A2D997EA92E09C03C
:101F5000A2FE06C0B394B39404C08A2D867809F01B
:101F6000B394A3FC11C0A0FE06C0B21488F4280CE0
:101F7000922C9B180EC0B21460F4B60180E290E07F
:101F80000E942B10B394F7CFB21418F42B1802C090
:101F9000982C212CA4FE10C0B60180E390E00E9492
:101FA0002B10A2FE17C0A1FC03C088E790E002C07E
:101FB00088E590E0B6010CC08A2D867859F0A1FE24
:101FC00002C08BE201C080E2A7FC8DE2B60190E086
:101FD0000E942B10891438F4B60180E390E00E942F
:101FE0002B109A94F7CF8A94F301E80DF11D8081AC
:101FF000B60190E00E942B108110F5CF222009F449
:1020000042CEB60180E290E00E942B102A94F6CFD7
:10201000F6018681978102C08FEF9FEF2B96E2E158
:102020000C94FC10992788270895FC0105906150B5
:1020300070400110D8F7809590958E0F9F1F0895DE
:10204000FC016150704001900110D8F78095909587
:102050008E0F9F1F08950F931F93CF93DF93FB0164
:10206000238121FD03C08FEF9FEF2CC022FF16C0FC
:1020700046815781248135814217530744F4A0815A
:10208000B1819D012F5F3F4F318320838C93268147
:1020900037812F5F3F4F3783268314C08B01EC01BC
:1020A000FB010084F185E02D0995892BE1F6D8012B
:1020B00016968D919C911797019617969C938E93E7
:1020C0001697CE01DF91CF911F910F910895FA01DC
:1020D000AA27283051F1203181F1E8946F936E7F67
:1020E0006E5F7F4F8F4F9F4FAF4FB1E03ED0B4E058
:1020F0003CD0670F781F891F9A1FA11D680F791F99
:102100008A1F911DA11D6A0F711D811D911DA11DA9
:1021100020D009F468943F912AE0269F11243019B9
:10212000305D3193DEF6CF010895462F4770405D54
:102130004193B3E00FD0C9F7F6CF462F4F70405D03
:102140004A3318F0495D31FD4052419302D0A9F75E
:10215000EACFB4E0A6959795879577956795BA9558
:10216000C9F700976105710508959B01AC010A2E1E
:1021700006945795479537952795BA95C9F7620FF5
:10218000731F841F951FA01D0895DB018F939F93DC
:102190000E94D510BF91AF91A29F800D911DA39F6A
:1021A000900DB29F900D112408950E941711A59FC4
:1021B000900DB49F900DA49F800D911D1124089542
:1021C0002F923F924F925F926F927F928F929F9247
:1021D000AF92BF92CF92DF92EF92FF920F931F9335
:1021E000CF93DF93CDB7DEB7CA1BDB0B0FB6F894E6
:1021F000DEBF0FBECDBF09942A88398848885F8426
:102200006E847D848C849B84AA84B984C884DF8096
:10221000EE80FD800C811B81AA81B981CE0FD11D7A
:102220000FB6F894DEBF0FBECDBFED010895A29F9B
:10223000B001B39FC001A39F700D811D1124911D9A
:10224000B29F700D811D1124911D0895F894FFCF48
:10225000FFFF230000000200000000B801000000A2
:10226000000100000400000800000200004000001F
:10227000FF302E320A000043003F3D3B3C47004404
:1022800042403E0FFF0000382A001D1002000000EF
:102290002C1F1E110300002E2D20120504000039F2
:1022A0002F211413060000313023221507000000EF
:1022B00032241608090000332517180B0A000034D1
:1022C000352627190C00000028001A0D00003A36A8
:1022D0001C1B002900000060000000000E00006DC3
:1022E000006A6700000070716E6B6C680100004E40
:1022F0006F4A666900000000004100000100000014
:1023000000000000000000000000000000000000CD
:102310000000000000000038630000000000000022
:1023200000000000006200000000000000006100EA
:10233000000000000000000000000000000000009D
:10234000000000000000000000000000000000008D
:102350006500000000000000000000000000000018
:1023600072000000000000000000000000000000FB
:10237000004B00000000525350004D480000000088
:10238000000000000000000000000000000000004D
:10239000000000000000FAF9FB5772005777004177
:1023A000004D002D2D7265637627642061207661D3
:1023B0006C696420636F6D6D616E642D2D00636DBB
:1023C000643A20203078253032780A0074797065BC
:1023D0003A203078253032780A0069643A2020208B
:1023E00025640A0073697A653A2025640A006372DD
:1023F000633A20203078253032780A007374723ABC
:082400002020272573270A00A4
:00000001FF
