:100000000C941B070C9443070C9443070C94430770
:100010000C9443070C9443070C9443070C94B63D8F
:100020000C9443070C9443070C9443070C944D44E1
:100030000C9443070C9402080C9443070C94430758
:100040000C9443070C9443070C945B440C944307B3
:100050000C949A080C9443070C9443070C944307A0
:100060000C9443070C9443070C9443070C944307E8
:100070006E616E00696E660000407A10F35A00A04F
:10008000724E18090010A5D4E80000E87648170061
:1000900000E40B54020000CA9A3B000000E1F505A1
:1000A000000080969800000040420F000000A086EB
:1000B00001000000102700000000E803000000001D
:1000C0006400000000000A000000000001000000C1
:1000D00000002C76D888DC674F0823DFC1DFAE59DB
:1000E000E1B1B796E5E3E453C63AE651997696E86E
:1000F000E6C28426EB898C9B62ED407C6FFCEFBCF2
:100100009C9F40F2BAA56FA5F490055A2AF75C931C
:100110006B6CF9676DC11BFCE0E40D47FEF520E652
:10012000B500D0ED902E0300943577050080841E35
:10013000080000204E0A000000C80C333333330F90
:10014000986E12831141EF8D2114893BE65516CF2D
:10015000FEE6DB18D1844B381BF77C1D901DA4BB39
:10016000E424203284725E228100C9F124ECA1E5EE
:100170003D276364696E6F70737578585B000D0A74
:100180000074696D656F7574202E2E2E20465047C1
:1001900041206C6F6164206661696C65640D0A00C2
:1001A0007761697420636F6E66202E2E2E0D0A0013
:1001B0000D0A002E0A0D002072657300636F7265D0
:1001C00020726573657420000D0A002E0A0D002050
:1001D00072657300726573657420002063302000BF
:1001E0002063312000207230200020723120002E48
:1001F0002E2E0020726573002E2E2E002072657345
:10020000002E2E2E0020726573002E2E2E002063ED
:10021000726573002E2E2E002063726573002E2EE1
:100220002E0020726573006D6D635F696E697420C6
:100230004572726F72004361726454797065203A3E
:10024000002A2A204E6F205368656C6C206163740D
:10025000697665202A2A0D0A002A2A2070726573A1
:1002600073202320746F2061637469766174652044
:100270007368656C6C202A2A0D0A002A2A20496EB0
:10028000697420646F6E65202A2A0D0A0052617716
:1002900020566F6C746167653A20002A2A20506FDF
:1002A000776572206F6E20646F6E65202A2A0D0AB2
:1002B000002A2A20506F77657220696E6974206465
:1002C0006F6E652028706F776572206F66662920D3
:1002D0002A2A0D0A002A2A20554152542D496E69B6
:1002E0007420646F6E65202A2A0D0A0041004200C6
:1002F00043004400450046004700480049004A00CA
:100300004B004C004D004E004F0050005100520079
:1003100053005400550056005700580059005A0029
:100320002100E0FFE1FFE5FFE2FFE3FFC000C100C5
:10033000C200C300C400C500C600C700C800C90091
:10034000CA00CB00CC00CD00CE00CF00D000D10041
:10035000D200D300D400D500D600D800D900DA00EE
:10036000DB00DC00DD00DE00780100010201040199
:10037000060108010A010C010E011001120114010D
:10038000160118011A011C011E012001220124017D
:10039000260128012A012C012E01300132013401ED
:1003A000360139013B013D013F0141014301450156
:1003B00047014A014C014E015001520154015601BE
:1003C00058015A015C015E0160016201640166012D
:1003D00068016A016C016E0170017201740176019D
:1003E00079017B017D0191019103920393039403B1
:1003F000950396039703980399039A039B039C0321
:100400009D039E039F03A003A103A303A403A503CD
:10041000A603A703A803A903AA0310041104120446
:1004200013041404150416041704180419041A04F8
:100430001B041C041D041E041F04200421042204A8
:1004400023042404250426042704280429042A0458
:100450002B042C042D042E042F0401040204030495
:100460000404050406040704080409040A040B0430
:100470000C040E040F0460216121622163216421B8
:10048000652166216721682169216A216B216C2120
:100490006D216E216F2121FF22FF23FF24FF25FF05
:1004A00026FF27FF28FF29FF2AFF2BFF2CFF2DFF08
:1004B0002EFF2FFF30FF31FF32FF33FF34FF35FFB8
:1004C00036FF37FF38FF39FF3AFF00006100620056
:1004D00063006400650066006700680069006A00E8
:1004E0006B006C006D006E006F0070007100720098
:1004F00073007400750076007700780079007A0048
:10050000A100A200A300A500AC00AF00E000E10044
:10051000E200E300E400E500E600E700E800E900AF
:10052000EA00EB00EC00ED00EE00EF00F000F1005F
:10053000F200F300F400F500F600F800F900FA000C
:10054000FB00FC00FD00FE00FF00010103010501AE
:10055000070109010B010D010F0111011301150123
:10056000170119011B011D011F0121012301250193
:10057000270129012B012D012F0131013301350103
:1005800037013A013C013E0140014201440146016C
:1005900048014B014D014F015101530155015701D4
:1005A00059015B015D015F01610163016501670143
:1005B00069016B016D016F017101730175017701B3
:1005C0007A017C017E019201B103B203B303B4034B
:1005D000B503B603B703B803B903BA03BB03BC033F
:1005E000BD03BE03BF03C003C103C303C403C503EC
:1005F000C603C703C803C903CA0330043104320465
:1006000033043404350436043704380439043A0416
:100610003B043C043D043E043F04400441044204C6
:1006200043044404450446044704480449044A0476
:100630004B044C044D044E044F0451045204530423
:100640005404550456045704580459045A045B04CE
:100650005C045E045F047021712172217321742196
:10066000752176217721782179217A217B217C21BE
:100670007D217E217F2141FF42FF43FF44FF45FF53
:1006800046FF47FF48FF49FF4AFF4BFF4CFF4DFF26
:100690004EFF4FFF50FF51FF52FF53FF54FF55FFD6
:1006A00056FF57FF58FF59FF5AFF0000C700FC00D4
:1006B000E900E200E400E000E500E700EA00EB000A
:1006C000E800EF00EE00EC00C400C500C900E60041
:1006D000C600F400F600F200FB00F900FF00D600AF
:1006E000DC00F800A300D800D7009201E100ED0083
:1006F000F300FA00F100D100AA00BA00BF00AE007A
:10070000AC00BD00BC00A100AB00BB009125922550
:10071000932502252425C100C200C000A90063253D
:10072000512557255025A200A50010251425342554
:100730002C251C2500253C25E300C3005A25542503
:1007400069256625602550256C25A400F000D000A1
:10075000CA00CB00C800AC20CD00CE00CF001825C9
:100760000C2588258425C600CC008025D300DF0019
:10077000D400D200F500D500B500FE00DE00DA009E
:10078000DB00D900FD00DD00AF00B400AD00B1001A
:100790001720BE00B600A700F700B800B000A80000
:1007A000B700B900B300B200A025A00020666C61BC
:1007B000736865642E0A0D0046696C65200020642C
:1007C0006F6E65202E2E2E0A0D00204B420D004626
:1007D0002D77726974696E672020307800646F6EBF
:1007E000650A0D00464C6173683A20657261736951
:1007F0006E67202E2E2E20004572726F723A2055A1
:100800006E61626C6520746F20726561643A2000CD
:10081000200020637265617465642E0A0D004669CC
:100820006C6520000A0D646F6E65202E2E2E0A0D59
:1008300000204B420D00462D72656164696E672091
:10084000203078004572726F723A20556E61626C8A
:100850006520746F206372656174653A2000200022
:10086000200030003100203A200041532D537461A4
:100870007475733A200020427974650053697A6573
:100880003A203078002A2A20756E6B6E6F776E20C2
:100890002A2A0045504353363400455043535133C0
:1008A00032004550435331360045504353340045E0
:1008B0005043533100200053696C69636F6E2D49BA
:1008C000443A2000466978656420506172616D6524
:1008D0007465723A206C656E2C207573696E6720A2
:1008E0006C656E3D20003E003C004572726F723AAE
:1008F00020556E61626C6520746F206F70656E3A72
:1009000020002D2D2D2D2D2D2D2D2D2D2D2D0A0D94
:1009100000202D2D20002A2A2059482D46504741DD
:100920002D5368656C6C202A2A0D0A00434D443A09
:10093000206361740D0A00434D443A206865780DC8
:100940000A00202A2000202A2000506172616D6573
:100950007465723A2000202A2000506172616D6532
:100960007465723A2000506172616D657465723A07
:100970002000202D2D20006D697373696E67207033
:100980006172616D657465723A2000200050617279
:10099000616D657465723A20002000436F6D6D6172
:1009A0006E643A200000250C482D1B0C00150C45E8
:1009B0002D080C00030C3739F70B01F10B8D2DDDE1
:1009C0000B01D70BB92DC70B01C00B2E38B20B0092
:1009D000AF0B082E990B01950B3A2E8B0B01870B51
:1009E0000B2E7A0B01770B2230680B01640B3C0C49
:1009F000550B01500B820C3C0B01340B842C230B48
:100A0000011A0BBB2CFB0A00F20AC12CE10A00D927
:100A10000AC83CC90A03C20A2F3BA90A02A10A0359
:100A20003C890A02820A533A700A006C0AE13C626D
:100A30000A000000000000000000000000000000AC
:100A400000000000000000000000000000000000A6
:100A50000000000000000000000000000000000096
:100A60000000726573657420707332007073320019
:100A7000662D64756D70206F6666736574206C6595
:100A80006E00662D64756D7000662D7772697465F1
:100A9000206F66667365742066726F6D66696C653B
:100AA00000662D777269746500662D726561642039
:100AB0006F6666736574206C656E20746F66696C12
:100AC0006500662D7265616400657261736520540E
:100AD0004F532D466C61736800662D6572617365B6
:100AE00000436F6E666967466C61736820496E6685
:100AF0006F0061732D67657469640077726974654E
:100B0000202E7262662066696C6520746F20436FC8
:100B10006E666967466C6173680061732D777269F0
:100B20007465007265616420436F6E666967466C28
:100B30006173680061732D7265616400637265732F
:100B400020636F726572657365746C6576656C00A1
:100B500063726573007265732072657365746C658A
:100B600076656C00726573006578656320626174F8
:100B7000636866696C6500646F0068657864756DAC
:100B8000702066696C65006865780073686F77200F
:100B900066696C6500636174006C6973742053440A
:100BA00043617264204469726563746F7279006C8A
:100BB000730070757A7A6C6520726F756E6473005D
:100BC00070757A7A6C6500776169742064656C74FD
:100BD000696D65206D730064656C617900656E6197
:100BE000626C652044656275672054726163657349
:100BF0000074726163650053797374656D20496E8A
:100C0000666F00696E666F006D6F756E7420534479
:100C1000436172640072657365740074686973205F
:100C2000546578740068656C7000667067612D7338
:100C300068656C6C3A3E20004572726F723A200013
:100C40000A0D4156522D526573746172740D0A007B
:100C500059482D667067612D7368656C6C3A3E204B
:100C6000002A2A2A205375736B612D4949492D4268
:100C700020465047412D5368656C6C202A2A2A0D66
:100C80000A00465047412044656661756C742069CE
:100C90006E69742D46696C652028696E69742E74BE
:100CA000787429206661696C65640D0A002066729B
:100CB00065733D004572726F723A20556E61626CC9
:100CC0006520746F206F70656E3A20002000203A16
:100CD00020004572726F723A20556E61626C652019
:100CE000746F206F70656E3A2000204B420D0054E7
:100CF000462D77726974696E672020307800204B2A
:100D0000420D0054462D72656164696E6720203083
:100D10007800465047412D56657273696F6E3A20D0
:100D200000292000556E6B6E6F776E20436F7265E1
:100D3000004D756C7469636F6D70205A3830004FC8
:100D40006C6420436F726520776974686F757420D6
:100D50007479706500756E6B6E6F776E00415652D8
:100D60000054657374436F72652000756E6B6E6F0F
:100D7000776E00537061636520496E7661646572B9
:100D80007300417263616465200020535445200064
:100D90005375736B612D4949492D4200202800206D
:100DA00000465047412D436F7265747970653A2053
:100DB0000041544D4547412D56657273696F6E3A37
:100DC0002000496E70757420566F6C746167653AC7
:100DD000200072617720496E70757420566F6C74B4
:100DE0006167653A2000756E6B6E6F776E005746CF
:100DF00036384B303000574636384B313000574686
:100E000036384B333000574636384B33304C004D74
:100E10006F7573653A20004B6579626F6172643A51
:100E20002000436865636B20505332204465766927
:100E30006365730A0D0011241FBECFEFD0E1DEBF42
:100E4000CDBFF894A89584B7877F84BFE0E6F0E033
:100E5000808188618083108215E0A0E0B1E0E8E540
:100E6000F2EA02C005900D92A835B107D9F72AE041
:100E7000A8E5B5E001C01D92A934B207E1F70E94D0
:100E80002C480C942A510C9400009093590580939F
:100E90005805F8941092800028E02093810081305A
:100EA000910531F18436910509F440C0883E9340A4
:100EB00009F45AC0809181008560809381008DE49F
:100EC00090E090938900809388008AE090E0A0E011
:100ED000B0E08093620590936305A0936405B0939E
:100EE000650580916F00826080936F00789408950B
:100EF000809181008460809381008EE190E09093E6
:100F000089008093880081E090E0A0E0B0E08093C9
:100F1000620590936305A0936405B0936505809185
:100F20006F00826080936F007894089580918100B3
:100F30008560809381008EE093E090938900809398
:100F4000880084E690E0A0E0B0E080936205909392
:100F50006305A0936405B093650580916F0082607E
:100F600080936F00789408958091810085608093CC
:100F7000810083E89EE1909389008093880088EE49
:100F800093E0A0E0B0E08093620590936305A093A6
:100F90006405B093650580916F00826080936F0057
:100FA00078940895CF92DF92EF92FF92C0905E0501
:100FB000D0905F05E0906005F0906105209162059A
:100FC0003091630540916405509165050E940C4B7A
:100FD000BA01A9014C0D5D1D6E1D7F1D80915E053E
:100FE00090915F05A0916005B09161058417950708
:100FF000A607B70798F3FF90EF90DF90CF90089582
:101000000C94D2071F920F920FB60F9211248F9358
:101010009F93AF93BF9380915E0590915F05A091E0
:101020006005B09161050196A11DB11D80935E051B
:1010300090935F05A0936005B093610580915A0578
:1010400090915B05A0915C05B0915D05892B8A2B81
:101050008B2B99F080915A0590915B05A0915C05CE
:10106000B0915D050197A109B10980935A0590934C
:101070005B05A0935C05B0935D05BF91AF919F9117
:101080008F910F900FBE0F901F90189540915A05A9
:1010900050915B0560915C0570915D0581E0452B89
:1010A000462B472B09F080E0089560935A05709312
:1010B0005B0580935C0590935D050895209158052C
:1010C000309159052115310539F040E050E00E947A
:1010D0000C4BCA01B901089560E070E0CB0108959E
:1010E0001092C5008093C40086E08093C20088E11E
:1010F0008093C10008959093C5008093C400089523
:101100009FB7F8948091C10080688093C10080915E
:10111000C6008091C00087FDFACF80EC8093C000AC
:101120009FBF42E362E376E084E696E00E94F20924
:10113000789408951F920F920FB60F9211242F9357
:101140003F934F938F939F93EF93FF934091C600EC
:1011500090916406809165069817D0F4E091680636
:10116000F09169069F012F5F3F4F408380916B068E
:101170008150D1F080936B06309369062093680606
:101180009FB7F894809164068F5F809364069FBF39
:10119000FF91EF919F918F914F913F912F910F90E0
:1011A0000FBE0F901F90189580916506281B31097E
:1011B000E1CF84E696E00C94160A84E696E00C945F
:1011C000FC099091C00095FFFCCF8093C600089564
:1011D000CF93C82F8A3039F08C2F0E94E10880E02D
:1011E00090E0CF9108958DE00E94E1088C2F0E943D
:1011F000E10880E090E0CF910895CF93DF93EC0178
:10120000FC018491882339F00E94E1082196FE01B7
:1012100084918111F9CFDF91CF910895CF93DF931E
:10122000EC018881882331F021960E94E1088991A0
:101230008111FBCFDF91CF9108958A3018F4805D42
:101240000C94E108895C0C94E108CF93C82F829537
:101250008F700E941D098C2F8F70CF910C941D09E7
:10126000CF93C82F892F0E9425098C2FCF910C94E2
:101270002509CF92DF92EF92FF926B017C01C701AB
:101280000E943009C601FF90EF90DF90CF900C9440
:101290003009CF93C82F8436B0F08CE98C0F843698
:1012A000A0F0C85C82E30E94E10880E3CA3020F02D
:1012B0008F5FCA50CA30E0F70E94E10880E38C0FCC
:1012C000CF910C94E10880E3EECFC82F81E3EBCF00
:1012D0008EE791E00C94FD08EF92FF920F931F931D
:1012E000CF93DF937C01D62FC0E000E010E008C070
:1012F000CF5F0C2F10E0F701E00FF11FCD17F0F4D6
:1013000084E696E00E94160AF701E00FF11F8F3F76
:101310002FEF920799F080838D3081F08A3071F041
:10132000883031F7CC2399F01082C1500C2F10E097
:10133000F801EE0DFF1D1082CD1710F310828C2FD7
:10134000DF91CF911F910F91FF90EF900895E0E012
:10135000F0E0EFCF0F931F93CF93DF938C01D62F45
:10136000C0E00DC0F801EC0FF11D80838D3059F104
:101370008A3049F18830B9F0CF5FCD1708F50E9467
:101380002A4484E696E00E94160A8F3F2FEF9207C8
:1013900049F7C111F2CFF80110828C2FDF91CF9164
:1013A0001F910F910895CC2341F01082C150EC2F72
:1013B000F0E0E00FF11F1082E0CFE0E0F0E0F9CFC5
:1013C000F801EC0FF11D10820D9739F7C111E5CF2F
:1013D0008DE0F801808311828C2FDF91CF911F91D6
:1013E0000F910895FC011082758364837383628377
:1013F0004183478346830895FC0190819923E9F353
:10140000A281B3819D012F5F3F4F8C9196819150B6
:1014100019F49181291B31093383228396832FB7D5
:10142000F8949081915090832FBF0895FC018081A2
:101430008823B9F0A281B3819D012F5F3F4F8C912A
:101440009681915019F49181291B310933832283AC
:1014500096832FB7F8949081915090832FBF90E09E
:1014600008958FEF9FEF0895CF93DF93EC01C1159F
:1014700080E8D807E9F0CE01D7FD1FC010926C05B7
:10148000ECE6F5E02AE030E0B9010E94F84A805D20
:101490008293CB010097C1F7D7FD04C0CF01DF9144
:1014A000CF9108958DE28293CF01DF91CF9108957E
:1014B00084E193E0DF91CF910895882799278C1BD1
:1014C0009D0BDCCFFC0190819D3249F19B3261F193
:1014D00061E070E080ED890F8A3058F5319620E0A8
:1014E00030E0A901440F551F220F331F220F331F75
:1014F000220F331F420F531F292F30E02053310991
:10150000240F351F919180ED890F8A3050F3269F6B
:10151000C001279F900D369F900D11240895918151
:1015200031966FEF7FEFD6CF9181319661E070E019
:10153000D1CF80E090E008958A3010F4805D089566
:10154000895C08951F93CF93DF93182F82958F7036
:101550000E949C0AC2E7D5E08883812F8F700E9489
:101560009C0A89831A82CE01DF91CF911F91089541
:101570000F931F93CF93DF938C01812F82958F70F0
:101580000E949C0ACDE6D5E08883C80188279F7019
:10159000892F0E949C0A8983C801807F9927929590
:1015A00082958F7089279F7089270E949C0A8A8361
:1015B000802F8F700E949C0A8B831C82CE01DF914A
:1015C000CF911F910F9108958F929F92AF92BF92EA
:1015D000FF920F931F93CF93DF934B015C01109207
:1015E0007C0520E030E0A9010E94334987FD7BC0E3
:1015F000F12C20E030E048EC52E4C501B4010E9437
:101600008B4A0E94AA494B015C0124E630E040E08D
:1016100050E00E940C4B2DEC629F212D1124269549
:1016200026952695462F3AE0239F401911244630EF
:1016300008F447C02AE030E040E050E00E940C4B44
:10164000293009F057C084E6880E911CA11CB11CFA
:1016500020E320937B058EE280937A05C501B401D7
:1016600024E630E040E050E00E940C4BCA01B90192
:10167000232B242B252B89F109E715E02AE0822E64
:10168000912CA12CB12C01C08E01E8012197A5015C
:1016900094010E940C4B605D6983B901CA01611518
:1016A00071058105910581F7F11013C0C801DF9123
:1016B000CF911F910F91FF90BF90AF909F908F900F
:1016C00008952AE030E040E050E00E940C4B205D9D
:1016D000C0CF8DE288838E01E9CF80E380937905C6
:1016E00009E715E0E3CFB7FAB094B7F8B094FF2458
:1016F000F3947FCF2F5CADCF813019F0F0F08230C2
:10170000B1F080917C00806C80937C0080917A00A5
:10171000887F866080937A0080917C00807E8093B1
:101720007C0080917A00806880937A00089580918F
:101730007C008F7380937C00E9CF80917C008F7355
:10174000806480937C00E2CFECE7F0E09081907EB3
:10175000892B8083089580917A0086FB882780F901
:1017600091E08927089580917800909179000895FB
:10177000419A8AEE91E00C94FD08409A80EE91E047
:101780000C94FD0840984198389A399A089582E25D
:1017900092E00E94FD080E94B80B8EE192E00E9448
:1017A000FD0864EF71E080E090E00E94000888E1AD
:1017B00092E00E94FD080E94BD0B84E192E00E942D
:1017C000FD0864EF71E080E090E00E9400088EE088
:1017D00092E00E94FD0840988BED91E00E94FD0888
:1017E0008AE092E00E94FD0864EF71E080E090E002
:1017F0000E94000885E092E00E94FD08419885EE75
:1018000091E00E94FD0881E092E00E94FD0864EFF3
:1018100071E080E090E00E9400088CEF91E00E946F
:10182000FD080E94B80B88EF91E00E94FD0864EF6C
:1018300071E080E090E00E94000883EF91E00E9458
:10184000FD08419885EE91E00E94FD088FEE91E041
:101850000C94FD08811105C0419885EE91E00C942F
:10186000FD080C94B80B811105C040988BED91E0F8
:101870000C94FD080C94BD0BCF93DF931F92CDB752
:10188000DEB79E012F5F3F4F3F932F932BE133E055
:101890003F932F939F938F930E94984D84ED91E0F7
:1018A0000E94FD0889810F900F900F900F900F906C
:1018B0000F90823051F00E942A0C88EC91E00E9437
:1018C000FD080F90DF91CF9108958FEC91E00E9479
:1018D000FD080E94B80B64EF71E080E090E00E9488
:1018E0000008419885EE91E00E94FD088BEC91E0A4
:1018F0000E94FD0888EC91E00E94FD080F90DF91A6
:10190000CF910895CF93DF931F92CDB7DEB79E019D
:101910002F5F3F4F3F932F932BE133E03F932F9364
:101920009F938F930E94984D8CEB91E00E94FD084D
:1019300089810F900F900F900F900F900F90823031
:1019400051F00E94330C80EB91E00E94FD080F9053
:10195000DF91CF91089587EB91E00E94FD080E94EE
:10196000BD0B64EF71E080E090E00E9400084098B9
:101970008BED91E00E94FD0883EB91E00E94FD0851
:1019800080EB91E00E94FD080F90DF91CF910895C8
:1019900040984198389A399A5E98569A0C94910DCD
:1019A000CF93DF9390917D059817A9F1D82F8111DE
:1019B00011C05E9864E670E080E090E00E9400084C
:1019C00080B181E0D11101C080E0D0937D05DF912D
:1019D000CF9108955E9A64E670E080E090E00E9406
:1019E00000080199EECFCAE06CE271E080E090E07F
:1019F0000E94000880EA91E00E94FD08C150019910
:101A000007C0C111F1CF81E891E00E94FD08D9CF54
:101A1000C111D7CFF8CF80E0DF91CF91089584B185
:101A2000806A84B90895282F98E080E065C000009E
:101A300000000000000000000000000000000000A6
:101A40000000000000000000000000000000000096
:101A500000000000000000000000000000002F9ABD
:101A60000000000000000000000000000000000076
:101A70000000000000000000000000000000000066
:101A80000000000000000000000000000000000056
:101A9000220F000000000000000000000000000015
:101AA0000000000000000000000000000000000036
:101AB0000000000000000000000000000000000026
:101AC00000002F980000000000000000000000004F
:101AD0000000000000000000000000000000000006
:101AE00000000000000000000000000000000000F6
:101AF00000000000915079F027FD0EC02D98880F4E
:101B00001E99816030917E05311191CF2F9A220F5D
:101B10002F98915089F708952D9AF1CF80917F05E4
:101B20000895439A3B9A0895CF93DF938FEF0E94D5
:101B3000130DC5EFD1E002C0219729F08FEF0E946D
:101B4000130D8F3FC9F7DF91CF910895FF920F9347
:101B50001F93CF93DF93C82FD42F152F062FF72E67
:101B600087FD0DC0439A43980E94940D8F3F89F0E2
:101B70008FEFDF91CF911F910F91FF90089540E07B
:101B800050E0BA0187E70E94A60D823090F7CF7728
:101B9000E9CF8C2F0E94130D8F2D0E94130D802FE3
:101BA0000E94130D812F0E94130D8D2F0E94130D83
:101BB000C03491F0C834A1F081E00E94130DCC3400
:101BC00099F0C4EFD1E002C0219799F28FEF0E9403
:101BD000130D87FFCECFF8CF85E90E94130DF1CF0B
:101BE00087E80E94130DEDCF8FEF0E94130DE9CF10
:101BF0008F929F92AF92BF92CF92DF92EF92FF921D
:101C00000F931F93CF93DF9300D000D0CDB7DEB7F3
:101C10002FEF80E792E0215080409040E1F700C034
:101C2000000081E080937E051FE08FEF0E94130D7E
:101C30001150D9F7EFEFF0E722E0E150F0402040FB
:101C4000E1F700C00000E12CF12C09C0EFE7F8E358
:101C500021E0E150F0402040E1F700C0000040E00A
:101C600050E0BA0180E40E94A60D813011F18FEF9F
:101C7000E81AF80A9CE0E916F10441F710927F0592
:101C8000439A87E292E00E94FD080E946809812F32
:101C90000F900F900F900F90DF91CF911F910F91A8
:101CA000FF90EF90DF90CF90BF90AF909F908F907C
:101CB00008954AEA51E060E070E088E40E94A60DD1
:101CC0008130B9F140E050E0BA0189EE0E94A60DE2
:101CD000823008F489C001E091E4D92E09C040E0C7
:101CE00050E0BA018D2D0E94A60D882309F475C01D
:101CF000FFEFEF1AFF0A29EEE21623E0F20679F76A
:101D000040E052E060E070E080E50E94A60D8111A5
:101D1000B5CF00937F05439A10927E0586E392E04B
:101D20000E94FD08802F0E9425090E94680911E089
:101D3000AECFFE0131964F015E01F5E0AF0EB11C52
:101D400064018FEF0E94130DF60181936F01AE16AF
:101D5000BF06B9F78B81813009F090CF8C818A3A28
:101D600009F08CCFFFEFEF1AFF0A12C02FE788E3CC
:101D700091E0215080409040E1F700C00000EFEF7B
:101D8000EE1AFE0AF5EFEF16F1E0FF0609F476CF42
:101D900040E050E060E070E489EE0E94A60D811101
:101DA000E5CF24EFE21621E0F20608F067CF40E02D
:101DB00050E0BA018AE70E94A60D81115FCF8FEF34
:101DC0000E94130DF40181934F01AE16BF06B9F7BF
:101DD000898186FD0DC004E09CCF88EEE81683E083
:101DE000F80609F44BCF8CCF02E089EED82E80CFD5
:101DF0000CE08FCFCF92DF92EF92FF920F931F9361
:101E0000CF93DF937A0120917F0523FD07C029E05E
:101E1000660F771F881F991F2A95D1F7AB01BC0168
:101E200088E50E94A60D882349F0DF91CF911F918C
:101E30000F91FF90EF90DF90CF9008950E94940D46
:101E40008F3F11F081E0F1CF8EEF0E94130D8701DB
:101E50008EEFF81A6801F80181918F010E94130D2D
:101E6000F6012081CE019227092E0294202D2F7099
:101E70002927392F3025330F307E2327302D39275E
:101E8000307F3695092E000C331F969596959695C2
:101E90009F7193279827822FEC010E151F0509F0DB
:101EA000D9CF8D2F0E94130D8C2F0E94130D8FEF11
:101EB0000E94130D8F71853009F0C4CF8FEF0E94FF
:101EC000130D8F3FD9F7439A80E0AFCFEF92FF9287
:101ED0000F931F93CF93DF93D42FC52F20917F05AE
:101EE00023FD07C029E0660F771F881F991F2A95D9
:101EF000D1F7AB01BC0181E50E94A60D811140C064
:101F00008FEF0E94130D8E3FD9F70D2F1C2F7801F4
:101F10008EEFF81AC0E0D0E08FEF0E94130DF801A9
:101F200081938F019E013827032E0294802D8F709C
:101F30008327932F9025990F907E8927902D9327A3
:101F4000907F9695032E000C991F36953695369501
:101F50003F7139273227282FE901EE15FF05E1F6F9
:101F60008FEF0E94130D082F10E0102F00278FEF26
:101F70000E94130D439A082B81E00C171D0739F0BE
:101F8000DF91CF911F910F91FF90EF90089580E026
:101F9000DF91CF911F910F91FF90EF9008950895D9
:101FA0000E94F80D882321F01092800580E00895AA
:101FB00083E0809380050895809180050895FB015A
:101FC000CA01B901AF010E94660F90E00895FB01BC
:101FD000CA01B901AF010E94FA0E90E008950F9373
:101FE0001F93CF93DF938A0143986623A9F06A3049
:101FF00039F40E948E0DF8018083C0E0D0E002C069
:10200000C4E0D0E0439A8FEF0E94130DCE01DF9120
:10201000CF911F910F9108950E94940D8F3F91F7DA
:10202000ECCF4F925F926F927F92AF92BF92CF921E
:10203000DF92EF92FF920F931F93CF93DF93FC01F8
:10204000C2A4D3A4E4A4F5A4C416D506E606F706F4
:1020500059F02A013B01EC018481811126C0411411
:1020600051046104710489F480E090E0DF91CF9124
:102070001F910F91FF90EF90DF90CF90BF90AF90A6
:102080007F906F905F904F90089501E0A3019201BF
:10209000BE01625D7F4F89810E94DF0F892BE1F5D0
:1020A0004AA65BA66CA67DA6DFCF5F01FEE2AF0E5F
:1020B000B11C01E0A7019601B50189810E94E70FDB
:1020C000892B51F51C828E899F89A88DB98D4E8DE3
:1020D0005F8D68A179A1480F591F6A1F7B1FC41625
:1020E000D506E606F70608F0BACF1B81123028F4B1
:1020F000B6CF8E899F89A88DB98DC80ED91EEA1ECC
:10210000FB1E01E0A7019601B50189810E94E70F3E
:102110001150113071F7A3CF81E090E0A7CF0F935A
:10212000CF93DF93EC019A01AB01BC01625D7F4F5D
:1021300001E089810E94DF0F892B29F083E0DF9184
:10214000CF910F910895FE01E45DFD4F8081918153
:1021500085359A4A29F082E0DF91CF910F91089559
:10216000E85CF14080819181A281B381BB278634F4
:102170009144A445B10569F0C058DF4F48815981A9
:102180006A817B81772781E046345144644571053B
:10219000B1F680E0D4CFFC0181810E94DC0F80FF8A
:1021A00003C083E090E0089580E090E008957F927E
:1021B0008F929F92AF92BF92CF92DF92EF92FF9257
:1021C0000F931F93CF93DF93EC016A017B018E8CF9
:1021D0009F8CA8A0B9A08881823009F475C0833093
:1021E00009F44FC0813089F06FEF7FEFCB01DF91B1
:1021F000CF911F910F91FF90EF90DF90CF90BF9004
:10220000AF909F908F907F9008958A0116950795C3
:102210000C0D1D1DC801892F99278695B501A401B4
:10222000480F591F611D711DCE010E941110892B8D
:10223000D9F6F801F170EC0FFD1F76A40F5F1F4F68
:10224000C801892F99278695B501A401480F591F08
:10225000611D711DCE010E941110892B29F611708C
:10226000C00FD11F8EA5672D70E0782BC0FE47C030
:10227000729562956F7067277F70672780E090E0A6
:10228000B6CF97E076956795579547959A95D1F78C
:10229000480D591D6A1D7B1DCE010E941110892B0E
:1022A00009F0A2CFCC0CDD1CCC0CDD1C8CEFC822BD
:1022B00081E0D822CC0DDD1D8EA59FA5A8A9B9A9C6
:1022C000BC01CD019F7093CF452F562F672F7727E5
:1022D000480D591D6A1D7B1DCE010E941110892BCE
:1022E00009F082CFCC0CDD1CE894C0F881E0D82244
:1022F000CC0DDD1D6EA57FA580E090E078CF7F70CE
:1023000080E090E074CFAF92BF92CF92DF92EF92D5
:10231000FF920F931F93CF93DF938C01EB01DC01AE
:1023200015967C936E93149716964D915D916D91D1
:102330007C911997413051056105710569F0FC01E7
:10234000A080B180F501828D938DA48DB58D481745
:1023500059076A077B0768F082E090E0DF91CF9130
:102360001F910F91FF90EF90DF90CF90BF90AF90B3
:102370000895411551056105710509F048C0208196
:102380002330D9F1D8011A961D921D921D921C92EC
:102390001D97F50180859185C817D907E8F682A1B8
:1023A00093A1A4A1B5A19E01329522952F70232758
:1023B0003F702327AC01BD01420F531F611D711DEA
:1023C000D8011E964D935D936D937C935197F501C3
:1023D000BE96CF70DD27CC0FDD1FC295D295D07F82
:1023E000DC27C07FDC27EC0FFD1FD8015396FC9340
:1023F000EE93529780E090E0B1CF42A153A164A147
:1024000075A1411551056105710509F4BBCFF501B1
:10241000E280F0E1EF9E70011124CE15DF0530F56A
:1024200037C0C5010E94D710AB01BC014F3FFFEF81
:102430005F076F077F0709F45EC0423051056105F1
:10244000710508F489CFD801AD90BC90F501828D5B
:10245000938DA48DB58D481759076A077B0708F03F
:102460007BCFCE19DF09CE15DF0590F04230510544
:102470006105710508F470CFF501828D938DA48DEF
:10248000B58D481759076A077B0708F065CFC9CF94
:10249000F80142875387648775879A01AB01225000
:1024A0003109410951090297A109B10928173907D2
:1024B0004A075B0718F5F501A281B0E00E945C4B6A
:1024C000C6A0D7A0E0A4F1A4DC01CB018C0D9D1D1A
:1024D000AE1DBF1D9E01329522952F7023273F70A0
:1024E0002327820F931FA11DB11DF80186879787AF
:1024F000A08BB18B6CCF81E090E030CF80E090E09A
:10250000DC01E8CF2F923F924F925F926F927F92C1
:102510008F929F92AF92BF92CF92DF92EF92FF92F3
:102520000F931F93CF93DF9300D01F92CDB7DEB7E9
:102530009B838A836A017B0148015901FC01468C17
:10254000578C60A071A0F081F983F23009F488C043
:10255000F33009F461C0F130E9F002E010E081E00D
:10256000EA81FB818483C8010F900F900F90DF9167
:10257000CF911F910F91FF90EF90DF90CF90BF9080
:10258000AF909F908F907F906F905F904F903F9013
:102590002F900895CA01969587951C012C0C3D1C1F
:1025A000C101892F99278695B301A201480F591FB0
:1025B000611D711D8A819B810E9411108C01892BE4
:1025C00071F6F101F1708A819B81E80FF91FC0FE5D
:1025D00064C086A5282F2F7030E1839EC00111248E
:1025E000822B86A771018FEFE81AF80A3981EA81F8
:1025F000FB813483C701892F99278695B301A201F6
:10260000480F591F611D711DCF010E9411100097C5
:1026100009F46AC08C01A3CF27E07695679557959A
:1026200047952A95D1F7440D551D661D771D8A8162
:102630009B810E9411108C01892B09F090CFCC0C4A
:10264000DD1CCC0CDD1C9CEFC92291E0D922EA8173
:10265000FB81EC0DFD1D86A697A6A0AAB1AA7FCF8F
:1026600077276F2D5E2D4D2D440D551D661D771D51
:102670008A819B810E9411108C01892B09F06FCFF8
:10268000CC0CDD1CF601EE7FF170BE968A819B8139
:10269000E80FF91F9182808262CF86A671019FEFB9
:1026A000E91AF90A3981EA81FB813483C701892F4C
:1026B00099278695B301A201480F591F611D711D0D
:1026C000CF010E941110009709F0A4CF31E0F3224E
:1026D000EA81FB81EE0DFF1D96A5907F892D8F70FD
:1026E000892E882A86A63BCFF1E0FF2284E0B694AB
:1026F000A794979487948A95D1F7EA81FB81EE0D90
:10270000FF1D86A62CCF4F925F926F927F928F9281
:102710009F92AF92BF92CF92DF92EF92FF920F9370
:102720001F93CF93DF9300D000D000D0CDB7DEB79A
:102730009E838D8349835A836B837C83DC015A9605
:102740004D905D906D907C905D97452B462B472B6F
:1027500009F072C01A968D909D90AD90BC901D9717
:1027600081149104A104B10409F08DC0812C912C35
:10277000540183947501640134C0A2E08A16910467
:10278000A104B10408F495C082E0C82ED12CE12C3C
:10279000F12CED81FE81828D938DA48DB58DC816AF
:1027A000D906EA06FB0668F5B701A601CF010E942B
:1027B000D710611571058105910509F46BC06F3F54
:1027C000FFEF7F078F079F0709F46FC06130710526
:1027D00081059105B1F08C149D04AE04BF0409F489
:1027E00068C09FEFC91AD90AE90AF90AC414D504C6
:1027F000E604F70410F6B2E0CB16D104E104F104CC
:1028000040F661E070E080E090E026960FB6F89424
:10281000DEBF0FBECDBFDF91CF911F910F91FF9013
:10282000EF90DF90CF90BF90AF909F908F907F9070
:102830006F905F904F90089529813A814B815C8120
:102840002230310541055105E0F289819A81AB8141
:10285000BC8184159505A605B70598F6AC01BD01A8
:102860008D819E810E94D71062307105810591058E
:1028700040F2641575058605970538F289809A80BF
:10288000AB80BC8077CF84149504A604B70408F409
:1028900071CF6CCFED81FE81828D938DA48DB58D2E
:1028A000C816D906EA06FB0640F06FEF7FEFCB01B2
:1028B000ACCF60E070E0CB01A8CF0FEF1FEF2FEFA0
:1028C0003FE0B701A601CF010E948212892B69F770
:1028D00029813A814B815C81232B242B252BF9F014
:1028E00029813A814B815C812230310541055105B6
:1028F000E0F2ED81FE81828D938DA48DB58D281738
:1029000039074A075B0788F69701860149815A8192
:102910006B817C81CF010E948212892B31F6AD81BF
:10292000BE811A96CD92DD92ED92FC921D97FD012B
:1029300086859785A089B1898F3FFFEF9F07AF07F5
:10294000BF0759F00197A109B109ED81FE81868782
:102950009787A08BB18B81E08583C701B60155CFE6
:102960002F923F924F925F926F927F928F929F929F
:10297000AF92BF92CF92DF92EF92FF920F931F938D
:10298000CF93DF93DC011496CD91DC9115972196BE
:10299000A9F484E090E0DF91CF911F910F91FF9017
:1029A000EF90DF90CF90BF90AF909F908F907F90EF
:1029B0006F905F904F903F902F900895FC01868418
:1029C0009784A088B18881149104A104B10409F30B
:1029D0007B018C016E01FFE0CF22DD24C114D10404
:1029E000D9F0DC01ED91FC91D8011596DC93CE93E2
:1029F0001497BE96CC0CDD1CC294D29480EFD822E2
:102A0000DC24C822DC24EC0DFD1D5396FC93EE93D0
:102A1000529780E090E0BFCFBFEF8B1A9B0AAB0AC2
:102A2000BB0AFC0186869786A08AB18A42855385B7
:102A300064857585411551056105710511F1019098
:102A4000F081E02D828190E001979E0132952295E0
:102A50002F7023273F70232782239323892B21F66E
:102A6000423051056105710548F0828D938DA48D2A
:102A7000B58D481759076A077B0768F082E090E038
:102A80008ACF0190F081E02D80859185C817D90704
:102A900008F07FCFA9CFCF010E94D7104B015C0176
:102AA000623071058105910548F36F3F7F4F8F4F6D
:102AB0009F4F09F451C0D801ED91FC91428D538D87
:102AC000648D758D84169506A606B70670F52401EB
:102AD0003501B2E04B1A510861087108D8011A9605
:102AE0008D929D92AD92BC921D97DB01CA01029717
:102AF000A109B109481659066A067B0680F5A2812C
:102B0000B0E0A30192010E945C4B86A097A0A0A414
:102B1000B1A4860E971EA81EB91ED8011E968D92CE
:102B20009D92AD92BC9251975FCFEF2809F431CFBF
:102B3000D8011A964D915D916D917C911D97CF01B1
:102B40000E9483134B015C0161157105810591059C
:102B500051F487E090E01FCF81E090E01CCF812C02
:102B6000912C5401DACF613071058105910509F48A
:102B700085CF6F3F7F4F8F4F9F4F71F340E050E005
:102B8000BA01D8018D919C910E941110892B21F7D7
:102B9000F80180819181FC01BE96825D9D4F11926A
:102BA000E817F907E1F7D801ED90FC902401350111
:102BB000B2E04B1A510861087108F701828D938DBC
:102BC000A48DB58D0297A109B109481659066A0668
:102BD0007B0608F04CC0A281B0E0A30192010E94E4
:102BE0005C4B26A137A140A551A5DC01CB01820F8A
:102BF000931FA41FB51FF70182A793A7A4A7B5A78A
:102C0000312C222423941EC0D70114962C9240E02C
:102C100050E0BA01F801808191810E941110892B46
:102C200009F09ACFD801ED90FC90F70182A593A509
:102C3000A4A5B5A50196A11DB11D82A793A7A4A720
:102C4000B5A73394F70182813816F0F282A593A5D7
:102C5000A4A5B5A583199109A109B10982A793A7D4
:102C6000A4A7B5A7428D538D648D758D37CF80E0B5
:102C700090E0DC01C0CF2F923F924F925F926F9213
:102C80007F928F929F92AF92BF92CF92DF92EF92FC
:102C9000FF920F931F93CF93DF938C01BB24BA94C1
:102CA00055245A94EE24EA94FE2C0DC02F3009F4DA
:102CB00066C055245A9460E070E0C8010E94B014C8
:102CC000009709F049C0D8011E964D915D916D9114
:102CD0007C9151978D919C910E9411100097E1F584
:102CE000F801C289D3899881992309F4A2C08B8500
:102CF000282F2F73953EE9F283FDD8CF2F3009F4AA
:102D00003EC0511011C0FE0131969E01255F3F4F1C
:102D100080E001C0919180FB879587F9890F2E177C
:102D20003F07C1F78B15B1F0D8015996FC92EE928E
:102D300058975496ED91FC915597838580FDB9CFB6
:102D40009E01255F3F4F999181919813B2CF2C1727
:102D50003D07C9F780E090E0DF91CF911F910F917F
:102D6000FF90EF90DF90CF90BF90AF909F908F90AB
:102D70007F906F905F904F903F902F900895D80173
:102D80005696CD90DC905797C114D10409F493CF97
:102D900096FF4CC0BD849F7B592E14968D919C91BB
:102DA000159759969C938E9358974D844B1081CFCD
:102DB00088818F7B90E00197BDE0B89F4001B99F6B
:102DC000900C112429ECA22E21E0B22E21E081E00A
:102DD00090E00BC02F3F3F4FE9F5A5EDAA16A1E00B
:102DE000BA0651F1F50121915F01FE01E20FF11DDB
:102DF00020813181009771F3C9010E9476293C013D
:102E0000E0E28E16910434F51401FFEF2F1A3F0A09
:102E1000880C991CF601E80DF91D808191810E94B2
:102E2000762968167906B1F44101D7CF951141CFC3
:102E3000BCCF84E090E090CF288126FF0FC0892B83
:102E400069F0F401EE0FFF1FEC0DFD1D80819181F3
:102E5000892B21F0B42C55245A942DCF5A94B42C9C
:102E60002ACF2F923F924F925F926F927F928F92D2
:102E70009F92AF92BF92CF92DF92EF92FF920F9309
:102E80001F93CF93DF937C015B01DB018C918F3229
:102E900009F4B5C18C3509F4B2C1E7011E821F8265
:102EA00018861986F5018081803208F4C5C170E268
:102EB000572EE5E02E2EE701CE88DF88082E000C85
:102EC000990B8032910508F45FC18F32910509F4A6
:102ED00058C08C35910509F454C08601E50121964E
:102EE00088248394912C61E070E090E00E944C294A
:102EF000009791F18038910578F48232910561F163
:102F0000EFE1F3E006C0022E000C330B82179307AB
:102F100019F121912111F7CFF801819391938F013C
:102F200094012F5F3F4F8991082E000C990B80323E
:102F3000910508F42DC18F32910539F18C35910539
:102F400021F12132310541F0490161E070E090E06A
:102F50000E944C29009771F686E090E0DF91CF91B6
:102F60001F910F91FF90EF90DF90CF90BF90AF90A7
:102F70009F908F907F906F905F904F903F902F9099
:102F8000089521E030E0812C912CA20EB31E412C3B
:102F90008114910409F3F401EE0FFF1FEC0DFD1DE8
:102FA000929182918032910511F08E9729F421E05F
:102FB000821A9108A9F7D0CFF401EE0FFF1FD601B6
:102FC000AE0FBF1F11961C921E92E701EC89FD897E
:102FD000CF010B965192E817F907E1F7F601C0E02F
:102FE000D0E0819191918032910519F08E32910556
:102FF00011F42196F6CF209719F0E42DE3604E2EC0
:10300000FD01329122912E32310521F021E0821A08
:103010009108B9F708E010E0612C712C312C219651
:10302000009709F44EC08032910569F18E32910506
:1030300039F160167106B4F5C815D90509F4ADC0AB
:103040008038910508F0B5C08B32910509F4C3C0F2
:10305000E8E2F3E007C0022E000C330B821793075F
:1030600009F4B9C021912111F6CF9C0121543109F5
:103070002A31310508F0F6C0232D2260322EAFC070
:10308000C815D90559F0842D8360482EFE01EE0F36
:10309000FF1FEC0DFD1D80819181C1CF601671066F
:1030A0000CF47BC00B30110509F4ADC0C815D9056F
:1030B00009F476C0B42DB3604B2E8C169D060CF02F
:1030C0006FC0D7015496ED91FC9155978081853E54
:1030D00009F4A7C00830110509F4ABC0832D8C702A
:1030E0008C3009F488C0932D9370933009F483C019
:1030F00041FC08C0932D9370913009F4A9C084302D
:1031000009F4ACC0438660E070E0C7010E948311FF
:10311000009751F5C7010E943B16D7015496ED91D7
:10312000FC91559723852470009729F5211116CF1E
:10313000E701EA89FB89838584FF23C08489958917
:10314000A0E0B0E0DC0199278827428D538D60E034
:1031500070E0842B952BA62BB72B8E839F83A8879B
:10316000B987D5018C91A7CED7015496ED91FC91EA
:103170005597238524708430910509F0EFCE2111F5
:10318000EDCE85E090E0EACE21E030E0812C912C7C
:10319000A20EB31E94E0492EFBCE0B30110599F11F
:1031A000330C330CE4010BE010E038E0632E712C9B
:1031B0006DCF60E070E00E944C29009709F444C094
:1031C000FC01E853FF4F808190E0E42DE2604E2E39
:1031D000009709F039CFF42DF3604F2E8FE5D7011A
:1031E0005496ED91FC915597E60DF71D8083F30100
:1031F00031963F014BCFD42DD2604D2E79CFBFEF0A
:10320000AB1ABB0A4ACE942D9360492ED70154962F
:10321000ED91FC9155978081853E09F05FCF0BE0E1
:1032200010E02082E701EC89FD890830110509F0E2
:1032300055CF330C330C52CF60E070E0C7010E94D1
:1032400083111B8A1A8A8ACEB42DB2604B2EC3CF4B
:10325000242D2061422E843009F054CF842D8860C3
:10326000482E50CF9C01215631092A31310508F0F2
:10327000B6CFA32DA1603A2E8052B1CF0F931F93EA
:10328000423051056105710570F0FC01028D138D0E
:10329000248D358D401751076207730720F41F9165
:1032A0000F910C94D71061E070E080E090E01F91E6
:1032B0000F910895CF92DF92EF92FF920F931F9399
:1032C000423051056105710550F0FC01C28CD38C70
:1032D000E48CF58C4C155D056E057F0548F082E0A9
:1032E00090E01F910F91FF90EF90DF90CF900895A5
:1032F0000E9482121F910F91FF90EF90DF90CF906C
:1033000008950F931F93FC019A01AB0122503109DC
:1033100041095109828D938DA48DB58D0297A10924
:10332000B109281739074A075B0778F4A281B0E092
:103330000E945C4B06A117A120A531A5600F711F4B
:10334000821F931F1F910F91089560E070E0CB01E1
:103350001F910F910895EF92FF920F931F93CF93B8
:10336000DF93CDB7DEB728970FB6F894DEBF0FBE58
:10337000CDBF8C01F901CB017801B801655F7F4FAA
:10338000DC012D91CD01D7012D937D01A617B70743
:10339000B9F7E630F10508F476C0DA018D919D9118
:1033A000E0FBF795E795F7F9E80FF91F8D919D91EF
:1033B0000097B1F77E01B9E0EB0EF11C47E050E059
:1033C000415051099F01ADECBCEC0E944D4B9695CC
:1033D00087959695879596958795BC01660F771F7B
:1033E0009C01220F331F220F331F220F331F260F82
:1033F000371FE21BF30BE05DD701EE937D01FC016B
:10340000892BF1F68EE7FE01E40FF51F8183141678
:1034100015060CF03FC0F80180818032D9F1319659
:1034200020E030E003C08191803229F02F5F3F4FD0
:1034300024173507C4F3F801E20FF31F0DC0A1E014
:10344000B0E0AC0FBD1FA40FB51F8C914F5F5F4F55
:1034500081932830310551F02F5F3F4F483051059F
:1034600074F380E2819328303105B1F728960FB6C6
:10347000F894DEBF0FBECDBFDF91CF911F910F91AA
:10348000FF90EF900895E05DE8878EE78F8346E038
:1034900050E0C1CF20E030E0CECF2F923F924F924C
:1034A0005F926F927F928F929F92AF92BF92CF92D4
:1034B000DF92EF92FF920F931F93CF93DF93CDB7DD
:1034C000DEB727970FB6F894DEBF0FBECDBFDC0185
:1034D000ED91FC912081022E000C330B2053310919
:1034E0002A30310518F451815A33B1F12090C505C5
:1034F0003090C605FB01318220822114310489F00D
:10350000142FF1018081882381F181810E94DC0FD9
:1035100080FD2BC0112311F082FD37C080E090E0C8
:1035200002C08CE090E027960FB6F894DEBF0FBE85
:10353000CDBFDF91CF911F910F91FF90EF90DF9062
:10354000CF90BF90AF909F908F907F906F905F9043
:103550004F903F902F9008953296DC01ED93FC93AD
:10356000232B21F28BE090E0DECFD1011C9211964B
:103570001C9280E00E94D00F80FF03C083E090E0A7
:10358000D2CF112329F082FF03C08AE090E0CBCF95
:1035900040E050E0BA01C1010E948F10813059F023
:1035A000C12CD12C7601833009F4FEC08823B1F000
:1035B0008DE090E0B8CFF101E051FE4F808188238B
:1035C000B9F3F101EC50FE4FC080D180E280F3806E
:1035D000B701A601C1010E948F10E5CFF10181ADB5
:1035E00092AD8115924021F7F101EC5BFF4F2081F4
:1035F000318140E050E0211531054105510529F4A4
:103600003E962081318142815381D10156962D937E
:103610003D934D935C935997DE96AC91F101A38352
:10362000B0E00E945C4B2B013C0144AD55AD60E025
:1036300070E046015701840E951EA61EB71E868EA9
:10364000978EA0A2B1A2B3ADBF83B283FF962081B3
:103650003181D10119963C932E931897329680812F
:103660009181A0E0B0E00097A105B10529F43D9655
:1036700080819181A281B381F901F295E295EF7089
:10368000EF27FF70EF278F0120E030E009831A83D6
:103690002B833C83841B950BA60BB70B84199509D0
:1036A000A609B709BC01CD01601B710B820B930BFE
:1036B0001F81212F30E040E050E00E940C4BDA01E6
:1036C000C9010296A11DB11DF101828F938FA48FB4
:1036D000B58F873FFFE09F07A105B10508F467C0DC
:1036E000873F9F4FA105B10508F4AFC0F101E65A2D
:1036F000FF4F80819181A281B381F10182A393A3C5
:10370000A4A3B5A309811A812B813C81800E911E4F
:10371000A21EB31E480C591C6A1C7B1C46A257A251
:1037200060A671A68FEF9FEFDC0186879787A08B3D
:10373000B18B14821582E25AFF4F80819181A701DB
:103740009601280F391F411D511DD10152962D930D
:103750003D934D935C93559701E0B101625D7F4FBE
:1037600011968C910E94DF0F892B41F4F101E45DE9
:10377000FD4F8081918185359A4AC1F183E0D10165
:103780008C93F10112A613A614A615A68091C30569
:103790009091C40501969093C4058093C3059783C7
:1037A000868380E090E0BFCE81E090E0BCCE81E0F7
:1037B000840C951CA61CB71CF10182A293A2A4A2A2
:1037C000B5A209811A812B813C81800E911EA21E17
:1037D000B31E86A297A2A0A6B1A64FEF5FEFBA01D3
:1037E00046875787608B718B1482C9CFF10186A5FC
:1037F00097A5A0A9B1A982359245A146B14409F087
:10380000BDCFF101EE5EFD4F80819181A281B38138
:1038100082379247A144B14609F0B0CF38968081F3
:103820009181A281B381F10182879387A487B587B3
:10383000EA5EFD4F80819181A281B381F10186878B
:103840009787A08BB18B83E09ACF82E0B1CF88239A
:1038500019F08BE090E00895E091C505F091C60560
:10386000309709F010826115710511F0FB0110828B
:103870007093C6056093C50580E090E008952F928F
:103880003F924F925F926F927F928F929F92AF92F0
:10389000BF92CF92DF92EF92FF920F931F93CF933D
:1038A000DF93CDB7DEB7C054D1090FB6F894DEBFB1
:1038B0000FBECDBF7C017CAB6BAB142FDC011D9226
:1038C0001C924E71BE016F5F7F4FCE01C3960E9466
:1038D0004D1A0097D1F0C05CDF4F0FB6F894DEBFF1
:1038E0000FBECDBFDF91CF911F910F91FF90EF9051
:1038F000DF90CF90BF90AF909F908F907F906F9010
:103900005F904F903F902F900895B12FBF71BB2EC5
:103910006E01E7E2CE0ED11CDE8ACD8A81E895E009
:10392000988F8F8B6BA97CA9CE0101960E943117CD
:10393000212F2C7179F4009771F6CB88DC88C114A3
:10394000D10429F0D6011B968C9184FF2CC284E00F
:1039500090E0C1CF009709F416C18430910509F0B9
:10396000BACF8D889E880F89188DD401FE017B9671
:103970008D918193EC15FD05D9F78EA180FF32C0A2
:10398000D4011B961C92188E1F8ACC24C394D12C70
:103990000EC0CE0101960E943B160097C1F4BFEF06
:1039A000CB1ADB0AE4E6CE16D10409F4F1C0960185
:1039B000A801BE01655E7F4FC4010E94AB1960E0A3
:1039C00070E0CE0101960E948311009711F38430BC
:1039D000910509F080CF8EA1D4011B968C93188F8E
:1039E0000F8B8EA181FFFCC1F80180819181892B11
:1039F00009F47DC2329620E030E02F5F3F4F819185
:103A00009191892BD1F7275E3F4FA5ECBEE40E9430
:103A10004D4B6C01D694C794D694C79460E070E087
:103A2000CE0101960E948311009709F054CF812C9A
:103A3000912C00E010E00BC000E010E061E070E0CD
:103A4000CE0101960E94B014009709F044CF4F8533
:103A5000588969897A8989819A810E941110009711
:103A600009F039CFEB89FC898081853E11F0811105
:103A7000E3CF0115110511F48D809E800F5F1F4F5C
:103A80000C151D05D9F6B1E0CB16D10409F4FAC026
:103A9000B401CE0101960E948311009709F01BCF5B
:103AA000ED89FE899F01255F3F4F712C70FA779455
:103AB00077F88191780E2E173F07C1F7F1E0CF1A02
:103AC000D108BFE06B2E1DE0512E05ED802E01E0E8
:103AD000902E442443944F85588969897A89898135
:103AE0009A810E941110009709F0F5CE1C2D4B8988
:103AF0005C896F89788DDA011D967C921D971B96E3
:103B00006C921B971C961C921C975B961C921E92A3
:103B10005A979601332721503109529EC001539E76
:103B2000900D1124A9EC2A2EA1E03A2E01E0E0E04C
:103B3000F0E01DC09C012F5F3F4F880F991FFB01D4
:103B4000E80FF91F0190F081E02DCA01800F911D4F
:103B5000DC01ED93FC93309711F4EFEFFFEF82144B
:103B6000930409F470C0D1010D911D01C901EF3F0B
:103B7000BFEFFB07F9F69A01200F311DD901ED9334
:103B8000FC939C01ECCF12FF06C088E090E0A3CE2E
:103B900087E090E0A0CECB88DC88C114D104C1F3CB
:103BA000D6011B968C911B97817191F713FF9CC0D6
:103BB00054968D919C915597A0E0B0E0DC01992737
:103BC0008827F601428D538D60E070E08C019D01E5
:103BD000042B152B262B372B09AF1AAF2BAF3CAF7D
:103BE000158A148A138E128E148E158E168E178EC9
:103BF00089809A8081E0F401848302A513A524A51D
:103C000035A521960CAF1DAF2EAF3FAF219709AD63
:103C10001AAD2BAD3CAD011511052105310509F497
:103C200059C1013011052105310551F0828D938D67
:103C3000A48DB58D081719072A073B0708F4D4C0CF
:103C400082E090E048CE319649F0220F331FFB010D
:103C5000E20FF31F80819181892B09F41064FA012E
:103C60001083E981FA81448260E070E0CE01019620
:103C70000E94B014009709F02ECEF1E0CF1AD108BF
:103C800009F029CF4F85588969897A8989819A8174
:103C90000E941110009709F01ECEAB89BC899D01CE
:103CA000CD018096FD0111928E179F07E1F76D8976
:103CB0007E89AD01455F5F4FFB018191BF01F90135
:103CC00081939F014E175F07B9F7ED89FE898385C0
:103CD00088711C968C93E981FA8181E08483FB2DA5
:103CE000F860BF2ECB88DC88B3FC66C0E981FA811E
:103CF0003B892C8942A553A564A575A5D7015A9681
:103D00004D935D936D937C935D975E963C935E9728
:103D10005F962C935F971496BC92D60154968D9122
:103D20009C915597A0E0B0E09C0111270027D60197
:103D30005A964D915C915B9760E070E0402B512B5F
:103D4000622B732BD7011E964D935D936D937C93DD
:103D50005197D6015C964D915D916D917C915F97E5
:103D6000D7011A964D935D936D937C931D9716968C
:103D70001D921D921D921C9219978FEF15968C9390
:103D8000159756961D921D921D921C925997119649
:103D9000FC93EE938681978113969C938E93129752
:103DA00080E090E098CD11FF02C080FDF1CEE98166
:103DB000FA813C2D2D2D9ECFD6011B961C920E9480
:103DC0004729F60166877787808B918BE981FA8195
:103DD00081E084830B2D0062B02E3B892C898ACF31
:103DE000CC24C394D12C1ACE0DAB1EAB2FAB38AF65
:103DF000AA24A39452C0613071058105910509F48C
:103E00001FCF6F3F7F4F8F4F9F4F09F473C0F40157
:103E1000828D938DA48DB58D0DA91EA92FA938ADC6
:103E2000081719072A073B0708F00ACF00E010E03F
:103E300098014DA95EA96FA978ADC4010E948212B4
:103E4000009709F048CDF40186859785A089B1894E
:103E50008F3FFFEF9F07AF07BF0749F00196A11DF6
:103E6000B11DF40186879787A08BB18BA582F401E1
:103E7000828D938DA48DB58D481659066A067B06F2
:103E8000D8F44DAA5EAA6FAA78AEA301920122309F
:103E900031054105510508F4D3CE4DA95EA96FA99E
:103EA00078ADC4010E94D7102B013C01611571054A
:103EB0008105910509F09FCF89809A8089AD9AADDF
:103EC000ABADBCAD0197A109B109F401828793871D
:103ED000A487B58721964CAD5DAD6EAD7FAD2197C2
:103EE000C4010E941110009709F4FECEF4CC20E02A
:103EF00030E089CD81E090E0EECC2F923F924F925E
:103F00005F926F927F928F929F92AF92BF92CF9269
:103F1000DF92EF92FF920F931F93CF93DF9300D026
:103F200000D000D0CDB7DEB79C838B837B016A01C4
:103F30005901D9011D921C92DC01ED91FC91119760
:103F4000309719F0808181111DC029E0822E912CBB
:103F5000C40126960FB6F894DEBF0FBECDBFDF9129
:103F6000CF911F910F91FF90EF90DF90CF90BF9076
:103F7000AF909F908F907F906F905F904F903F9009
:103F80002F90089512962D913C91139786819781D9
:103F900028173907D1F6CF010E94CB104C01892B8D
:103FA000B9F6EB81FC81848187FD06C080FD08C0E5
:103FB00087E0882E912CCCCF92E0892E912CC8CF0F
:103FC00086819781A085B1854285538564857585F5
:103FD000481B590B6A0B7B0B860120E030E0401731
:103FE00051076207730708F46A01C114D10409F488
:103FF000AFCF212CE2E03E2EAC01BD01517066270F
:104000007727EB81FC81452B462B472B09F44BC0CE
:1040100046895789608D718D0190F081E02DFE8376
:10402000ED8391708101081B190BC016D10608F4AD
:1040300086018D819E810E941110892B09F030C16B
:10404000EB81FC8186819781A085B1859170AA273B
:10405000BB27DC019E9680819181A80FB91FF701D3
:10406000E00EF11E8D918193EE16FF06D9F7EB81DC
:10407000FC8186819781A085B185800F911FA11D4C
:10408000B11DEB81FC8186839783A087B187F50101
:1040900020813181200F311F31832083C01AD10A42
:1040A00009F0AACF55CF0190F081E02DFE83ED837A
:1040B000EB81FC813581ED81FE812281321708F090
:1040C00091C0EB81FC8182899389A489B5899C0187
:1040D000AD012250310941095109ED81FE81828DE6
:1040E000938DA48DB58D0297A109B10928173907C1
:1040F0004A075B0708F0C8C01281A12FB0E00E94F8
:104100005C4B46A057A060A471A4460E571E681EC3
:10411000791E411451046104710409F4B5C0EB81A6
:10412000FC812581420E511C611C711CA601452F8A
:10413000552746955A8349834115510509F47AC09C
:1041400030E0420F531F812F90E08417950728F429
:10415000DC01A21BB30BBA83A9831981012FA30130
:104160009201B701ED81FE8181810E94DF0FAB8159
:10417000BC81892B09F096C0ED91FC918481882344
:1041800001F182A593A5A4A5B5A584199509A60951
:10419000B70929813A81A90160E070E08417950789
:1041A000A607B70770F4DC01BA2FAA27BB0FBE968B
:1041B000AE0DBF1DCD019E5F21912D938A179B07E8
:1041C000D9F7EB81FC818581180F158309811A814C
:1041D000102F0027110F86819781A085B185E00EF1
:1041E000F11E4BCF892B8A2B8B2BC1F5AB81BC8168
:1041F0001E966D917D918D919C91519762307105C4
:104200008105910508F440C06F3FFFEF7F078F07DE
:104210009F0709F445C0EB81FC81628B738B848B13
:10422000958B15820190F081E02DFE83ED83DC01FA
:10423000CB014DCFAB81BC8156964D925D926D9274
:104240007C9259972F5F15962C931597FD018681C7
:104250009781A085B185A201B301E3CEEB81FC81FA
:104260004289538964897589423051056105710518
:1042700058F0ED81FE81828D938DA48DB58D481708
:1042800059076A077B07C0F0AB81BC8114968C91FB
:104290001497806814968C9372E0872E912C58CED8
:1042A000AB81BC8114968C911497806814968C9382
:1042B00088248394912C4CCECF010E94D7109ECF9E
:1042C0002F923F924F925F926F927F928F929F9226
:1042D000AF92BF92CF92DF92EF92FF920F931F9314
:1042E000CF93DF9300D000D000D0CDB7DEB79C8352
:1042F0008B836B017A014901D9011D921C92DC016B
:10430000ED91FC911197309719F0808181111DC0BA
:1043100029E0A22EB12CC50126960FB6F894DEBF77
:104320000FBECDBFDF91CF911F910F91FF90EF9006
:10433000DF90CF90BF90AF909F908F907F906F90C5
:104340005F904F903F902F90089512962D913C9141
:1043500013978681978128173907D1F6CF010E94DC
:10436000CB105C01892BB9F6EB81FC81848187FD40
:1043700006C081FD08C087E0A82EB12CCCCF92E00A
:10438000A92EB12CC8CF0285138524853585B901A6
:10439000A8014E0D5F1D611D711D40175107620779
:1043A000730708F499C1E114F10409F4FEC1EB812B
:1043B000FC8186819781A085B185212CF2E03F2E7A
:1043C000AC01BD01517066277727EB81FC81452B3D
:1043D000462B472B09F462C046895789608D718D41
:1043E0000190F081E02DFE83ED8391708101081B27
:1043F000190BE016F10608F487018D819E810E9459
:104400001110892B09F043C1EB81FC8186819781D2
:10441000A085B1859170AA27BB27FC01BE96AB8110
:10442000BC818D919C91D601E80FF91FCF01800FBF
:10443000911F2D912193E817F907D9F7AB81BC8122
:10444000ED91FC91B1E0B483C00ED11EEB81FC81F3
:104450004681578160857185DB01CA01800F911FFC
:10446000A11DB11DAC01BD0186839783A087B187D3
:10447000F40120813181200F311F31832083E01A24
:10448000F10A09F09DCFAB81BC811A960D911D9167
:104490002D913C911D9714968C9122C10190F08131
:1044A000E02DFE83ED83EB81FC813581ED81FE8182
:1044B0002281321778F1892B8A2B8B2B09F0F3C0DC
:1044C000AB81BC811E966D917D918D919C91519790
:1044D000611571058105910509F445C161307105CA
:1044E0008105910509F44CC16F3FBFEF7B078B0736
:1044F0009B0709F451C1AB81BC8152966D937D93AA
:104500008D939C93559715961C921597ED91FC9160
:10451000FE83ED83ED81FE8142A553A564A575A5BB
:10452000EB81FC8186899789A08DB18D4817590749
:104530006A077B0709F406C1EB81FC8182899389B4
:10454000A489B5899C01AD01225031094109510965
:10455000ED81FE81828D938DA48DB58D0297A10989
:10456000B109281739074A075B0708F009C112810A
:10457000A12FB0E00E945C4B46A057A060A471A49C
:10458000460E571E681E791E4114510461047104C1
:1045900009F4F6C0EB81FC812581420E511C611C9F
:1045A000711CA701452F552746955A83498341150C
:1045B000510509F451C030E0420F531F812F90E0A4
:1045C0008417950728F4DC01A21BB30BBA83A983D7
:1045D0001981012FA3019201B601ED81FE81818134
:1045E0000E94E70FAB81BC81892B09F052C0ED918D
:1045F000FC9182A593A5A4A5B5A584199509A60942
:10460000B70929813A81A90160E070E08417950714
:10461000A607B707B0F4982F8827990F8C0D9D1D1A
:10462000DF019E96AF01425D5D4FFC012191CF01FC
:104630002D934A175B07C9F7AB81BC81ED91FC91C3
:104640001482EB81FC818581180F158309811A8101
:10465000102F0027110FF8CEEB81FC818681978106
:10466000A085B18542855385648575858417950736
:10467000A607B70708F045C0EB81FC81468A578A38
:10468000608E718E2F5F2583A201B301AECEAB8108
:10469000BC8114968C911497806814968C93AA24EC
:1046A000A394B12C38CEAB81BC8152964D915D91D3
:1046B0006D917C9155978D819E810E948313611528
:1046C00071058105910509F009CFEB81FC81028517
:1046D0001385248535858481468157816085718560
:1046E000041715072607370730F4EB81FC81428752
:1046F0005387648775878062AB81BC8114968C93E5
:104700000ACE40E050E0BA018D819E810E941110D6
:10471000892B09F0BCCFEB81FC810190F081E02D69
:10472000FE83ED8342A653A664A675A6AB81BC8129
:1047300015962C91159716968D919D910D90BC9183
:10474000A02D9ACF40E050E0BA018D819E810E9459
:104750001110892B09F5AB81BC810D90BC91A02D66
:10476000BE83AD83E9CE40E050E0BA01CF010E94A4
:104770008313EB81FC8166877787808B918B9FCF3A
:10478000AB81BC8114968C911497806814968C939D
:1047900072E0A72EB12CBFCDEB81FC8184818068B3
:1047A0008483AA24A394B12CB6CDAB81BC81169688
:1047B0004D915D916D917C91199792CF0F931F93BD
:1047C000CF93DF93DC01ED91FC911197309719F0B5
:1047D0002081211107C089E090E0DF91CF911F91E6
:1047E0000F91089512964D915C9113972681378110
:1047F0004217530781F7EC01CF010E94CB100097BD
:1048000061F72C8125FFE9CF4A8D5B8D6C8D7D8D05
:10481000888199810E9411100097F9F60E8D1F8DE5
:10482000F8018385806283878A859B85AC85BD85F9
:10483000848F958FA68FB78F8E859F85A889B9891C
:10484000938F828FB58BA48B0E944729D8015696EF
:104850006D937D938D939C9359978C818F7D8C83E1
:10486000E881F98181E084830990D881C02D40E0FE
:1048700050E0BA01CE010E941110009709F0ADCFAF
:104880008881833079F040E050E060E089810E94C7
:10489000EF0F31E020E0892B19F0832F922F9DCF6D
:1048A00030E0FBCF8D81882371F31AA61BA61CA6CE
:1048B0001DA6BE01625D7F4FFB01CE01825D9D4F53
:1048C00011928E179F07E1F785E59AEAFE01E45DF4
:1048D000FD4F9183808382E592E5A1E6B1E48EA746
:1048E0009FA7A8ABB9AB82E792E7A1E4B1E67A97BC
:1048F00080839183A283B3838E859F85A889B9899C
:10490000349680839183A283B3838A859B85AC850B
:10491000BD85349680839183A283B3832A893B89A2
:104920004C895D8901E089810E94E70F1D82ABCF30
:10493000CF93DF93EC010E94DE23009711F41982DC
:104940001882DF91CF9108952F923F924F925F92FC
:104950006F927F928F929F92AF92BF92CF92DF928F
:10496000EF92FF920F931F93CF93DF9300D000D06D
:1049700000D0CDB7DEB79E838D836A017B01DC0159
:10498000ED91FC911197309719F0808181111CC035
:1049900009E010E0C80126960FB6F894DEBF0FBEFE
:1049A000CDBFDF91CF911F910F91FF90EF90DF90DE
:1049B000CF90BF90AF909F908F907F906F905F90BF
:1049C0004F903F902F90089512962D913C91139700
:1049D0008681978128173907D9F6CF010E94CB101D
:1049E0008C01892BB9F6ED81FE81848187FDB3C0EE
:1049F00042855385648575854C155D056E057F057B
:104A000020F481FD02C06A017B01AD81BE81169652
:104A10004D915D916D917C911997FD0116821782E0
:104A2000108611868FEF8583C114D104E104F1044F
:104A300009F4B0CF20803180D10112968C90912C56
:104A4000A12CB12C99E0880C991CAA1CBB1C9A952E
:104A5000D1F7411551056105710529F12A013B0185
:104A6000B1E04B1A510861087108C701B6016150E5
:104A7000710981099109A50194010E940C4B2983B8
:104A80003A834B835C83C301B201A50194010E9468
:104A90000C4B89819A81AB81BC8182179307A40753
:104AA000B50708F023C1AD81BE811E964D915D9181
:104AB0006D917C915197411551056105710509F47E
:104AC0002FC1AD81BE8152964D935D936D937C93C2
:104AD0005597411551056105710509F03FC0ED81FC
:104AE000FE8186809780A084B18480E090E0DC0124
:104AF000B501A401517066277727ED81FE81452B12
:104B0000462B472B79F046895789608D718D841724
:104B10009507A607B70731F0ED81FE81868B978B4D
:104B2000A08FB18F82859385A485B5858815990559
:104B3000AA05BB0508F02ECFAD81BE811A968D92D5
:104B40009D92AD92BC921D9714968C9114978062A1
:104B500014968C931FCF02E010E01CCF8C149D04A0
:104B6000AE04BF0408F023C1AD81BE81ED91FC917C
:104B70009F01ED81FE81848181FD1AC04230510583
:104B80006105710568F0D9015A964D905D906D9060
:104B90007C905D97441555056605770508F4A0C01F
:104BA0008068AD81BE8114968C9302E010E0F2CE55
:104BB000C9010E948313AB01BC0141155105610578
:104BC000710509F4E0C04F3FBFEF5B076B077B0740
:104BD00009F4C8C0423051056105710508F4CAC026
:104BE000ED81FE8120813181F901828D938DA48D2B
:104BF000B58D481759076A077B0708F0BBC0ED81E0
:104C0000FE81428B538B648B758B86819781A08547
:104C1000B185880D991DAA1DBB1D86839783A0872A
:104C2000B187C818D908EA08FB088C149D04AE04A3
:104C3000BF0408F49ECF46015701880E991EAA1E94
:104C4000BB1EAD81BE8116968D929D92AD92BC9297
:104C500019972601370189E0769467945794479411
:104C60008A95D1F715964C92B1E0DB22EE24FF2411
:104C7000CD28CE28CF2809F482C0AD81BE81ED9128
:104C8000FC919A01AB012250310941095109828DF1
:104C9000938DA48DB58D0297A109B1092817390705
:104CA0004A075B0708F056C0A281B0E00E945C4B47
:104CB000C6A0D7A0E0A4F1A4DC01CB018C0D9D1D02
:104CC000AE1DBF1D0097A105B10509F443C0840DB9
:104CD000951DA61DB71D4394ED81FE81458208CF29
:104CE000C9010E94D710AB01BC016DCF882799275D
:104CF000DC0188199909AA09BB0984219521A621FB
:104D0000B721ED81FE8186839783A087B187C81A7A
:104D1000D90AEA0AFB0A4289538964897589D9CE7E
:104D200040E050E0BA01C1010E948313AB01BC0115
:104D3000413051056105710569F04F3FFFEF5F0795
:104D40006F077F0749F1ED81FE8146875787608BAA
:104D5000718BB7CEED81FE8184818068848302E00F
:104D600010E018CEED81FE8184818068848301E0AB
:104D700010E010CEAD81BE8114968C9111CF80E0F1
:104D800090E0DC01B5CEED81FE8186819781A08522
:104D9000B185750164014FCFAD81BE8114968C91B0
:104DA0001497806814968C9301E010E0F3CDED81A8
:104DB000FE8186819781A085B1853DCF0F931F939A
:104DC000CF93DF93CDB7DEB72E970FB6F894DEBF43
:104DD0000FBECDBF8C017E876D8740E0BC01CE0148
:104DE0000D960E944D1A009759F02E960FB6F89422
:104DF000DEBF0FBECDBFDF91CF911F910F91089500
:104E0000CE010196D80155969C938E93549781E8D4
:104E100095E057969C938E9356976D857E85C80135
:104E20000E943117009769F5D8015296ED91FC91D7
:104E300053973097B9F0838584FF27C0848995897B
:104E4000A0E0B0E0DC0199278827428D538D60E017
:104E500070E0842B952BA62BB72BF80186839783C4
:104E6000A087B187D801ED91FC9111978681978138
:104E700013969C938E93129760E070E0C8010E9495
:104E800083118430910509F0B0CF85E090E0ADCF7B
:104E90004F925F926F927F928F929F92AF92BF924A
:104EA000CF92DF92EF92FF920F931F93CF93DF93F6
:104EB000CDB7DEB72C970FB6F894DEBF0FBECDBFCF
:104EC000DC01ED91FC911197309719F020812111AF
:104ED00019C089E090E02C960FB6F894DEBF0FBEA3
:104EE000CDBFDF91CF911F910F91FF90EF90DF9099
:104EF000CF90BF90AF909F908F907F906F905F907A
:104F00004F90089512964D915C91139726813781A9
:104F100042175307F1F67B018C01CF010E94CB10A1
:104F20000097C9F6CE010196F801958B848B81E834
:104F300095E0978B868BE114F10409F411C1992453
:104F40009A94DD24DA9484E090E02DE0C22E35EDD1
:104F5000A32E31E0B32E0CC02F3091F1DD24DA9472
:104F600060E070E0C8010E94B014009709F078C0BA
:104F7000F80146855785608971894115510561059C
:104F8000710509F46BC0D8018D919C910E9411109C
:104F9000009709F065C0D8015296ED91FC915397A6
:104FA0008081882309F4C5C0853EC1F28E32B1F2FA
:104FB0009385292F2F7393FDCFCF2F3009F0D6C0C3
:104FC00086FF49C095848F7BD82ED80114968D9189
:104FD0009C91159759969C938E9358978584891028
:104FE000BDCFD80156966D917C91579780818F7374
:104FF00090E00197C89E9001C99E300D1124B9EC34
:105000004B2EB1E05B2E81E041E050E015C0203234
:105010003105ECF4A901440F551F460F571FDA0163
:105020008D939C93AC012F5F3F4FA414B50409F4FA
:1050300086C0D2018D912D013F01680E711CD301F4
:105040008D919C914115510511F7019671F3982CA2
:10505000DD24DA9485CF8D1181CFC0CF009761F028
:10506000D8011E961D921D921D921C9251979C0173
:105070002B7F232B09F02FCF5701B9E0AB0EB11CCA
:10508000F5011082D70156966D907C905797611468
:105090007104E1F1F80186859785A089B189892B92
:1050A0008A2B8B2B69F1808D918D019649F10688B1
:1050B000F789E02D5F01B2E0AB0EB11C80819181D8
:1050C0000097F1F04301C12CD12C14C0F701208DC1
:1050D000318D21503109C216D30694F4FFEFCF1A57
:1050E000DF0AD4018D934D01F501819191915F010A
:1050F000009741F060E070E00E944C29009731F782
:10510000C12CD12CF301EC0DFD1D108260E070E08C
:10511000C8010E94B0148430910509F0DCCED8019A
:105120001E961D921D921D921C92519780E090E058
:10513000D2CEF80116861786108A118A9DCF8081FB
:1051400086FF0BC0203231050CF081CF220F331FB8
:10515000FB01E20FF31F11821082DA94982C00CF2A
:1051600060E070E0C8010E948311B5CED11011C07B
:10517000DF0111969F01255F3F4F90E001C08D91A7
:1051800090FB979597F9980F2A173B07C1F7991548
:1051900039F08FEF9FEFD80159969C938E935897D3
:1051A0009701275F3F4FD8011E964D915D916D91FC
:1051B0007C915197452B462B472B09F466C0D4842C
:1051C000AF01570181E1A80EB11C9D2D987011C04F
:1051D000992329F06FEB680F6A3108F4805E2F5F26
:1051E0003F4FB90161507109DB018C932A153B05D2
:1051F00051F0DA018D91AD01803221F0853041F717
:1052000085EEEDCF59018085803211F1C5010196FF
:105210002EE2D5012C93AF01485F5F4FB4E0AB0E97
:10522000B11C3D2D3071DA012D91AD01203259F1C3
:10523000332329F06FEB620F6A3108F4205E019688
:10524000BC0161507109DB012C938A159B0559F74C
:105250008385D70118968C931897448D558D668D4C
:10526000778D4D935D936D937C931397808D918D86
:1052700015969C938E9314978689978917969C937D
:105280008E931697FDCE5C01E3CF5901F9CE60EC09
:1052900073EB89E494E3089580389105F0F0672B6F
:1052A000B1F42CEA36E040E050E007C04F5F5F4FBA
:1052B0002E5F3F4F4038510571F0F90165917491AF
:1052C0008617970799F7CA0180589F4F08958F3F17
:1052D000910521F018F080E090E00895FC01EE0FB8
:1052E000FF1FE455FA4F8591949108952CEC34E01A
:1052F000F90145915491452B41F1F90145915491A2
:105300008417950711F12EEC34E040E050E009C01D
:10531000F90165917491F90132966817790741F0A6
:105320009F014F5F5F4FF90165917491672B81F782
:10533000F90125913491232B39F0FA01EE0FFF1F6B
:10534000E451FD4F85919491089540E050E0F0CFF5
:1053500080B1869581700895882381F082B18D6235
:1053600082B916988DE681B98FE19EE40197F1F735
:1053700000C0000080B18695817008951098169A3B
:1053800081B1827D81B9F0CF1298129A089590E090
:1053900027E030E006C0139A1298129A2150310982
:1053A00078F0AC01022E02C0559547950A94E2F7B9
:1053B00040FDF1CF13981298129A2150310988F7C5
:1053C000089527E030E080E061E070E01298129AE2
:1053D000049B07C0AB01022E01C0440F0A94EAF7F8
:1053E000842B2150310990F70895159886E00E948A
:1053F000C729159A0895159884E00E94C729159A1F
:105400000895CF93C82F159881E00E94C7298C2F4B
:105410000E94C729159ACF910895159885E00E949A
:10542000C72927E030E080E061E070E01298129A2E
:10543000049B07C0AB01022E01C0440F0A94EAF797
:10544000842B2150310990F7159A0895CF93DF935B
:10545000C8EED3E002C0209789F021970E940D2A60
:10546000EFE1FEE43197F1F700C000008111F3CFC6
:1054700081E0CD2B19F0DF91CF91089580E0DF918D
:10548000CF9108950E94262A159886E00E94C72988
:10549000159A159887EC0E94C729159A0C94262A0C
:1054A0001F93CF93DF93EB01182F159A0E94262AA2
:1054B000159886E00E94C729159A159882E00E94E7
:1054C000C729812F0E94C7298D2F0E94C7298C2FA1
:1054D000DF91CF911F910C94C7290C94262A0F932A
:1054E0001F93CF93DF930E940D2A082F8AE698E03E
:1054F0000E94FD08802F0E94250986E698E00E9400
:10550000FD0810E0C7E0D0E006C084E698E00E9405
:10551000FD08219778F098010C2E02C0359527954B
:105520000A94E2F720FDF1CF82E698E00E94FD08A0
:10553000219788F7DF91CF911F910F910C94680903
:1055400081E00E94AC2915988BEA0E94C72980E06F
:105550000E94C72980E00E94C72980E00E94C729D5
:105560000E94E129159A8051873068F4E82FF0E015
:10557000EE0FFF1FEE0FFF1FEB52FE4F6081718198
:1055800082819381089560E070E0CB010895682FD7
:1055900070E020E030E080E0AB01022E02C05595C3
:1055A00047950A94E2F7880F40FD81602F5F3F4FD7
:1055B0002830310589F708957F928F929F92AF929C
:1055C000BF92CF92DF92EF92FF920F931F93CF93F0
:1055D000DF93CDB7DEB7A3970FB6F894DEBF0FBE4B
:1055E000CDBF8C014A015B017E2C0E940E0980E632
:1055F00098E00E94FD0860E070E0CB010E9439094C
:105600008EE598E00E94FD0860E070E0CB010E940A
:1056100039090E9468094AE0B801CE0101960E944A
:105620003F1C7C01892B09F099C081E00E94AC29C4
:10563000159883E00E94C72980E00E94C72980E076
:105640000E94C72980E00E94C7291AA219A28114CA
:105650009104A104B10409F456C0C12CD12C7601E7
:1056600020C08BA39E012F5D3F4F41E050E0BE0163
:105670006D5D7F4FCE0101960E9460218FEFC81AA9
:10568000D80AE80AF80AD701C6019F70AA27BB27E3
:10569000892B8A2B8B2BF9F08C149D04AE04BF044C
:1056A00091F10E94E1297110DCCF682F70E020E0B9
:1056B00030E090E0AB01022E02C0559547950A9468
:1056C000E2F7990F40FD91602F5F3F4F2830310581
:1056D00089F79BA3C7CF86E398E00E94FD08D70116
:1056E000C6012AE0B695A795979587952A95D1F793
:1056F0000E94300981E398E00E94FD088C149D040B
:10570000AE04BF0471F6159A80E00E94AC2984E2D1
:1057100098E00E94FD08CE0101960E9498248EE137
:1057200098E00E94FD08C8010E940E0982E198E0FD
:105730000E94FD08A3960FB6F894DEBF0FBECDBF42
:10574000DF91CF911F910F91FF90EF90DF90CF905D
:10575000BF90AF909F908F907F90089584E498E0E1
:105760000E94FD08C7010E943932D5CFBF92CF9267
:10577000DF92EF92FF920F931F93CF93DF93CDB7FA
:10578000DEB7A3970FB6F894DEBF0FBECDBF8C0176
:10579000B22E0E940E0980E198E00E94FD0860E0B0
:1057A00070E0CB010E9439090E94680941E0B8010C
:1057B000CE0101960E943F1C7C01892B09F09CC000
:1057C00081E00E94AC2984EE97E00E94FD080E94CF
:1057D000422A8DED97E00E94FD081AA219A2C12C61
:1057E000D12C76019E012F5D3F4F41E050E0BE017C
:1057F0006D5D7F4FCE0101960E947D1F89A19AA108
:10580000019709F042C0B11014C06BA170E080E0B4
:1058100090E020E0AB01082E02C0559547950A9410
:10582000E2F7220F40FD216001968830910591F743
:105830002BA3CC2029F18BA10E94C7298FEFC81A76
:10584000D80AE80AF80AD701C6019F70AA27BB2721
:10585000892B8A2B8B2B31F68FEC97E00E94FD0869
:10586000D701C6012AE0B695A795979587952A9501
:10587000D1F70E9430098AEC97E00E94FD08B2CF70
:10588000C701B6010E94502AD6CF0E946D2A80E03F
:105890000E94AC298EEB97E00E94FD0882E3EFE3C3
:1058A000FCE93197F1F700C00000EFE3FCE9319724
:1058B000F1F700C00000815091F7CE0101960E94DF
:1058C000982488EB97E00E94FD08C8010E940E0909
:1058D0008CEA97E00E94FD08A3960FB6F894DEBF0D
:1058E0000FBECDBFDF91CF911F910F91FF90EF9031
:1058F000DF90CF90BF90089588EF97E00E94FD0859
:10590000C7010E943932D9CF8F929F92AF92BF9236
:10591000EF920F931F93CF93DF93EC010E94A02A85
:105920004B015C0180910E0190910F01A09110013B
:10593000B09111010297A105B10550F084EC98E0F7
:105940000E94FD08C501B4010E9439090E9468093E
:10595000E12C00E010E09801B501A401CE010E9405
:10596000DC2ADF91CF911F910F91EF90BF90AF9004
:105970009F908F90089520E040E050E0BA010C9491
:10598000B62BCF92DF92EF92FF92CF9381E00E94ED
:10599000AC290E946F2A15988BEA0E94C72980E0E3
:1059A0000E94C72980E00E94C72980E00E94C72981
:1059B0000E94E129C82F159A80E00E94AC2987EB4C
:1059C00098E00E94FD088C2F0E94250985EB98E045
:1059D0000E94FD08C43109F44EC018F5C03109F425
:1059E00040C0C23161F589EA98E00E94FD08C12CEF
:1059F000D12C38E0E32EF12C0E9468098CE798E066
:105A00000E94FD08C701B6010E94390986E798E0A7
:105A10000E94FD08CF91FF90EF90DF90CF900C9403
:105A20006809C531A1F0C63151F483E998E00E94BC
:105A3000FD08C12CD12C80E8E82EF12CDDCF85E8C3
:105A400098E00E94FD08C12CD12C7601D5CF8AE9BF
:105A500098E00E94FD08C12CD12C90E4E92EF12C95
:105A6000CBCF8FEA98E00E94FD08C12CD12C42E0F8
:105A7000E42EF12CC1CF82EA98E00E94FD08C12CEF
:105A8000D12C20E2E22EF12CB7CF0C94007C0895AB
:105A9000CF93DF9386E199E00E94FD080E94680998
:105AA000C5EAD9E023C048E050E082E796E00E94D2
:105AB000934C6091A5067091A6064EE150E081E8F6
:105AC00096E00E94934C82E796E00E940E0981E1E5
:105AD00099E00E94FD0881E896E00E940E090E946C
