:100000000C948D090C94AA090C94AA090C945141E2
:100010000C94AA090C94744A0C94C2490C949B4900
:100020000C94FC490C94AA090C94E7090C94824A9C
:100030000C94AA090C94360A0C94AA090C94AA09E7
:100040000C94AA090C94AA090C94AA090C94AA0964
:100050000C94AA090C94AA090C94AA096E616E006A
:10006000696E660000407A10F35A00A0724E1809BB
:100070000010A5D4E80000E87648170000E40B540F
:10008000020000CA9A3B000000E1F50500008096DE
:100090009800000040420F000000A0860100000010
:1000A000102700000000E8030000000064000000CA
:1000B00000000A00000000000100000000002C7693
:1000C000D888DC674F0823DFC1DFAE59E1B1B796AE
:1000D000E5E3E453C63AE651997696E8E6C284260B
:1000E000EB898C9B62ED407C6FFCEFBC9C9F40F2E7
:1000F000BAA56FA5F490055A2AF75C936B6CF96763
:100100006DC11BFCE0E40D47FEF520E6B500D0ED27
:10011000902E0300943577050080841E080000208F
:100120004E0A000000C80C333333330F986E12832D
:100130001141EF8D2114893BE65516CFFEE6DB1801
:10014000D1844B381BF77C1D901DA4BBE4242032C6
:1001500084725E228100C9F124ECA1E53D2763642D
:10016000696E6F70737578585B000D0A0074696D65
:10017000656F7574202E2E2E2046504741206C6FDF
:100180006164206661696C65640D0A007761697459
:1001900020636F6E66202E2E2E0D0A000D0A002E93
:1001A0000A0D002072657300636F726520726573BB
:1001B000657420000D0A002E0A0D00207265730080
:1001C0007265736574200020633020002063312045
:1001D00000207230200020723120002E2E2E0020B0
:1001E000726573002E2E2E0020726573002E2E2E47
:1001F0000020726573002E2E2E002063726573003E
:100200002E2E2E002063726573002E2E2E0020727B
:100210006573006D6D635F696E6974204572726FFE
:1002200072004361726454797065203A002A2A2072
:10023000496E697420646F6E65202A2A0D0A005287
:10024000617720566F6C746167653A20002A2A2016
:10025000506F776572206F6E20646F6E65202A2A5A
:100260000D0A002A2A20506F77657220696E697422
:1002700020646F6E652028706F776572206F6666E8
:1002800029202A2A0D0A002A2A20554152542D4994
:100290006E697420646F6E65202A2A0D0A00410081
:1002A0004200430044004500460047004800490022
:1002B0004A004B004C004D004E004F0050005100D2
:1002C0005200530054005500560057005800590082
:1002D0005A002100E0FFE1FFE5FFE2FFE3FFC0007D
:1002E000C100C200C300C400C500C600C700C800EA
:1002F000C900CA00CB00CC00CD00CE00CF00D0009A
:10030000D100D200D300D400D500D600D800D90047
:10031000DA00DB00DC00DD00DE0078010001020114
:100320000401060108010A010C010E01100112016D
:100330001401160118011A011C011E0120012201DD
:100340002401260128012A012C012E01300132014D
:100350003401360139013B013D013F0141014301B7
:10036000450147014A014C014E015001520154011F
:10037000560158015A015C015E016001620164018D
:10038000660168016A016C016E01700172017401FD
:10039000760179017B017D01910191039203930321
:1003A0009403950396039703980399039A039B0379
:1003B0009C039D039E039F03A003A103A303A40327
:1003C000A503A603A703A803A903AA031004110405
:1003D0001204130414041504160417041804190451
:1003E0001A041B041C041D041E041F042004210401
:1003F00022042304240425042604270428042904B1
:100400002A042B042C042D042E042F0401040204BE
:1004100003040404050406040704080409040A0488
:100420000B040C040E040F0460216121622163217E
:100430006421652166216721682169216A216B2178
:100440006C216D216E216F2121FF22FF23FF24FFEC
:1004500025FF26FF27FF28FF29FF2AFF2BFF2CFF60
:100460002DFF2EFF2FFF30FF31FF32FF33FF34FF10
:1004700035FF36FF37FF38FF39FF3AFF00006100D4
:100480006200630064006500660067006800690040
:100490006A006B006C006D006E006F0070007100F0
:1004A00072007300740075007600770078007900A0
:1004B0007A00A100A200A300A500AC00AF00E000FC
:1004C000E100E200E300E400E500E600E700E80008
:1004D000E900EA00EB00EC00ED00EE00EF00F000B8
:1004E000F100F200F300F400F500F600F800F90066
:1004F000FA00FB00FC00FD00FE00FF00010103010B
:100500000501070109010B010D010F011101130183
:100510001501170119011B011D011F0121012301F3
:100520002501270129012B012D012F013101330163
:10053000350137013A013C013E01400142014401CD
:10054000460148014B014D014F0151015301550135
:10055000570159015B015D015F01610163016501A3
:10056000670169016B016D016F0171017301750113
:1005700077017A017C017E019201B103B203B303DA
:10058000B403B503B603B703B803B903BA03BB0397
:10059000BC03BD03BE03BF03C003C103C303C40345
:1005A000C503C603C703C803C903CA033004310423
:1005B000320433043404350436043704380439046F
:1005C0003A043B043C043D043E043F04400441041F
:1005D00042044304440445044604470448044904CF
:1005E0004A044B044C044D044E044F04510452047D
:1005F00053045404550456045704580459045A0427
:100600005B045C045E045F0470217121722173211C
:100610007421752176217721782179217A217B2116
:100620007C217D217E217F2141FF42FF43FF44FF4A
:1006300045FF46FF47FF48FF49FF4AFF4BFF4CFF7E
:100640004DFF4EFF4FFF50FF51FF52FF53FF54FF2E
:1006500055FF56FF57FF58FF59FF5AFF0000C700CC
:10066000FC00E900E200E400E000E500E700EA0049
:10067000EB00E800EF00EE00EC00C400C500C9008C
:10068000E600C600F400F600F200FB00F900FF00EF
:10069000D600DC00F800A300D800D7009201E100EA
:1006A000ED00F300FA00F100D100AA00BA00BF008B
:1006B000AE00AC00BD00BC00A100AB00BB009125AA
:1006C0009225932502252425C100C200C000A9005F
:1006D0006325512557255025A200A5001025142576
:1006E00034252C251C2500253C25E300C3005A2574
:1006F000542569256625602550256C25A400F00049
:10070000D000CA00CB00C800AC20CD00CE00CF0086
:1007100018250C2588258425C600CC008025D3000B
:10072000DF00D400D200F500D500B500FE00DE00E9
:10073000DA00DB00D900FD00DD00AF00B400AD0041
:10074000B1001720BE00B600A700F700B800B00047
:10075000A800B700B900B300B200A025A000206631
:100760006C61736865642E0A0D0046696C65200033
:1007700020646F6E65202E2E2E0A0D00204B420D38
:1007800000462D77726974696E67202030780064A6
:100790006F6E650A0D00464C6173683A20657261A0
:1007A00073696E67202E2E2E20004572726F723A8A
:1007B00020556E61626C6520746F20726561643AC9
:1007C0002000200020637265617465642E0A0D00AC
:1007D00046696C6520000A0D646F6E65202E2E2E12
:1007E0000A0D00204B420D00462D72656164696E52
:1007F0006720203078004572726F723A20556E6122
:10080000626C6520746F206372656174653A2000C4
:100810002000200030003100203A200041532D53A9
:1008200074617475733A20002042797465005369CD
:100830007A653A203078002A2A20756E6B6E6F77C1
:100840006E202A2A00455043533634004550435306
:1008500051333200455043533136004550435334F1
:1008600000455043533100200053696C69636F6E3B
:100870002D49443A200046697865642050617261D0
:100880006D657465723A206C656E2C207573696EA7
:1008900067206C656E3D20003E003C004572726F23
:1008A000723A20556E61626C6520746F206F7065BE
:1008B0006E3A20002D2D2D2D2D2D2D2D2D2D2D2D54
:1008C0000A0D00202D2D20002A2A2059482D46509F
:1008D00047412D5368656C6C202A2A0D0A00434D50
:1008E000443A206361740D0A00434D443A20686520
:1008F000780D0A00202A2000202A20005061726111
:100900006D657465723A2000202A20005061726182
:100910006D657465723A2000506172616D65746531
:10092000723A2000202D2D20006D697373696E6767
:1009300020706172616D657465723A20002000500C
:100940006172616D657465723A20002000436F6DBD
:100950006D616E643A2000001C0C202F120C000CFC
:100960000C1C2F020C00FD0B613BF10B01EB0B6526
:100970002FD70B01D10B912FC10B01BA0B1D3AAC34
:100980000B00A90BE02F930B018F0B1230850B018D
:10099000810BE32F740B01710BFA31620B015E0BBB
:1009A000D70D4F0B014A0B1D0E360B012E0B5B2E84
:1009B0001D0B01140B922EF50A00EC0A982EDB0A8F
:1009C00000D30AE13EC30A03BC0A483DA30A029BC6
:1009D0000A1C3E830A027C0A6C3C6A0A02670AFA15
:1009E0003E520A004E0A773F440A01400A793F2AE4
:1009F0000A00260A9F3F140A0000000000000000C1
:100A000000000000000000000000000000000000E6
:100A10000000000073686F777320696E666F206F47
:100A20006E206F7364006F7364006A6F7920766163
:100A30006C7565202874657374206F6E6C7929005D
:100A40006A6F790072657365742070733200707319
:100A50003200736420726177696D61676566696CE5
:100A600065207479706500736400662D64756D701F
:100A7000206F6666736574206C656E00662D647504
:100A80006D7000662D7772697465206F6666736598
:100A9000742066726F6D66696C6500662D77726989
:100AA000746500662D72656164206F666673657497
:100AB000206C656E20746F66696C6500662D7265CA
:100AC000616400657261736520544F532D466C61FB
:100AD000736800662D657261736500436F6E6669A9
:100AE00067466C61736820496E666F0061732D679D
:100AF00065746964007772697465202E726266207D
:100B000066696C6520746F20436F6E666967466C1A
:100B10006173680061732D77726974650072656135
:100B20006420436F6E666967466C61736800617329
:100B30002D72656164006372657320636F72657204
:100B4000657365746C6576656C00637265730072BD
:100B500065732072657365746C6576656C0072658B
:100B600073006578656320626174636866696C65AB
:100B700000646F0068657864756D702066696C65E7
:100B8000006865780073686F772066696C6500633C
:100B90006174006C6973742053444361726420442F
:100BA00069726563746F7279006C730070757A7A1C
:100BB0006C6520726F756E64730070757A7A6C65FF
:100BC00000776169742064656C74696D65206D736C
:100BD0000064656C617900656E61626C65204465D6
:100BE0006275672054726163657300747261636536
:100BF0000053797374656D20496E666F00696E6687
:100C00006F00706F776572206F666600726573653E
:100C100074007468697320546578740068656C703A
:100C200000667067612D7368656C6C3A3E20004504
:100C300072726F723A20000A0D4156522D5265733E
:100C4000746172740D0A0059482D667067612D73C6
:100C500068656C6C3A3E20002A2A2A205375736B13
:100C6000612D4949492D424620465047412D536840
:100C7000656C6C202A2A2A0D0A0046504741204400
:100C8000656661756C7420696E69742D46696C6562
:100C90002028696E69742E74787429206661696CE5
:100CA00065640D0A0020667265733D004572726FBF
:100CB000723A20556E61626C6520746F206F7065AA
:100CC0006E3A20002000203A20004572726F723A7E
:100CD00020556E61626C6520746F206F70656E3A8E
:100CE000200069202D20696E666F0A006F202D207C
:100CF0006F70656E2066696C6520626C6F636B69EE
:100D00006E670A0064202D206465616374697661F2
:100D100074652066696C650A0061202D206163742A
:100D200069766174652066696C650A0053442D46D6
:100D3000696C652064697361626C65640A00534480
:100D400020496E666F0A005245510A0D00776169AD
:100D500074202E2E2E2000204B420D0054462D775D
:100D6000726974696E672020307800204B420D0054
:100D700054462D72656164696E67202030780046A4
:100D80005047412D56657273696F6E3A20002920D5
:100D900000556E6B6E6F776E20436F7265004D75F8
:100DA0006C7469636F6D70205A3830004F6C64202A
:100DB000436F726520776974686F757420747970F9
:100DC0006500756E6B6E6F776E004156520054650C
:100DD0007374436F72652000756E6B6E6F776E0073
:100DE000537061636520496E76616465727300417A
:100DF000726361646520002053544520005375736D
:100E00006B612D4949492D4246002046414C434FD4
:100E10004E20005375736B612D4949492D424600A0
:100E200020545420005375736B612D4949492D425C
:100E300046002028002000465047412D436F726530
:100E4000747970653A200041544D4547412D5665EF
:100E50007273696F6E3A2000496E70757420566F18
:100E60006C746167653A200072617720496E707515
:100E70007420566F6C746167653A2000756E6B6EF6
:100E80006F776E00574636384B303000574636384D
:100E90004B313000574636384B33300057463638E2
:100EA0004B33304C004D6F7573653A20004B6579BC
:100EB000626F6172643A2000436865636B2050532F
:100EC0003220446576696365730A0D0020646F6E95
:100ED000650A0D000A0D756E6B6E6F776E20726578
:100EE000713A2000773A2000723A20000A0D7365AB
:100EF000656B206661696C65640A0D000A0D696C9A
:100F00006C6567616C207265713A20000A0D657826
:100F1000697420436D640A0D0000000000000000A9
:100F20000055555555555555552A2A2A2A2A2A2AF3
:100F30002A141414141414141400000000000000E7
:100F400000000000000000000000000000000000A1
:100F50000000000000000000000000000000000091
:100F60000000000000000000000000000000000081
:100F70000000000000000000000000000000000071
:100F800000000000000000000000C0C0E0781F006A
:100F9000FFFF001F78E0C0C00008081C1C3E3E7F19
:100FA0007F7F7F3E3E1C1C08080010187C7C1810B8
:100FB000000010307C7C3010001C1C1C1C1C1C0011
:100FC0000000001C1C1C1C1C1C007C7C38381010F1
:100FD00000707C7272727C7000707070707C720233
:100FE0000C3E3E2222223E3E003E3E3E3E3E3E3EE5
:100FF000000000000C0C00000000000000000000D9
:1010000000000000000000000000000000000000E0
:1010100000000000000000000000000000000000D0
:10102000000000005F5F00000000030300030300F6
:1010300000147F7F147F7F140000242E6B6B3A1204
:10104000004C6A36186C563200307E4F59773A6839
:1010500040000004070300000000001C3E63410044
:1010600000000041633E1C0000082A3E1C1C3E2A72
:10107000080008083E3E080800000080E06000000C
:101080000000080808080808000000006060000070
:1010900000406030180C060301003E7F594D7F3E32
:1010A000000004067F7F00000000426371594F4634
:1010B0000000226349497F3600181C16137F7F10F9
:1010C0000000276745457D3900003C7E4B4979305B
:1010D0000000010171790F070000367F49497F3612
:1010E0000000064F49693F1E0000000066660000D0
:1010F00000000080E66600000000080814142222A8
:1011000000001414141414140000222214140808EB
:101110000000020351590F06003E7F415D551F1E1E
:1011200000007E7F09097F7E00007F7F49497F366E
:1011300000001C3E6341414100007F7F41633E1C33
:1011400000007F7F4949414100007F7F090901017B
:1011500000003E7F41497B7A00007F7F08087F7F47
:10116000000000417F7F41000000206040407F3F41
:10117000007F7F081C36634100007F7F4040404075
:10118000007F7F060C067F7F007F7F060C187F7F25
:1011900000003E7F41417F3E00007F7F09090F062E
:1011A000003E7F41617F7E4000007F7F09197F669E
:1011B0000000266F4D597B32000001017F7F010145
:1011C00000003F7F40407F3F00000F3F70703F0FA7
:1011D000007F7F3018307F7F004163361C1C3663F0
:1011E000410103067C7C0603016171594D4743416F
:1011F0000000007F7F414100000103060C183060B1
:1012000040000041417F7F0000080C0603060C08E7
:101210000080808080808080000000000307040040
:101220000000207454547C7800007F7F44447C3854
:101230000000387C444444000000387C44447F7FF4
:101240000000387C54545C180000047E7F050500C3
:10125000000018BCA4A4FC7C00007F7F04047C7800
:10126000000000003D7D40000000808080FD7D008A
:1012700000007F7F10386C44000000003F7F40007A
:10128000007C7C0C180C7C7800007C7C04047C784E
:101290000000387C44447C380000FCFC24243C18CA
:1012A0000000183C2424FCFC00007C7C04040C0896
:1012B0000000485C545474200000043F7F44440004
:1012C00000003C7C40407C7C00001C3C60603C1C7E
:1012D000003C7C6030607C3C00446C3810386C44CE
:1012E00000001CBCE0603C1C00004464745C4C4486
:1012F000000008083E774141000000007F7F0000A9
:1013000000004141773E080800020101030202018A
:10131000007F7F7F7F7F7F7F000011241FBECFEF84
:10132000D0E1DEBFCDBF16E0A0E0B1E0ECEDF1EB27
:1013300002C005900D92A631B107D9F72BE0A6E1C6
:10134000B6E001C01D92A63AB207E1F70E941D5017
:101350000C94EC580C940000F89428E024BD0197FC
:1013600061F084B5856084BD8BE987BD80916E0096
:10137000826080936E007894089584B5846084BD03
:101380008DE387BD80916E00826080936E007894BB
:1013900008950F931F938B019C01672B682B692B7A
:1013A00089F080E090E0EFE9FFE03197F1F700C0CD
:1013B00000000196AC0160E070E040175107620741
:1013C000730788F31F910F9108950C94C9091F9218
:1013D0000F920FB60F9211248F939F93AF93BF93E9
:1013E0008091160690911706A0911806B0911906E3
:1013F0000196A11DB11D8093160690931706A09328
:101400001806B0931906BF91AF919F918F910F90DD
:101410000FBE0F901F9018951092C5008093C400C6
:1014200086E08093C20088E18093C1000895909384
:10143000C5008093C40008959FB7F8948091C100BF
:1014400080688093C1008091C6008091C00087FDB4
:10145000FACF80EC8093C0009FBF42E36BE677E059
:101460008DE997E00E948E0B789408951F920F9259
:101470000FB60F9211242F933F934F938F939F9307
:10148000EF93FF934091C60090919D0780919E0736
:101490009817D0F4E091A107F091A2079F012F5F68
:1014A0003F4F40838091A4078150D1F08093A407DF
:1014B0003093A2072093A1079FB7F89480919D07CE
:1014C0008F5F80939D079FBFFF91EF919F918F91B9
:1014D0004F913F912F910F900FBE0F901F90189535
:1014E00080919E07281B3109E1CF8DE997E00C948C
:1014F000B20B8DE997E00C94980B9091C00095FF8A
:10150000FCCF8093C6000895CF93C82F8A3039F05E
:101510008C2F0E947D0A80E090E0CF9108958DE0AD
:101520000E947D0A8C2F0E947D0A80E090E0CF917E
:101530000895CF93DF93EC01FC018491882339F067
:101540000E947D0A2196FE0184918111F9CFDF91DD
:10155000CF910895CF93DF93EC018881882331F0F8
:1015600021960E947D0A89918111FBCFDF91CF9155
:1015700008958A3018F4805D0C947D0A895C0C947F
:101580007D0ACF93C82F82958F700E94B90A8C2F45
:101590008F70CF910C94B90ACF93C82F892F0E94D6
:1015A000C10A8C2FCF910C94C10ACF92DF92EF9297
:1015B000FF926B017C01C7010E94CC0AC601FF901B
:1015C000EF90DF90CF900C94CC0ACF93C82F843645
:1015D000B0F08CE98C0F8436A0F0C85C82E30E94E6
:1015E0007D0A80E3CA3020F08F5FCA50CA30E0F72E
:1015F0000E947D0A80E38C0FCF910C947D0A80E3DA
:10160000EECFC82F81E3EBCF8AE691E00C94990AE4
:10161000EF92FF920F931F93CF93DF937C01D62F0E
:10162000C0E000E010E008C0CF5F0C2F10E0F70131
:10163000E00FF11FCD17F0F48DE997E00E94B20B97
:10164000F701E00FF11F8F3F2FEF920799F0808392
:101650008D3081F08A3071F0883031F7CC2399F0E9
:101660001082C1500C2F10E0F801EE0DFF1D10820A
:10167000CD1710F310828C2FDF91CF911F910F9116
:10168000FF90EF900895E0E0F0E0EFCF0F931F930D
:10169000CF93DF938C01D62FC0E00DC0F801EC0F83
:1016A000F11D80838D3059F18A3049F18830B9F0CD
:1016B000CF5FCD1708F50E94EB478DE997E00E94B8
:1016C000B20B8F3F2FEF920749F7C111F2CFF8010C
:1016D00010828C2FDF91CF911F910F910895CC2311
:1016E00041F01082C150EC2FF0E0E00FF11F1082AA
:1016F000E0CFE0E0F0E0F9CFF801EC0FF11D10824F
:101700000D9739F7C111E5CF8DE0F8018083118283
:101710008C2FDF91CF911F910F910895FC011082C2
:10172000758364837383628341834783468308950B
:10173000FC0190819923E9F3A281B3819D012F5F80
:101740003F4F8C919681915019F49181291B310959
:101750003383228396832FB7F8949081915090839E
:101760002FBF0895FC0180818823B9F0A281B38145
:101770009D012F5F3F4F8C919681915019F491817B
:10178000291B31093383228396832FB7F8949081E4
:10179000915090832FBF90E008958FEF9FEF0895B1
:1017A000CF93DF93EC01C11580E8D807E9F0CE01B3
:1017B000D7FD1FC010922006E0E2F6E02AE030E0FC
:1017C000B9010E94BA52805D8293CB010097C1F7A4
:1017D000D7FD04C0CF01DF91CF9108958DE28293B0
:1017E000CF01DF91CF91089585E193E0DF91CF9113
:1017F0000895882799278C1B9D0BDCCFFC019081D5
:101800009D3249F19B3261F161E070E080ED890F1A
:101810008A3058F5319620E030E0A901440F551F79
:10182000220F331F220F331F220F331F420F531F6C
:10183000292F30E020533109240F351F919180ED7D
:10184000890F8A3050F3269FC001279F900D369F45
:10185000900D11240895918131966FEF7FEFD6CFCF
:101860009181319661E070E0D1CF80E090E0089501
:101870008A3010F4805D0895895C08951F93CF939A
:10188000DF93182F82958F700E94380CC6E2D6E045
:101890008883812F8F700E94380C89831A82CE0131
:1018A000DF91CF911F9108950F931F93CF93DF93F3
:1018B0008C01812F82958F700E94380CC1E2D6E096
:1018C0008883C80188279F70892F0E94380C8983DC
:1018D000C801807F9927929582958F7089279F7084
:1018E00089270E94380C8A83802F8F700E94380CC1
:1018F0008B831C82CE01DF91CF911F910F910895B0
:101900008F929F92AF92BF92FF920F931F93CF93AC
:10191000DF934B015C011092300620E030E0A9011A
:101920000E94F55087FD7BC0F12C20E030E048ECB0
:1019300052E4C501B4010E944D520E946C514B010A
:101940005C0124E630E040E050E00E94CE522DECF5
:10195000629F212D1124269526952695462F3AE043
:10196000239F40191124463008F447C02AE030E094
:1019700040E050E00E94CE52293009F057C084E682
:10198000880E911CA11CB11C20E320932F068EE22F
:1019900080932E06C501B40124E630E040E050E01B
:1019A0000E94CE52CA01B901232B242B252B89F189
:1019B0000DE216E02AE0822E912CA12CB12C01C060
:1019C0008E01E8012197A50194010E94CE52605D2D
:1019D0006983B901CA01611571058105910581F716
:1019E000F11013C0C801DF91CF911F910F91FF90AB
:1019F000BF90AF909F908F9008952AE030E040E034
:101A000050E00E94CE52205DC0CF8DE288838E01CF
:101A1000E9CF80E380932D060DE216E0E3CFB7FA1D
:101A2000B094B7F8B094FF24F3947FCF2F5CADCF80
:101A3000813019F0E8F08230A9F080917C00806C50
:101A400080937C0080917A00876080937A008091F7
:101A50007C00807E80937C0080917A0080688093F7
:101A60007A00089580917C008F7380937C00EACF88
:101A700080917C008F73806480937C00E3CFECE7DF
:101A8000F0E09081907E892B8083089580917A0088
:101A900086FB882780F991E0892708958091780056
:101AA0009091790008958A9A86ED91E00C94990AB4
:101AB000899A8CEC91E00C94990A89988A98819A79
:101AC000829A08958EE092E00E94990A0E94530D36
:101AD0008AE092E00E94990A64EF71E080E090E071
:101AE0000E94C90984E092E00E94990A0E94580D60
:101AF00080E092E00E94990A64EF71E080E090E05B
:101B00000E94C9098AEF91E00E94990A899887EC9E
:101B100091E00E94990A86EF91E00E94990A64EF91
:101B200071E080E090E00E94C90981EF91E00E949D
:101B3000990A8A9881ED91E00E94990A8DEE91E0D0
:101B40000E94990A64EF71E080E090E00E94C90968
:101B500088EE91E00E94990A0E94530D84EE91E074
:101B60000E94990A64EF71E080E090E00E94C90948
:101B70008FED91E00E94990A8A9881ED91E00E9490
:101B8000990A8BED91E00C94990A811105C08A980D
:101B900081ED91E00C94990A0C94530D811105C0CC
:101BA000899887EC91E00C94990A0C94580DCF9386
:101BB000DF931F92CDB7DEB79E012F5F3F4F3F935C
:101BC0002F932CE133E03F932F939F938F930E94A9
:101BD0005A5580EC91E00E94990A89810F900F90EC
:101BE0000F900F900F900F90823051F00E94C50D12
:101BF00084EB91E00E94990A0F90DF91CF910895B4
:101C00008BEB91E00E94990A0E94530D64EF71E002
:101C100080E090E00E94C9098A9881ED91E00E94DD
:101C2000990A87EB91E00E94990A84EB91E00E9467
:101C3000990A0F90DF91CF910895CF93DF931F9270
:101C4000CDB7DEB79E012F5F3F4F3F932F932CE11F
:101C500033E03F932F939F938F930E945A5588EAC6
:101C600091E00E94990A89810F900F900F900F9038
:101C70000F900F90823051F00E94CE0D8CE991E0D0
:101C80000E94990A0F90DF91CF91089583EA91E025
:101C90000E94990A0E94580D64EF71E080E090E084
:101CA0000E94C909899887EC91E00E94990A8FE9FE
:101CB00091E00E94990A8CE991E00E94990A0F90A4
:101CC000DF91CF91089589988A98819A829A8B980A
:101CD000839A0C94290FCF93DF9390913106981734
:101CE000A9F1D82F811111C08B9864E670E080E0D3
:101CF00090E00E94C90980B181E0D11101C080E06B
:101D0000D0933106DF91CF9108958B9A64E670E00D
:101D100080E090E00E94C9090199EECFCAE06CE230
:101D200071E080E090E00E94C9098CE891E00E9497
:101D3000990AC150019907C0C111F1CF8DE691E018
:101D40000E94990AD9CFC111D7CFF8CF80E0DF9197
:101D5000CF91089584B1866084B90895282F98E0C2
:101D600080E065C0000000000000000000000000EE
:101D70000000000000000000000000000000000063
:101D80000000000000000000000000000000000053
:101D900000000000299A0000000000000000000080
:101DA0000000000000000000000000000000000033
:101DB0000000000000000000000000000000000023
:101DC0000000000000000000000000000000000013
:101DD0000000000000000000000000000000000003
:101DE00000000000000000000000000000000000F3
:101DF0000000000000002998000000000000000022
:101E000000000000000000000000000000000000D2
:101E100000000000000000000000000000000000C2
:101E20000000000000000000220F915079F027FD13
:101E30000EC02A98880F1B998160309132063111AB
:101E400091CF299A2998220F915089F708952A9ABB
:101E5000F1CF2C9A2D9A259A249A089580913306D1
:101E60000895DF92EF92FF920F931F93CF93DF932A
:101E7000182F042FF52EE62ED72E87FD46C02C9A5C
:101E80002C98C5EFD1E002C02197B1F18FEF0E94ED
:101E9000AE0E8F3FC9F7812F0E94AE0E8D2D0E948E
:101EA000AE0E8E2D0E94AE0E8F2D0E94AE0E802F94
:101EB0000E94AE0E103459F0183489F181E00E946E
:101EC000AE0E1C3439F48FEF0E94AE0E03C085E9CC
:101ED0000E94AE0EC4EFD1E002C0219729F08FEF2F
:101EE0000E94AE0E87FDF9CFDF91CF911F910F9128
:101EF000FF90EF90DF9008958FEFDF91CF911F91CA
:101F00000F91FF90EF90DF90089540E050E0BA010C
:101F100087E70E94310F823038F71F77B0CF87E80C
:101F20000E94AE0ED7CF8F929F92AF92BF92CF9268
:101F3000DF92EF92FF920F931F93CF93DF9300D026
:101F400000D0CDB7DEB72D982FEF81EE94E0215071
:101F500080409040E1F700C0000081E080933206AD
:101F60001FE08FEF0E94AE0E1150D9F7EFEFF1EEA8
:101F700024E0E150F0402040E1F700C00000E12CF7
:101F8000F12C09C0EFEFF0E722E0E150F0402040F3
:101F9000E1F700C0000040E050E0BA0180E40E9498
:101FA000310F813019F18FEFE81AF80A9CE0E91639
:101FB000F10441F7109233062C9A83E192E00E94DB
:101FC000990A0E94040B2D9A812F0F900F900F9069
:101FD0000F90DF91CF911F910F91FF90EF90DF90C5
:101FE000CF90BF90AF909F908F9008954AEA51E0B4
:101FF00060E070E088E40E94310F813009F43DC058
:1020000040E050E0BA0189EE0E94310F823008F4BE
:1020100089C0DD24D39401E498EEE92E93E0F92EF3
:102020000BC08FE99FE00197F1F700C0000091E03D
:10203000E91AF10809F4BECF40E050E0BA01802F60
:102040000E94310F8111EDCF40E052E060E070E07E
:1020500080E50E94310F8111ADCFD09233062C9ACA
:102060001092320682E292E00E94990A8D2D0E941F
:10207000C10A0E94040B11E0A7CFFE0131964F0167
:102080005E01F5E0AF0EB11C64018FEF0E94AE0E51
:10209000F60181936F01AE16BF06B9F78B818130CF
:1020A00009F088CF8C818A3A09F084CFFFEFEF1ACC
:1020B000FF0A12C02FEF80E792E02150804090404D
:1020C000E1F700C00000EFEFEE1AFE0AF5EFEF16A1
:1020D000F1E0FF0609F46ECF40E050E060E070E40C
:1020E00089EE0E94310F8111E5CF24EFE21621E045
:1020F000F20608F05FCF40E050E0BA018AE70E94A4
:10210000310F811157CF8FEF0E94AE0EF4018193F2
:102110004F01AE16BF06B9F7898186FD07C034E0CE
:10212000D32E9BCF28E0D22E09EE76CF8CE0D82E8E
:1021300094CFCF93DF93C5EFD1E002C0219729F070
:102140008FEF0E94AE0E8F3FC9F7DF91CF910895B8
:10215000CF92DF92EF92FF920F931F93CF93DF9373
:102160007A012091330623FD07C029E0660F771F0F
:10217000881F991F2A95D1F7AB01BC0188E50E9401
:10218000310F811146C005EF11E004C00150110963
:1021900009F43EC08FEF0E94AE0E8F3FB9F78EEF6D
:1021A0000E94AE0E8701FEEFFF1A6801F8018191CF
:1021B0008F010E94AE0EF6012081CE019227092EDA
:1021C0000294202D2F702927392F3025330F307E90
:1021D0002327302D3927307F3695092E000C331FE9
:1021E0009695969596959F7193279827822FEC0147
:1021F000E016F10609F0D9CF8D2F0E94AE0E8C2F7C
:102200000E94AE0E8FEF0E94AE0E8F71853051F09E
:1022100081E0DF91CF911F910F91FF90EF90DF90C0
:10222000CF9008958FEF0E94AE0E8F3FD9F72C9A72
:1022300080E0EFCFEF92FF920F931F93CF93DF9346
:102240007A012091330623FD07C029E0660F771F2E
:10225000881F991F2A95D1F7AB01BC0181E50E9427
:10226000310F811113C0C8EED3E008C08FE99FE0A1
:102270000197F1F700C00000219739F08FEF0E941D
:10228000AE0E8F3F99F38E3F41F080E0DF91CF910A
:102290001F910F91FF90EF90089587019EEFF91A1B
:1022A000C0E0D0E08FEF0E94AE0EF80181938F0165
:1022B0009E013827032E0294802D8F708327932F41
:1022C0009025990F907E8927902D9327907F969542
:1022D000032E000C991F3695369536953F71392798
:1022E0003227282FE901EE16FF06E1F68FEF0E9454
:1022F000AE0E082F10E0102F00278FEF0E94AE0EB9
:102300002C9A082B81E00C171D0709F4BECFDF9132
:10231000CF911F910F91FF90EF90089508950E9423
:10232000930F882321F01092340680E0089583E013
:10233000809334060895809134060895FB01CA0104
:10234000B901AF010E941A1190E00895FB01CA0182
:10235000B901AF010E94A81090E008950F931F9358
:10236000CF93DF938A012C986623A9F06A3039F461
:102370000E942E0FF8018083C0E0D0E002C0C4E0CC
:10238000D0E02C9A8FEF0E94AE0ECE01DF91CF915C
:102390001F910F9108950E9499108F3F91F7ECCFF4
:1023A0004F925F926F927F92AF92BF92CF92DF92E5
:1023B000EF92FF920F931F93CF93DF93FC01C2A480
:1023C000D3A4E4A4F5A4C416D506E606F70659F08E
:1023D0002A013B01EC018481811126C04114510482
:1023E0006104710489F480E090E0DF91CF911F9146
:1023F0000F91FF90EF90DF90CF90BF90AF907F90C4
:102400006F905F904F90089501E0A3019201BE018B
:10241000625D7F4F89810E949E11892BE1F54AA65A
:102420005BA66CA67DA6DFCF5F01FEE2AF0EB11CFE
:1024300001E0A7019601B50189810E94A611892BAF
:1024400051F51C828E899F89A88DB98D4E8D5F8D27
:1024500068A179A1480F591F6A1F7B1FC416D506B2
:10246000E606F70608F0BACF1B81123028F4B6CF83
:102470008E899F89A88DB98DC80ED91EEA1EFB1EB4
:1024800001E0A7019601B50189810E94A6111150B2
:10249000113071F7A3CF81E090E0A7CF0F93CF93D6
:1024A000DF93EC019A01AB01BC01625D7F4F01E05B
:1024B00089810E949E11892B29F083E0DF91CF91C1
:1024C0000F910895FE01E45DFD4F80819181853576
:1024D0009A4A29F082E0DF91CF910F910895E85C4C
:1024E000F14080819181A281B381BB2786349144E0
:1024F000A445B10569F0C058DF4F488159816A8110
:102500007B81772781E04634514464457105B1F6FB
:1025100080E0D4CFFC0181810E949B1180FF03C029
:1025200083E090E0089580E090E008957F928F929C
:102530009F92AF92BF92CF92DF92EF92FF920F9352
:102540001F93CF93DF93EC016A017B018E8C9F8CEC
:10255000A8A0B9A08881823009F475C0833009F43D
:102560004FC0813089F06FEF7FEFCB01DF91CF91CA
:102570001F910F91FF90EF90DF90CF90BF90AF90A1
:102580009F908F907F9008958A01169507950C0D66
:102590001D1DC801892F99278695B501A401480FF3
:1025A000591F611D711DCE010E94D011892BD9F6D2
:1025B000F801F170EC0FFD1F76A40F5F1F4FC801EB
:1025C000892F99278695B501A401480F591F611DD0
:1025D000711DCE010E94D011892B29F61170C00FF8
:1025E000D11F8EA5672D70E0782BC0FE47C0729575
:1025F00062956F7067277F70672780E090E0B6CFA5
:1026000097E076956795579547959A95D1F7480D38
:10261000591D6A1D7B1DCE010E94D011892B09F026
:10262000A2CFCC0CDD1CCC0CDD1C8CEFC82281E0D1
:10263000D822CC0DDD1D8EA59FA5A8A9B9A9BC01E6
:10264000CD019F7093CF452F562F672F7727480DC9
:10265000591D6A1D7B1DCE010E94D011892B09F0E6
:1026600082CFCC0CDD1CE894C0F881E0D822CC0DE0
:10267000DD1D6EA57FA580E090E078CF7F7080E0C3
:1026800090E074CFAF92BF92CF92DF92EF92FF9221
:102690000F931F93CF93DF938C01EB01DC01159611
:1026A0007C936E93149716964D915D916D917C91EC
:1026B0001997413051056105710569F0FC01A08051
:1026C000B180F501828D938DA48DB58D4817590782
:1026D0006A077B0768F082E090E0DF91CF911F915D
:1026E0000F91FF90EF90DF90CF90BF90AF90089543
:1026F000411551056105710509F048C0208123305D
:10270000D9F1D8011A961D921D921D921C921D9707
:10271000F50180859185C817D907E8F682A193A1B4
:10272000A4A1B5A19E01329522952F7023273F7059
:102730002327AC01BD01420F531F611D711DD8013C
:102740001E964D935D936D937C935197F501BE96C4
:10275000CF70DD27CC0FDD1FC295D295D07FDC274F
:10276000C07FDC27EC0FFD1FD8015396FC93EE933E
:10277000529780E090E0B1CF42A153A164A175A12E
:10278000411551056105710509F4BBCFF501E280E2
:10279000F0E1EF9E70011124CE15DF0530F537C052
:1027A000C5010E949612AB01BC014F3FFFEF5F07CE
:1027B0006F077F0709F45EC042305105610571055E
:1027C00008F489CFD801AD90BC90F501828D938D2E
:1027D000A48DB58D481759076A077B0708F07BCF92
:1027E000CE19DF09CE15DF0590F0423051056105A5
:1027F000710508F470CFF501828D938DA48DB58D90
:10280000481759076A077B0708F065CFC9CFF80159
:1028100042875387648775879A01AB01225031093B
:10282000410951090297A109B109281739074A0737
:102830005B0718F5F501A281B0E00E941E53C6A007
:10284000D7A0E0A4F1A4DC01CB018C0D9D1DAE1D31
:10285000BF1D9E01329522952F7023273F7023279D
:10286000820F931FA11DB11DF80186879787A08B4A
:10287000B18B6CCF81E090E030CF80E090E0DC0164
:10288000E8CF2F923F924F925F926F927F928F92FA
:102890009F92AF92BF92CF92DF92EF92FF920F93EF
:1028A0001F93CF93DF9300D01F92CDB7DEB79B83EA
:1028B0008A836A017B0148015901FC01468C578CCF
:1028C00060A071A0F081F983F23009F488C0F33080
:1028D00009F461C0F130E9F002E010E081E0EA8142
:1028E000FB818483C8010F900F900F90DF91CF91EF
:1028F0001F910F91FF90EF90DF90CF90BF90AF901E
:102900009F908F907F906F905F904F903F902F900F
:102910000895CA01969587951C012C0C3D1CC10198
:10292000892F99278695B301A201480F591F611D70
:10293000711D8A819B810E94D0118C01892B71F6B7
:10294000F101F1708A819B81E80FF91FC0FE64C01C
:1029500086A5282F2F7030E1839EC0011124822B81
:1029600086A771018FEFE81AF80A3981EA81FB81A5
:102970003483C701892F99278695B301A201480F97
:10298000591F611D711DCF010E94D011009709F4DC
:102990006AC08C01A3CF27E0769567955795479538
:1029A0002A95D1F7440D551D661D771D8A819B819F
:1029B0000E94D0118C01892B09F090CFCC0CDD1C2A
:1029C000CC0CDD1C9CEFC92291E0D922EA81FB816D
:1029D000EC0DFD1D86A697A6A0AAB1AA7FCF7727EA
:1029E0006F2D5E2D4D2D440D551D661D771D8A8161
:1029F0009B810E94D0118C01892B09F06FCFCC0CE8
:102A0000DD1CF601EE7FF170BE968A819B81E80F96
:102A1000F91F9182808262CF86A671019FEFE91A29
:102A2000F90A3981EA81FB813483C701892F99270B
:102A30008695B301A201480F591F611D711DCF0179
:102A40000E94D011009709F0A4CF31E0F322EA816F
:102A5000FB81EE0DFF1D96A5907F892D8F70892E2D
:102A6000882A86A63BCFF1E0FF2284E0B694A794A3
:102A7000979487948A95D1F7EA81FB81EE0DFF1D2B
:102A800086A62CCF4F925F926F927F928F929F92E9
:102A9000AF92BF92CF92DF92EF92FF920F931F936C
:102AA000CF93DF9300D000D000D0CDB7DEB79E83A8
:102AB0008D8349835A836B837C83DC015A964D90C6
:102AC0005D906D907C905D97452B462B472B09F0D0
:102AD00072C01A968D909D90AD90BC901D978114F8
:102AE0009104A104B10409F08DC0812C912C5401F2
:102AF00083947501640134C0A2E08A169104A10494
:102B0000B10408F495C082E0C82ED12CE12CF12C40
:102B1000ED81FE81828D938DA48DB58DC816D90669
:102B2000EA06FB0668F5B701A601CF010E949612DE
:102B3000611571058105910509F46BC06F3FFFEFC9
:102B40007F078F079F0709F46FC06130710581050A
:102B50009105B1F08C149D04AE04BF0409F468C063
:102B60009FEFC91AD90AE90AF90AC414D504E60480
:102B7000F70410F6B2E0CB16D104E104F10440F6FC
:102B800061E070E080E090E026960FB6F894DEBF3A
:102B90000FBECDBFDF91CF911F910F91FF90EF90AE
:102BA000DF90CF90BF90AF909F908F907F906F906D
:102BB0005F904F90089529813A814B815C8122304A
:102BC000310541055105E0F289819A81AB81BC81D3
:102BD00084159505A605B70598F6AC01BD018D8154
:102BE0009E810E949612623071058105910540F226
:102BF000641575058605970538F289809A80AB8043
:102C0000BC8077CF84149504A604B70408F471CF70
:102C10006CCFED81FE81828D938DA48DB58DC8160C
:102C2000D906EA06FB0640F06FEF7FEFCB01ACCF91
:102C300060E070E0CB01A8CF0FEF1FEF2FEF3FE078
:102C4000B701A601CF010E944114892B69F72981A0
:102C50003A814B815C81232B242B252BF9F0298190
:102C60003A814B815C812230310541055105E0F20A
:102C7000ED81FE81828D938DA48DB58D2817390746
:102C80004A075B0788F69701860149815A816B8163
:102C90007C81CF010E944114892B31F6AD81BE8128
:102CA0001A96CD92DD92ED92FC921D97FD018685DC
:102CB0009785A089B1898F3FFFEF9F07AF07BF07B7
:102CC00059F00197A109B109ED81FE8186879787A7
:102CD000A08BB18B81E08583C701B60155CF2F92C0
:102CE0003F924F925F926F927F928F929F92AF929C
:102CF000BF92CF92DF92EF92FF920F931F93CF93E9
:102D0000DF93DC011496CD91DC9115972196A9F4FF
:102D100084E090E0DF91CF911F910F91FF90EF90B1
:102D2000DF90CF90BF90AF909F908F907F906F90EB
:102D30005F904F903F902F900895FC018684978478
:102D4000A088B18881149104A104B10409F37B0126
:102D50008C016E01FFE0CF22DD24C114D104D9F033
:102D6000DC01ED91FC91D8011596DC93CE9314977C
:102D7000BE96CC0CDD1CC294D29480EFD822DC2409
:102D8000C822DC24EC0DFD1D5396FC93EE93529764
:102D900080E090E0BFCFBFEF8B1A9B0AAB0ABB0A63
:102DA000FC0186869786A08AB18A42855385648510
:102DB0007585411551056105710511F10190F0818D
:102DC000E02D828190E001979E01329522952F702F
:102DD00023273F70232782239323892B21F6423018
:102DE00051056105710548F0828D938DA48DB58DD7
:102DF000481759076A077B0768F082E090E08ACF9E
:102E00000190F081E02D80859185C817D90708F0E1
:102E10007FCFA9CFCF010E9496124B015C01623097
:102E200071058105910548F36F3F7F4F8F4F9F4F8D
:102E300009F451C0D801ED91FC91428D538D648D00
:102E4000758D84169506A606B70670F52401350122
:102E5000B2E04B1A510861087108D8011A968D9298
:102E60009D92AD92BC921D97DB01CA010297A10908
:102E7000B109481659066A067B0680F5A281B0E0C2
:102E8000A30192010E941E5386A097A0A0A4B1A402
:102E9000860E971EA81EB91ED8011E968D929D9271
:102EA000AD92BC9251975FCFEF2809F431CFD80192
:102EB0001A964D915D916D917C911D97CF010E9465
:102EC00042154B015C01611571058105910551F4B5
:102ED00087E090E01FCF81E090E01CCF812C912C07
:102EE0005401DACF613071058105910509F485CF70
:102EF0006F3F7F4F8F4F9F4F71F340E050E0BA011B
:102F0000D8018D919C910E94D011892B21F7F80155
:102F100080819181FC01BE96825D9D4F1192E817E0
:102F2000F907E1F7D801ED90FC9024013501B2E0FA
:102F30004B1A510861087108F701828D938DA48D99
:102F4000B58D0297A109B109481659066A067B0694
:102F500008F04CC0A281B0E0A30192010E941E5370
:102F600026A137A140A551A5DC01CB01820F931FFB
:102F7000A41FB51FF70182A793A7A4A7B5A7312C5B
:102F8000222423941EC0D70114962C9240E050E0D6
:102F9000BA01F801808191810E94D011892B09F03A
:102FA0009ACFD801ED90FC90F70182A593A5A4A536
:102FB000B5A50196A11DB11D82A793A7A4A7B5A78A
:102FC0003394F70182813816F0F282A593A5A4A567
:102FD000B5A583199109A109B10982A793A7A4A74F
:102FE000B5A7428D538D648D758D37CF80E090E00D
:102FF000DC01C0CF2F923F924F925F926F927F92EF
:103000008F929F92AF92BF92CF92DF92EF92FF92F8
:103010000F931F93CF93DF938C01BB24BA94552455
:103020005A94EE24EA94FE2C0DC02F3009F466C0A9
:1030300055245A9460E070E0C8010E946F16009712
:1030400009F049C0D8011E964D915D916D917C911A
:1030500051978D919C910E94D0110097E1F5F80154
:10306000C289D3899881992309F4A2C08B85282F1E
:103070002F73953EE9F283FDD8CF2F3009F43EC07F
:10308000511011C0FE0131969E01255F3F4F80E037
:1030900001C0919180FB879587F9890F2E173F0713
:1030A000C1F78B15B1F0D8015996FC92EE92589762
:1030B0005496ED91FC915597838580FDB9CF9E0183
:1030C000255F3F4F999181919813B2CF2C173D07FF
:1030D000C9F780E090E0DF91CF911F910F91FF90B1
:1030E000EF90DF90CF90BF90AF909F908F907F90A8
:1030F0006F905F904F903F902F900895D801569613
:10310000CD90DC905797C114D10409F493CF96FF6A
:103110004CC0BD849F7B592E14968D919C91159720
:1031200059969C938E9358974D844B1081CF8881EC
:103130008F7B90E00197BDE0B89F4001B99F900C54
:1031400011242AECA22E21E0B22E21E081E090E0B1
:103150000BC02F3F3F4FE9F5A6EDAA16A1E0BA0636
:1031600051F1F50121915F01FE01E20FF11D208176
:103170003181009771F3C9010E94352B3C01E0E2D7
:103180008E16910434F51401FFEF2F1A3F0A880CB4
:10319000991CF601E80DF91D808191810E94352B63
:1031A00068167906B1F44101D7CF951141CFBCCF54
:1031B00084E090E090CF288126FF0FC0892B69F032
:1031C000F401EE0FFF1FEC0DFD1D80819181892B15
:1031D00021F0B42C55245A942DCF5A94B42C2ACFD4
:1031E0002F923F924F925F926F927F928F929F9217
:1031F000AF92BF92CF92DF92EF92FF920F931F9305
:10320000CF93DF937C015B01DB018C918F3209F45A
:10321000B5C18C3509F4B2C1E7011E821F82188640
:103220001986F5018081803208F4C5C170E2572EFD
:10323000E5E02E2EE701CE88DF88082E000C990BE2
:103240008032910508F45FC18F32910509F458C0AE
:103250008C35910509F454C08601E5012196882436
:103260008394912C61E070E090E00E940B2B00971A
:1032700091F18038910578F48232910561F1E0E2B4
:10328000F3E006C0022E000C330B8217930719F1EE
:1032900021912111F7CFF801819391938F0194012E
:1032A0002F5F3F4F8991082E000C990B80329105BA
:1032B00008F42DC18F32910539F18C35910521F13A
:1032C0002132310541F0490161E070E090E00E9457
:1032D0000B2B009771F686E090E0DF91CF911F9164
:1032E0000F91FF90EF90DF90CF90BF90AF909F90A5
:1032F0008F907F906F905F904F903F902F900895A8
:1033000021E030E0812C912CA20EB31E412C8114BF
:10331000910409F3F401EE0FFF1FEC0DFD1D9291D6
:1033200082918032910511F08E9729F421E0821A62
:103330009108A9F7D0CFF401EE0FFF1FD601AE0F11
:10334000BF1F11961C921E92E701EC89FD89CF01E7
:103350000B965192E817F907E1F7F601C0E0D0E0CB
:10336000819191918032910519F08E32910511F47D
:103370002196F6CF209719F0E42DE3604E2EFD0143
:10338000329122912E32310521F021E0821A9108EA
:10339000B9F708E010E0612C712C312C21960097D0
:1033A00009F44EC08032910569F18E32910539F1F0
:1033B00060167106B4F5C815D90509F4ADC080389A
:1033C000910508F0B5C08B32910509F4C3C0E9E25C
:1033D000F3E007C0022E000C330B8217930709F4A9
:1033E000B9C021912111F6CF9C01215431092A3114
:1033F000310508F0F6C0232D2260322EAFC0C8156B
:10340000D90559F0842D8360482EFE01EE0FFF1F71
:10341000EC0DFD1D80819181C1CF601671060CF409
:103420007BC00B30110509F4ADC0C815D90509F4EE
:1034300076C0B42DB3604B2E8C169D060CF06FC079
:10344000D7015496ED91FC9155978081853E09F402
:10345000A7C00830110509F4ABC0832D8C708C30E7
:1034600009F488C0932D9370933009F483C041FC14
:1034700008C0932D9370913009F4A9C0843009F4E9
:10348000ACC0438660E070E0C7010E944213009721
:1034900051F5C7010E94FA17D7015496ED91FC919E
:1034A000559723852470009729F5211116CFE70140
:1034B000EA89FB89838584FF23C084899589A0E0FC
:1034C000B0E0DC0199278827428D538D60E070E0E1
:1034D000842B952BA62BB72B8E839F83A887B98728
:1034E000D5018C91A7CED7015496ED91FC915597BB
:1034F000238524708430910509F0EFCE2111EDCEA3
:1035000085E090E0EACE21E030E0812C912CA20E03
:10351000B31E94E0492EFBCE0B30110599F1330C0C
:10352000330CE4010BE010E038E0632E712C6DCF1A
:1035300060E070E00E940B2B009709F444C0FC018E
:10354000E753FF4F808190E0E42DE2604E2E00971C
:1035500009F039CFF42DF3604F2E8FE5D701549643
:10356000ED91FC915597E60DF71D8083F30131969F
:103570003F014BCFD42DD2604D2E79CFBFEFAB1A88
:10358000BB0A4ACE942D9360492ED7015496ED91F3
:10359000FC9155978081853E09F05FCF0BE010E0EC
:1035A0002082E701EC89FD890830110509F055CF2B
:1035B000330C330C52CF60E070E0C7010E9442131D
:1035C0001B8A1A8A8ACEB42DB2604B2EC3CF242D0B
:1035D0002061422E843009F054CF842D8860482E1B
:1035E00050CF9C01215631092A31310508F0B6CF60
:1035F000A32DA1603A2E8052B1CF0F931F9342307A
:1036000051056105710570F0FC01028D138D248D4B
:10361000358D401751076207730720F41F910F91F2
:103620000C94961261E070E080E090E01F910F91A1
:103630000895CF92DF92EF92FF920F931F93423043
:1036400051056105710550F0FC01C28CD38CE48CEE
:10365000F58C4C155D056E057F0548F082E090E025
:103660001F910F91FF90EF90DF90CF9008950E94EF
:1036700041141F910F91FF90EF90DF90CF9008952C
:103680000F931F93FC019A01AB01225031094109AC
:103690005109828D938DA48DB58D0297A109B10931
:1036A000281739074A075B0778F4A281B0E00E9427
:1036B0001E5306A117A120A531A5600F711F821FFF
:1036C000931F1F910F91089560E070E0CB011F914F
:1036D0000F910895EF92FF920F931F93CF93DF9373
:1036E000CDB7DEB728970FB6F894DEBF0FBECDBFBB
:1036F0008C01F901CB017801B801655F7F4FDC01D6
:103700002D91CD01D7012D937D01A617B707B9F7EC
:10371000E630F10508F476C0DA018D919D91E0FB69
:10372000F795E795F7F9E80FF91F8D919D910097AF
:10373000B1F77E01B9E0EB0EF11C47E050E04150DB
:1037400051099F01ADECBCEC0E940F5396958795F3
:103750009695879596958795BC01660F771F9C0176
:10376000220F331F220F331F220F331F260F371F45
:10377000E21BF30BE05DD701EE937D01FC01892B89
:10378000F1F68EE7FE01E40FF51F8183141615068E
:103790000CF03FC0F80180818032D9F1319620E0F1
:1037A00030E003C08191803229F02F5F3F4F241712
:1037B0003507C4F3F801E20FF31F0DC0A1E0B0E03C
:1037C000AC0FBD1FA40FB51F8C914F5F5F4F81934E
:1037D0002830310551F02F5F3F4F4830510574F3C9
:1037E00080E2819328303105B1F728960FB6F8941E
:1037F000DEBF0FBECDBFDF91CF911F910F91FF9024
:10380000EF900895E05DE8878EE78F8346E050E013
:10381000C1CF20E030E0CECF2F923F924F925F9207
:103820006F927F928F929F92AF92BF92CF92DF92D0
:10383000EF92FF920F931F93CF93DF93CDB7DEB735
:1038400027970FB6F894DEBF0FBECDBFDC01ED9118
:10385000FC912081022E000C330B205331092A30B9
:10386000310518F451815A33B1F120907906309026
:103870007A06FB01318220822114310489F0142F51
:10388000F1018081882381F181810E949B1180FD5B
:103890002BC0112311F082FD37C080E090E002C000
:1038A0008CE090E027960FB6F894DEBF0FBECDBF38
:1038B000DF91CF911F910F91FF90EF90DF90CF900C
:1038C000BF90AF909F908F907F906F905F904F9040
:1038D0003F902F9008953296DC01ED93FC93232BBB
:1038E00021F28BE090E0DECFD1011C9211961C9268
:1038F00080E00E948F1180FF03C083E090E0D2CF70
:10390000112329F082FF03C08AE090E0CBCF40E092
:1039100050E0BA01C1010E944E12813059F0C12C11
:10392000D12C7601833009F4FEC08823B1F08DE0FC
:1039300090E0B8CFF101E051FE4F80818823B9F3C8
:10394000F101EC50FE4FC080D180E280F380B701DE
:10395000A601C1010E944E12E5CFF10181AD92ADE9
:103960008115924021F7F101EC5BFF4F20813181FD
:1039700040E050E0211531054105510529F43E96FE
:103980002081318142815381D10156962D933D93FF
:103990004D935C935997DE96AC91F101A383B0E00F
:1039A0000E941E532B013C0144AD55AD60E070E018
:1039B00046015701840E951EA61EB71E868E978E51
:1039C000A0A2B1A2B3ADBF83B283FF9620813181A3
:1039D000D10119963C932E9318973296808191814C
:1039E000A0E0B0E00097A105B10529F43D968081E3
:1039F0009181A281B381F901F295E295EF70EF27F1
:103A0000FF70EF278F0120E030E009831A832B83BA
:103A10003C83841B950BA60BB70B84199509A6094B
:103A2000B709BC01CD01601B710B820B930B1F8189
:103A3000212F30E040E050E00E94CE52DA01C9016F
:103A40000296A11DB11DF101828F938FA48FB58FB6
:103A5000873FFFE09F07A105B10508F467C0873FD6
:103A60009F4FA105B10508F4AFC0F101E65AFF4F21
:103A700080819181A281B381F10182A393A3A4A348
:103A8000B5A309811A812B813C81800E911EA21E53
:103A9000B31E480C591C6A1C7B1C46A257A260A688
:103AA00071A68FEF9FEFDC0186879787A08BB18B84
:103AB00014821582E25AFF4F80819181A7019601FD
:103AC000280F391F411D511DD10152962D933D9351
:103AD0004D935C93559701E0B101625D7F4F119664
:103AE0008C910E949E11892B41F4F101E45DFD4F00
:103AF0008081918185359A4AC1F183E0D1018C930F
:103B0000F10112A613A614A615A68091770690912E
:103B1000780601969093780680937706978386833C
:103B200080E090E0BFCE81E090E0BCCE81E0840CEC
:103B3000951CA61CB71CF10182A293A2A4A2B5A257
:103B400009811A812B813C81800E911EA21EB31E19
:103B500086A297A2A0A6B1A64FEF5FEFBA01468753
:103B60005787608B718B1482C9CFF10186A597A509
:103B7000A0A9B1A982359245A146B14409F0BDCFB3
:103B8000F101EE5EFD4F80819181A281B381823788
:103B90009247A144B14609F0B0CF38968081918117
:103BA000A281B381F10182879387A487B587EA5EFA
:103BB000FD4F80819181A281B381F1018687978732
:103BC000A08BB18B83E09ACF82E0B1CF882319F02C
:103BD0008BE090E00895E0917906F0917A063097B5
:103BE00009F010826115710511F0FB0110827093CC
:103BF0007A066093790680E090E008952F923F92D4
:103C00004F925F926F927F928F929F92AF92BF92EC
:103C1000CF92DF92EF92FF920F931F93CF93DF9398
:103C2000CDB7DEB7C054D1090FB6F894DEBF0FBED2
:103C3000CDBF7C017CAB6BAB142FDC011D921C92C1
:103C40004E71BE016F5F7F4FCE01C3960E940C1C68
:103C50000097D1F0C05CDF4F0FB6F894DEBF0FBE07
:103C6000CDBFDF91CF911F910F91FF90EF90DF902B
:103C7000CF90BF90AF909F908F907F906F905F900C
:103C80004F903F902F900895B12FBF71BB2E6E01C2
:103C9000E7E2CE0ED11CDE8ACD8A85E396E0988FCE
:103CA0008F8B6BA97CA9CE0101960E94F018212F61
:103CB0002C7179F4009771F6CB88DC88C114D1049B
:103CC00029F0D6011B968C9184FF2CC284E090E0F1
:103CD000C1CF009709F416C18430910509F0BACF1D
:103CE0008D889E880F89188DD401FE017B968D9159
:103CF0008193EC15FD05D9F78EA180FF32C0D40168
:103D00001B961C92188E1F8ACC24C394D12C0EC0F3
:103D1000CE0101960E94FA170097C1F4BFEFCB1AAB
:103D2000DB0AE4E6CE16D10409F4F1C09601A8013D
:103D3000BE01655E7F4FC4010E946A1B60E070E0B7
:103D4000CE0101960E944213009711F38430910531
:103D500009F080CF8EA1D4011B968C93188F0F8B06
:103D60008EA181FFFCC1F80180819181892B09F42A
:103D70007DC2329620E030E02F5F3F4F81919191DC
:103D8000892BD1F7275E3F4FA5ECBEE40E940F536D
:103D90006C01D694C794D694C79460E070E0CE01CD
:103DA00001960E944213009709F054CF812C912C68
:103DB00000E010E00BC000E010E061E070E0CE0138
:103DC00001960E946F16009709F044CF4F855889DD
:103DD00069897A8989819A810E94D011009709F0B6
:103DE00039CFEB89FC898081853E11F08111E3CFC9
:103DF0000115110511F48D809E800F5F1F4F0C156A
:103E00001D05D9F6B1E0CB16D10409F4FAC0B4010E
:103E1000CE0101960E944213009709F01BCFED8955
:103E2000FE899F01255F3F4F712C70FA779477F8D8
:103E30008191780E2E173F07C1F7F1E0CF1AD10814
:103E4000BFE06B2E1DE0512E06ED802E01E0902E7E
:103E5000442443944F85588969897A8989819A8154
:103E60000E94D011009709F0F5CE1C2D4B895C897A
:103E70006F89788DDA011D967C921D971B966C9246
:103E80001B971C961C921C975B961C921E925A972D
:103E90009601332721503109529EC001539E900D47
:103EA0001124AAEC2A2EA1E03A2E01E0E0E0F0E095
:103EB0001DC09C012F5F3F4F880F991FFB01E80F2A
:103EC000F91F0190F081E02DCA01800F911DDC01E6
:103ED000ED93FC93309711F4EFEFFFEF821493040E
:103EE00009F470C0D1010D911D01C901EF3FBFEF71
:103EF000FB07F9F69A01200F311DD901ED93FC93D0
:103F00009C01ECCF12FF06C088E090E0A3CE87E0D2
:103F100090E0A0CECB88DC88C114D104C1F3D601D7
:103F20001B968C911B97817191F713FF9CC054963F
:103F30008D919C915597A0E0B0E0DC0199278827EE
:103F4000F601428D538D60E070E08C019D01042BE1
:103F5000152B262B372B09AF1AAF2BAF3CAF158A89
:103F6000148A138E128E148E158E168E178E8980DB
:103F70009A8081E0F401848302A513A524A535A5C8
:103F800021960CAF1DAF2EAF3FAF219709AD1AADF3
:103F90002BAD3CAD011511052105310509F459C1C1
:103FA000013011052105310551F0828D938DA48DCD
:103FB000B58D081719072A073B0708F4D4C082E01B
:103FC00090E048CE319649F0220F331FFB01E20FFB
:103FD000F31F80819181892B09F41064FA01108309
:103FE000E981FA81448260E070E0CE0101960E948E
:103FF0006F16009709F02ECEF1E0CF1AD10809F024
:1040000029CF4F85588969897A8989819A810E9447
:10401000D011009709F01ECEAB89BC899D01CD015E
:104020008096FD0111928E179F07E1F76D897E89B9
:10403000AD01455F5F4FFB018191BF01F9018193A4
:104040009F014E175F07B9F7ED89FE898385887157
:104050001C968C93E981FA8181E08483FB2DF860C2
:10406000BF2ECB88DC88B3FC66C0E981FA813B892E
:104070002C8942A553A564A575A5D7015A964D93E1
:104080005D936D937C935D975E963C935E975F9690
:104090002C935F971496BC92D60154968D919C9167
:1040A0005597A0E0B0E09C0111270027D6015A9651
:1040B0004D915C915B9760E070E0402B512B622B3F
:1040C000732BD7011E964D935D936D937C935197FF
:1040D000D6015C964D915D916D917C915F97D70172
:1040E0001A964D935D936D937C931D9716961D9232
:1040F0001D921D921C9219978FEF15968C93159710
:1041000056961D921D921D921C9259971196FC93E2
:10411000EE938681978113969C938E93129780E0FD
:1041200090E098CD11FF02C080FDF1CEE981FA81C7
:104130003C2D2D2D9ECFD6011B961C920E94062B46
:10414000F60166877787808B918BE981FA8181E020
:1041500084830B2D0062B02E3B892C898ACFCC241E
:10416000C394D12C1ACE0DAB1EAB2FAB38AFAA2403
:10417000A39452C0613071058105910509F41FCFE8
:104180006F3F7F4F8F4F9F4F09F473C0F401828DB3
:10419000938DA48DB58D0DA91EA92FA938AD081733
:1041A00019072A073B0708F00ACF00E010E0980142
:1041B0004DA95EA96FA978ADC4010E944114009772
:1041C00009F048CDF40186859785A089B1898F3F94
:1041D000FFEF9F07AF07BF0749F00196A11DB11D73
:1041E000F40186879787A08BB18BA582F401828D1D
:1041F000938DA48DB58D481659066A067B06D8F4B2
:104200004DAA5EAA6FAA78AEA301920122303105B1
:104210004105510508F4D3CE4DA95EA96FA978AD2B
:10422000C4010E9496122B013C01611571058105A4
:10423000910509F09FCF89809A8089AD9AADABAD89
:10424000BCAD0197A109B109F40182879387A487C6
:10425000B58721964CAD5DAD6EAD7FAD2197C401A4
:104260000E94D011009709F4FECEF4CC20E030E09B
:1042700089CD81E090E0EECC2F923F924F925F92F9
:104280006F927F928F929F92AF92BF92CF92DF9266
:10429000EF92FF920F931F93CF93DF9300D000D044
:1042A00000D0CDB7DEB79C838B837B016A015901B7
:1042B000D9011D921C92DC01ED91FC911197309770
:1042C00019F0808181111DC029E0822E912CC4013A
:1042D00026960FB6F894DEBF0FBECDBFDF91CF910B
:1042E0001F910F91FF90EF90DF90CF90BF90AF9014
:1042F0009F908F907F906F905F904F903F902F9006
:10430000089512962D913C911397868197812817D5
:104310003907D1F6CF010E948A124C01892BB9F6D8
:10432000EB81FC81848187FD06C080FD08C087E0A9
:10433000882E912CCCCF92E0892E912CC8CF8681EB
:104340009781A085B1854285538564857585481B15
:10435000590B6A0B7B0B860120E030E040175107B8
:104360006207730708F46A01C114D10409F4AFCFDE
:10437000212CE2E03E2EAC01BD015170662777276B
:10438000EB81FC81452B462B472B09F44BC046891A
:104390005789608D718D0190F081E02DFE83ED8352
:1043A00091708101081B190BC016D10608F4860113
:1043B0008D819E810E94D011892B09F030C1EB8143
:1043C000FC8186819781A085B1859170AA27BB2742
:1043D000DC019E9680819181A80FB91FF701E00E44
:1043E000F11E8D918193EE16FF06D9F7EB81FC81CA
:1043F00086819781A085B185800F911FA11DB11D78
:10440000EB81FC8186839783A087B187F5012081AA
:104410003181200F311F31832083C01AD10A09F066
:10442000AACF55CF0190F081E02DFE83ED83EB8183
:10443000FC813581ED81FE812281321708F091C027
:10444000EB81FC8182899389A489B5899C01AD01A6
:104450002250310941095109ED81FE81828D938DF0
:10446000A48DB58D0297A109B109281739074A070C
:104470005B0708F0C8C01281A12FB0E00E941E5354
:1044800046A057A060A471A4460E571E681E791E50
:10449000411451046104710409F4B5C0EB81FC813D
:1044A0002581420E511C611C711CA601452F552708
:1044B00046955A8349834115510509F47AC030E085
:1044C000420F531F812F90E08417950728F4DC01D9
:1044D000A21BB30BBA83A9831981012FA3019201F7
:1044E000B701ED81FE8181810E949E11AB81BC816B
:1044F000892B09F096C0ED91FC918481882301F10C
:1045000082A593A5A4A5B5A584199509A609B709FF
:1045100029813A81A90160E070E084179507A60718
:10452000B70770F4DC01BA2FAA27BB0FBE96AE0DF9
:10453000BF1DCD019E5F21912D938A179B07D9F74F
:10454000EB81FC818581180F158309811A81102F59
:104550000027110F86819781A085B185E00EF11E9D
:104560004BCF892B8A2B8B2BC1F5AB81BC811E963F
:104570006D917D918D919C9151976230710581056E
:10458000910508F440C06F3FFFEF7F078F079F073B
:1045900009F445C0EB81FC81628B738B848B958B16
:1045A00015820190F081E02DFE83ED83DC01CB01CB
:1045B0004DCFAB81BC8156964D925D926D927C92AF
:1045C00059972F5F15962C931597FD01868197813A
:1045D000A085B185A201B301E3CEEB81FC814289C4
:1045E000538964897589423051056105710558F018
:1045F000ED81FE81828D938DA48DB58D481759076D
:104600006A077B07C0F0AB81BC8114968C9114972C
:10461000806814968C9372E0872E912C58CEAB81D3
:10462000BC8114968C911497806814968C9388247E
:104630008394912C4CCECF010E9496129ECF2F9244
:104640003F924F925F926F927F928F929F92AF9222
:10465000BF92CF92DF92EF92FF920F931F93CF936F
:10466000DF9300D000D000D0CDB7DEB79C838B8322
:104670006B017A014901D9011D921C92DC01ED9177
:10468000FC911197309719F0808181111DC029E0AC
:10469000A22EB12CC50126960FB6F894DEBF0FBE30
:1046A000CDBFDF91CF911F910F91FF90EF90DF90E1
:1046B000CF90BF90AF909F908F907F906F905F90C2
:1046C0004F903F902F90089512962D913C91139703
:1046D0008681978128173907D1F6CF010E948A1267
:1046E0005C01892BB9F6EB81FC81848187FD06C0D2
:1046F00081FD08C087E0A82EB12CCCCF92E0A92E76
:10470000B12CC8CF0285138524853585B901A80150
:104710004E0D5F1D611D711D401751076207730724
:1047200008F499C1E114F10409F4FEC1EB81FC81A4
:1047300086819781A085B185212CF2E03F2EAC01C6
:10474000BD01517066277727EB81FC81452B462BF5
:10475000472B09F462C046895789608D718D01909D
:10476000F081E02DFE83ED8391708101081B190B10
:10477000E016F10608F487018D819E810E94D01118
:10478000892B09F043C1EB81FC8186819781A0854B
:10479000B1859170AA27BB27FC01BE96AB81BC8175
:1047A0008D919C91D601E80FF91FCF01800F911FC9
:1047B0002D912193E817F907D9F7AB81BC81ED91D1
:1047C000FC91B1E0B483C00ED11EEB81FC81468127
:1047D000578160857185DB01CA01800F911FA11D82
:1047E000B11DAC01BD0186839783A087B187F40119
:1047F00020813181200F311F31832083E01AF10A9B
:1048000009F09DCFAB81BC811A960D911D912D9120
:104810003C911D9714968C9122C10190F081E02D5E
:10482000FE83ED83EB81FC813581ED81FE81228168
:10483000321778F1892B8A2B8B2B09F0F3C0AB81CF
:10484000BC811E966D917D918D919C9151976115C2
:1048500071058105910509F445C161307105810536
:10486000910509F44CC16F3FBFEF7B078B079B0796
:1048700009F451C1AB81BC8152966D937D938D93A8
:104880009C93559715961C921597ED91FC91FE837C
:10489000ED83ED81FE8142A553A564A575A5EB814D
:1048A000FC8186899789A08DB18D481759076A07C1
:1048B0007B0709F406C1EB81FC8182899389A48975
:1048C000B5899C01AD012250310941095109ED81A1
:1048D000FE81828D938DA48DB58D0297A109B109BA
:1048E000281739074A075B0708F009C11281A12F71
:1048F000B0E00E941E5346A057A060A471A4460ECB
:10490000571E681E791E411451046104710409F494
:10491000F6C0EB81FC812581420E511C611C711C8B
:10492000A701452F552746955A83498341155105BF
:1049300009F451C030E0420F531F812F90E08417DB
:10494000950728F4DC01A21BB30BBA83A983198154
:10495000012FA3019201B601ED81FE8181810E94A8
:10496000A611AB81BC81892B09F052C0ED91FC915D
:1049700082A593A5A4A5B5A584199509A609B7098B
:1049800029813A81A90160E070E084179507A607A4
:10499000B707B0F4982F8827990F8C0D9D1DDF0164
:1049A0009E96AF01425D5D4FFC012191CF012D9399
:1049B0004A175B07C9F7AB81BC81ED91FC9114826A
:1049C000EB81FC818581180F158309811A81102FD5
:1049D0000027110FF8CEEB81FC8186819781A0859D
:1049E000B185428553856485758584179507A6072B
:1049F000B70708F045C0EB81FC81468A578A608E74
:104A0000718E2F5F2583A201B301AECEAB81BC8135
:104A100014968C911497806814968C93AA24A3946E
:104A2000B12C38CEAB81BC8152964D915D916D9188
:104A30007C9155978D819E810E944215611571056B
:104A40008105910509F009CFEB81FC810285138571
:104A50002485358584814681578160857185041759
:104A600015072607370730F4EB81FC81428753870F
:104A7000648775878062AB81BC8114968C930ACE63
:104A800040E050E0BA018D819E810E94D011892BB7
:104A900009F0BCCFEB81FC810190F081E02DFE8319
:104AA000ED8342A653A664A675A6AB81BC8115967C
:104AB0002C91159716968D919D910D90BC91A02DDE
:104AC0009ACF40E050E0BA018D819E810E94D011C2
:104AD000892B09F5AB81BC810D90BC91A02DBE83C3
:104AE000AD83E9CE40E050E0BA01CF010E9442150B
:104AF000EB81FC8166877787808B918B9FCFAB8121
:104B0000BC8114968C911497806814968C9372E0F3
:104B1000A72EB12CBFCDEB81FC818481806884837A
:104B2000AA24A394B12CB6CDAB81BC8116964D912D
:104B30005D916D917C91199792CF0F931F93CF93B5
:104B4000DF93DC01ED91FC911197309719F02081F2
:104B5000211107C089E090E0DF91CF911F910F9163
:104B6000089512964D915C911397268137814217D3
:104B7000530781F7EC01CF010E948A12009761F779
:104B80002C8125FFE9CF4A8D5B8D6C8D7D8D8881D1
:104B900099810E94D0110097F9F60E8D1F8DF801B2
:104BA0008385806283878A859B85AC85BD85848F5C
:104BB000958FA68FB78F8E859F85A889B989938F8A
:104BC000828FB58BA48B0E94062BD80156966D93CD
:104BD0007D938D939C9359978C818F7D8C83E881F5
:104BE000F98181E084830990D881C02D40E050E0B4
:104BF000BA01CE010E94D011009709F0ADCF888193
:104C0000833079F040E050E060E089810E94AE118D
:104C100031E020E0892B19F0832F922F9DCF30E0D7
:104C2000FBCF8D81882371F31AA61BA61CA61DA697
:104C3000BE01625D7F4FFB01CE01825D9D4F1192EF
:104C40008E179F07E1F785E59AEAFE01E45DFD4FC7
:104C50009183808382E592E5A1E6B1E48EA79FA7C8
:104C6000A8ABB9AB82E792E7A1E4B1E67A9780837B
:104C70009183A283B3838E859F85A889B989349651
:104C800080839183A283B3838A859B85AC85BD8510
:104C9000349680839183A283B3832A893B894C898C
:104CA0005D8901E089810E94A6111D82ABCFCF935F
:104CB000DF93EC010E949D25009711F41982188260
:104CC000DF91CF9108952F923F924F925F926F9212
:104CD0007F928F929F92AF92BF92CF92DF92EF928C
:104CE000FF920F931F93CF93DF9300D000D000D09B
:104CF000CDB7DEB79E838D836A017B01DC01ED9128
:104D0000FC911197309719F0808181111CC009E046
:104D100010E0C80126960FB6F894DEBF0FBECDBFD7
:104D2000DF91CF911F910F91FF90EF90DF90CF9087
:104D3000BF90AF909F908F907F906F905F904F90BB
:104D40003F902F90089512962D913C911397868154
:104D5000978128173907D9F6CF010E948A128C0152
:104D6000892BB9F6ED81FE81848187FDB3C0428530
:104D70005385648575854C155D056E057F0520F4AA
:104D800081FD02C06A017B01AD81BE8116964D9105
:104D90005D916D917C911997FD01168217821086A5
:104DA00011868FEF8583C114D104E104F10409F465
:104DB000B0CF20803180D10112968C90912CA12C03
:104DC000B12C99E0880C991CAA1CBB1C9A95D1F7B0
:104DD000411551056105710529F12A013B01B1E039
:104DE0004B1A510861087108C701B6016150710979
:104DF00081099109A50194010E94CE5229833A8329
:104E00004B835C83C301B201A50194010E94CE5281
:104E100089819A81AB81BC8182179307A407B5076A
:104E200008F023C1AD81BE811E964D915D916D91BB
:104E30007C915197411551056105710509F42FC108
:104E4000AD81BE8152964D935D936D937C93559742
:104E5000411551056105710509F03FC0ED81FE81E5
:104E600086809780A084B18480E090E0DC01B50169
:104E7000A401517066277727ED81FE81452B462BD3
:104E8000472B79F046895789608D718D8417950776
:104E9000A607B70731F0ED81FE81868B978BA08F37
:104EA000B18F82859385A485B58588159905AA0556
:104EB000BB0508F02ECFAD81BE811A968D929D92D2
:104EC000AD92BC921D9714968C91149780621496A3
:104ED0008C931FCF02E010E01CCF8C149D04AE0415
:104EE000BF0408F023C1AD81BE81ED91FC919F010B
:104EF000ED81FE81848181FD1AC04230510561053A
:104F0000710568F0D9015A964D905D906D907C9036
:104F10005D97441555056605770508F4A0C08068BF
:104F2000AD81BE8114968C9302E010E0F2CEC901EF
:104F30000E944215AB01BC01411551056105710587
:104F400009F4E0C04F3FBFEF5B076B077B0709F435
:104F5000C8C0423051056105710508F4CAC0ED8131
:104F6000FE8120813181F901828D938DA48DB58DD3
:104F7000481759076A077B0708F0BBC0ED81FE811F
:104F8000428B538B648B758B86819781A085B1850D
:104F9000880D991DAA1DBB1D86839783A087B187A5
:104FA000C818D908EA08FB088C149D04AE04BF0495
:104FB00008F49ECF46015701880E991EAA1EBB1EFB
:104FC000AD81BE8116968D929D92AD92BC9219973D
:104FD0002601370189E076946794579447948A951F
:104FE000D1F715964C92B1E0DB22EE24FF24CD28B8
:104FF000CE28CF2809F482C0AD81BE81ED91FC910D
:105000009A01AB012250310941095109828D938DDA
:10501000A48DB58D0297A109B109281739074A0750
:105020005B0708F056C0A281B0E00E941E53C6A0E4
:10503000D7A0E0A4F1A4DC01CB018C0D9D1DAE1D19
:10504000BF1D0097A105B10509F443C0840D951D4E
:10505000A61DB71D4394ED81FE81458208CFC9018D
:105060000E949612AB01BC016DCF88279927DC0105
:1050700088199909AA09BB0984219521A621B7217C
:10508000ED81FE8186839783A087B187C81AD90AEC
:10509000EA0AFB0A4289538964897589D9CE40E0BE
:1050A00050E0BA01C1010E944215AB01BC01413080
:1050B00051056105710569F04F3FFFEF5F076F070D
:1050C0007F0749F1ED81FE8146875787608B718BA1
:1050D000B7CEED81FE8184818068848302E010E098
:1050E00018CEED81FE8184818068848301E010E028
:1050F00010CEAD81BE8114968C9111CF80E090E0EE
:10510000DC01B5CEED81FE8186819781A085B185D8
:10511000750164014FCFAD81BE8114968C911497B7
:10512000806814968C9301E010E0F3CDED81FE8150
:1051300086819781A085B1853DCF0F931F93CF9333
:10514000DF93CDB7DEB72E970FB6F894DEBF0FBE54
:10515000CDBF8C017E876D8740E0BC01CE010D96EE
:105160000E940C1C009759F02E960FB6F894DEBFE3
:105170000FBECDBFDF91CF911F910F910895CE014A
:105180000196D80155969C938E93549785E396E0AB
:1051900057969C938E9356976D857E85C8010E9485
:1051A000F018009769F5D8015296ED91FC9153974C
:1051B0003097B9F0838584FF27C084899589A0E062
:1051C000B0E0DC0199278827428D538D60E070E0C4
:1051D000842B952BA62BB72BF80186839783A0876A
:1051E000B187D801ED91FC91119786819781139633
:1051F0009C938E93129760E070E0C8010E94421366
:105200008430910509F0B0CF85E090E0ADCF4F92AA
:105210005F926F927F928F929F92AF92BF92CF9246
:10522000DF92EF92FF920F931F93CF93DF93CDB74F
:10523000DEB72C970FB6F894DEBF0FBECDBFDC01F2
:10524000ED91FC911197309719F02081211119C02F
:1052500089E090E02C960FB6F894DEBF0FBECDBF6C
:10526000DF91CF911F910F91FF90EF90DF90CF9042
:10527000BF90AF909F908F907F906F905F904F9076
:10528000089512964D915C911397268137814217AC
:105290005307F1F67B018C01CF010E948A1200971F
:1052A000C9F6CE010196F801958B848B85E396E0D3
:1052B000978B868BE114F10409F411C199249A9417
:1052C000DD24DA9484E090E02DE0C22E36EDA32EAA
:1052D00031E0B32E0CC02F3091F1DD24DA9460E080
:1052E00070E0C8010E946F16009709F078C0F801BD
:1052F000468557856089718941155105610571059C
:1053000009F46BC0D8018D919C910E94D011009737
:1053100009F065C0D8015296ED91FC9153978081B8
:10532000882309F4C5C0853EC1F28E32B1F293855F
:10533000292F2F7393FDCFCF2F3009F0D6C086FFD2
:1053400049C095848F7BD82ED80114968D919C915D
:10535000159759969C938E93589785848910BDCF45
:10536000D80156966D917C91579780818F7390E00C
:105370000197C89E9001C99E300D1124BAEC4B2EA6
:10538000B1E05B2E81E041E050E015C020323105F4
:10539000ECF4A901440F551F460F571FDA018D93F6
:1053A0009C93AC012F5F3F4FA414B50409F486C051
:1053B000D2018D912D013F01680E711CD3018D9199
:1053C0009C914115510511F7019671F3982CDD243C
:1053D000DA9485CF8D1181CFC0CF009761F0D801CD
:1053E0001E961D921D921D921C9251979C012B7F1F
:1053F000232B09F02FCF5701B9E0AB0EB11CF501FB
:105400001082D70156966D907C9057976114710465
:10541000E1F1F80186859785A089B189892B8A2BCE
:105420008B2B69F1808D918D019649F10688F78962
:10543000E02D5F01B2E0AB0EB11C8081918100973D
:10544000F1F04301C12CD12C14C0F701208D318D16
:1054500021503109C216D30694F4FFEFCF1ADF0AA8
:10546000D4018D934D01F501819191915F010097D8
:1054700041F060E070E00E940B2B009731F7C12CE7
:10548000D12CF301EC0DFD1D108260E070E0C8012D
:105490000E946F168430910509F0DCCED8011E966B
:1054A0001D921D921D921C92519780E090E0D2CEE9
:1054B000F80116861786108A118A9DCF808186FF93
:1054C0000BC0203231050CF081CF220F331FFB01BE
:1054D000E20FF31F11821082DA94982C00CF60E063
:1054E00070E0C8010E944213B5CED11011C0DF0197
:1054F00011969F01255F3F4F90E001C08D9190FB79
:10550000979597F9980F2A173B07C1F7991539F026
:105510008FEF9FEFD80159969C938E9358979701E0
:10552000275F3F4FD8011E964D915D916D917C9103
:105530005197452B462B472B09F466C0D484AF0105
:10554000570181E1A80EB11C9D2D987011C09923BF
:1055500029F06FEB680F6A3108F4805E2F5F3F4FD0
:10556000B90161507109DB018C932A153B0551F09B
:10557000DA018D91AD01803221F0853041F785EE61
:10558000EDCF59018085803211F1C50101962EE2DF
:10559000D5012C93AF01485F5F4FB4E0AB0EB11C57
:1055A0003D2D3071DA012D91AD01203259F13323B7
:1055B00029F06FEB620F6A3108F4205E0196BC019E
:1055C00061507109DB012C938A159B0559F783857E
:1055D000D70118968C931897448D558D668D778DCD
:1055E0004D935D936D937C931397808D918D15965C
:1055F0009C938E9314978689978917969C938E9384
:105600001697FDCE5C01E3CF5901F9CE60EC73EB48
:1056100089E494E3089580389105F0F0672BB1F4A4
:105620002EE536E040E050E007C04F5F5F4F2E5F51
:105630003F4F4038510571F0F9016591749186171B
:10564000970799F7CA0180589F4F08958F3F91059A
:1056500021F018F080E090E00895FC01EE0FFF1FAC
:10566000E25AFA4F8591949108952EE734E0F901BA
:1056700045915491452B41F1F9014591549184177D
:10568000950711F120E834E040E050E009C0F9014D
:1056900065917491F90132966817790741F09F017D
:1056A0004F5F5F4FF90165917491672B81F7F901A5
:1056B00025913491232B39F0FA01EE0FFF1FE256AA
:1056C000FD4F85919491089540E050E0F0CF80B176
:1056D000869581700895882381F082B18D6282B9A8
:1056E00016988DE681B98FE39CE90197F1F700C028
:1056F000000080B18695817008951098169A81B146
:10570000827D81B9F0CF1298129A089590E027E037
:1057100030E006C0139A1298129A2150310978F09D
:10572000AC01022E02C0559547950A94E2F740FD60
:10573000F1CF13981298129A2150310988F70895E1
:1057400027E030E080E061E070E01298129A049B5C
:1057500007C0AB01022E01C0440F0A94EAF7842B64
:105760002150310990F70895159886E00E94862B04
:10577000159A0895159884E00E94862B159A08952D
:10578000CF93C82F159881E00E94862B8C2F0E9402
:10579000862B159ACF910895159885E00E94862B47
:1057A00027E030E080E061E070E01298129A049BFC
:1057B00007C0AB01022E01C0440F0A94EAF7842B04
:1057C0002150310990F7159A0895CF93DF93C8EED1
:1057D000D3E002C0209789F021970E94CC2BEFE301
:1057E000FCE93197F1F700C000008111F3CF81E0AF
:1057F000CD2B19F0DF91CF91089580E0DF91CF910B
:1058000008950E94E52B159886E00E94862B159A34
:10581000159887EC0E94862B159A0C94E52B1F9304
:10582000CF93DF93EB01182F159A0E94E52B159863
:1058300086E00E94862B159A159882E00E94862B9E
:10584000812F0E94862B8D2F0E94862B8C2FDF911B
:10585000CF911F910C94862B0C94E52B0F931F93E3
:10586000CF93DF930E94CC2B082F8CE198E00E940D
:10587000990A802F0E94C10A88E198E00E94990A43
:1058800010E0C7E0D0E006C086E198E00E94990AE7
:10589000219778F098010C2E02C0359527950A942F
:1058A000E2F720FDF1CF84E198E00E94990A219768
:1058B00088F7DF91CF911F910F910C94040B81E039
:1058C0000E946B2B15988BEA0E94862B80E00E9429
:1058D000862B80E00E94862B80E00E94862B0E940F
:1058E000A02B159A8051873068F4E82FF0E0EE0F76
:1058F000FF1FEE0FFF1FEA52FE4F60817181828110
:105900009381089560E070E0CB010895682F70E006
:1059100020E030E080E0AB01022E02C055954795B3
:105920000A94E2F7880F40FD81602F5F3F4F2830D7
:10593000310589F708957F928F929F92AF92BF921F
:10594000CF92DF92EF92FF920F931F93CF93DF934B
:10595000CDB7DEB7A3970FB6F894DEBF0FBECDBFAD
:105960008C014A015B017E2C0E94AA0A82E198E028
:105970000E94990A60E070E0CB010E94D50A80E1A4
:1059800098E00E94990A60E070E0CB010E94D50A7D
:105990000E94040B4AE0B801CE0101960E94FE1D50
:1059A0007C01892B09F099C081E00E946B2B15982E
:1059B00083E00E94862B80E00E94862B80E00E947C
:1059C000862B80E00E94862B1AA219A281149104D2
:1059D000A104B10409F456C0C12CD12C760120C019
:1059E0008BA39E012F5D3F4F41E050E0BE016D5DF6
:1059F0007F4FCE0101960E941F238FEFC81AD80A4D
:105A0000E80AF80AD701C6019F70AA27BB27892B8D
:105A10008A2B8B2BF9F08C149D04AE04BF0491F1FA
:105A20000E94A02B7110DCCF682F70E020E030E0E6
:105A300090E0AB01022E02C0559547950A94E2F71B
:105A4000990F40FD91602F5F3F4F2830310589F756
:105A50009BA3C7CF88EE97E00E94990AD701C601A1
:105A60002AE0B695A795979587952A95D1F70E9434
:105A7000CC0A83EE97E00E94990A8C149D04AE0430
:105A8000BF0471F6159A80E00E946B2B86ED97E0BB
:105A90000E94990ACE0101960E94572680ED97E058
:105AA0000E94990AC8010E94AA0A84EC97E00E9409
:105AB000990AA3960FB6F894DEBF0FBECDBFDF9153
:105AC000CF911F910F91FF90EF90DF90CF90BF90FB
:105AD000AF909F908F907F90089586EF97E00E94FF
