:100000000C94CB090C94E8090C94E8090C945A431D
:100010000C94E8090C943E4C0C948C4B0C94654B5E
:100020000C94C64B0C94E8090C94260A0C944C4C86
:100030000C94E8090C94750A0C94E8090C94E809EE
:100040000C94E8090C94E8090C94E8090C94E8096C
:100050000C94E8090C94E8090C94E8096364696E4F
:100060006F70737578585B0045464765666700207A
:100070002B2D2E3031323334353637383968000D78
:100080000A0074696D656F7574202E2E2E204650FF
:100090004741206C6F6164206661696C65640D0A7C
:1000A000007761697420636F6E66202E2E2E0D0A14
:1000B000000D0A002E0A0D002072657300636F7236
:1000C0006520726573657420000D0A002E0A0D000C
:1000D00020726573007265736574200020633020A0
:1000E0000020633120002072302000207231200077
:1000F0002E2E2E0020726573002E2E2E002072658B
:1001000073002E2E2E0020726573002E2E2E0020DE
:1001100063726573002E2E2E002063726573002EAD
:100120002E2E0020726573002A2A20496E697420E1
:10013000646F6E65202A2A0D0A0052617720566F7F
:100140006C746167653A20002A2A20506F776572C7
:10015000206F6E20646F6E65202A2A0D0A002A2AFD
:1001600020506F77657220696E697420646F6E65C8
:100170002028706F776572206F666629202A2A0D05
:100180000A002A2A20554152542D496E6974206470
:100190006F6E65202A2A0D0A00206661696C65640D
:1001A0000D0A00206F6B0D0A002063616C632063F1
:1001B00072633A2000554D413A206D6D63206372A1
:1001C000633A2000206661696C207772697465204B
:1001D000636D640D0A0052656164792C2072657448
:1001E000726965732072656D61696E696E673A2028
:1001F000006D6D635F696E6974204572726F720085
:100200004361726454797065203A00200020002018
:100210000020004F4352203A002000200020002000
:10022000004F435231203A00205265747269657361
:100230002072656D61696E696E673A20005265745F
:1002400075726E3A2000554D413A2073656E6420F8
:10025000636D640D0A00203A20006D6D6320636DAC
:10026000643A20004100420043004400450046003B
:100270004700480049004A004B004C004D004E002A
:100280004F005000510052005300540055005600DA
:100290005700580059005A002100E0FFE1FFE5FF38
:1002A000E2FFE3FFC000C100C200C300C400C500FC
:1002B000C600C700C800C900CA00CB00CC00CD00F2
:1002C000CE00CF00D000D100D200D300D400D500A2
:1002D000D600D800D900DA00DB00DC00DD00DE004B
:1002E0007801000102010401060108010A010C0164
:1002F0000E01100112011401160118011A011C014E
:100300001E01200122012401260128012A012C01BD
:100310002E01300132013401360139013B013D012A
:100320003F0141014301450147014A014C014E0192
:10033000500152015401560158015A015C015E01FD
:10034000600162016401660168016A016C016E016D
:10035000700172017401760179017B017D019101C7
:1003600091039203930394039503960397039803D1
:1003700099039A039B039C039D039E039F03A00381
:10038000A103A303A403A503A603A703A803A9032A
:10039000AA0310041104120413041404150416040F
:1003A0001704180419041A041B041C041D041E0459
:1003B0001F04200421042204230424042504260409
:1003C0002704280429042A042B042C042D042E04B9
:1003D0002F040104020403040404050406040704B2
:1003E000080409040A040B040C040E040F04602121
:1003F00061216221632164216521662167216821D1
:1004000069216A216B216C216D216E216F2121FFF1
:1004100022FF23FF24FF25FF26FF27FF28FF29FFB8
:100420002AFF2BFF2CFF2DFF2EFF2FFF30FF31FF68
:1004300032FF33FF34FF35FF36FF37FF38FF39FF18
:100440003AFF00006100620063006400650066001E
:100450006700680069006A006B006C006D006E0048
:100460006F007000710072007300740075007600F8
:100470007700780079007A00A100A200A300A5000F
:10048000AC00AF00E000E100E200E300E400E500C2
:10049000E600E700E800E900EA00EB00EC00ED0010
:1004A000EE00EF00F000F100F200F300F400F500C0
:1004B000F600F800F900FA00FB00FC00FD00FE0069
:1004C000FF00010103010501070109010B010D01F5
:1004D0000F01110113011501170119011B011D0164
:1004E0001F01210123012501270129012B012D01D4
:1004F0002F0131013301350137013A013C013E0141
:10050000400142014401460148014B014D014F01A8
:10051000510153015501570159015B015D015F0113
:10052000610163016501670169016B016D016F0183
:1005300071017301750177017A017C017E019201DD
:10054000B103B203B303B403B503B603B703B803EF
:10055000B903BA03BB03BC03BD03BE03BF03C0039F
:10056000C103C303C403C503C603C703C803C90348
:10057000CA0330043104320433043404350436042D
:100580003704380439043A043B043C043D043E0477
:100590003F04400441044204430444044504460427
:1005A0004704480449044A044B044C044D044E04D7
:1005B0004F04510452045304540455045604570480
:1005C000580459045A045B045C045E045F047021FF
:1005D000712172217321742175217621772178216F
:1005E00079217A217B217C217D217E217F2141FF80
:1005F00042FF43FF44FF45FF46FF47FF48FF49FFD7
:100600004AFF4BFF4CFF4DFF4EFF4FFF50FF51FF86
:1006100052FF53FF54FF55FF56FF57FF58FF59FF36
:100620005AFF0000C700FC00E900E200E400E0001F
:10063000E500E700EA00EB00E800EF00EE00EC0068
:10064000C400C500C900E600C600F400F600F200D0
:10065000FB00F900FF00D600DC00F800A300D80082
:10066000D7009201E100ED00F300FA00F100D100A3
:10067000AA00BA00BF00AE00AC00BD00BC00A100E3
:10068000AB00BB0091259225932502252425C100AE
:10069000C200C000A9006325512557255025A2009E
:1006A000A5001025142534252C251C2500253C25C6
:1006B000E300C3005A255425692566256025502589
:1006C0006C25A400F000D000CA00CB00C800AC200C
:1006D000CD00CE00CF0018250C2588258425C60026
:1006E000CC008025D300DF00D400D200F500D50077
:1006F000B500FE00DE00DA00DB00D900FD00DD0001
:10070000AF00B400AD00B1001720BE00B600A700D6
:10071000F700B800B000A800B700B900B300B200FD
:10072000A025A00020666C61736865642E0A0D0028
:1007300046696C65200020646F6E65202E2E2E0A9F
:100740000D00204B420D00462D77726974696E676B
:1007500020203078006572726F720A0D00646F6E2F
:10076000650A0D00464C6173683A206572617369D1
:100770006E67202E2E2E20004572726F723A205521
:100780006E61626C6520746F20726561643A20004E
:10079000200020637265617465642E0A0D0046694D
:1007A0006C6520000A0D646F6E65202E2E2E0A0DDA
:1007B00000204B420D00462D72656164696E672012
:1007C000203078004572726F723A20556E61626C0B
:1007D0006520746F206372656174653A20002000A3
:1007E0002000204B420D00462D636865636B696EE7
:1007F00067202030780030003100203A200041533B
:100800002D5374617475733A200041532D446973FC
:1008100061626C65640020427974650053697A6591
:100820003A203078002A2A20756E6B6E6F776E2022
:100830002A2A00617373756D65204D6963726F6E4E
:100840000057323551313238004550435336340069
:1008500045504353513332004550435331360045E0
:100860005043533400455043533100200053696CCA
:1008700069636F6E2D49443A2000736B697070652F
:10088000643A206C656E3D3D300D0A006C656E3D2E
:1008900020003E003C004572726F723A20556E6136
:1008A000626C6520746F206F70656E3A20002D2D8C
:1008B0002D2D2D2D2D2D2D2D2D2D0A0D00202D2DE5
:1008C00020002A2A2059482D465047412D5368655B
:1008D0006C6C202A2A0D0A00434D443A206361744F
:1008E0000D0A00434D443A206865780D0A00202A1D
:1008F0002000202A2000506172616D657465723A93
:100900002000202A2000506172616D657465723A82
:100910002000506172616D657465723A2000202D6F
:100920002D20006D697373696E6720706172616D4F
:10093000657465723A20002000506172616D6574C3
:1009400065723A20002000436F6D6D616E643A203D
:100950000000790CA6316F0C00690CA2315F0C000D
:100960005A0C673D4E0C01480CEB31340C012E0C37
:1009700017321E0C01170C2F3C090C00060C6632B6
:10098000F00B01EC0B9832E20B01DE0B6932D10B5C
:1009900001CE0B9134BF0B01BB0B080EAC0B01A7B2
:1009A0000B4C0E930B028B0BD82F6D0B01640B5964
:1009B00030450B003C0B75302B0B00240B5F300EC9
:1009C0000B01060B1041F00A03E90A773FD00A0237
:1009D000C80A4B40B00A02A90AAC3E970A01910A24
:1009E000704E850A007F0A994E790A02760AB9414B
:1009F000610A005D0A3642530A014F0A3842390A39
:100A000000350A5E42230A000000000000000000DA
:100A100000000000000000000000000000000000D6
:100A200000000073686F777320696E666F206F6EC9
:100A3000206F7364006F7364006A6F792076616C55
:100A40007565202874657374206F6E6C7929006A4F
:100A50006F79007265736574207073320070733241
:100A600000736420726177696D61676566696C65A2
:100A7000207479706500736400632D67657400638A
:100A80002D67657400632D7365742056616C756500
:100A900000632D73657400662D64756D70206F663C
:100AA00066736574206C656E00662D64756D7000EC
:100AB000662D7772697465206F666673657420664B
:100AC000726F6D66696C6500662D7772697465007A
:100AD000662D72656164206F6666736574206C654F
:100AE0006E20746F66696C6500662D7265616400C6
:100AF000662D6572617365203531326B2D536C6FD5
:100B0000742F616C6C00662D657261736500436FB4
:100B10006E666967466C61736820706F7765726492
:100B20006F776E0061732D6F666600436F6E666946
:100B300067466C61736820496E666F0061732D674C
:100B400065746964007772697465202E726266202C
:100B500066696C6520746F20436F6E666967466CCA
:100B60006173680061732D777269746500726561E5
:100B70006420436F6E666967466C617368206C65BC
:100B80006E2F616C6C2F757365640061732D7265D7
:100B90006164006372657320636F7265726573656B
:100BA000746C6576656C00637265730072657320A2
:100BB00072657365746C6576656C0072657300654B
:100BC00078656320626174636866696C6500646F50
:100BD0000068657864756D702066696C650068658D
:100BE000780073686F772066696C650063617400D4
:100BF0006C69737420534443617264204469726564
:100C000063746F7279006C730070757A7A6C65200A
:100C1000726F756E64730070757A7A6C65007761B7
:100C200069742064656C74696D65206D730064651A
:100C30006C617900656E61626C6520446562756700
:100C40002054726163657300747261636500537947
:100C50007374656D20496E666F00696E666F007013
:100C60006F776572206F66660072657365740074D5
:100C700068697320546578740068656C700042463A
:100C800020667067612D7368656C6C3A3E20004584
:100C900072726F723A20000A0D4156522D526573DE
:100CA000746172740D0A00424620667067612D738C
:100CB00068656C6C3A3E20002A2A2A205375736BB3
:100CC000612D4949492D424620465047412D5368E0
:100CD000656C6C202A2A2A0D0A00465047412044A0
:100CE000656661756C7420696E69742D46696C6502
:100CF0002028696E69742E74787429206661696C85
:100D000065640D0A0020667265733D004572726F5E
:100D1000723A20556E61626C6520746F206F706549
:100D20006E3A20002000203A20004572726F723A1D
:100D300020556E61626C6520746F206F70656E3A2D
:100D4000200069202D20696E666F0A006F202D201B
:100D50006F70656E2066696C6520626C6F636B698D
:100D60006E670A0064202D20646561637469766192
:100D700074652066696C650A0061202D20616374CA
:100D800069766174652066696C650A0053442D4676
:100D9000696C652064697361626C65640A00534420
:100DA00020496E666F0A005245510A0D007761694D
:100DB00074202E2E2E2000204B420D0054462D77FD
:100DC000726974696E672020307800204B420D00F4
:100DD00054462D72656164696E672020307800206A
:100DE00000203A2000465047412D56657273696FC6
:100DF0006E3A2000292000556E6B6E6F776E20438F
:100E00006F7265004D756C7469636F6D70205A3830
:100E100030004F6C6420436F726520776974686F8F
:100E20007574207479706500756E6B6E6F776E00E7
:100E30004156520054657374436F72652000756E9D
:100E40006B6E6F776E00537061636520496E7661DB
:100E500064657273004172636164652000205354BD
:100E60004520005375736B612D4949492F49562D13
:100E7000422A002046414C434F4E20005375736B6D
:100E8000612D4949492F49562D422A0020545420AA
:100E9000005375736B612D4949492F49562D422ADC
:100EA000002028002000465047412D436F72657492
:100EB0007970653A200041544D4547412D56657281
:100EC00073696F6E3A2000496E70757420566F6CAE
:100ED000746167653A200072617720496E7075749D
:100EE00020566F6C746167653A2000756E6B6E6F8B
:100EF000776E00574636384B303000574636384B01
:100F0000313000574636384B333000574636384B71
:100F100033304C004D6F7573653A20004B65796234
:100F20006F6172643A2000436865636B20505332EE
:100F300020446576696365730A0D0020646F6E65F1
:100F40000A0D000A0D756E6B6E6F776E20726571FB
:100F50003A2000773A2000723A20000A0D73656546
:100F60006B206661696C65640A0D000A0D696C6C22
:100F70006567616C207265713A20000A0D657869B9
:100F80007420436D640A0D000000000000000000A2
:100F900055555555555555552A2A2A2A2A2A2A2A59
:100FA00014141414141414140000000000000000A1
:100FB0000000000000000000000000000000000031
:100FC0000000000000000000000000000000000021
:100FD0000000000000000000000000000000000011
:100FE0000000000000000000000000000000000001
:100FF000000000000000000000C0C0E0781F00FFFB
:10100000FF001F78E0C0C00008081C1C3E3E7F7F28
:101010007F7F3E3E1C1C08080010187C7C181000C6
:101020000010307C7C3010001C1C1C1C1C1C0000A0
:1010300000001C1C1C1C1C1C007C7C383810100080
:10104000707C7272727C7000707070707C72020CB6
:101050003E3E2222223E3E003E3E3E3E3E3E3E0080
:101060000000000C0C000000000000000000000068
:101070000000000000000000000000000000000070
:101080000000000000000000000000000000000060
:101090000000005F5F000000000303000303000086
:1010A000147F7F147F7F140000242E6B6B3A120094
:1010B0004C6A36186C563200307E4F59773A684089
:1010C000000004070300000000001C3E6341000014
:1010D000000041633E1C0000082A3E1C1C3E2A08FA
:1010E0000008083E3E080800000080E060000000A4
:1010F0000008080808080800000000606000000000
:10110000406030180C060301003E7F594D7F3E00C1
:101110000004067F7F00000000426371594F4600C3
:1011200000226349497F3600181C16137F7F100088
:1011300000276745457D3900003C7E4B49793000EA
:1011400000010171790F070000367F49497F3600A1
:1011500000064F49693F1E0000000066660000005F
:10116000000080E666000000000808141422220037
:10117000001414141414140000222214140808007B
:1011800000020351590F06003E7F415D551F1E00AE
:10119000007E7F09097F7E00007F7F49497F3600FE
:1011A000001C3E6341414100007F7F41633E1C00C3
:1011B000007F7F4949414100007F7F09090101000B
:1011C000003E7F41497B7A00007F7F08087F7F00D7
:1011D0000000417F7F41000000206040407F3F00D1
:1011E0007F7F081C36634100007F7F404040400005
:1011F0007F7F060C067F7F007F7F060C187F7F00B5
:10120000003E7F41417F3E00007F7F09090F0600BD
:101210003E7F41617F7E4000007F7F09197F66002D
:1012200000266F4D597B32000001017F7F010100D4
:10123000003F7F40407F3F00000F3F70703F0F0036
:101240007F7F3018307F7F004163361C1C3663413E
:101250000103067C7C0603016171594D474341003F
:1012600000007F7F414100000103060C1830604000
:10127000000041417F7F0000080C0603060C0800B7
:1012800080808080808080000000000307040000D0
:1012900000207454547C7800007F7F44447C3800E4
:1012A00000387C444444000000387C44447F7F0084
:1012B00000387C54545C180000047E7F0505000053
:1012C0000018BCA4A4FC7C00007F7F04047C780090
:1012D0000000003D7D40000000808080FD7D00001A
:1012E000007F7F10386C44000000003F7F4000000A
:1012F0007C7C0C180C7C7800007C7C04047C7800DE
:1013000000387C44447C380000FCFC24243C180059
:1013100000183C2424FCFC00007C7C04040C080025
:1013200000485C545474200000043F7F4444000093
:10133000003C7C40407C7C00001C3C60603C1C000D
:101340003C7C6030607C3C00446C3810386C44005D
:10135000001CBCE0603C1C00004464745C4C440015
:101360000008083E774141000000007F7F00000038
:10137000004141773E08080002010103020201001A
:101380007F7F7F7F7F7F7F00465047412D436F6E79
:101390006669673A200011241FBECFEFD0E1DEBF9F
:1013A000CDBF16E0A0E0B1E0E6EFFEEA02C0059096
:1013B0000D92AE33B107D9F72BE0AEE3B6E001C032
:1013C0001D92AE3CB207E1F70E94C74F0C947957CB
:1013D0000C940000F89428E024BD019761F084B5D6
:1013E000856084BD8BE987BD80916E0082608093AB
:1013F0006E007894089584B5846084BD8DE387BDC4
:1014000080916E00826080936E00789408950F93AF
:101410001F938B019C01011511052105310589F0F0
:1014200090E080E0EFE9FFE03197F1F700C00000C5
:101430000196AC0170E060E0401751076207730746
:1014400088F31F910F9108950C94070A1F920F9231
:101450000FB60F9211248F939F93AF93BF938091F8
:101460003E0690913F06A0914006B091410601963C
:10147000A11DB11D80933E0690933F06A0934006A8
:10148000B0934106BF91AF919F918F910F900FBE86
:101490000F901F9018951092C5008093C40086E0AD
:1014A0008093C20088E18093C10008959093C500A5
:1014B0008093C40008959FB7F8948091C10080681C
:1014C0008093C1008091C6008091C00087FDFACF53
:1014D00080EC8093C0009FBF42E363E977E085EC36
:1014E00097E00E94C00B789408951F920F920FB658
:1014F0000F9211242F933F934F938F939F93EF93CA
:10150000FF934091C6009091C5078091C607981738
:10151000D0F4E091C907F091CA079F012F5F3F4FB8
:1015200040838091CC078150D1F08093CC073093D9
:10153000CA072093C9079FB7F8948091C5078F5FAA
:101540008093C5079FBFFF91EF919F918F914F911E
:101550003F912F910F900FBE0F901F901895809183
:10156000C607281B3109E1CF85EC97E00C94E40B0A
:1015700085EC97E00C94CA0B9091C00095FFFCCFCE
:101580008093C6000895CF93C82F8A3039F08C2FEE
:101590000E94BC0A90E080E0CF9108958DE00E9407
:1015A000C30AF5CFCF93DF93EC01FC01849188232C
:1015B00039F00E94BC0A2196FE0184918111F9CF75
:1015C000DF91CF910895CF93DF93EC018881882339
:1015D00031F021960E94BC0A89918111FBCFDF91E5
:1015E000CF9108958A3018F4805D0C94BC0A895C10
:1015F0000C94BC0ACF93C82F82958F700E94F20A78
:101600008C2F8F70CF910C94F20ACF93C82F892F13
:101610000E94FA0A8C2FCF910C94FA0ACF92DF9293
:10162000EF92FF926B010E94050BC601FF90EF90B5
:10163000DF90CF900C94050BCF93C82F80E3C43676
:1016400030F08CE98C0F843690F0C85C82E30E9405
:10165000BC0A80E3CA3020F08F5FCA50CA30E0F77E
:101660000E94BC0A80E38C0FCF910C94BC0AC82F57
:1016700081E3EDCF8FE790E00C94D20AEF92FF92D6
:101680000F931F93CF93DF937C01D62FC0E010E020
:1016900000E008C0CF5F0C2F10E0F701E00FF11F52
:1016A000CD17E8F485EC97E00E94E40BF701E00F1A
:1016B000F11F8F3F980799F080838D3081F08A3039
:1016C00071F0883039F7CC2399F01082C1500C2F7B
:1016D00010E0F701E00FF11F1082CD1718F3108210
:1016E0008C2FDF91CF911F910F91FF90EF90089574
:1016F000F7011082F2CF0F931F93CF93DF938C01EA
:10170000D62FC0E00E94BA4985EC97E00E94E40B16
:101710008F3F9807F9F0F801EC0FF11D80838D30B1
:1017200051F08A3041F08830F9F0CF5FCD1750F397
:10173000F801EC0FF11D10820D9781F4C1110EC05C
:101740008DE0F801808311828C2FDF91CF911F9162
:101750000F910895C111EACFF80110828C2FDF910B
:10176000CF911F910F910895CC2339F01082C15071
:10177000F801EC0FF11D1082D9CFF8011082D6CFFD
:10178000FC01108275836483738362834183478382
:1017900046830895FC0180818823E9F3A281B38107
:1017A0009D012F5F3F4F8C919681915019F491814B
:1017B000291B31093383228396832FB7F8949081B4
:1017C000915090832FBF0895FC0180818823B9F048
:1017D000A281B3819D012F5F3F4F8C9196819150E3
:1017E00019F49181291B31093383228396832FB702
:1017F000F8949081915090832FBF90E008958FEFDF
:101800009FEF08950F931F93CF93DF93EC01E9EFC0
:10181000F2E0C11580E8D807B1F0CE01D7FD24C0B1
:101820001092480628E436E00AE010E001C09F016B
:10183000F901B8010E945752805D8293CB01009755
:10184000B1F7D7FD06C0CF01DF91CF911F910F9166
:10185000089531978DE28083F9013297CF01DF91AE
:10186000CF911F910F910895882799278C1B9D0B6D
:10187000D7CFFC0140814D3259F1A1E0B0E04B32AD
:1018800011F180ED840F319670E060E08A3028F528
:101890009B01220F331F220F331F260F371F220FEA
:1018A000331F4053550BBA01620F731F419180EDF6
:1018B000840F8A3068F36A9FC0016B9F900D7A9FF6
:1018C000900D1124089541813196A1E0B0E0D9CF67
:1018D00041813196AFEFBFEFD4CF90E080E0089523
:1018E0008A3010F4805D0895895C08951F93CF932A
:1018F000DF93182F82958F700E94700CCEE4D6E093
:101900008883812F8F700E94700C89831A82CE0188
:10191000DF91CF911F9108950F931F93CF93DF9382
:101920008C01812F82958F700E94700CC9E4D6E0E3
:101930008883812F8F700E94700C8983C8019295D3
:1019400082958F7089279F7089278F700E94700CF5
:101950008A83802F8F700E94700C8B831C82CE0133
:10196000DF91CF911F910F9108958F929F92AF9227
:10197000BF92FF920F931F93CF93DF934B015C01B4
:101980001092580620E030E0A9010E948B50F12C03
:1019900087FF06C0B7FAB094B7F8B094FF24F39469
:1019A00020E030E048EC52E4C501B4010E94EA5165
:1019B0000E9409514B015C0124E630E040E050E018
:1019C0000E946B52C62F2AE030E040E050E00E94B7
:1019D0006B528DECC89F812D112486958695869536
:1019E000982F990F990F890F880FC81BC63008F4DC
:1019F00044C081E0820F2F5C8A3031F484E6880E87
:101A0000911CA11CB11C20E3209357068EE2809309
:101A10005606C501B40124E630E040E050E00E94E3
:101A20006B52CA01B90105E516E02AE0822E912C1D
:101A3000A12CB12C611571058105910511F423C00C
:101A40008E01E8012197A50194010E946B52605D0F
:101A50006983B901CA01611571058105910581F795
:101A6000F1100DC0C801DF91CF911F910F91FF9030
:101A7000BF90AF909F908F900895205DC5CF8DE26D
:101A800088838E01EFCF80E38093550605E516E04D
:101A9000E9CF813019F0E8F08230A9F080917C0024
:101AA000806C80937C0080917A00876080937A00BC
:101AB00080917C00807E80937C0080917A00806899
:101AC00080937A00089580917C008F7380937C00CE
:101AD000EACF80917C008F73806480937C00E3CF99
:101AE000ECE7F0E09081907E892B808308958091CF
:101AF0007A0086FB882780F991E0892708958091F4
:101B000078009091790008958A9A8BEE90E00C9479
:101B1000D20A899A81EE90E00C94D20A89988A9828
:101B2000819A829A0895811109C08A9886EE90E080
:101B30000E94D20A0E94624E0C943A3D0C94840D8D
:101B400083E291E00E94D20A0E94840D8FE191E02D
:101B50000E94D20A64EF71E080E090E00E94070AE0
:101B600089E191E00E94D20A0E94890D85E191E00D
:101B70000E94D20A64EF71E080E090E00E94070AC0
:101B80008FE091E00E94D20A89988CED90E00E944B
:101B9000D20A8BE091E00E94D20A64EF71E080E00B
:101BA00090E00E94070A86E091E00E94D20A80E05D
:101BB0000E94930D82E091E00E94D20A64EF71E0EE
:101BC00080E090E00E94070A8DEF90E00E94D20A28
:101BD0000E94840D89EF90E00E94D20A64EF71E0C8
:101BE00080E090E00E94070A84EF90E00E94D20A11
:101BF00080E00E94930D80EF90E00C94D20A811156
:101C000005C089988CED90E00C94D20A0C94890D53
:101C1000CF93DF931F92CDB7DEB79E012F5F3F4F6B
:101C20003F932F9320E033E03F932F939F938F9325
:101C30000E94FD5385ED90E00E94D20A89810F90A9
:101C40000F900F900F900F900F90823051F00E94E4
:101C5000930D89EC90E00E94D20A0F90DF91CF9112
:101C6000089580ED90E00E94D20A0E94840D64EFF6
:101C700071E080E090E00E94070A80E00E94930DEE
:101C80008CEC90E00E94D20A89EC90E00E94D20A8B
:101C90000F90DF91CF910895CF93DF931F92CDB72F
:101CA000DEB79E012F5F3F4F3F932F9320E033E03D
:101CB0003F932F939F938F930E94FD538DEB90E062
:101CC0000E94D20A89810F900F900F900F900F9071
:101CD0000F90823051F00E94FF0D81EB90E00E9446
:101CE000D20A0F90DF91CF91089588EB90E00E9487
:101CF000D20A0E94890D64EF71E080E090E00E94BA
:101D0000070A89988CED90E00E94D20A84EB90E05B
:101D10000E94D20A81EB90E00E94D20A0F90DF91DC
:101D2000CF91089589988A98819A829A8B98839AFC
:101D30000C94600FCF93DF93909159069817B1F1EF
:101D4000D82F882329F18B9A64E670E080E090E038
:101D50000E94070A019925C0CAE06CE271E080E0A8
:101D600090E00E94070A81EA90E00E94D20AC150E6
:101D7000019920C0C111F1CF82E890E00E94D20AFF
:101D800081E0DD2389F0D0935906DF91CF9108954A
:101D90008B9864E670E080E090E00E94070A019B67
:101DA00003C081E0D111EFCF80E0EDCF80E0DF9183
:101DB000CF910895C111F5CFDFCF84B1866084B98A
:101DC000089584B1897F84B90895282F98E080E030
:101DD00065C00000000000000000000000000000DE
:101DE00000000000000000000000000000000000F3
:101DF00000000000000000000000000000000000E3
:101E00000000299A0000000000000000000000000F
:101E100000000000000000000000000000000000C2
:101E200000000000000000000000000000000000B2
:101E300000000000000000000000000000000000A2
:101E40000000000000000000000000000000000092
:101E50000000000000000000000000000000000082
:101E600000000000299800000000000000000000B1
:101E70000000000000000000000000000000000062
:101E80000000000000000000000000000000000052
:101E9000000000000000220F915079F027FD0EC0D5
:101EA0002A98880F1B99816030916206311191CF79
:101EB000299A2998220F915089F708952A9AF1CFEB
:101EC0002C9A2D9A259A249A089580916306089554
:101ED0001F93CF93DF93C4EFD1E002C0219730F07E
:101EE0008FEF0E94E50E182F8F3FC1F780910E01F2
:101EF00090910F01A0911001B09111010397A105DC
:101F0000B10558F086ED91E00E94D20ACE010E9400
:101F1000020C0E94E30A0E943A0B812FDF91CF91BD
:101F20001F910895EF92FF920F931F93CF93DF932A
:101F3000C82FD42F052FF62EE72E80910E019091F9
:101F40000F01A0911001B09111010397A105B105F6
:101F500008F063C0C7FD7CC02C9A2C980E94680FC3
:101F60001FEF8F3F09F051C080910E0190910F013A
:101F7000A0911001B09111010397A105B10508F0DE
:101F800080C08C2F0E94E50E8E2D0E94E50E8F2DB5
:101F90000E94E50E802F0E94E50E8D2F0E94E50E17
:101FA000C03409F46AC0C83409F05DC087E80E94F3
:101FB000E50EC4EFD1E002C0219731F08FEF0E940F
:101FC000E50E182F87FDF8CF80910E0190910F013B
:101FD000A0911001B09111010397A105B105A8F0DE
:101FE0008DE392E00E94D20A812F90E00E94020CC1
:101FF0000E94E30A88E292E00E94D20ACE010E9487
:10200000020C0E94E30A0E943A0B812FDF91CF91CC
:102010001F910F91FF90EF9008958AE592E00E9442
:10202000D20A8C2F0E94FA0A86E592E00E94D20A18
:102030008D2F0E94FA0A802F0E94FA0A8F2D0E948B
:10204000FA0A8E2D0E94FA0A0E943A0BC7FF84CF2B
:1020500040E050E0BA0187E70E94920F182F8230CB
:10206000A0F6CF7779CF81E00E94E50ECC3409F05D
:10207000A0CF8FEF0E94E50E9CCF85E90E94E50E70
:1020800098CF86E492E00E94D20A7BCF8F929F92F3
:10209000AF92BF92CF92DF92FF920F931F93CF9395
:1020A000DF9300D000D0CDB7DEB72D982FEF83EDB2
:1020B00090E3215080409040E1F700C0000081E0B3
:1020C000809362061FE08FEF0E94E50E1150D9F752
:1020D000EFEFF1EE24E0E150F0402040E1F700C0E6
:1020E000000010E000E009C08FEF90E7E2E08150CF
:1020F0009040E040E1F700C0000040E050E0BA014D
:1021000080E40E94920FF82EF1E08F1709F10F5F23
:102110001F4F0C30110541F7109263062C9A81EF86
:1021200091E00E94D20A0E943A0B2D9AF12C8F2D39
:102130000F900F900F900F90DF91CF911F910F9103
:10214000FF90DF90CF90BF90AF909F908F900895B9
:102150004AEA51E060E070E088E40E94920F81302A
:1021600009F43DC040E050E0BA0189EE0E94920FB0
:1021700098E0C92E29EED22E823020F0CC24C394D0
:1021800081E4D82E08EE13E00AC08FE99FE00197A2
:10219000F1F700C000000150110909F4BDCF40E083
:1021A00050E0BA018D2D0E94920F8111EECF40E0D8
:1021B00052E060E070E080E50E94920F8111ACCFA8
:1021C000C09263062C9A1092620680E092E00E9410
:1021D000D20A8C2D0E94FA0A0E943A0BA8CFCE0197
:1021E00001964C015E0195E0A90EB11C64018FEFD0
:1021F0000E94E50EF60181936F01AE16BF06B9F796
:1022000081E292E00E94D20A89810E94FA0A8FE15B
:1022100092E00E94D20A8A810E94FA0A8DE192E03D
:102220000E94D20ABB808B2D0E94FA0A8BE192E0B9
:102230000E94D20AAC808A2D0E94FA0A89E192E0BB
:102240000E94D20A0E943A0BF1E0BF1265CF2AEA3F
:102250000F5F1F4FA21260CF10C08FEF90E7E2E038
:1022600081509040E040E1F700C000000F5F1F4F39
:10227000053FF1E01F0709F44FCF40E050E060E078
:1022800070E489EE0E94920F8111E7CF043F114064
:1022900008F042CF40E050E0BA018AE70E94920F76
:1022A00081113ACF8FEF0E94E50EF40181934F0127
:1022B000CE16DF06B9F7198180910E0190910F01BA
:1022C000A0911001B09111010397A105B10580F40F
:1022D00016FF07C08CE0809363062C9A4CE0C42E56
:1022E00072CF84E0809363062C9A34E0C32E6BCFC8
:1022F00083E192E00E94D20A812F0E94FA0A81E1D2
:1023000092E00E94D20A8A810E94FA0A8FE092E04B
:102310000E94D20A8B810E94FA0A8DE092E00E940C
:10232000D20A8C810E94FA0A8BE092E00E94D20AC3
:102330000E943A0BCDCFDF92EF92FF920F931F9343
:10234000CF93DF937A012091630623FD07C029E034
:10235000660F771F881F991F2A95D1F7AB01BC0123
:1023600088E50E94920FD82E882349F08D2DDF91A9
:10237000CF911F910F91FF90EF90DF9008950E94F1
:10238000680F8F3F19F0DD24D394F0CF8EEF0E94B9
:10239000E50E87018EEFF81AF80181918F010E94F6
:1023A000E50EF80131972081D2270D2E0294202DC1
:1023B0002F702D273D2F3025330F307E2327302DD2
:1023C0003D27307F36950D2E000C331FD695D695C0
:1023D000D695DF71D327DC27C22F0E151F05E1F636
:1023E0008D2F0E94E50E8C2F0E94E50E8FEF0E942C
:1023F000E50E8F71853009F0C6CF8FEF0E94E50E94
:102400008F3FD9F72C9AB2CFBF92CF92DF92EF9243
:10241000FF920F931F93CF93DF937A01209163066E
:1024200023FD07C029E0660F771F881F991F2A9593
:10243000D1F7AB01BC0181E50E94920FB82E882331
:10244000C1F080910E0190910F01A0911001B09107
:1024500011010397A105B10508F078C08B2DDF911C
:10246000CF911F910F91FF90EF90DF90CF90BF9091
:102470000895C8EED3E008C08FE99FE00197F1F717
:1024800000C00000219751F38FEF0E94E50E8F3FAF
:1024900099F38E3F19F7870167019EEFD91AF12C46
:1024A000E12C8FEF0E94E50EF80181938F01E70187
:1024B000D8270D2E0294802D8F708D279D2F90256B
:1024C000990F907E8927902D9D27907F96950D2EB0
:1024D000000C991FD695D695D695DF71D927DC27A4
:1024E000C82F7E01CE16DF06E1F68FEF0E94E50EC3
:1024F000082F10E0102F00278FEF0E94E50E082B09
:1025000080910E0190910F01A0911001B0911101E5
:102510000497A105B10548F52C9A80910E01909180
:102520000F01A0911001B09111010C171D0799F036
:10253000BB24B3940397A105B10508F48FCF89E9B3
:1025400091E00E94D20ABB24B39488CF84EC91E03E
:102550000E94D20A83CF0497A105B10508F47ECF6B
:1025600083EA91E00E94D20A79CF85EB91E00E9444
:10257000D20A812F0E94FA0A802F0E94FA0A89EA61
:1025800091E00E94D20A8F2D0E94FA0A8C2F0E949D
:10259000FA0AC2CF5F926F927F928F929F92AF9210
:1025A000BF92CF92DF92EF92FF920F931F93CF9340
:1025B000DF93CDB7DEB760970FB6F894DEBF0FBEDE
:1025C000CDBF00910E0110910F01209110013091AB
:1025D0001101053011052105310508F472C061159E
:1025E000710509F457C04C013C01660E771E8C0141
:1025F000F12C8EE2582E0DC08083F394C801881907
:1026000099098F709927892B21F10615170509F46F
:1026100041C080E20E94BC0AF80181918F010E94B2
:10262000FA0AF80131978081CF2CD12C90EE980FC7
:10263000E1E0F0E0EC0FFD1FEC0DFD1D9F35E0F239
:102640005082F394C801881999098F709927892BB2
:10265000E1F680E20E94BC0AFF20A9F0CE010196BB
:102660005C017C019FEFE91AF90ACE0CDF1C03C064
:10267000C70101967C01F501808157010E94BC0AC7
:10268000CE14DF04A9F70E943A0BF12C06151705AA
:1026900009F0BFCF60960FB6F894DEBF0FBECDBF76
:1026A000DF91CF911F910F91FF90EF90DF90CF902E
:1026B000BF90AF909F908F907F906F905F900C94A1
:1026C0003A0B60960FB6F894DEBF0FBECDBFDF9118
:1026D000CF911F910F91FF90EF90DF90CF90BF901F
:1026E000AF909F908F907F906F905F9008950E9421
:1026F0004610882321F01092640680E0089583E05C
:10270000809364060895809164060895FB01CA01D0
:10271000B901AF010E94041290E00895FB01CA01C3
:10272000B901AF010E949B1190E008950F931F9390
:10273000CF93DF938A012C986623A9F06A3039F48D
:102740000E94650FF8018083D0E0C0E002C0C4E0C1
:10275000D0E02C9A8FEF0E94E50ECE01DF91CF9151
:102760001F910F9108950E94680F8F3F91F7ECCF52
:102770004F925F926F927F92AF92BF92CF92DF9211
:10278000EF92FF920F931F93CF93DF93FC01C2A4AC
:10279000D3A4E4A4F5A4C416D506E606F70661F0B2
:1027A0002A013B01EC018481811117C041145104BD
:1027B0006104710409F047C090E080E0DF91CF919F
:1027C0001F910F91FF90EF90DF90CF90BF90AF904F
:1027D0007F906F905F904F9008955F01FEE2AF0E83
:1027E000B11C01E0A7019601B50189810E948E13F9
:1027F000892BC9F51C828E899F89A88DB98D4E8D34
:102800005F8D68A179A1480F591F6A1F7B1FC416ED
:10281000D506E606F70650F61B81123028F4C6CF1F
:102820008E899F89A88DB98DC80ED91EEA1EFB1E00
:1028300001E0A7019601B50189810E948E13115014
:10284000113071F7B3CF01E0A3019201BE01625DC7
:102850007F4F89810E948613892B29F44AA65BA6A3
:102860006CA67DA6A9CF81E090E0A8CF0F93CF936F
:10287000DF93EC019A01AB01BC01625D7F4F01E087
:1028800089810E948613892B59F5FE01E45DFD4F75
:102890008081918185359A4AF1F4E85CF14080812C
:1028A0009181A281B381BB2786349144A445B105AF
:1028B00069F0C058DF4F488159816A817B81772751
:1028C00081E0463451446445710531F480E0DF9184
:1028D000CF910F91089582E0DF91CF910F910895EC
:1028E00083E0DF91CF910F910895FC0181810E94D7
:1028F000831380FD03C090E080E0089583E090E0C2
:1029000008957F928F929F92AF92BF92CF92DF9263
:10291000EF92FF920F931F93CF93DF93EC016A0125
:102920007B018E8C9F8CA8A0B9A08881823009F48D
:1029300072C0833009F44EC0813089F06FEF7FEFB1
:10294000CB01DF91CF911F910F91FF90EF90DF901E
:10295000CF90BF90AF909F908F907F9008958A0105
:1029600016950795040F151FC801892F992786957D
:10297000B501A401480F591F611D711DCE010E94B0
:10298000B813892BD9F6F801F170EC0FFD1F76A46E
:102990000F5F1F4FC801892F99278695B501A401A4
:1029A000480F591F611D711DCE010E94B813892B5C
:1029B00029F61170C00FD11F6EA5762F672DC0FEAE
:1029C00045C0729562956F7067277F70672790E0AA
:1029D00080E0B7CF97E076956795579547959A959C
:1029E000D1F7480D591D6A1D7B1DCE010E94B813F9
:1029F000892B09F0A3CFCC0CDD1CCC0CDD1C8CEF9B
:102A0000C82281E0D822CC0DDD1D6EA57FA588A946
:102A100099A99F7096CF77276F2D5E2D4D2D480D6C
:102A2000591D6A1D7B1DCE010E94B813892B09F028
:102A300085CFCC0CDD1CE894C0F881E0D822CC0D09
:102A4000DD1D6EA57FA590E080E07BCF7F7090E0DC
:102A500080E077CFAF92BF92CF92DF92EF92FF925A
:102A60000F931F93CF93DF938C01EB01DC0115963D
:102A70007C936E93149716964D915D916D917C9118
:102A80001997413051056105710509F44DC0FC01EC
:102A9000A080B180F501828D938DA48DB58D4817EE
:102AA00059076A077B0708F03FC0411551056105CA
:102AB000710509F446C0F501E280F0E1EF9E700176
:102AC0001124CE15DF0508F483C04230510561059D
:102AD000710550F1481759076A077B0728F506C0AA
:102AE000CE19DF09CE15DF0508F472C0C5010E94BA
:102AF0008114AB01BC014F3F2FEF520762077207F1
:102B000009F49DC0423051056105710568F0D80196
:102B1000AD90BC90F501828D938DA48DB58D481735
:102B200059076A077B07E0F282E090E0DF91CF91DE
:102B30001F910F91FF90EF90DF90CF90BF90AF90DB
:102B4000089520812330C9F1D8011A961D921D9253
:102B50001D921C921D97F50180859185C817D90794
:102B600018F782A193A1A4A1B5A19E013295229547
:102B70002F7023273F702327AC01BD01420F531F45
:102B8000611D711DD8011E964D935D936D937C93CD
:102B90005197F501BE96CF70DD27CC0FDD1FC29592
:102BA000D295D07FDC27C07FDC27CE0FDF1FF80156
:102BB000D38BC28B90E080E0B9CF42A153A164A136
:102BC00075A1411551056105710509F074CFBCCFA0
:102BD000F80142875387648775879A01AB012250B9
:102BE0003109410951090297A109B109281739078B
:102BF0004A075B0700F5F501A281B0E00E94BB52D5
:102C0000C6A0D7A0E0A4F1A46C0D7D1D8E1D9F1D54
:102C10009E01329522952F7023273F702327620F44
:102C2000731F811D911DD8011E966D937D938D9309
:102C30009C935197AECF60E070E0CB01E9CF81E08B
:102C400090E074CF2F923F924F925F926F927F925B
:102C50008F929F92AF92BF92CF92DF92EF92FF92AC
:102C60000F931F93CF93DF9300D000D01F92CDB767
:102C7000DEB79D838C836A017B0148015901FC0109
:102C8000468C578C60A071A0F081F983F23009F472
:102C900086C0F33009F460C002E010E0F130E9F0E2
:102CA00081E0EC81FD818483C8010F900F900F902B
:102CB0000F900F90DF91CF911F910F91FF90EF90A8
:102CC000DF90CF90BF90AF909F908F907F906F904C
:102CD0005F904F903F902F9008951A01369427945B
:102CE000240E351EC101892F99278695B301A201B3
:102CF000480F591F611D711D8C819D810E94B81361
:102D00008C01892B69F691013170C10101969B8379
:102D10008A83892F99278695B301A201480F591FED
:102D2000611D711DC0FE57C0EC81FD81E20FF31FD4
:102D300026A52F7030E1839EC0011124822B86A727
:102D40003981EC81FD813483CF010E94B813009753
:102D500009F45EC08C01A4CF27E07695679557955E
:102D600047952A95D1F7440D551D661D771D8C8119
:102D70009D810E94B8138C01892B09F091CFF60137
:102D8000EE0FFF1FEE0FFF1FEC7FF1708C819D8116
:102D9000E80FF91F86A697A6A0AAB1AA81CF772728
:102DA0006F2D5E2D4D2D440D551D661D771D8C819B
:102DB0009D810E94B8138C01892B09F071CFF60117
:102DC000EE0FFF1FEE7FF1708C819D81E80FF91FE0
:102DD00097A686A665CF8C819D81280F391FF901A2
:102DE00086A63981FC0134830E94B813009709F04C
:102DF000B1CFEA81FB81F1708C819D81E80FF91FD1
:102E000086A5807F992D9F70892E882A86A648CF17
:102E1000EA81FB81F17084E0B694A794979487943B
:102E20008A95D1F78C819D81E80FF91F86A638CF4E
:102E30004F925F926F927F928F929F92AF92BF92CA
:102E4000CF92DF92EF92FF920F931F93CF93DF9376
:102E500000D000D000D0CDB7DEB79E838D834983EC
:102E60005A836B837C83DC015A964D905D906D9004
:102E70007C905D97452B462B472B09F074C01A9622
:102E80008D909D90AD90BC901D9781149104A104EC
:102E9000B10409F092C0812C912C540183947501E6
:102EA000640134C0B2E08B169104A104B10408F4AB
:102EB000A6C092E0C92ED12CE12CF12CED81FE812F
:102EC000828D938DA48DB58DC816D906EA06FB06B2
:102ED00068F5B701A601CF010E9481146115710543
:102EE0008105910509F470C06F3FFFEF7F078F07E1
:102EF0009F0709F47FC06130710581059105B1F02C
:102F00008C149D04AE04BF0409F479C0AFEFCA1A53
:102F1000DA0AEA0AFA0AC414D504E604F70410F639
:102F2000E2E0CE16D104E104F10440F6C12CD12C2C
:102F30007601C394C701B60126960FB6F894DEBF9A
:102F40000FBECDBFDF91CF911F910F91FF90EF90FA
:102F5000DF90CF90BF90AF909F908F907F906F90B9
:102F60005F904F90089529813A814B815C81223096
:102F7000310541055105D0F289819A81AB81BC812F
:102F800084159505A605B70588F6AC01BD018D81B0
:102F90009E810E9481146B017C0192E0C916D104CC
:102FA000E104F10418F2C414D504E604F70410F2A5
:102FB00089809A80AB80BC8072CF84149504A6046B
:102FC000B70408F46CCF67CFED81FE81828D938DBD
:102FD000A48DB58DC816D906EA06FB0658F40FEF86
:102FE0001FEF2FEF3FE0B701A601CF010E9422168D
:102FF000892B49F0CC24CA94DC2C76019BCFC12CC0
:10300000D12C760197CF29813A814B815C81232B8A
:10301000242B252BF9F029813A814B815C812230C8
:1030200031054105510530F3ED81FE81828D938D8F
:10303000A48DB58D281739074A075B07D8F6970185
:10304000860149815A816B817C81CF010E942216C1
:10305000892B81F6AD81BE811A96CD92DD92ED92DB
:10306000FC921D97FD0186859785A089B1898F3FC8
:10307000FFEF9F07AF07BF0709F45CCF0197A109D6
:10308000B109ED81FE8186879787A08BB18B81E0A6
:10309000858350CF4F925F926F927F928F929F92D3
:1030A000AF92BF92CF92DF92EF92FF920F931F9356
:1030B000CF93DF93EC016B010C811D810F5F1F4FDC
:1030C00009F4A4C04E855F85688979894115510549
:1030D0006105710509F49AC078012FE0E222FF240E
:1030E000E881F981E114F10409F078C04F5F5F4F86
:1030F0006F4F7F4F4E875F87688B798B4A855B85E3
:103100006C857D85411551056105710509F479C00E
:1031100082818150990B9801329522952F70232737
:103120003F70232782239323892B09F057C0423015
:1031300051056105710508F47CC0828D938DA48DC5
:10314000B58D481759076A077B0708F072C0CF0191
:103150000E9481144B015C0182E088169104A10455
:10316000B10408F466C02FEF82169206A206B206DA
:1031700009F4DFC0E881F981828D938DA48DB58D2E
:1031800088169906AA06BB0608F056C02401350128
:1031900022E0421A5108610871088A869B86AC8633
:1031A000BD860297A109B109812C912C54014816C2
:1031B00059066A067B0670F4A281B0E0A301920171
:1031C0000E94BB5286A097A0A0A4B1A4860E971E11
:1031D000A81EB91E8E869F86A88AB98A1D830C8375
:1031E000BE96EE0CFF1CE294F29480EFF822FE24CF
:1031F000E822FE24EE0EFF1EFB8AEA8A90E080E0C1
:1032000007C0808591850817190740F384E090E096
:10321000DF91CF911F910F91FF90EF90DF90CF90B2
:10322000BF90AF909F908F907F906F905F904F90E6
:10323000089582E090E0ECCFCD2841F34A855B858C
:103240006C857D85CF010E9418174B015C0187E0DA
:1032500090E081149104A104B104D1F281E08816B8
:103260009104A104B10429F32FEF82169206A2065D
:10327000B20609F45EC040E050E0BA01888199814D
:103280000E94B813892B09F054C088819981FC01F0
:10329000BE96825D9D4F11928E179F07E1F7E881E0
:1032A000F9812401350182E0481A5108610871084A
:1032B000D280828D938DA48DB58D0297A109B1091D
:1032C000481659066A067B06B8F5AD2DB0E0A30195
:1032D00092010E94BB5226A137A140A551A5DC0155
:1032E000CB01820F931FA41FB51F82A793A7A4A78A
:1032F000B5A7DD2029F1D12CCC24C39411C0E881DD
:10330000F98182A593A5A4A5B5A50196A11DB11D1E
:1033100082A793A7A4A7B5A7D3948281D81680F4D7
:10332000C48240E050E0BA01CF010E94B813892B5B
:1033300031F381E090E06CCF80E090E0DC01D5CF0C
:1033400082A593A5A4A5B5A58D199109A109B109D7
:1033500082A793A7A4A7B5A7828D938DA48DB58DC1
:103360001CCF2F923F924F925F926F927F928F92DB
:103370009F92AF92BF92CF92DF92EF92FF920F9304
:103380001F93CF93DF9300D000D0CDB7DEB78C0171
:1033900022242A9433243A9436EDA32E31E0B32E1E
:1033A000EE24EA94FE2C0EC04F3009F463C033249F
:1033B0003A9470E060E0C8010E944A189C01892B91
:1033C00009F040C0D8011E964D915D916D917C91A0
:1033D00051978D919C910E94B8139C01892B91F576
:1033E000F8010288F389E02DFC83EB839081992317
:1033F00009F4B9C08385482F4F73953EC1F283FD10
:10340000D3CF4F30B9F1332009F497C0D801599682
:10341000FC92EE9258975496ED91FC9183854B81E6
:103420005C81455F5F4F80FDC2CFAB81BC819D91C8
:10343000BC83AB8381919813BACF8B819C81481751
:10344000590799F7C9010F900F900F900F90DF91D6
:10345000CF911F910F91FF90EF90DF90CF90BF9091
:10346000AF909F908F907F906F905F904F903F9024
:103470002F900895D8015696CD90DC905797C1149F
:10348000D10409F496CF96FF6BC0EB81FC812584B3
:10349000392EE89436F814968D919C91159759968B
:1034A0009C938E935897AB81BC811D968C911D97F0
:1034B00082117DCF8C918F7B8150990BBDE0B89F9D
:1034C0003001B99F700C11242AEC822E21E0922E3B
:1034D000E1E081E090E00BC02F3F3F4F09F067CF64
:1034E000A814B90409F442C0D401ED914D012B8117
:1034F0003C812E0F311DF90120813181009761F34C
:10350000C9010E94FF2B2C0130E2631671040CF0FC
:103510004ECFC30101969A838983660C771CF6010E
:10352000E60DF71D808191810E94FF2B48165906F8
:1035300009F03DCF69807A80D3CFEB81FC81319651
:103540004B815C81455F5F4F01C0919130FA3794A8
:1035500037F8390E4E175F07C1F7321057CF72CFC9
:10356000931125CFA0CF24E030E06CCFEB81FC811C
:10357000208126FF0CC0892B51F0F301EE0FFF1FB5
:10358000EC0DFD1D80819181892B09F010CF3A94BB
:1035900010CF2F923F924F925F926F927F928F92B5
:1035A0009F92AF92BF92CF92DF92EF92FF920F93D2
:1035B0001F93CF93DF936C014B01DB018C918F3212
:1035C00009F473C08C3509F470C0E6011E821F82B5
:1035D00018861986F4018081803208F49BC170E25C
:1035E000572EE5E03E2EE601AE88BF88082E000C7F
:1035F000990B8032910508F443C08F32910509F48C
:103600003FC08C359105E1F1750184010F5F1F4FBB
:10361000E50166246394712C19C0899399939301F1
:103620002F5F3F4FF80181918F01082E000C990BFD
:103630008032910508F469C18F329105D1F18C3542
:103640009105B9F121323105D9F0390161E070E01D
:1036500090E00E94D52B009799F080389105E8F60C
:103660008232910569F0E5E0F3E02AE203C021919E
:10367000222399F2022E000C330B82179307B9F71D
:1036800086E090E0DF91CF911F910F91FF90EF9036
:10369000DF90CF90BF90AF909F908F907F906F9072
:1036A0005F904F903F902F900895BFEF8B1A9B0A29
:1036B0008CCF820E931E412CF301EE0FFF1FEA0DFB
:1036C000FB1D929182918032910511F08E9729F421
:1036D00021E0621A7108A9F7D3CFD301AA0FBB1F4B
:1036E000AA0DBB1D11961C921E92E601EC89FD8964
:1036F000CF010B965192E817F907E1F7D0E0C0E04F
:10370000F701819191917F018032910519F08E32FC
:10371000910511F42196F4CF209719F0F42DF36060
:103720004F2E3E912E912E32310521F021E0621A6A
:103730007108B9F708E010E0F12CE12C212C21965A
:10374000009709F45BC08032910509F4BAC08E324B
:10375000910509F4BAC0E016F1060CF0C5C0C61513
:10376000D70509F4B5C08038910500F58B32910575
:1037700061F1EEE0F3E02CE2022E000C330B821735
:10378000930719F121912111F7CF9C01215431099F
:103790002A31310508F4C6C09C01215631092A316D
:1037A0003105B8F4689420F8805213C070E060E0EE
:1037B0000E94D52B689441F8009739F087539F4FAA
:1037C000FC01808190E0009789F6F42DF3604F2E84
:1037D0008FE5D6015496ED91FC91EE0DFF1D80838F
:1037E000F70131967F01FE01EE0FFF1FEA0DFB1D71
:1037F000808191812196009709F0A5CFD60154963A
:10380000ED91FC9155978081853E21F4308254964C
:10381000ED91FC910830110511F4220C220C822D3F
:103820008C708C3009F46EC0922D9370933009F433
:1038300069C041FC08C0913011F4689444F88430A8
:1038400011F4689443F8438670E060E0C6010E947A
:103850002A15009739F5C6010E94B119E601EC89D5
:10386000FD8923852470009719F521110BCFEA8972
:10387000FB89838584FF22C084899589B0E0A0E01C
:10388000DC0199278827428D538D70E060E0842BFE
:10389000952BA62BB72B8E839F83A887B987F4011E
:1038A0008081A1CED6015496ED91FC9123852470A0
:1038B0008430910509F0E6CE2111E4CE85E090E058
:1038C000E1CE842D8360482E8ECFC615D705C9F76B
:1038D0000B30110551F1220C220CE3010BE010E03A
:1038E00048E0E42EF12C7FCF0B301105F1F0C61526
:1038F000D70589F3B42DB3604B2E6C167D060CF4FE
:103900007DCFE9CF689441F89ECF820E931E24E0CC
:10391000422ED2CE70E060E0C6010E942A151B8ABA
:103920001A8AB0CE689421F854CF942D9360492E12
:10393000D6015496ED91FC9155978081853E09F012
:103940006ECF30825496ED91FC9169CF0F931F9307
:10395000423051056105710570F0FC01028D138D37
:10396000248D358D401751076207730720F41F918E
:103970000F910C94811461E070E080E090E01F9161
:103980000F910895CF92DF92EF92FF920F931F93C2
:10399000423051056105710598F0FC01C28CD38C51
:1039A000E48CF58C4C155D056E057F0548F40E948E
:1039B00022161F910F91FF90EF90DF90CF90089506
:1039C00082E090E01F910F91FF90EF90DF90CF90F9
:1039D00008950F931F93FC019A01AB012250310906
:1039E00041095109828D938DA48DB58D0297A1094E
:1039F000B109281739074A075B0778F4A281B0E0BC
:103A00000E94BB5206A117A120A531A5600F711F0E
:103A1000821F931F1F910F91089560E070E0CB010A
:103A20001F910F910895EF92FF920F931F93CF93E1
:103A3000DF93CDB7DEB728970FB6F894DEBF0FBE81
:103A4000CDBF8C01F9017B01655F7F4FD7012D91BF
:103A50007D01DC012D93CD01E616F706B9F7E630BE
:103A6000F10568F0DA018D919D91E0FBF795E795FE
:103A7000F7F9E80FF91F8D919D910097B1F77E013D
:103A8000B9E0EB0EF11C47E050E0415051099F01B5
:103A9000ADECBCEC0E94AC529695879596958795B7
:103AA000969587959C01220F331F220F331F280FF5
:103AB000391F220F331FE21BF30BE05DD701EE939A
:103AC0007D01FC01892B09F7E1E0F0E0EC0FFD1F1F
:103AD000E40FF51F8EE78083141615069CF5F80198
:103AE0008081803279F1319630E020E003C081910D
:103AF000803229F02F5F3F4F42175307C1F7F8017B
:103B0000E20FF31F80E2483051054CF4A1E0B0E031
:103B1000AC0FBD1FA40FB51F8C914F5F5F4F2F5F80
:103B20003F4F8193283031056CF328960FB6F894F7
:103B3000DEBF0FBECDBFDF91CF911F910F91FF90E0
:103B4000EF90089530E020E0DACF2F923F924F922D
:103B50005F926F927F928F929F92AF92BF92CF921D
:103B6000DF92EF92FF920F931F93CF93DF9300D0DA
:103B700000D000D01F92CDB7DEB7DC01ED91FC91F3
:103B800011972081022E000C330B205331092A306B
:103B9000310520F451815A3309F429C12090A90636
:103BA0003090AA06FB01318220822114310409F4ED
:103BB0002DC1142FF1018081882321F181810E9480
:103BC000831380FD1FC0112311F082FD1CC190E002
:103BD00080E027960FB6F894DEBF0FBECDBFDF9111
:103BE000CF911F910F91FF90EF90DF90CF90BF90FA
:103BF000AF909F908F907F906F905F904F903F908D
:103C00002F900895D1011C9211961C9280E00E9481
:103C1000771380FDE9C0112311F082FDF4C040E06C
:103C200050E0BA01C1010E943614C12CD12C76019A
:103C3000813009F4EEC0833009F4E2C08111EFC095
:103C4000F10181AD92AD8115924009F0E8C0F1011A
:103C5000EC5BFF4F2081318150E040E021153105C0
:103C60004105510529F43E962081318142815381DD
:103C7000D10156962D933D934D935C935997DE96C3
:103C8000AC91F101A383B0E00E94BB524B015C01F7
:103C900044AD55AD70E060E02A013B014C0C5D1C69
:103CA0006E1C7F1C468E578E60A271A2B3ADBF837F
:103CB000B283FF9620813181D10119963C932E93D6
:103CC0001897329680819181B0E0A0E00097A1051D
:103CD000B10529F43D9680819181A281B381F901DA
:103CE000F295E295EF70EF27FF70EF278F0130E03C
:103CF00020E009831A832B833C83841B950BA60B3E
:103D0000B70B88199909AA09BB09BC01CD01601B31
:103D1000710B820B930B1F81212F30E050E040E0AC
:103D20000E946B52DA01C9010296A11DB11DF10179
:103D3000828F938FA48FB58F873FFFE09F07A105E8
:103D4000B10508F46FC0873F9F4FA105B10508F486
:103D5000D8C0F101E65AFF4F80819181A281B381E1
:103D6000F10182A393A3A4A3B5A309811A812B8196
:103D70003C81400E511E621E731E840C951CA61CB5
:103D8000B71C86A297A2A0A6B1A68FEF9FEFDC0179
:103D900086879787A08BB18B14821582E25AFF4FDA
:103DA00080819181A7019601280F391F411D511D66
:103DB000D10152962D933D934D935C93559701E01D
:103DC000B101625D7F4F11968C910E948613892B01
:103DD00049F4F101E45DFD4F8081918185359A4A76
:103DE00009F460C083E03CC083E090E0F2CE3296FC
:103DF000ED93FC93232B09F4D1CE8BE090E0E9CE38
:103E000081E090E0E6CE8AE090E0E3CE8CE090E0C6
:103E1000E0CEF101E051FE4F8081811136C08DE08E
:103E200090E0D7CE81E0840C951CA61CB71CF10154
:103E300082A293A2A4A2B5A209811A812B813C81FE
:103E4000800E911EA21EB31E86A297A2A0A6B1A6A6
:103E50004FEF5FEFBA0146875787608B718B1482F3
:103E6000D1018C93F10112A613A614A615A6809178
:103E7000A7069091A80601969093A8068093A7069E
:103E80009783868390E080E0A4CEF101EC50FE4F52
:103E9000C080D180E280F380B701A601C1010E94F9
:103EA0003614C9CEF10186A597A5A0A9B1A982357E
:103EB0009245A146B14409F095CFF101EE5EFD4F68
:103EC00080819181A281B38182379247A144B1461A
:103ED00009F088CF389680819181A281B381F10168
:103EE00082879387A487B587EA5EFD4F80819181A1
:103EF000A281B381F10186879787A08BB18B83E084
:103F0000AFCF82E090CF811113C0E091A906F0916C
:103F1000AA06309709F010826115710511F0FB01B6
:103F200010827093AA066093A90690E080E008953D
:103F30008BE090E008952F923F924F925F926F92A4
:103F40007F928F929F92AF92BF92CF92DF92EF9229
:103F5000FF920F931F93CF93DF93CDB7DEB7C0547B
:103F6000D1090FB6F894DEBF0FBECDBF7C017CAB8C
:103F70006BABB42EDC011D921C924E71BE016F5FC3
:103F80007F4FCE01C3960E94A51D6C01892BD9F0ED
:103F9000C601C05CDF4F0FB6F894DEBF0FBECDBFC9
:103FA000DF91CF911F910F91FF90EF90DF90CF9015
:103FB000BF90AF909F908F907F906F905F904F9049
:103FC0003F902F900895BB2DBF71BDAB8E01095D51
:103FD0001F4F1E8B0D8B85E696E0988F8F8B6BA9FC
:103FE0007CA9CE0101960E94C91A2B2D2C71A9F42F
:103FF0000097C9F46B887C886114710409F4E9C1E5
:10400000D3011B968C9184FDE4C1B1FED3C080FF27
:10401000D1C087E0C82ED12CBBCF009731F08430BF
:10402000910509F421C16C01B3CFB2FCD6C16B88F4
:104030007C88962D872D6114710459F3D3011B964A
:104040002C91217131F7BB2DB870BCAFB3FEBEC14E
:10405000F30184899589B0E0A0E0DC0199278827E5
:10406000428D538D70E060E08C019D01042B152B77
:10407000262B372B08AF19AF2AAF3BAF158A148A0E
:10408000138E128E148E158E168E178EE981FA817C
:10409000FFABEEAB81E0848302A513A524A535A573
:1040A00021960CAF1DAF2EAF3FAF219708AD19ADD4
:1040B0002AAD3BAD011511052105310509F474C187
:1040C000013011052105310509F470C0EEA9FFA9E1
:1040D000828D938DA48DB58D08AD19AD2AAD3BAD04
:1040E000081719072A073B0708F060C018012901C3
:1040F000B201A1018EA99FA90E9481144B015C010C
:1041000081149104A104B10409F43EC121E0821696
:104110009104A104B10409F449C03FEF831693064A
:10412000A306B30609F45FC2EEA9FFA9828D938DA1
:10413000A48DB58D281639064A065B06B8F500E051
:1041400010E09801B201A101CF010E942216009750
:1041500009F069CFEEA9FFA986859785A089B18965
:104160008F3FFFEF9F07AF07BF0759F00196A11DD3
:10417000B11DEEA9FFA986879787A08BB18B01E0BF
:104180000583EEA9FFA9828D938DA48DB58D881628
:104190009906AA06BB0608F0F7C01401250112E033
:1041A000211631044104510408F0A2CF52E0C52E7B
:1041B000D12CEECEE981FA81962D872D42A553A50B
:1041C00064A575A5D7015A964D935D936D937C9325
:1041D0005D975E969C935E975F968C935F970DA913
:1041E00014960C93D30154968D919C91B0E0A0E06D
:1041F0009C0111270027D3015A964D915C9170E0E4
:1042000060E0402B512B622B732BD7011E964D93F0
:104210005D936D937C935197D3015C964D915D9125
:104220006D917C915F97D7011A964D935D936D9335
:104230007C931D9716961D921D921D921C921997A4
:104240008FEF15968C93159756961D921D921D9281
:104250001C9259971196FC93EE9386819781139641
:104260009C938E93129794CE8D889E88AF88B88C3D
:10427000D401FE017B968D918193E017F107D9F768
:104280008EA180FF2EC0F4011386188E1F8A01E0D4
:1042900010E00CC0CE0101960E94B1190097B1F454
:1042A0000F5F1F4F0436110509F4B3CE9801A50125
:1042B000BE01655E7F4FC4010E94131D70E060E087
:1042C000CE0101960E942A15009721F384309105B2
:1042D00009F0A9CE8EA1D4011B968C93B88EAF8A1B
:1042E0008EA181FFC9C0F50180819181892B09F4DC
:1042F00077C1329630E020E02F5F3F4F819191915E
:10430000892BD1F7275E3F4FA5ECBEE40E94AC524B
:104310005C01B694A794B694A79470E060E0CE01D7
:1043200001960E942A15009709F07DCE912C812CD0
:1043300010E000E00DC08823D9F010E000E061E05B
:1043400070E0CE0101960E944A18009709F06BCEEA
:104350004F85588969897A8989819A810E94B81321
:10436000009709F060CEEB89FC898081853E19F7C2
:104370000115110511F48D809E80C80101968A15E2
:104380009B0579F18C01DBCF09811A811FAB0EAB44
:1043900088AD99ADAAADBBAD0197A109B109F801EE
:1043A00082879387A487B58721964CAD5DAD6EADAE
:1043B0007FAD21978EA99FA90E94B813009709F09D
:1043C00032CEFCADF11144C09B898C89E981FA8120
:1043D000F5CE94E0C92ED12CDBCD38E0C32ED12C04
:1043E000D7CDAA94AB2809F04BC04F85588969896D
:1043F0007A8989819A810E94B813009709F013CEB7
:10440000AB89BC899D01CD018096FD0111928E176B
:104410009F07E1F7ED89FE89AF01455F5F4FBF015F
:10442000FB018191BF01F90181939F014617570755
:10443000B9F7ED89FE89838588711C968C93E98193
:10444000FA8181E08483FDA9F860FDAB6B887C88EC
:10445000D3011B961C920E94D02BF30166877787AD
:10446000808B918BE981FA8181E084830DA90062C0
:104470000DAB9B898C89A2CEAA24A394B12C4DCFDD
:10448000B401CE0101960E942A15009709F0CBCD08
:10449000ED89FE899F01255F3F4F312C30FA37941B
:1044A00037F88191380E2E173F07C1F7FFE06F2EC6
:1044B0007724739444244A94542C19AF08AF4F8541
:1044C000588969897A8989819A810E94B8130097ED
:1044D00009F0A9CD28ACAB89BC898F88988C1D9632
:1044E0003C921D971B966C921B971C961C921C97D6
:1044F0005B961C921E925A97022D0150110B980147
:104500001DE0129FC001139F900D1124E1E030E0E7
:1045100020E050E040E019C06D3071050CF040C063
:1045200067537E4FFB018081FD01E80FF11D518231
:1045300040824E5F5F4F2FEF3FEF4D30510524F526
:10454000FA01E753FE4FE081C501BD016E0F711DF9
:104550007FAB6EABBA016F5F7F4F2F3F3207C9F160
:104560005C01FFEFAF1ABF0A880F991F880D991DD4
:10457000FC0120813181EEA9FFA93183208321151F
:10458000310551F2AB01D9CF2F3F3F4F49F0AA0C73
:10459000BB1CA80CB91CF50180819181892B11F4F9
:1045A000689426F82C92E981FA81748270E060E0C8
:1045B000CE0101960E944A18009709F034CD08AD4B
:1045C00019AD0150110919AF08AF012B09F077CFD0
:1045D0000CCFEEA9FFA931832083AB015C01ADCFE5
:1045E00030E020E08FCECC24C394D12CD1CC2F92BC
:1045F0003F924F925F926F927F928F929F92AF9273
:10460000BF92CF92DF92EF92FF920F931F93CF93BF
:10461000DF93EC014B015A016901F901118210820B
:10462000E881F981309751F08081882339F02A811F
:104630003B818681978128173907B9F029E0E22E5E
:10464000F12CC701DF91CF911F910F91FF90EF9057
:10465000DF90CF90BF90AF909F908F907F906F90A2
:104660005F904F903F902F900895CF010E94751456
:104670007C01892B31F78C8187FD2CC180FF26C1FD
:104680008E819F81A885B9854A855B856C857D85EE
:10469000481B590B6A0B7B0B850130E020E040176B
:1046A00051076207730708F4DEC0A114B10449F290
:1046B000E881F981AC01BD01517066277727452B50
:1046C000462B472B09F05AC03D812281321708F052
:1046D0009AC06A897B898C899D899B01AC01225093
:1046E000310941095109828D938DA48DB58D0297B1
:1046F000A109B109281739074A075B0708F0EEC07E
:104700001281A12FB0E00E94BB5246A057A060A426
:1047100071A4460E571E681E791E4114510461048F
:10472000710409F4DBC08D81480E511C611C711CA1
:104730001501232C332426942114310409F4BBC021
:1047400090E0AC01420D531D212F30E024173507B6
:1047500018F41901281A390A122D022DA301920109
:10476000B40181810E948613892B09F483C08C8156
:1047700080688C83EE24E394F12C63CF4E885F88AD
:10478000688C798C9170212C42E0342E281A390AD9
:10479000A214B30408F41501B301A201CF010E94D1
:1047A000B813892B21F78E819F81A885B9859170D7
:1047B000AA27BB27FC01BE9688819981E80FF91FC3
:1047C000D40191012E0F3F1F81918D932E173F072A
:1047D000D9F78E819F81A885B985820C931C820DA3
:1047E000931DA11DB11D8E839F83A887B987F601F4
:1047F00020813181220D331D31832083A218B3081B
:1048000009F056CF1ECF892B8A2B8B2B71F14A8949
:104810005B896C897D89423051056105710508F419
:104820005DC0828D938DA48DB58D481759076A0799
:104830007B0708F053C0CF010E94811462307105DC
:104840008105910508F44AC06F3FFFEF7F078F078E
:104850009F0709F48CCF6A8B7B8B8C8B9D8B1D8281
:10486000E881F9813ACF5A0120CF6E857F8588890A
:104870009989E4CF28813981F9018481882381F0E5
:1048800082A593A5A4A5B5A584199509A609B7097C
:10489000A10170E060E084179507A607B70728F12B
:1048A0008D81180F1D83322C2224330C8E819F8121
:1048B000A885B98592CF4E8A5F8A688E798E8F5F80
:1048C0008D838E819F81A885B9855CCF87E0E82E96
:1048D000F12CB7CE92E0E92EF12CB3CE8C8180681A
:1048E0008C83E2E0EE2EF12CACCEBE96982F88277A
:1048F000990FD401A80FB91F225D3D4F81918D936F
:104900002E173F07D9F7CCCF2F923F924F925F924D
:104910006F927F928F929F92AF92BF92CF92DF92CF
:10492000EF92FF920F931F93CF93DF93EC017B01E4
:104930004A016901F90111821082E881F9813097F9
:1049400051F08081882339F02A813B8186819781CB
:1049500028173907B9F029E0A22EB12CC501DF9143
:10496000CF911F910F91FF90EF90DF90CF90BF906C
:10497000AF909F908F907F906F905F904F903F90FF
:104980002F900895CF010E9475145C01892B31F797
:104990002C8127FD60C121FF23C14A855B856C8581
:1049A0007D858E819F81A885B9852A013B01480CB0
:1049B000591C611C711C441655066606770608F4DE
:1049C000E2C08114910409F4DEC0E881F981AC01F0
:1049D000BD01517066277727452B462B472B09F0E1
:1049E00088C03D812281321718F1892B8A2B8B2BAD
:1049F00009F01AC16E857F858889998961157105CD
:104A00008105910509F440C1613071058105910569
:104A100009F457C16F3FFFEF7F078F079F0709F426
:104A200061C06A8B7B8B8C8B9D8B1D82E881F981A9
:104A300042A553A564A575A58E899F89A88DB98DBA
:104A4000481759076A077B0709F4BEC02A893B89C2
:104A50004C895D892250310941095109828D938D1C
:104A6000A48DB58D0297A109B109281739074A0706
:104A70005B0708F026C11281A12FB0E00E94BB5253
:104A800046A057A060A471A4460E571E681E791E4A
:104A9000411451046104710409F413C12D81420EC3
:104AA000511C611C711C1401232C332426942114E5
:104AB000310409F474C030E0A901420D531D812F67
:104AC00090E08417950718F41C01221A330A122D5E
:104AD000022DA3019201B70181810E948E13892BBF
:104AE00009F482C08C8180688C83AA24A394B12CA1
:104AF00035CF4E885F88688C798C9170212C42E08C
:104B0000342E281A390A8214930408F41401B301CC
:104B1000A201CF010E94B813892B21F7F7018E81E2
:104B20009F81A885B9859170AA27BB27DC019E9635
:104B300088819981A80FB91FE20CF31C81918D9394
:104B4000EE16FF06D9F78E819F81A885B985E88189
:104B5000F98121E02483820D931DA11DB11D8E8357
:104B60009F83A887B987F60120813181220D331DEB
:104B7000318320838218930809F027CF4A855B850B
:104B80006C857D852C81481759076A077B0720F4BF
:104B90008A879B87AC87BD8720622C83DFCE8E817E
:104BA0009F81A885B9854A855B856C857D8584173D
:104BB0009507A607B70708F052C04E8A5F8A688E2D
:104BC000798E2F5F2D8399CF40E050E0BA01CF015D
:104BD0000E94B813892B09F085CFE881F98136CF7F
:104BE00087E0A82EB12CBACEE881F98182A593A5E1
:104BF000A4A5B5A584199509A609B709A10170E076
:104C000060E084179507A607B70708F448C08D81B0
:104C1000180F1D83322C2224330C8E819F81A8858E
:104C2000B985E20CF31C97CF4A895B896C897D8931
:104C3000CF010E941817611571058105910509F0D2
:104C4000E3CE4A855B856C857D852C818E819F8135
:104C5000A885B98598CF92E0A92EB12C7FCE40E0EF
:104C600050E0BA01CF010E94B813892B09F03ACF66
:104C7000E881F98142A653A664A675A62D818E818E
:104C80009F81A885B98599CF40E050E0BA01CF0156
:104C90000E9418176E877F87888B998BCCCF982FAF
:104CA0008827990FD701A80FB91FBE969D013E5FB7
:104CB0008D9181932A173B07D9F7E881F9811482F6
:104CC000A6CF8C8180688C83E2E0AE2EB12C46CEDC
:104CD0000F931F93CF93DF93DC01ED91FC9111971C
:104CE000309759F02081222341F012964D915C912A
:104CF000268137814217530739F089E090E0DF9130
:104D0000CF911F910F910895EC01CF010E9475146E
:104D10000097A9F72C8125FFF2CF4A8D5B8D6C8D12
:104D20007D8D888199810E94B813009741F70E8D7F
:104D30001F8DF8018385806283878A859B85AC857A
:104D4000BD85848F958FA68FB78F8E859F85A88907
:104D5000B989938F828FB58BA48B0E94D02BD801F9
:104D600056966D937D938D939C9359978C818F7DEF
:104D70008C830990D881C02D81E08C8340E050E085
:104D8000BA01CE010E94B813009709F0B8CF88810C
:104D9000833071F050E040E060E089810E9496131A
:104DA00031E020E0892B09F430E0832F922FA7CF48
:104DB0008D81882379F31AA61BA61CA61DA6BE0109
:104DC000625D7F4FFB01CE01825D9D4F11928E1778
:104DD0009F07E1F785E59AEAFE01E45DFD4F9183C7
:104DE000808382E592E5A1E6B1E48EA79FA7A8ABF8
:104DF000B9AB82E792E7A1E4B1E67A978083918329
:104E0000A283B3838E859F85A889B98934968083D0
:104E10009183A283B3838A859B85AC85BD853496B7
:104E200080839183A283B3832A893B894C895D89DE
:104E300001E089810E948E131D82ACCFCF93DF9356
:104E4000EC010E946826009711F419821882DF9104
:104E5000CF9108952F923F924F925F926F927F92DF
:104E60008F929F92AF92BF92CF92DF92EF92FF927A
:104E70000F931F93CF93DF9300D000D000D0CDB716
:104E8000DEB79E838D836A017B01DC01ED91FC918D
:104E90001197309759F08081882341F012962D9117
:104EA0003C918681978128173907E1F009E010E0ED
:104EB000C80126960FB6F894DEBF0FBECDBFDF91B6
:104EC000CF911F910F91FF90EF90DF90CF90BF9007
:104ED000AF909F908F907F906F905F904F903F909A
:104EE0002F900895CF010E9475148C01892B01F732
:104EF000ED81FE81848187FDCCC042855385648528
:104F000075854C155D056E057F0520F481FD02C099
:104F10006A017B01AD81BE8116964D905D906D90CA
:104F20007C901997FD0116821782108611868FEFEB
:104F30008583C114D104E104F10409F4B9CF2080C0
:104F40003180D10112968C90912CB12CA12C99E03A
:104F5000880C991CAA1CBB1C9A95D1F741145104CA
:104F60006104710409F47EC0B1E04B1A5108610874
:104F70007108C701B6016150710981099109A50144
:104F800094010E946B5229833A834B835C83C30153
:104F9000B201A50194010E946B5289819A81AB8173
:104FA000BC8182179307A407B50708F45BC0882764
:104FB0009927DC0188199909AA09BB09842195213F
:104FC000A621B721ED81FE8186839783A087B187D3
:104FD000C81AD90AEA0AFB0A428953896489758981
:104FE000411551056105710509F056C0ED81FE813D
:104FF00086809780A084B184D501C4019170AA27CE
:10500000BB27ED81FE81892B8A2B8B2B91F0868922
:105010009789A08DB18D84179507A607B70749F02A
:10502000AD81BE8156964D935D936D937C93599758
:10503000FD0182859385A485B58588159905AA0506
:10504000BB0508F035CFAD81BE811A968D929D9239
:10505000AD92BC921D9714968C9114978062149611
:105060008C9326CFAD81BE811E964D915D916D9141
:105070007C915197411551056105710509F4D5C021
:10508000AD81BE8152964D935D936D937C93559700
:10509000A7CF02E010E00CCF8C149D04AE04BF0437
:1050A00008F00AC1AD81BE81ED91FC919F01ED81B7
:1050B000FE81848181FD1AC0423051056105710570
:1050C00068F0D9015A964D905D906D907C905D97F7
:1050D000441555056605770508F4A1C08068AD81C3
:1050E000BE8114968C9302E010E0E2CEC9010E94CA
:1050F0001817AB01BC01411551056105710509F493
:10510000D2C04F3FBFEF5B076B077B0709F4C3C0FB
:10511000423051056105710508F4A1C0ED81FE81A1
:1051200020813181F901828D938DA48DB58D481731
:1051300059076A077B0708F092C0ED81FE81428B18
:10514000538B648B758B86819781A085B185880D83
:10515000991DAA1DBB1D86839783A087B187C81898
:10516000D908EA08FB088C149D04AE04BF0408F4B7
:105170009ECF46015701880E991EAA1EBB1EAD8107
:10518000BE8116968D929D92AD92BC921997260182
:10519000370189E076946794579447948A95D1F7BC
:1051A00015964C92B1E0DB22EE24FF24CD28CE28C8
:1051B000CF2809F461C0AD81BE81ED91FC919A01C7
:1051C000AB012250310941095109828D938DA48D83
:1051D000B58D0297A109B109281739074A075B075E
:1051E00008F042C0A281B0E00E94BB52C6A0D7A086
:1051F000E0A4F1A4AB01BC014C0D5D1D6E1D7F1D33
:10520000411551056105710579F1440D551D661D66
:10521000771D4394AD81BE8115964C92EDCEC901A8
:105220000E948114AB01BC016CCF40E050E0BA0198
:10523000C1010E941817AB01BC0141305105610545
:10524000710591F04F3FFFEF5F076F077F07C1F0D8
:10525000ED81FE8146875787608B718B11CFAD81C1
:10526000BE8114968C913ACFED81FE818481806855
:10527000848302E010E01CCE40E050E0BA01BCCED6
:10528000AD81BE8114968C911497806814968C938E
:1052900001E010E00DCEED81FE8184818068848381
:1052A00001E010E005CEED81FE8186819781A08529
:1052B000B185750164015DCFED81FE8186819781A5
:1052C000A085B18556CF0F931F93CF93DF93CDB7B2
:1052D000DEB72E970FB6F894DEBF0FBECDBF8C01A0
:1052E0007E876D8740E0BC01CE010D960E94A51D12
:1052F000009759F02E960FB6F894DEBF0FBECDBFC3
:10530000DF91CF911F910F910895CE010196D801A1
:1053100055969C938E93549785E696E057969C936A
:105320008E9356976D857E85C8010E94C91A009795
:1053300061F5D8015296ED91FC913097B9F08385D3
:1053400084FF27C084899589B0E0A0E0DC0199271B
:105350008827428D538D70E060E0842B952BA62B1F
:10536000B72BF80186839783A087B187D801ED9189
:10537000FC9111978681978113969C938E93129737
:1053800070E060E0C8010E942A158430910509F0A0
:10539000B1CF85E090E0AECF4F925F926F927F9257
:1053A0008F929F92AF92BF92CF92DF92EF92FF9235
:1053B0000F931F93CF93DF93CDB7DEB72C970FB624
:1053C000F894DEBF0FBECDBFDC01ED91FC911197CB
:1053D000309759F02081222341F012964D915C9133
:1053E0002681378142175307D9F089E0E82EF12C46
:1053F000C7012C960FB6F894DEBF0FBECDBFDF916C
:10540000CF911F910F91FF90EF90DF90CF90BF90C1
:10541000AF909F908F907F906F905F904F90089586
:105420006B018C01CF010E9475147C01892B01F75F
:10543000CE010196F801958B848B85E696E0978BDB
:10544000868BC114D10409F48AC088248A949924D3
:105450009A9484E090E02DE0522E36EDA32E31E0B8
:10546000B32E0CC02F3091F199249A9470E060E033
:10547000C8010E944A18009709F078C0F8014685D3
:10548000578560897189411551056105710509F4D8
:10549000D4C0D8018D919C910E94B813009709F057
:1054A00065C0D8015296ED91FC9153978081882375
:1054B00009F468C0853EC1F28E32B1F29385292F7E
:1054C0002F7393FDCFCF2F3009F0CEC086FF44C09D
:1054D0008584982EE89496F8D80114968D919C9125
:1054E000159759969C938E93589785858811BCCFB4
:1054F000D80156966D907C9080818F738150990B66
:10550000589E9001599E300D11248AEC91E061E083
:1055100041E050E015C0203231050CF0A5CFD90193
:10552000AA0FBB1FA60DB71D6D937C93AB012F5F18
:105530003F4FA816B90609F487C0DC016D91CD0173
:10554000DF01A60FB11D6D917C914115510519F731
:105550006F3F7F4F71F388CF891186CFC6CF70E040
:1055600060E0C8010E942A157C0142CFD8011E9636
:105570001D921D921D921C9251978430910541F00D
:105580007C0136CF1E961D921D921D921C92519742
:10559000F60139964F01F4011082D60156968D908E
:1055A0009C9081149104D1F1F80186859785A0899A
:1055B000B189892B8A2B8B2B79F1808D918D019666
:1055C00059F1D8015696ED91FC912F01B2E04B0EA6
:1055D000511C808191810097F9F03401B12CA12CEC
:1055E00015C0F601208D318D21503109A216B30668
:1055F0009CF4FFEFAF1ABF0AD3018D933D01F20176
:10560000819191912F01009709F4C7C070E060E08B
:105610000E94D52B009729F7D4011C9270E060E01E
:10562000C8010E944A188430910509F0A9CFF801F9
:1056300016861786108A118ADBCE009709F096CF5E
:10564000C60109964C01A7CF808186FF0BC020328E
:1056500031050CF009CF220F331F260D371DF9013C
:10566000118210829A9402CF911010C0DF0111961E
:105670009F01255F3F4F01C08D9190FA979497F855
:10568000980EA217B307C1F7981439F08FEF9FEF68
:10569000D80159969C938E935897460129E0820E23
:1056A000911C9401D8011E964D915D916D917C9154
:1056B0005197452B462B472B09F46DCF9485BF019D
:1056C0004601B1E18B0E911C892F8870B82EDB0149
:1056D0008D91BD018032C1F0853009F45CC0BB20E2
:1056E00029F04FEB480F4A3108F4805EA9014F5F63
:1056F0005F4FD9018C938416950639F09A01DB012E
:105700008D91BD01803241F749018085803241F1A0
:1057100094012F5F3F4F8EE2D4018C93AF01485F1D
:105720005F4FB4E08B0E911C9071DA018D91AD0149
:105730008032A9F0992329F06FEB680F6A3108F4E1
:10574000805EB9016F5F7F4FD9018C936815790531
:1057500039F09B01DA018D91AD01803259F7490191
:105760008385D60118968C931897448D558D668D38
:10577000778D4D935D936D937C931397808D918D71
:1057800015969C938E9314978689978917969C9368
:105790008E93169700CF85EEA9CF8A0C9B1C3CCF29
:1057A00060EC73EB89E494E3089580389105F0F0A0
:1057B000672BB1F424E236E050E040E007C04F5FD1
:1057C0005F4F2E5F3F4F4038510571F0F9016591F1
:1057D00074918617970799F7CA0180589F4F0895CB
:1057E0008F3F910521F018F090E080E00895FC01D2
:1057F000EE0FFF1FEC5DFA4F85919491089524E41C
:1058000034E0F90145915491452B41F1F90145915D
:1058100054918417950711F126E434E050E040E0FC
:1058200009C0F90165917491F901329668177907F9
:1058300041F09F014F5F5F4FF90165917491672BB4
:1058400081F7F90125913491232B39F0FA01EE0FFC
:10585000FF1FEC59FD4F85919491089550E040E071
:10586000F0CF80B1869581700895882381F082B150
:105870008D6282B916988DE681B98FE39CE9019714
:10588000F1F700C0000080B18695817008951098EE
:10589000169A81B1827981B9F0CF1298129A08953F
:1058A00090E027E030E006C0139A1298129A215037
:1058B000310978F0AC01022E02C0559547950A9443
:1058C000E2F740FDF1CF13981298129A2150310956
:1058D00088F7089527E030E080E061E070E01298FA
:1058E000129A049B07C0AB01022E01C0440F0A9418
:1058F000EAF7842B2150310990F70895159886E036
:105900000E94502C159A0895159884E00E94502CFE
:10591000159A0895CF93C82F159881E00E94502CB6
:105920008C2F0E94502C159ACF910895159885E0E0
:105930000E94502C27E030E080E061E070E0129897
:10594000129A049B07C0AB01022E01C0440F0A94B7
:10595000EAF7842B2150310990F7159A0895CF93D7
:10596000DF93C0E7D7E102C0209789F021970E941A
:10597000962CEFE3FCE93197F1F700C000008111AC
:10598000F3CF81E0CD2B19F0DF91CF91089580E026
:10599000DF91CF9108950E94AF2C159886E00E9468
:1059A000502C159A159887EC0E94502C159A0C943F
:1059B000AF2C1F93CF93DF93EB01182F159A0E9402
:1059C000AF2C159886E00E94502C159A159882E00D
:1059D0000E94502C812F0E94502C8D2F0E94502C01
:1059E0008C2FDF91CF911F910C94502C0C94AF2CE5
:1059F000811108958AE098E00E94D20A0E943A0B31
:105A0000159889EB0E94502C159A08950F931F93B7
:105A1000CF93DF930E94962C082F8EEF97E00E9481
:105A2000D20A802F0E94FA0A8AEF97E00E94D20AD7
:105A300010E0C7E0D0E006C088EF97E00E94D20AED
:105A4000219778F098010C2E02C0359527950A947D
:105A5000E2F720FDF1CF86EF97E00E94D20A21976E
:105A600088F7DF91CF911F910F910C943A0BCF9350
:105A700081E00E94352C15988BEA0E94502C80E022
:105A80000E94502C80E00E94502C80E00E94502CFC
:105A90000E946A2CC82F159A61E070E080E090E0C7
:105AA0000E94070A8C2FCF9108950E94372D8531CF
:105AB00049F148F0873191F0B0F08F3F79F060E024
:105AC00070E0CB0108958231C1F0843189F08031DA
:105AD000B1F760E070E082E090E0089560E070E08F
