:100000000C941C090C9439090C9439090C94563F32
:100010000C9439090C943A480C9488470C94614725
:100020000C94C2470C9439090C9477090C944848F5
:100030000C9439090C94C6090C9439090C943909AB
:100040000C9439090C9439090C9439090C94390928
:100050000C9439090C9439090C9439096364696E5C
:100060006F70737578585B0045464765666700207A
:100070002B2D2E3031323334353637383968000D78
:100080000A0074696D656F7574202E2E2E204650FF
:100090004741206C6F6164206661696C65640D0A7C
:1000A000007761697420636F6E66202E2E2E0D0A14
:1000B000000D0A002E0A0D002072657300636F7236
:1000C0006520726573657420000D0A002E0A0D000C
:1000D00020726573007265736574200020633020A0
:1000E0000020633120002072302000207231200077
:1000F0002E2E2E0020726573002E2E2E002072658B
:1001000073002E2E2E0020726573002E2E2E0020DE
:1001100063726573002E2E2E002063726573002EAD
:100120002E2E0020726573002A2A20496E697420E1
:10013000646F6E65202A2A0D0A0052617720566F7F
:100140006C746167653A20002A2A20506F776572C7
:10015000206F6E20646F6E65202A2A0D0A002A2AFD
:1001600020506F77657220696E697420646F6E65C8
:100170002028706F776572206F666629202A2A0D05
:100180000A002A2A20554152542D496E6974206470
:100190006F6E65202A2A0D0A006D6D635F696E69B6
:1001A00074204572726F7200436172645479706595
:1001B000203A004100420043004400450046004709
:1001C00000480049004A004B004C004D004E004FD3
:1001D0000050005100520053005400550056005783
:1001E00000580059005A002100E0FFE1FFE5FFE25E
:1001F000FFE3FFC000C100C200C300C400C500C6C9
:1002000000C700C800C900CA00CB00CC00CD00CE9A
:1002100000CF00D000D100D200D300D400D500D64A
:1002200000D800D900DA00DB00DC00DD00DE007859
:1002300001000102010401060108010A010C010E7E
:1002400001100112011401160118011A011C011EEE
:1002500001200122012401260128012A012C012E5E
:1002600001300132013401360139013B013D013FCA
:100270000141014301450147014A014C014E015032
:100280000152015401560158015A015C015E01609E
:100290000162016401660168016A016C016E01700E
:1002A0000172017401760179017B017D0191019157
:1002B000039203930394039503960397039803997A
:1002C000039A039B039C039D039E039F03A003A12A
:1002D00003A303A403A503A603A703A803A903AAD2
:1002E0000310041104120413041404150416041753
:1002F00004180419041A041B041C041D041E041F02
:1003000004200421042204230424042504260427B1
:1003100004280429042A042B042C042D042E042F61
:100320000401040204030404040504060407040889
:100330000409040A040B040C040E040F0460216178
:100340002162216321642165216621672168216979
:10035000216A216B216C216D216E216F2121FF22E9
:10036000FF23FF24FF25FF26FF27FF28FF29FF2A61
:10037000FF2BFF2CFF2DFF2EFF2FFF30FF31FF3211
:10038000FF33FF34FF35FF36FF37FF38FF39FF3AC1
:10039000FF000061006200630064006500660067A2
:1003A00000680069006A006B006C006D006E006FF1
:1003B00000700071007200730074007500760077A1
:1003C00000780079007A00A100A200A300A500AC8B
:1003D00000AF00E000E100E200E300E400E500E639
:1003E00000E700E800E900EA00EB00EC00ED00EEB9
:1003F00000EF00F000F100F200F300F400F500F669
:1004000000F800F900FA00FB00FC00FD00FE00FF10
:1004100000010103010501070109010B010D010F95
:1004200001110113011501170119011B011D011F04
:1004300001210123012501270129012B012D012F74
:100440000131013301350137013A013C013E0140E0
:100450000142014401460148014B014D014F015148
:100460000153015501570159015B015D015F0161B4
:100470000163016501670169016B016D016F017124
:10048000017301750177017A017C017E019201B14E
:1004900003B203B303B403B503B603B703B803B998
:1004A00003BA03BB03BC03BD03BE03BF03C003C148
:1004B00003C303C403C503C603C703C803C903CAF0
:1004C0000330043104320433043404350436043771
:1004D00004380439043A043B043C043D043E043F20
:1004E00004400441044204430444044504460447D0
:1004F00004480449044A044B044C044D044E044F80
:100500000451045204530454045504560457045827
:100510000459045A045B045C045E045F0470217196
:100520002172217321742175217621772178217917
:10053000217A217B217C217D217E217F2141FF4267
:10054000FF43FF44FF45FF46FF47FF48FF49FF4A7F
:10055000FF4BFF4CFF4DFF4EFF4FFF50FF51FF522F
:10056000FF53FF54FF55FF56FF57FF58FF59FF5ADF
:10057000FF0000C700FC00E900E200E400E000E545
:1005800000E700EA00EB00E800EF00EE00EC00C43A
:1005900000C500C900E600C600F400F600F200FB4A
:1005A00000F900FF00D600DC00F800A300D800D757
:1005B000009201E100ED00F300FA00F100D100AA81
:1005C00000BA00BF00AE00AC00BD00BC00A100AB93
:1005D00000BB0091259225932502252425C100C248
:1005E00000C000A9006325512557255025A200A56C
:1005F000001025142534252C251C2500253C25E339
:1006000000C3005A25542569256625602550256CB0
:1006100025A400F000D000CA00CB00C800AC20CD5B
:1006200000CE00CF0018250C2588258425C600CCD7
:10063000008025D300DF00D400D200F500D500B53E
:1006400000FE00DE00DA00DB00D900FD00DD00AFB7
:1006500000B400AD00B1001720BE00B600A700F73F
:1006600000B800B000A800B700B900B300B200A005
:1006700025A00020666C61736865642E0A0D004633
:10068000696C65200020646F6E65202E2E2E0A0D89
:1006900000204B420D00462D77726974696E672009
:1006A00020307800646F6E650A0D00464C617368F7
:1006B0003A2065726173696E67202E2E2E200045E8
:1006C00072726F723A20556E61626C6520746F2091
:1006D000726561643A200020002063726561746570
:1006E000642E0A0D0046696C6520000A0D646F6E69
:1006F00065202E2E2E0A0D00204B420D00462D7235
:10070000656164696E6720203078004572726F728F
:100710003A20556E61626C6520746F20637265616A
:1007200074653A20002000200030003100203A207B
:100730000041532D5374617475733A20002042793F
:1007400074650053697A653A203078002A2A20754A
:100750006E6B6E6F776E202A2A00455043533634F5
:100760000045504353513332004550435331360016
:1007700045504353340045504353310020005369E2
:100780006C69636F6E2D49443A2000466978656450
:1007900020506172616D657465723A206C656E2CD3
:1007A000207573696E67206C656E3D20003E003CCD
:1007B000004572726F723A20556E61626C652074EA
:1007C0006F206F70656E3A20002D2D2D2D2D2D2D53
:1007D0002D2D2D2D2D0A0D00202D2D20002A2A2013
:1007E00059482D465047412D5368656C6C202A2A84
:1007F0000D0A00434D443A206361740D0A00434DD5
:10080000443A206865780D0A00202A2000202A201A
:1008100000506172616D657465723A2000202A2073
:1008200000506172616D657465723A2000506172AA
:10083000616D657465723A2000202D2D20006D6970
:100840007373696E6720706172616D657465723A69
:1008500020002000506172616D657465723A20005D
:100860002000436F6D6D616E643A200000310B45CE
:100870002E270B00210B412E170B00120B063A06F8
:100880000B01000B8A2EEC0A01E60AB62ED60A01ED
:10089000CF0ACE38C10A00BE0A052FA80A01A40A51
:1008A000372F9A0A01960A082F890A01860A3031E1
:1008B000770A01730A590D640A015F0A9F0D4B0AFA
:1008C00001430AC02C320A01290AF72C0A0A000146
:1008D0000AFD2CF00900E8099C3DD80903D1090361
:1008E0003CB80902B009D73C98090291093E3B7F08
:1008F00009027C09B53D6709006309323E590901C7
:100900005509343E3F09003B095A3E2909000000C1
:1009100000000000000000000000000000000000D7
:1009200000000000000000000073686F777320690A
:100930006E666F206F6E206F7364006F7364006A61
:100940006F792076616C7565202874657374206FEB
:100950006E6C7929006A6F79007265736574207016
:1009600073320070733200736420726177696D6155
:10097000676566696C6520747970650073640066EC
:100980002D64756D70206F6666736574206C656E7E
:1009900000662D64756D7000662D77726974652030
:1009A0006F66667365742066726F6D66696C65004C
:1009B000662D777269746500662D72656164206FBB
:1009C0006666736574206C656E20746F66696C650D
:1009D00000662D7265616400657261736520544F15
:1009E000532D466C61736800662D657261736500F6
:1009F000436F6E666967466C61736820496E666F07
:100A00000061732D6765746964007772697465208D
:100A10002E7262662066696C6520746F20436F6E6B
:100A2000666967466C6173680061732D77726974DB
:100A300065007265616420436F6E666967466C612C
:100A400073680061732D7265616400637265732061
:100A5000636F726572657365746C6576656C00634F
:100A6000726573007265732072657365746C657668
:100A7000656C0072657300657865632062617463FC
:100A80006866696C6500646F0068657864756D7090
:100A90002066696C65006865780073686F7720660A
:100AA000696C6500636174006C697374205344431E
:100AB000617264204469726563746F7279006C734B
:100AC0000070757A7A6C6520726F756E6473007051
:100AD000757A7A6C6500776169742064656C7469F5
:100AE0006D65206D730064656C617900656E61628F
:100AF0006C6520446562756720547261636573009C
:100B000074726163650053797374656D20496E6614
:100B10006F00696E666F00706F776572206F666632
:100B20000072657365740074686973205465787425
:100B30000068656C7000424620667067612D7368BE
:100B4000656C6C3A3E20004572726F723A20000A62
:100B50000D4156522D526573746172740D0A004234
:100B60004620667067612D7368656C6C3A3E2000A4
:100B70002A2A2A205375736B612D4949492D424613
:100B800020465047412D5368656C6C202A2A2A0D57
:100B90000A00465047412044656661756C742069BF
:100BA0006E69742D46696C652028696E69742E74AF
:100BB000787429206661696C65640D0A002066728C
:100BC00065733D004572726F723A20556E61626CBA
:100BD0006520746F206F70656E3A20002000203A07
:100BE00020004572726F723A20556E61626C65200A
:100BF000746F206F70656E3A200069202D20696E39
:100C0000666F0A006F202D206F70656E2066696C1C
:100C10006520626C6F636B696E670A0064202D202B
:100C2000646561637469766174652066696C650AE0
:100C30000061202D206163746976617465206669A6
:100C40006C650A0053442D46696C652064697361C4
:100C5000626C65640A00534420496E666F0A005254
:100C600045510A0D0077616974202E2E2E20002038
:100C70004B420D0054462D77726974696E672020CF
:100C8000307800204B420D0054462D726561646936
:100C90006E6720203078002000203A200046504720
:100CA000412D56657273696F6E3A200029200055F8
:100CB0006E6B6E6F776E20436F7265004D756C744E
:100CC00069636F6D70205A3830004F6C6420436F39
:100CD000726520776974686F757420747970650027
:100CE000756E6B6E6F776E0041565200546573746B
:100CF000436F72652000756E6B6E6F776E00537078
:100D000061636520496E7661646572730041726348
:100D100061646520002053544520005375736B6156
:100D20002D4949492D4246002046414C434F4E2013
:100D3000005375736B612D4949492D42460020547B
:100D40005420005375736B612D4949492D4246006B
:100D50002028002000465047412D436F726574796A
:100D600070653A200041544D4547412D56657273D8
:100D7000696F6E3A2000496E70757420566F6C74FE
:100D80006167653A200072617720496E7075742042
:100D9000566F6C746167653A2000756E6B6E6F7785
:100DA0006E00574636384B303000574636384B3198
:100DB0003000574636384B333000574636384B33C1
:100DC000304C004D6F7573653A20004B6579626F4A
:100DD0006172643A2000436865636B20505332208F
:100DE000446576696365730A0D0020646F6E650A59
:100DF0000D000A0D756E6B6E6F776E207265713A1D
:100E00002000773A2000723A20000A0D7365656B66
:100E1000206661696C65640A0D000A0D696C6C6579
:100E200067616C207265713A20000A0D65786974FB
:100E300020436D640A0D0000000000000000005512
:100E4000555555555555552A2A2A2A2A2A2A2A14EB
:100E50001414141414141400000000000000000006
:100E60000000000000000000000000000000000082
:100E70000000000000000000000000000000000072
:100E80000000000000000000000000000000000062
:100E90000000000000000000000000000000000052
:100EA0000000000000000000C0C0E0781F00FFFF4D
:100EB000001F78E0C0C00008081C1C3E3E7F7F7FFA
:100EC0007F3E3E1C1C08080010187C7C1810000097
:100ED00010307C7C3010001C1C1C1C1C1C000000F2
:100EE000001C1C1C1C1C1C007C7C38381010007062
:100EF0007C7272727C7000707070707C72020C3E3A
:100F00003E2222223E3E003E3E3E3E3E3E3E00000F
:100F100000000C0C000000000000000000000000B9
:100F200000000000000000000000000000000000C1
:100F300000000000000000000000000000000000B1
:100F400000005F5F000000000303000303000014C3
:100F50007F7F147F7F140000242E6B6B3A12004CAD
:100F60006A36186C563200307E4F59773A68400026
:100F70000004070300000000001C3E634100000065
:100F80000041633E1C0000082A3E1C1C3E2A08004B
:100F900008083E3E080800000080E06000000000F5
:100FA0000808080808080000000060600000004011
:100FB0006030180C060301003E7F594D7F3E000053
:100FC00004067F7F00000000426371594F46000015
:100FD000226349497F3600181C16137F7F100000DA
:100FE000276745457D3900003C7E4B49793000003C
:100FF000010171790F070000367F49497F360000F3
:10100000064F49693F1E00000000666600000000B0
:101010000080E66600000000080814142222000088
:1010200014141414141400002222141408080000CC
:10103000020351590F06003E7F415D551F1E0000FF
:101040007E7F09097F7E00007F7F49497F3600004F
:101050001C3E6341414100007F7F41633E1C000014
:101060007F7F4949414100007F7F0909010100005C
:101070003E7F41497B7A00007F7F08087F7F000028
:1010800000417F7F41000000206040407F3F007FA3
:101090007F081C36634100007F7F40404040007F56
:1010A0007F060C067F7F007F7F060C187F7F000085
:1010B0003E7F41417F3E00007F7F09090F06003ED1
:1010C0007F41617F7E4000007F7F09197F660000BD
:1010D000266F4D597B32000001017F7F0101000026
:1010E0003F7F40407F3F00000F3F70703F0F007F09
:1010F0007F3018307F7F004163361C1C366341010E
:1011000003067C7C0603016171594D474341000091
:10111000007F7F414100000103060C183060400051
:101120000041417F7F0000080C0603060C08008088
:1011300080808080808000000000030704000000A1
:10114000207454547C7800007F7F44447C38000035
:10115000387C444444000000387C44447F7F0000D5
:10116000387C54545C180000047E7F0505000000A4
:1011700018BCA4A4FC7C00007F7F04047C780000E1
:1011800000003D7D40000000808080FD7D0000006B
:101190007F7F10386C44000000003F7F4000007CDF
:1011A0007C0C180C7C7800007C7C04047C780000AB
:1011B000387C44447C380000FCFC24243C180000AB
:1011C000183C2424FCFC00007C7C04040C08000077
:1011D000485C545474200000043F7F4444000000E5
:1011E0003C7C40407C7C00001C3C60603C1C003C23
:1011F0007C6030607C3C00446C3810386C440000EB
:101200001CBCE0603C1C00004464745C4C44000066
:1012100008083E774141000000007F7F0000000089
:101220004141773E08080002010103020201007FEC
:101230007F7F7F7F7F7F000011241FBECFEFD0E133
:10124000DEBFCDBF16E0A0E0B1E0EEE2F6EA02C0FC
:1012500005900D92AA30B107D9F72BE0AAE0B6E0CD
:1012600001C01D92AA39B207E1F70E947A4B0C9493
:1012700015530C940000F89428E024BD019761F008
:1012800084B5856084BD8BE987BD80916E008260E6
:1012900080936E007894089584B5846084BD8DE356
:1012A00087BD80916E00826080936E00789408956F
:1012B0000F931F938B019C01011511052105310529
:1012C00089F090E080E0EFE9FFE03197F1F700C0AE
:1012D00000000196AC0170E060E040175107620722
:1012E000730788F31F910F9108950C9458091F926A
:1012F0000F920FB60F9211248F939F93AF93BF93CA
:1013000080910A0690910B06A0910C06B0910D06F3
:101310000196A11DB11D80930A0690930B06A09320
:101320000C06B0930D06BF91AF919F918F910F90D6
:101330000FBE0F901F9018951092C5008093C400A7
:1013400086E08093C20088E18093C1000895909365
:10135000C5008093C40008959FB7F8948091C100A0
:1013600080688093C1008091C6008091C00087FD95
:10137000FACF80EC8093C0009FBF42E36FE577E037
:1013800081E997E00E94110B789408951F920F92C3
:101390000FB60F9211242F933F934F938F939F93E8
:1013A000EF93FF934091C60090919107809192072F
:1013B0009817D0F4E0919507F09196079F012F5F61
:1013C0003F4F4083809198078150D1F080939807D8
:1013D00030939607209395079FB7F89480919107D3
:1013E0008F5F809391079FBFFF91EF919F918F91A6
:1013F0004F913F912F910F900FBE0F901F90189516
:1014000080919207281B3109E1CF81E997E00C9484
:10141000350B81E997E00C941B0B9091C00095FF70
:10142000FCCF8093C6000895CF93C82F8A3039F03F
:101430008C2F0E940D0A90E080E0CF9108958DE0FE
:101440000E94140AF5CFCF93DF93EC01FC01849145
:10145000882339F00E940D0A2196FE0184918111A2
:10146000F9CFDF91CF910895CF93DF93EC0188817D
:10147000882331F021960E940D0A89918111FBCFBA
:10148000DF91CF9108958A3018F4805D0C940D0A95
:10149000895C0C940D0ACF93C82F82958F700E949F
:1014A000430A8C2F8F70CF910C94430ACF93C82F8F
:1014B000892F0E944B0A8C2FCF910C944B0ACF920C
:1014C000DF92EF92FF926B010E94560AC601FF90D5
:1014D000EF90DF90CF900C94560ACF93C82F80E303
:1014E000C43630F08CE98C0F843690F0C85C82E30F
:1014F0000E940D0A80E3CA3020F08F5FCA50CA30C4
:10150000E0F70E940D0A80E38C0FCF910C940D0A36
:10151000C82F81E3EDCF8FE790E00C94230AEF9280
:10152000FF920F931F93CF93DF937C01D62FC0E0E0
:1015300010E000E008C0CF5F0C2F10E0F701E00FD3
:10154000F11FCD17E8F481E997E00E94350BF70110
:10155000E00FF11F8F3F980799F080838D3081F065
:101560008A3071F0883039F7CC2399F01082C1505D
:101570000C2F10E0F701E00FF11F1082CD1718F3C8
:1015800010828C2FDF91CF911F910F91FF90EF90E0
:101590000895F7011082F2CF0F931F93CF93DF933B
:1015A0008C01D62FC0E00E94B64581E997E00E94E9
:1015B000350B8F3F9807F9F0F801EC0FF11D808390
:1015C0008D3051F08A3041F08830F9F0CF5FCD177F
:1015D00050F3F801EC0FF11D10820D9781F4C11149
:1015E0000EC08DE0F801808311828C2FDF91CF91A6
:1015F0001F910F910895C111EACFF80110828C2F2D
:10160000DF91CF911F910F910895CC2339F0108273
:10161000C150F801EC0FF11D1082D9CFF8011082F2
:10162000D6CFFC0110827583648373836283418308
:10163000478346830895FC0180818823E9F3A281D2
:10164000B3819D012F5F3F4F8C919681915019F48A
:101650009181291B31093383228396832FB7F89414
:101660009081915090832FBF0895FC018081882341
:10167000B9F0A281B3819D012F5F3F4F8C9196817C
:10168000915019F49181291B310933832283968368
:101690002FB7F8949081915090832FBF90E00895D8
:1016A0008FEF9FEF08950F931F93CF93DF93EC017C
:1016B000E5E1F3E0C11580E8D807B1F0CE01D7FD30
:1016C00024C01092140624E136E00AE010E001C0C4
:1016D0009F01F901B8010E94084E805D8293CB0101
:1016E0000097B1F7D7FD06C0CF01DF91CF911F91D1
:1016F0000F91089531978DE28083F9013297CF01E0
:10170000DF91CF911F910F910895882799278C1B06
:101710009D0BD7CFFC0140814D3259F1A1E0B0E0E3
:101720004B3211F180ED840F319670E060E08A3029
:1017300028F59B01220F331F220F331F260F371F5F
:10174000220F331F4053550BBA01620F731F419193
:1017500080ED840F8A3068F36A9FC0016B9F900D03
:101760007A9F900D1124089541813196A1E0B0E057
:10177000D9CF41813196AFEFBFEFD4CF90E080E079
:1017800008958A3010F4805D0895895C08951F9350
:10179000CF93DF93182F82958F700E94C10BCAE1FF
:1017A000D6E08883812F8F700E94C10B89831A82B3
:1017B000CE01DF91CF911F9108950F931F93CF9387
:1017C000DF938C01812F82958F700E94C10BC5E140
:1017D000D6E08883812F8F700E94C10B8983C80156
:1017E000929582958F7089279F7089278F700E94AC
:1017F000C10B8A83802F8F700E94C10B8B831C8248
:10180000CE01DF91CF911F910F9108958F929F92FA
:10181000AF92BF92FF920F931F93CF93DF934B0131
:101820005C011092240620E030E0A9010E943C4CAB
:10183000F12C87FF06C0B7FAB094B7F8B094FF2434
:10184000F39420E030E048EC52E4C501B4010E947A
:101850009B4D0E94BA4C4B015C0124E630E040E015
:1018600050E00E941C4EC62F2AE030E040E050E0DD
:101870000E941C4E8DECC89F812D11248695869563
:101880008695982F990F990F890F880FC81BC6301E
:1018900008F444C081E0820F2F5C8A3031F484E682
:1018A000880E911CA11CB11C20E3209323068EE21C
:1018B00080932206C501B40124E630E040E050E008
:1018C0000E941C4ECA01B90101E216E02AE0822EF4
:1018D000912CA12CB12C611571058105910511F494
:1018E00023C08E01E8012197A50194010E941C4E9E
:1018F000605D6983B901CA016115710581059105B2
:1019000081F7F1100DC0C801DF91CF911F910F91A8
:10191000FF90BF90AF909F908F900895205DC5CFAE
:101920008DE288838E01EFCF80E38093210601E270
:1019300016E0E9CF813019F0E8F08230A9F080910B
:101940007C00806C80937C0080917A00876080931B
:101950007A0080917C00807E80937C0080917A0068
:10196000806880937A00089580917C008F738093C3
:101970007C00EACF80917C008F73806480937C0030
:10198000E3CFECE7F0E09081907E892B808308958F
:1019900080917A0086FB882780F991E08927089555
:1019A000809178009091790008958A9A8BEE90E06A
:1019B0000C94230A899A81EE90E00C94230A89986A
:1019C0008A98819A829A089583E291E00E94230A7C
:1019D0000E94D50C8FE191E00E94230A64EF71E030
:1019E00080E090E00E94580989E191E00E94230A7A
:1019F0000E94DA0C85E191E00E94230A64EF71E015
:101A000080E090E00E9458098FE091E00E94230A54
:101A100089988CED90E00E94230A8BE091E00E946F
:101A2000230A64EF71E080E090E00E94580986E0AC
:101A300091E00E94230A8A9886EE90E00E94230A91
:101A400082E091E00E94230A64EF71E080E090E080
:101A50000E9458098DEF90E00E94230A0E94D50C45
:101A600089EF90E00E94230A64EF71E080E090E04B
:101A70000E94580984EF90E00E94230A8A9886EE1B
:101A800090E00E94230A80EF90E00C94230A8111D9
:101A900005C08A9886EE90E00C94230A0C94D50C2D
:101AA000811105C089988CED90E00C94230A0C9468
:101AB000DA0CCF93DF931F92CDB7DEB79E012F5F75
:101AC0003F4F3F932F932CE133E03F932F939F930E
:101AD0008F930E94AE4F85ED90E00E94230A89818A
:101AE0000F900F900F900F900F900F90823051F049
:101AF0000E94470D89EC90E00E94230A0F90DF912D
:101B0000CF91089580ED90E00E94230A0E94D50CA9
:101B100064EF71E080E090E00E9458098A9886EEB8
:101B200090E00E94230A8CEC90E00E94230A89EC4A
:101B300090E00E94230A0F90DF91CF910895CF93F8
:101B4000DF931F92CDB7DEB79E012F5F3F4F3F93CC
:101B50002F932CE133E03F932F939F938F930E9419
:101B6000AE4F8DEB90E00E94230A89810F900F9079
:101B70000F900F900F900F90823051F00E94500DF7
:101B800081EB90E00E94230A0F90DF91CF9108959E
:101B900088EB90E00E94230A0E94DA0C64EF71E067
:101BA00080E090E00E94580989988CED90E00E94B6
:101BB000230A84EB90E00E94230A81EB90E00E94CC
:101BC000230A0F90DF91CF91089589988A98819A7E
:101BD000829A8B98839A0C94B30ECF93DF93909153
:101BE00025069817B1F1D82F882329F18B9A64E63E
:101BF00070E080E090E00E945809019925C0CAE099
:101C00006CE271E080E090E00E94580981EA90E087
:101C10000E94230AC150019920C0C111F1CF82E86E
:101C200090E00E94230A81E0DD2389F0D09325060D
:101C3000DF91CF9108958B9864E670E080E090E0AA
:101C40000E945809019B03C081E0D111EFCF80E0D1
:101C5000EDCF80E0DF91CF910895C111F5CFDFCFB7
:101C600084B1866084B9089584B1897F84B9089568
:101C7000282F98E080E065C0000000000000000010
:101C80000000000000000000000000000000000054
:101C90000000000000000000000000000000000044
:101CA0000000000000000000299A00000000000071
:101CB0000000000000000000000000000000000024
:101CC0000000000000000000000000000000000014
:101CD0000000000000000000000000000000000004
:101CE00000000000000000000000000000000000F4
:101CF00000000000000000000000000000000000E4
:101D00000000000000000000000029980000000012
:101D100000000000000000000000000000000000C3
:101D200000000000000000000000000000000000B3
:101D3000000000000000000000000000220F915091
:101D400079F027FD0EC02A98880F1B998160309189
:101D50002E06311191CF299A2998220F915089F797
:101D600008952A9AF1CF2C9A2D9A259A249A0895AB
:101D700080912F060895DF92EF92FF920F931F93A9
:101D8000CF93DF93182F042FF52EE62ED72E87FD45
:101D900041C02C9A2C98C5EFD1E002C0219789F15F
:101DA0008FEF0E94380E8F3FC9F7812F0E94380EA7
:101DB0008D2D0E94380E8E2D0E94380E8F2D0E9480
:101DC000380E802F0E94380E103431F0183461F52F
:101DD00087E80E94380E03C085E90E94380EC4EFE0
:101DE000D1E002C0219729F08FEF0E94380E87FDC5
:101DF000F9CFDF91CF911F910F91FF90EF90DF907E
:101E000008958FEFDF91CF911F910F91FF90EF9089
:101E1000DF90089540E050E0BA0187E70E94BB0ED2
:101E2000823038F71F77B5CF81E00E94380E1C341E
:101E3000B1F68FEF0E94380ED2CF8F929F92AF9261
:101E4000BF92CF92DF92FF920F931F93CF93DF93B6
:101E500000D000D0CDB7DEB72D982FEF81EE94E003
:101E6000215080409040E1F700C0000081E0809365
:101E70002E061FE08FEF0E94380E1150D9F7EFEFBA
:101E8000F1EE24E0E150F0402040E1F700C0000016
:101E900010E000E009C08FEF90E7E2E08150904051
:101EA000E040E1F700C0000040E050E0BA0180E40B
:101EB0000E94BB0EF82EF1E08F1709F10F5F1F4F44
:101EC0000C30110541F710922F062C9A89E991E008
:101ED0000E94230A0E948B0A2D9AF12C8F2D0F90BD
:101EE0000F900F900F90DF91CF911F910F91FF9066
:101EF000DF90CF90BF90AF909F908F9008954AEA67
:101F000051E060E070E088E40E94BB0E8130D1F1C6
:101F100040E050E0BA0189EE0E94BB0E823008F426
:101F200085C0CC24C39421E4D22E08EE13E00AC06D
:101F30008FE99FE00197F1F700C0000001501109FF
:101F400009F4C1CF40E050E0BA018D2D0E94BB0ED4
:101F50008111EECF40E052E060E070E080E50E9449
:101F6000BB0E8111B0CFC0922F062C9A10922E0674
:101F700088EA91E00E94230A8C2D0E944B0A0E945D
:101F80008B0AACCFCE0101964C015E0195E0A90E03
:101F9000B11C64018FEF0E94380EF60181936F012E
:101FA000EA15FB05B9F78B81813009F08CCF8C8164
:101FB0000F5F1F4F8A3A09F086CF10C0FFEF20E76E
:101FC00082E0F15020408040E1F700C000000F5F48
:101FD0001F4F053F91E0190709F475CF40E050E02D
:101FE00060E070E489EE0E94BB0E8111E7CF043FF0
:101FF000114008F068CF40E050E0BA018AE70E9443
:10200000BB0E811160CF8FEF0E94380EF4018193D7
:102010004F01CE16DF06B9F7898186FF0CC08CE030
:1020200080932F062C9A4CE0C42EA0CF88E0C82EB7
:1020300099EED92E7ACF84E080932F062C9A34E043
:10204000C32E94CFCF93DF93C5EFD1E002C0219789
:1020500029F08FEF0E94380E8F3FC9F7DF91CF91A3
:102060000895DF92EF92FF920F931F93CF93DF9328
:102070007A0120912F0623FD07C029E0660F771F04
:10208000881F991F2A95D1F7AB01BC0188E50E94F2
:10209000BB0ED82E811144C005EF11E004C00150E1
:1020A000110909F43BC08FEF0E94380E8F3FB9F73A
:1020B0008EEF0E94380E8701FEEFFF1AF801819122
:1020C0008F010E94380EF80131972081D2270D2E02
:1020D0000294202D2F702D273D2F3025330F307E79
:1020E0002327302D3D27307F36950D2E000C331FD2
:1020F000D695D695D695DF71D327DC27C22FE0166B
:10210000F106E1F68D2F0E94380E8C2F0E94380EBA
:102110008FEF0E94380E8F71853059F0DD24D394F3
:102120008D2DDF91CF911F910F91FF90EF90DF9058
:1021300008958FEF0E94380E8F3FD9F72C9AF0CF79
:10214000EF92FF920F931F93CF93DF937A01209129
:102150002F0623FD07C029E0660F771F881F991FF0
:102160002A95D1F7AB01BC0181E50E94BB0E182F67
:1021700081114DC0C8EED3E009C08FE99FE00197FF
:10218000F1F700C00000219709F441C08FEF0E94D1
:10219000380E8F3F91F38E3F09F039C087019EEFD3
:1021A000F91AD0E0C0E08FEF0E94380EF801819359
:1021B0008F01D8270D2E0294802D8F708D279D2F93
:1021C0009025990F907E8927902D9D27907F969539
:1021D0000D2E000C991FD695D695D695DF71D9276F
:1021E000DC27C82FEE16FF06F1F68FEF0E94380E9F
:1021F000082F10E0102F00278FEF0E94380E2C9A26
:102200009801282BC90111E08C179D0741F0812FFF
:10221000DF91CF911F910F91FF90EF90089510E003
:10222000F6CF08950E941D0F882321F010923006EA
:1022300080E0089583E08093300608958091300611
:102240000895FB01CA01B901AF010E94A01090E0FE
:102250000895FB01CA01B901AF010E94311090E05D
:1022600008950F931F93CF93DF938A012C986623D1
:10227000A9F06A3039F40E94B80EF8018083D0E0EA
:10228000C0E002C0C4E0D0E02C9A8FEF0E94380E6C
:10229000CE01DF91CF911F910F9108950E942210DE
:1022A0008F3F91F7ECCF4F925F926F927F92AF92F8
:1022B000BF92CF92DF92EF92FF920F931F93CF9333
:1022C000DF93FC01C2A4D3A4E4A4F5A4C416D506EC
:1022D000E606F70661F02A013B01EC0184818111D9
:1022E00017C0411451046104710409F047C090E023
:1022F00080E0DF91CF911F910F91FF90EF90DF90E1
:10230000CF90BF90AF907F906F905F904F90089567
:102310005F01FEE2AF0EB11C01E0A7019601B5011D
:1023200089810E942911892BC9F51C828E899F8978
:10233000A88DB98D4E8D5F8D68A179A1480F591F69
:102340006A1F7B1FC416D506E606F70650F61B81EA
:10235000123028F4C6CF8E899F89A88DB98DC80EFA
:10236000D91EEA1EFB1E01E0A7019601B501898175
:102370000E9429111150113071F7B3CF01E0A30170
:102380009201BE01625D7F4F89810E942111892BDC
:1023900029F44AA65BA66CA67DA6A9CF81E090E0B1
:1023A000A8CF0F93CF93DF93EC019A01AB01BC014F
:1023B000625D7F4F01E089810E942111892B59F5CF
:1023C000FE01E45DFD4F8081918185359A4AF1F4EB
:1023D000E85CF14080819181A281B381BB27863482
:1023E0009144A445B10569F0C058DF4F4881598137
:1023F0006A817B81772781E04634514464457105C9
:1024000031F480E0DF91CF910F91089582E0DF9168
:10241000CF910F91089583E0DF91CF910F910895AF
:10242000FC0181810E941E1180FD03C090E080E0CC
:10243000089583E090E008957F928F929F92AF92EB
:10244000BF92CF92DF92EF92FF920F931F93CF93A1
:10245000DF93EC016A017B018E8C9F8CA8A0B9A050
:102460008881823009F472C0833009F44EC0813013
:1024700089F06FEF7FEFCB01DF91CF911F910F912B
:10248000FF90EF90DF90CF90BF90AF909F908F9094
:102490007F9008958A0116950795040F151FC801AE
:1024A000892F99278695B501A401480F591F611DF1
:1024B000711DCE010E945311892BD9F6F801F170DC
:1024C000EC0FFD1F76A40F5F1F4FC801892F9927BE
:1024D0008695B501A401480F591F611D711DCE01DC
:1024E0000E945311892B29F61170C00FD11F6EA5C0
:1024F000762F672DC0FE45C0729562956F70672775
:102500007F70672790E080E0B7CF97E0769567957A
:10251000579547959A95D1F7480D591D6A1D7B1D12
:10252000CE010E945311892B09F0A3CFCC0CDD1CE6
:10253000CC0CDD1C8CEFC82281E0D822CC0DDD1D37
:102540006EA57FA588A999A99F7096CF77276F2D33
:102550005E2D4D2D480D591D6A1D7B1DCE010E941B
:102560005311892B09F085CFCC0CDD1CE894C0F801
:1025700081E0D822CC0DDD1D6EA57FA590E080E026
:102580007BCF7F7090E080E077CFAF92BF92CF9209
:10259000DF92EF92FF920F931F93CF93DF938C0103
:1025A000EB01DC0115967C936E93149716964D9172
:1025B0005D916D917C9119974130510561057105CF
:1025C00009F44DC0FC01A080B180F501828D938D8E
:1025D000A48DB58D481759076A077B0708F03FC0DF
:1025E000411551056105710509F446C0F501E28008
:1025F000F0E1EF9E70011124CE15DF0508F483C0D1
:10260000423051056105710550F1481759076A07B5
:102610007B0728F506C0CE19DF09CE15DF0508F4C3
:1026200072C0C5010E941C12AB01BC014F3F2FEFCD
:1026300052076207720709F49DC0423051056105D7
:10264000710568F0D801AD90BC90F501828D938D35
:10265000A48DB58D481759076A077B07E0F282E021
:1026600090E0DF91CF911F910F91FF90EF90DF905D
:10267000CF90BF90AF90089520812330C9F1D80149
:102680001A961D921D921D921C921D97F501808530
:102690009185C817D90718F782A193A1A4A1B5A164
:1026A0009E01329522952F7023273F702327AC017E
:1026B000BD01420F531F611D711DD8011E964D9320
:1026C0005D936D937C935197F501BE96CF70DD2796
:1026D000CC0FDD1FC295D295D07FDC27C07FDC27D1
:1026E000CE0FDF1FF801D38BC28B90E080E0B9CF13
:1026F00042A153A164A175A1411551056105710560
:1027000009F074CFBCCFF80142875387648775877F
:102710009A01AB0122503109410951090297A109DF
:10272000B109281739074A075B0700F5F501A281AF
:10273000B0E00E946C4EC6A0D7A0E0A4F1A46C0D3E
:102740007D1D8E1D9F1D9E01329522952F70232782
:102750003F702327620F731F811D911DD8011E96A4
:102760006D937D938D939C935197AECF60E070E015
:10277000CB01E9CF81E090E074CF2F923F924F924E
:102780005F926F927F928F929F92AF92BF92CF9201
:10279000DF92EF92FF920F931F93CF93DF9300D0BE
:1027A00000D01F92CDB7DEB79D838C836A017B0179
:1027B00048015901FC01468C578C60A071A0F08142
:1027C000F983F23009F486C0F33009F460C002E006
:1027D00010E0F130E9F081E0EC81FD818483C801F3
:1027E0000F900F900F900F900F90DF91CF911F914E
:1027F0000F91FF90EF90DF90CF90BF90AF909F90A0
:102800008F907F906F905F904F903F902F900895A2
:102810001A0136942794240E351EC101892F992759
:102820008695B301A201480F591F611D711D8C814E
:102830009D810E9453118C01892B69F691013170A1
:10284000C10101969B838A83892F99278695B301BD
:10285000A201480F591F611D711DC0FE57C0EC81B8
:10286000FD81E20FF31F26A52F7030E1839EC0018A
:102870001124822B86A73981EC81FD813483CF011D
:102880000E945311009709F45EC08C01A4CF27E089
:1028900076956795579547952A95D1F7440D551D1F
:1028A000661D771D8C819D810E9453118C01892B9F
:1028B00009F091CFF601EE0FFF1FEE0FFF1FEC7F27
:1028C000F1708C819D81E80FF91F86A697A6A0AABA
:1028D000B1AA81CF77276F2D5E2D4D2D440D551D4B
:1028E000661D771D8C819D810E9453118C01892B5F
:1028F00009F071CFF601EE0FFF1FEE7FF1708C81B2
:102900009D81E80FF91F97A686A665CF8C819D81D2
:10291000280F391FF90186A63981FC0134830E94F2
:102920005311009709F0B1CFEA81FB81F1708C81DE
:102930009D81E80FF91F86A5807F992D9F70892EB4
:10294000882A86A648CFEA81FB81F17084E0B6949C
:10295000A794979487948A95D1F78C819D81E80FED
:10296000F91F86A638CF4F925F926F927F928F9217
:102970009F92AF92BF92CF92DF92EF92FF920F930E
:102980001F93CF93DF9300D000D000D0CDB7DEB738
:102990009E838D8349835A836B837C83DC015A96A3
:1029A0004D905D906D907C905D97452B462B472B0D
:1029B00009F074C01A968D909D90AD90BC901D97B3
:1029C00081149104A104B10409F092C0812C912CCE
:1029D000540183947501640134C0B2E08B169104F4
:1029E000A104B10408F4A6C092E0C92ED12CE12CB8
:1029F000F12CED81FE81828D938DA48DB58DC8164D
:102A0000D906EA06FB0668F5B701A601CF010E94C8
:102A10001C12611571058105910509F470C06F3FA5
:102A2000FFEF7F078F079F0709F47FC061307105B3
:102A300081059105B1F08C149D04AE04BF0409F426
:102A400079C0AFEFCA1ADA0AEA0AFA0AC414D5043E
:102A5000E604F70410F6E2E0CE16D104E104F10436
:102A600040F6C12CD12C7601C394C701B60126963D
:102A70000FB6F894DEBF0FBECDBFDF91CF911F918F
:102A80000F91FF90EF90DF90CF90BF90AF909F900D
:102A90008F907F906F905F904F90089529813A8139
:102AA0004B815C812230310541055105D0F289818D
:102AB0009A81AB81BC8184159505A605B70588F67A
:102AC000AC01BD018D819E810E941C126B017C01B5
:102AD00092E0C916D104E104F10418F2C414D5043B
:102AE000E604F70410F289809A80AB80BC8072CF34
:102AF00084149504A604B70408F46CCF67CFED8165
:102B0000FE81828D938DA48DB58DC816D906EA06F7
:102B1000FB0658F40FEF1FEF2FEF3FE0B701A601C0
:102B2000CF010E94BD13892B49F0CC24CA94DC2C20
:102B300076019BCFC12CD12C760197CF29813A8188
:102B40004B815C81232B242B252BF9F029813A81A1
:102B50004B815C81223031054105510530F3ED8117
:102B6000FE81828D938DA48DB58D281739074A0774
:102B70005B07D8F69701860149815A816B817C8178
:102B8000CF010E94BD13892B81F6AD81BE811A96BB
:102B9000CD92DD92ED92FC921D97FD018685978581
:102BA000A089B1898F3FFFEF9F07AF07BF0709F4E7
:102BB0005CCF0197A109B109ED81FE8186879787D6
:102BC000A08BB18B81E0858350CF4F925F926F9243
:102BD0007F928F929F92AF92BF92CF92DF92EF92AD
:102BE000FF920F931F93CF93DF93EC016B010C8146
:102BF0001D810F5F1F4F09F4A4C04E855F85688952
:102C00007989411551056105710509F49AC078016A
:102C10002FE0E222FF24E881F981E114F10409F0B8
:102C200078C04F5F5F4F6F4F7F4F4E875F87688BD6
:102C3000798B4A855B856C857D85411551056105DC
:102C4000710509F479C082818150990B9801329500
:102C500022952F7023273F70232782239323892BCC
:102C600009F057C0423051056105710508F47CC078
:102C7000828D938DA48DB58D481759076A077B0700
:102C800008F072C0CF010E941C124B015C0182E06F
:102C900088169104A104B10408F466C02FEF8216CF
:102CA0009206A206B20609F4DFC0E881F981828D9E
:102CB000938DA48DB58D88169906AA06BB0608F0DB
:102CC00056C02401350122E0421A510861087108FA
:102CD0008A869B86AC86BD860297A109B109812CA4
:102CE000912C5401481659066A067B0670F4A2819D
:102CF000B0E0A30192010E946C4E86A097A0A0A410
:102D0000B1A4860E971EA81EB91E8E869F86A88A1D
:102D1000B98A1D830C83BE96EE0CFF1CE294F294DC
:102D200080EFF822FE24E822FE24EE0EFF1EFB8A2E
:102D3000EA8A90E080E007C080859185081719072E
:102D400040F384E090E0DF91CF911F910F91FF90CD
:102D5000EF90DF90CF90BF90AF909F908F907F903B
:102D60006F905F904F90089582E090E0ECCFCD2877
:102D700041F34A855B856C857D85CF010E94B31444
:102D80004B015C0187E090E081149104A104B1043F
:102D9000D1F281E088169104A104B10429F32FEF48
:102DA00082169206A206B20609F45EC040E050E028
:102DB000BA01888199810E945311892B09F054C06E
:102DC00088819981FC01BE96825D9D4F11928E177C
:102DD0009F07E1F7E881F9812401350182E0481A73
:102DE000510861087108D280828D938DA48DB58DB4
:102DF0000297A109B109481659066A067B06B8F57B
:102E0000AD2DB0E0A30192010E946C4E26A137A126
:102E100040A551A5DC01CB01820F931FA41FB51F54
:102E200082A793A7A4A7B5A7DD2029F1D12CCC2494
:102E3000C39411C0E881F98182A593A5A4A5B5A585
:102E40000196A11DB11D82A793A7A4A7B5A7D394EE
:102E50008281D81680F4C48240E050E0BA01CF01EC
:102E60000E945311892B31F381E090E06CCF80E018
:102E700090E0DC01D5CF82A593A5A4A5B5A58D19B9
:102E80009109A109B10982A793A7A4A7B5A7828D2B
:102E9000938DA48DB58D1CCF2F923F924F925F9250
:102EA0006F927F928F929F92AF92BF92CF92DF925A
:102EB000EF92FF920F931F93CF93DF9300D000D038
:102EC000CDB7DEB78C0122242A9433243A9436ED10
:102ED000A32E31E0B32EEE24EA94FE2C0EC04F3028
:102EE00009F463C033243A9470E060E0C8010E94A2
:102EF000E5159C01892B09F040C0D8011E964D9123
:102F00005D916D917C9151978D919C910E9453118F
:102F10009C01892B91F5F8010288F389E02DFC834F
:102F2000EB839081992309F4B9C08385482F4F73AF
:102F3000953EC1F283FDD3CF4F30B9F1332009F470
:102F400097C0D8015996FC92EE9258975496ED91FD
:102F5000FC9183854B815C81455F5F4F80FDC2CFD3
:102F6000AB81BC819D91BC83AB8381919813BACF17
:102F70008B819C814817590799F7C9010F900F90D1
:102F80000F900F90DF91CF911F910F91FF90EF90D5
:102F9000DF90CF90BF90AF909F908F907F906F9079
:102FA0005F904F903F902F900895D8015696CD9006
:102FB000DC905797C114D10409F496CF96FF6BC0EB
:102FC000EB81FC812584392EE89436F814968D9196
:102FD0009C91159759969C938E935897AB81BC8181
:102FE0001D968C911D9782117DCF8C918F7B815086
:102FF000990BBDE0B89F3001B99F700C11242AECE9
:10300000822E21E0922EE1E081E090E00BC02F3F84
:103010003F4F09F067CFA814B90409F442C0D401A6
:10302000ED914D012B813C812E0F311DF901208145
:103030003181009761F3C9010E949A292C0130E285
:10304000631671040CF04ECFC30101969A838983F5
:10305000660C771CF601E60DF71D808191810E94B8
:103060009A294816590609F03DCF69807A80D3CF56
:10307000EB81FC8131964B815C81455F5F4F01C0E4
:10308000919130FA379437F8390E4E175F07C1F730
:10309000321057CF72CF931125CFA0CF24E030E06C
:1030A0006CCFEB81FC81208126FF0CC0892B51F075
:1030B000F301EE0FFF1FEC0DFD1D80819181892B27
:1030C00009F010CF3A9410CF2F923F924F925F9217
:1030D0006F927F928F929F92AF92BF92CF92DF9228
:1030E000EF92FF920F931F93CF93DF936C014B01ED
:1030F000DB018C918F3209F473C08C3509F470C0F8
:10310000E6011E821F8218861986F40180818032B2
:1031100008F49BC170E2572EE5E03E2EE601AE8832
:10312000BF88082E000C990B8032910508F443C02B
:103130008F32910509F43FC08C359105E1F175019D
:1031400084010F5F1F4FE50166246394712C19C041
:103150008993999393012F5F3F4FF80181918F01DC
:10316000082E000C990B8032910508F469C18F324A
:103170009105D1F18C359105B9F121323105D9F0A4
:10318000390161E070E090E00E947029009799F0A9
:1031900080389105E8F68232910569F0E1E2F3E0CA
:1031A0002AE203C02191222399F2022E000C330B54
:1031B00082179307B9F786E090E0DF91CF911F91D6
:1031C0000F91FF90EF90DF90CF90BF90AF909F90C6
:1031D0008F907F906F905F904F903F902F900895C9
:1031E000BFEF8B1A9B0A8CCF820E931E412CF301EA
:1031F000EE0FFF1FEA0DFB1D929182918032910527
:1032000011F08E9729F421E0621A7108A9F7D3CF43
:10321000D301AA0FBB1FAA0DBB1D11961C921E92B3
:10322000E601EC89FD89CF010B965192E817F90769
:10323000E1F7D0E0C0E0F701819191917F01803208
:10324000910519F08E32910511F42196F4CF209753
:1032500019F0F42DF3604F2E3E912E912E32310550
:1032600021F021E0621A7108B9F708E010E0F12CB2
:10327000E12C212C2196009709F45BC08032910546
:1032800009F4BAC08E32910509F4BAC0E016F1060D
:103290000CF0C5C0C615D70509F4B5C08038910536
:1032A00000F58B32910561F1EAE2F3E02CE2022EA7
:1032B000000C330B8217930719F121912111F7CFDD
:1032C0009C01215431092A31310508F4C6C09C0102
:1032D000215631092A313105B8F4689420F880521A
:1032E00013C070E060E00E947029689441F8009774
:1032F00039F087539F4FFC01808190E0009789F659
:10330000F42DF3604F2E8FE5D6015496ED91FC918C
:10331000EE0DFF1D8083F70131967F01FE01EE0F58
:10332000FF1FEA0DFB1D808191812196009709F016
:10333000A5CFD6015496ED91FC9155978081853E9D
:1033400021F430825496ED91FC910830110511F46E
:10335000220C220C822D8C708C3009F46EC0922DC0
:103360009370933009F469C041FC08C0913011F4A6
:10337000689444F8843011F4689443F8438670E00C
:1033800060E0C6010E94C512009739F5C6010E948F
:103390004C17E601EC89FD8923852470009719F507
:1033A00021110BCFEA89FB89838584FF22C08489A0
:1033B0009589B0E0A0E0DC0199278827428D538DE4
:1033C00070E060E0842B952BA62BB72B8E839F8318
:1033D000A887B987F4018081A1CED6015496ED91DA
:1033E000FC91238524708430910509F0E6CE2111EB
:1033F000E4CE85E090E0E1CE842D8360482E8ECF30
:10340000C615D705C9F70B30110551F1220C220C56
:10341000E3010BE010E048E0E42EF12C7FCF0B300D
:103420001105F1F0C615D70589F3B42DB3604B2E05
:103430006C167D060CF47DCFE9CF689441F89ECFE1
:10344000820E931E24E0422ED2CE70E060E0C601D0
:103450000E94C5121B8A1A8AB0CE689421F854CFF4
:10346000942D9360492ED6015496ED91FC91559779
:103470008081853E09F06ECF30825496ED91FC91AB
:1034800069CF0F931F93423051056105710570F0AC
:10349000FC01028D138D248D358D40175107620775
:1034A000730720F41F910F910C941C1261E070E0DF
:1034B00080E090E01F910F910895CF92DF92EF92FC
:1034C000FF920F931F93423051056105710598F0EB
:1034D000FC01C28CD38CE48CF58C4C155D056E051B
:1034E0007F0548F40E94BD131F910F91FF90EF904C
:1034F000DF90CF90089582E090E01F910F91FF90B0
:10350000EF90DF90CF9008950F931F93FC019A01E5
:10351000AB012250310941095109828D938DA48D4F
:10352000B58D0297A109B109281739074A075B072A
:1035300078F4A281B0E00E946C4E06A117A120A5EC
:1035400031A5600F711F821F931F1F910F91089566
:1035500060E070E0CB011F910F910895EF92FF9210
:103560000F931F93CF93DF93CDB7DEB728970FB696
:10357000F894DEBF0FBECDBF8C01F9017B01655F02
:103580007F4FD7012D917D01DC012D93CD01E616F2
:10359000F706B9F7E630F10568F0DA018D919D91F3
:1035A000E0FBF795E795F7F9E80FF91F8D919D91ED
:1035B0000097B1F77E01B9E0EB0EF11C47E050E057
:1035C000415051099F01ADECBCEC0E945D4E9695B7
:1035D000879596958795969587959C01220F331F21
:1035E000220F331F280F391F220F331FE21BF30B4B
:1035F000E05DD701EE937D01FC01892B09F7E1E045
:10360000F0E0EC0FFD1FE40FF51F8EE7808314162A
:1036100015069CF5F8018081803279F1319630E011
:1036200020E003C08191803229F02F5F3F4F421785
:103630005307C1F7F801E20FF31F80E2483051054C
:103640004CF4A1E0B0E0AC0FBD1FA40FB51F8C91EE
:103650004F5F5F4F2F5F3F4F8193283031056CF3F1
:1036600028960FB6F894DEBF0FBECDBFDF91CF9185
:103670001F910F91FF90EF90089530E020E0DACF96
:103680002F923F924F925F926F927F928F929F9272
:10369000AF92BF92CF92DF92EF92FF920F931F9360
:1036A000CF93DF9300D000D000D01F92CDB7DEB70C
:1036B000DC01ED91FC9111972081022E000C330B5F
:1036C000205331092A30310520F451815A3309F44D
:1036D00029C12090750630907606FB013182208248
:1036E0002114310409F42DC1142FF10180818823A4
:1036F00021F181810E941E1180FD1FC0112311F054
:1037000082FD1CC190E080E027960FB6F894DEBFE2
:103710000FBECDBFDF91CF911F910F91FF90EF9022
:10372000DF90CF90BF90AF909F908F907F906F90E1
:103730005F904F903F902F900895D1011C92119669
:103740001C9280E00E94121180FDE9C0112311F04B
:1037500082FDF4C040E050E0BA01C1010E94D111E5
:10376000C12CD12C7601813009F4EEC0833009F4EC
:10377000E2C08111EFC0F10181AD92AD811592409F
:1037800009F0E8C0F101EC5BFF4F2081318150E08E
:1037900040E0211531054105510529F43E9620816F
:1037A000318142815381D10156962D933D934D93A2
:1037B0005C935997DE96AC91F101A383B0E00E942F
:1037C0006C4E4B015C0144AD55AD70E060E02A01E8
:1037D0003B014C0C5D1C6E1C7F1C468E578E60A2FC
:1037E00071A2B3ADBF83B283FF9620813181D10135
:1037F00019963C932E931897329680819181B0E070
:10380000A0E00097A105B10529F43D968081918142
:10381000A281B381F901F295E295EF70EF27FF7075
:10382000EF278F0130E020E009831A832B833C834C
:10383000841B950BA60BB70B88199909AA09BB091C
:10384000BC01CD01601B710B820B930B1F81212FDB
:1038500030E050E040E00E941C4EDA01C9010296BF
:10386000A11DB11DF101828F938FA48FB58F873F6A
:10387000FFE09F07A105B10508F46FC0873F9F4F88
:10388000A105B10508F4D8C0F101E65AFF4F8081C7
:103890009181A281B381F10182A393A3A4A3B5A3D3
:1038A00009811A812B813C81400E511E621E731EBC
:1038B000840C951CA61CB71C86A297A2A0A6B1A634
:1038C0008FEF9FEFDC0186879787A08BB18B1482E7
:1038D0001582E25AFF4F80819181A7019601280F3E
:1038E000391F411D511DD10152962D933D934D938A
:1038F0005C93559701E0B101625D7F4F11968C9109
:103900000E942111892B49F4F101E45DFD4F808172
:10391000918185359A4A09F460C083E03CC083E018
:1039200090E0F2CE3296ED93FC93232B09F4D1CEA6
:103930008BE090E0E9CE81E090E0E6CE8AE090E096
:10394000E3CE8CE090E0E0CEF101E051FE4F8081CB
:10395000811136C08DE090E0D7CE81E0840C951CBB
:10396000A61CB71CF10182A293A2A4A2B5A2098150
:103970001A812B813C81800E911EA21EB31E86A24D
:1039800097A2A0A6B1A64FEF5FEFBA01468757876F
:10399000608B718B1482D1018C93F10112A613A656
:1039A00014A615A6809173069091740601969093C3
:1039B0007406809373069783868390E080E0A4CE9C
:1039C000F101EC50FE4FC080D180E280F380B7015E
:1039D000A601C1010E94D111C9CEF10186A597A50A
:1039E000A0A9B1A982359245A146B14409F095CF6D
:1039F000F101EE5EFD4F80819181A281B38182371A
:103A00009247A144B14609F088CF389680819181D0
:103A1000A281B381F10182879387A487B587EA5E8B
:103A2000FD4F80819181A281B381F10186879787C3
:103A3000A08BB18B83E0AFCF82E090CF811113C018
:103A4000E0917506F0917606309709F010826115C5
:103A5000710511F0FB011082709376066093750674
:103A600090E080E008958BE090E008952F923F92DF
:103A70004F925F926F927F928F929F92AF92BF927E
:103A8000CF92DF92EF92FF920F931F93CF93DF932A
:103A9000CDB7DEB7C054D1090FB6F894DEBF0FBE64
:103AA000CDBF7C017CAB6BABB42EDC011D921C92B4
:103AB0004E71BE016F5F7F4FCE01C3960E94401BC7
:103AC0006C01892BD9F0C601C05CDF4F0FB6F894AA
:103AD000DEBF0FBECDBFDF91CF911F910F91FF9041
:103AE000EF90DF90CF90BF90AF909F908F907F909E
:103AF0006F905F904F903F902F900895BB2DBF71B6
:103B0000BDAB8E01095D1F4F1E8B0D8B81E396E0CF
:103B1000988F8F8B6BA97CA9CE0101960E946418A7
:103B20002B2D2C71A9F40097C9F46B887C88611443
:103B3000710409F4E9C1D3011B968C9184FDE4C1A1
:103B4000B1FED3C080FFD1C087E0C82ED12CBBCF3F
:103B5000009731F08430910509F421C16C01B3CF95
:103B6000B2FCD6C16B887C88962D872D61147104B8
:103B700059F3D3011B962C91217131F7BB2DB870ED
:103B8000BCAFB3FEBEC1F30184899589B0E0A0E06B
:103B9000DC0199278827428D538D70E060E08C010D
:103BA0009D01042B152B262B372B08AF19AF2AAFFD
:103BB0003BAF158A148A138E128E148E158E168EB4
:103BC000178EE981FA81FFABEEAB81E0848302A519
:103BD00013A524A535A521960CAF1DAF2EAF3FAF81
:103BE000219708AD19AD2AAD3BAD01151105210591
:103BF000310509F474C1013011052105310509F4BD
:103C000070C0EEA9FFA9828D938DA48DB58D08ADEE
:103C100019AD2AAD3BAD081719072A073B0708F075
:103C200060C018012901B201A1018EA99FA90E94BB
:103C30001C124B015C0181149104A104B10409F42C
:103C40003EC121E082169104A104B10409F449C0E7
:103C50003FEF83169306A306B30609F45FC2EEA9ED
:103C6000FFA9828D938DA48DB58D281639064A063D
:103C70005B06B8F500E010E09801B201A101CF01A8
:103C80000E94BD13009709F069CFEEA9FFA98685B0
:103C90009785A089B1898F3FFFEF9F07AF07BF07C7
:103CA00059F00196A11DB11DEEA9FFA9868797873E
:103CB000A08BB18B01E00583EEA9FFA9828D938DC6
:103CC000A48DB58D88169906AA06BB0608F0F7C024
:103CD0001401250112E0211631044104510408F0B9
:103CE000A2CF52E0C52ED12CEECEE981FA81962DDD
:103CF000872D42A553A564A575A5D7015A964D9366
:103D00005D936D937C935D975E969C935E975F96B3
:103D10008C935F970DA914960C93D30154968D91B3
:103D20009C91B0E0A0E09C0111270027D3015A9696
:103D30004D915C9170E060E0402B512B622B732B16
:103D4000D7011E964D935D936D937C935197D3014C
:103D50005C964D915D916D917C915F97D7011A961C
:103D60004D935D936D937C931D9716961D921D92B6
:103D70001D921C9219978FEF15968C931597569656
:103D80001D921D921D921C9259971196FC93EE93D1
:103D90008681978113969C938E93129794CE8D88EB
:103DA0009E88AF88B88CD401FE017B968D9181935B
:103DB000E017F107D9F78EA180FF2EC0F40113861A
:103DC000188E1F8A01E010E00CC0CE0101960E94FF
:103DD0004C170097B1F40F5F1F4F0436110509F41B
:103DE000B3CE9801A501BE01655E7F4FC4010E945C
:103DF000AE1A70E060E0CE0101960E94C5120097F5
:103E000021F38430910509F0A9CE8EA1D4011B962F
:103E10008C93B88EAF8A8EA181FFC9C0F5018081D5
:103E20009181892B09F477C1329630E020E02F5F31
:103E30003F4F81919191892BD1F7275E3F4FA5ECA0
:103E4000BEE40E945D4E5C01B694A794B694A7941C
:103E500070E060E0CE0101960E94C512009709F063
:103E60007DCE912C812C10E000E00DC08823D9F08C
:103E700010E000E061E070E0CE0101960E94E515DF
:103E8000009709F06BCE4F85588969897A898981B5
:103E90009A810E945311009709F060CEEB89FC894A
:103EA0008081853E19F70115110511F48D809E80E2
:103EB000C80101968A159B0579F18C01DBCF098138
:103EC0001A811FAB0EAB88AD99ADAAADBBAD019702
:103ED000A109B109F80182879387A487B587219644
:103EE0004CAD5DAD6EAD7FAD21978EA99FA90E94AF
:103EF0005311009709F032CEFCADF11144C09B89FB
:103F00008C89E981FA81F5CE94E0C92ED12CDBCDE4
:103F100038E0C32ED12CD7CDAA94AB2809F04BC0E2
:103F20004F85588969897A8989819A810E945311BC
:103F3000009709F013CEAB89BC899D01CD01809615
:103F4000FD0111928E179F07E1F7ED89FE89AF0100
:103F5000455F5F4FBF01FB018191BF01F901819373
:103F60009F0146175707B9F7ED89FE898385887148
:103F70001C968C93E981FA8181E08483FDA9F86025
:103F8000FDAB6B887C88D3011B961C920E946B2929
:103F9000F30166877787808B918BE981FA8181E0D5
:103FA00084830DA900620DAB9B898C89A2CEAA24C3
:103FB000A394B12C4DCFB401CE0101960E94C5123D
:103FC000009709F0CBCDED89FE899F01255F3F4F1A
:103FD000312C30FA379437F88191380E2E173F077D
:103FE000C1F7FFE06F2E7724739444244A94542C35
:103FF00019AF08AF4F85588969897A8989819A8173
:104000000E945311009709F0A9CD28ACAB89BC8957
:104010008F88988C1D963C921D971B966C921B97CF
:104020001C961C921C975B961C921E925A97022D0E
:104030000150110B98011DE0129FC001139F900DBC
:104040001124E1E030E020E050E040E019C06D30A4
:1040500071050CF040C067537E4FFB018081FD016C
:10406000E80FF11D518240824E5F5F4F2FEF3FEF0F
:104070004D30510524F5FA01E753FE4FE081C501AB
:10408000BD016E0F711D7FAB6EABBA016F5F7F4FCD
:104090002F3F3207C9F15C01FFEFAF1ABF0A880F4B
:1040A000991F880D991DFC0120813181EEA9FFA97E
:1040B000318320832115310551F2AB01D9CF2F3F38
:1040C0003F4F49F0AA0CBB1CA80CB91CF50180811C
:1040D0009181892B11F4689426F82C92E981FA8158
:1040E000748270E060E0CE0101960E94E5150097B1
:1040F00009F034CD08AD19AD0150110919AF08AF61
:10410000012B09F077CF0CCFEEA9FFA931832083D3
:10411000AB015C01ADCF30E020E08FCECC24C39466
:10412000D12CD1CC2F923F924F925F926F927F927F
:104130008F929F92AF92BF92CF92DF92EF92FF92B7
:104140000F931F93CF93DF93EC014B015A01690149
:10415000F90111821082E881F981309751F0808154
:10416000882339F02A813B81868197812817390776
:10417000B9F029E0E22EF12CC701DF91CF911F9118
:104180000F91FF90EF90DF90CF90BF90AF909F90F6
:104190008F907F906F905F904F903F902F900895F9
:1041A000CF010E9410127C01892B31F78C8187FD91
:1041B0002CC180FF26C18E819F81A885B9854A8543
:1041C0005B856C857D85481B590B6A0B7B0B8501D4
:1041D00030E020E0401751076207730708F4DEC0A3
:1041E000A114B10449F2E881F981AC01BD0151701B
:1041F00066277727452B462B472B09F05AC03D8170
:104200002281321708F09AC06A897B898C899D893E
:104210009B01AC012250310941095109828D938DD6
:10422000A48DB58D0297A109B109281739074A074E
:104230005B0708F0EEC01281A12FB0E00E946C4E27
:1042400046A057A060A471A4460E571E681E791E92
:10425000411451046104710409F4DBC08D81480EDE
:10426000511C611C711C1501232C3324269421142C
:10427000310409F4BBC090E0AC01420D531D212F65
:1042800030E02417350718F41901281A390A122DBD
:10429000022DA3019201B40181810E942111892B79
:1042A00009F483C08C8180688C83EE24E394F12C24
:1042B00063CF4E885F88688C798C9170212C42E0A6
:1042C000342E281A390AA214B30408F41501B301D4
:1042D000A201CF010E945311892B21F78E819F816A
:1042E000A885B9859170AA27BB27FC01BE96888155
:1042F0009981E80FF91FD40191012E0F3F1F819181
:104300008D932E173F07D9F78E819F81A885B98598
:10431000820C931C820D931DA11DB11D8E839F8362
:10432000A887B987F60120813181220D331D3183A1
:104330002083A218B30809F056CF1ECF892B8A2BF1
:104340008B2B71F14A895B896C897D8942305105DB
:104350006105710508F45DC0828D938DA48DB58DC6
:10436000481759076A077B0708F053C0CF010E941E
:104370001C12623071058105910508F44AC06F3F37
:10438000FFEF7F078F079F0709F48CCF6A8B7B8B2A
:104390008C8B9D8B1D82E881F9813ACF5A0120CF09
:1043A0006E857F8588899989E4CF28813981F901D3
:1043B0008481882381F082A593A5A4A5B5A584193D
:1043C0009509A609B709A10170E060E08417950777
:1043D000A607B70728F18D81180F1D83322C2224E0
:1043E000330C8E819F81A885B98592CF4E8A5F8AD2
:1043F000688E798E8F5F8D838E819F81A885B98528
:104400005CCF87E0E82EF12CB7CE92E0E92EF12CBC
:10441000B3CE8C8180688C83E2E0EE2EF12CACCEA2
:10442000BE96982F8827990FD401A80FB91F225D37
:104430003D4F81918D932E173F07D9F7CCCF2F9207
:104440003F924F925F926F927F928F929F92AF9224
:10445000BF92CF92DF92EF92FF920F931F93CF9371
:10446000DF93EC017B014A016901F901118210829D
:10447000E881F981309751F08081882339F02A81D1
:104480003B818681978128173907B9F029E0A22E50
:10449000B12CC501DF91CF911F910F91FF90EF904B
:1044A000DF90CF90BF90AF909F908F907F906F9054
:1044B0005F904F903F902F900895CF010E9410126F
:1044C0005C01892B31F72C8127FD60C121FF23C1BD
:1044D0004A855B856C857D858E819F81A885B985A0
:1044E0002A013B01480C591C611C711C44165506DD
:1044F0006606770608F4E2C08114910409F4DEC070
:10450000E881F981AC01BD01517066277727452B01
:10451000462B472B09F088C03D812281321718F1C4
:10452000892B8A2B8B2B09F01AC16E857F85888990
:104530009989611571058105910509F440C16130C2
:1045400071058105910509F457C16F3FFFEF7F07A2
:104550008F079F0709F461C06A8B7B8B8C8B9D8BC7
:104560001D82E881F98142A553A564A575A58E89B0
:104570009F89A88DB98D481759076A077B0709F4E9
:10458000BEC02A893B894C895D8922503109410985
:104590005109828D938DA48DB58D0297A109B10922
:1045A000281739074A075B0708F026C11281A12F97
:1045B000B0E00E946C4E46A057A060A471A4460EC5
:1045C000571E681E791E411451046104710409F4D8
:1045D00013C12D81420E511C611C711C1401232C2E
:1045E000332426942114310409F474C030E0A90165
:1045F000420D531D812F90E08417950718F41C017C
:10460000221A330A122D022DA3019201B7018181D2
:104610000E942911892B09F482C08C8180688C83C7
:10462000AA24A394B12C35CF4E885F88688C798CEE
:104630009170212C42E0342E281A390A82149304F6
:1046400008F41401B301A201CF010E945311892B78
:1046500021F7F7018E819F81A885B9859170AA27DE
:10466000BB27DC019E9688819981A80FB91FE20CB7
:10467000F31C81918D93EE16FF06D9F78E819F81F1
:10468000A885B985E881F98121E02483820D931DF5
:10469000A11DB11D8E839F83A887B987F601208154
:1046A0003181220D331D318320838218930809F054
:1046B00027CF4A855B856C857D852C8148175907F6
:1046C0006A077B0720F48A879B87AC87BD872062B7
:1046D0002C83DFCE8E819F81A885B9854A855B8535
:1046E0006C857D8584179507A607B70708F052C02B
:1046F0004E8A5F8A688E798E2F5F2D8399CF40E036
:1047000050E0BA01CF010E945311892B09F085CFE7
:10471000E881F98136CF87E0A82EB12CBACEE881A6
:10472000F98182A593A5A4A5B5A584199509A60923
:10473000B709A10170E060E084179507A607B707E5
:1047400008F448C08D81180F1D83322C2224330CAD
:104750008E819F81A885B985E20CF31C97CF4A8989
:104760005B896C897D89CF010E94B3146115710545
:104770008105910509F0E3CE4A855B856C857D85D1
:104780002C818E819F81A885B98598CF92E0A92E32
:10479000B12C7FCE40E050E0BA01CF010E9453110E
:1047A000892B09F03ACFE881F98142A653A664A685
:1047B00075A62D818E819F81A885B98599CF40E00E
:1047C00050E0BA01CF010E94B3146E877F87888BB7
:1047D000998BCCCF982F8827990FD701A80FB91F95
:1047E000BE969D013E5F8D9181932A173B07D9F7B5
:1047F000E881F9811482A6CF8C8180688C83E2E005
:10480000AE2EB12C46CE0F931F93CF93DF93DC01D6
:10481000ED91FC911197309759F02081222341F0BE
:1048200012964D915C91268137814217530739F0DA
:1048300089E090E0DF91CF911F910F910895EC01F5
:10484000CF010E9410120097A9F72C8125FFF2CF0B
:104850004A8D5B8D6C8D7D8D888199810E9453116D
:10486000009741F70E8D1F8DF80183858062838745
:104870008A859B85AC85BD85848F958FA68FB78FE4
:104880008E859F85A889B989938F828FB58BA48BDC
:104890000E946B29D80156966D937D938D939C93BE
:1048A00059978C818F7D8C830990D881C02D81E0B0
:1048B0008C8340E050E0BA01CE010E945311009772
:1048C00009F0B8CF8881833071F050E040E060E0BB
:1048D00089810E94311131E020E0892B09F430E018
:1048E000832F922FA7CF8D81882379F31AA61BA639
:1048F0001CA61DA6BE01625D7F4FFB01CE01825D3D
:104900009D4F11928E179F07E1F785E59AEAFE0108
:10491000E45DFD4F9183808382E592E5A1E6B1E4F9
:104920008EA79FA7A8ABB9AB82E792E7A1E4B1E657
:104930007A9780839183A283B3838E859F85A8898C
:10494000B989349680839183A283B3838A859B85BA
:10495000AC85BD85349680839183A283B3832A89F5
:104960003B894C895D8901E089810E9429111D8262
:10497000ACCFCF93DF93EC010E940324009711F496
:1049800019821882DF91CF9108952F923F924F9212
:104990005F926F927F928F929F92AF92BF92CF92CF
:1049A000DF92EF92FF920F931F93CF93DF9300D08C
:1049B00000D000D0CDB7DEB79E838D836A017B0126
:1049C000DC01ED91FC911197309759F0808188239B
:1049D00041F012962D913C918681978128173907D5
:1049E000E1F009E010E0C80126960FB6F894DEBFAA
:1049F0000FBECDBFDF91CF911F910F91FF90EF9030
:104A0000DF90CF90BF90AF909F908F907F906F90EE
:104A10005F904F903F902F900895CF010E94101209
:104A20008C01892B01F7ED81FE81848187FDCCC04B
:104A300042855385648575854C155D056E057F053A
:104A400020F481FD02C06A017B01AD81BE81169612
:104A50004D905D906D907C901997FD0116821782A4
:104A6000108611868FEF8583C114D104E104F1040F
:104A700009F4B9CF20803180D10112968C90912C0D
:104A8000B12CA12C99E0880C991CAA1CBB1C9A95EE
:104A9000D1F7411451046104710409F47EC0B1E0FE
:104AA0004B1A510861087108C701B60161507109BC
:104AB00081099109A50194010E941C4E29833A8322
:104AC0004B835C83C301B201A50194010E941C4E7B
:104AD00089819A81AB81BC8182179307A407B507AE
:104AE00008F45BC088279927DC0188199909AA096D
:104AF000BB0984219521A621B721ED81FE81868302
:104B00009783A087B187C81AD90AEA0AFB0A4289A3
:104B1000538964897589411551056105710509F04D
:104B200056C0ED81FE8186809780A084B184D50136
:104B3000C4019170AA27BB27ED81FE81892B8A2BA6
:104B40008B2B91F086899789A08DB18D841795075D
:104B5000A607B70749F0AD81BE8156964D935D9388
:104B60006D937C935997FD0182859385A485B585C6
:104B700088159905AA05BB0508F035CFAD81BE8122
:104B80001A968D929D92AD92BC921D9714968C911F
:104B90001497806214968C9326CFAD81BE811E96A9
:104BA0004D915D916D917C91519741155105610534
:104BB000710509F4D5C0AD81BE8152964D935D93C8
:104BC0006D937C935597A7CF02E010E00CCF8C1427
:104BD0009D04AE04BF0408F00AC1AD81BE81ED9111
:104BE000FC919F01ED81FE81848181FD1AC04230DC
:104BF00051056105710568F0D9015A964D905D9097
:104C00006D907C905D97441555056605770508F411
:104C1000A1C08068AD81BE8114968C9302E010E043
:104C2000E2CEC9010E94B314AB01BC01411551058C
:104C30006105710509F4D2C04F3FBFEF5B076B07F9
:104C40007B0709F4C3C0423051056105710508F4C2
:104C5000A1C0ED81FE8120813181F901828D938D8A
:104C6000A48DB58D481759076A077B0708F092C0D5
:104C7000ED81FE81428B538B648B758B868197818E
:104C8000A085B185880D991DAA1DBB1D86839783BC
:104C9000A087B187C818D908EA08FB088C149D04BE
:104CA000AE04BF0408F49ECF46015701880E991E3A
:104CB000AA1EBB1EAD81BE8116968D929D92AD92AD
:104CC000BC9219972601370189E07694679457942E
:104CD00047948A95D1F715964C92B1E0DB22EE24E9
:104CE000FF24CD28CE28CF2809F461C0AD81BE8134
:104CF000ED91FC919A01AB01225031094109510912
:104D0000828D938DA48DB58D0297A109B1092817C5
:104D100039074A075B0708F042C0A281B0E00E9451
:104D20006C4EC6A0D7A0E0A4F1A4AB01BC014C0D11
:104D30005D1D6E1D7F1D411551056105710579F1E0
:104D4000440D551D661D771D4394AD81BE8115969A
:104D50004C92EDCEC9010E941C12AB01BC016CCF7C
:104D600040E050E0BA01C1010E94B314AB01BC01A4
:104D7000413051056105710591F04F3FFFEF5F072D
:104D80006F077F07C1F0ED81FE8146875787608BF3
:104D9000718B11CFAD81BE8114968C913ACFED818C
:104DA000FE8184818068848302E010E01CCE40E0B4
:104DB00050E0BA01BCCEAD81BE8114968C9114979F
:104DC000806814968C9301E010E00DCEED81FE8199
:104DD00084818068848301E010E005CEED81FE814E
:104DE00086819781A085B185750164015DCFED81D4
:104DF000FE8186819781A085B18556CF0F931F9341
:104E0000CF93DF93CDB7DEB72E970FB6F894DEBF02
:104E10000FBECDBF8C017E876D8740E0BC01CE0107
:104E20000D960E94401B009759F02E960FB6F894ED
:104E3000DEBF0FBECDBFDF91CF911F910F910895BF
:104E4000CE010196D80155969C938E93549781E399
:104E500096E057969C938E9356976D857E85C801F4
:104E60000E946418009761F5D8015296ED91FC916B
:104E70003097B9F0838584FF27C084899589B0E095
:104E8000A0E0DC0199278827428D538D70E060E017
:104E9000842B952BA62BB72BF80186839783A087AD
:104EA000B187D801ED91FC91119786819781139676
:104EB0009C938E93129770E060E0C8010E94C51227
:104EC0008430910509F0B1CF85E090E0AECF4F92EC
:104ED0005F926F927F928F929F92AF92BF92CF928A
:104EE000DF92EF92FF920F931F93CF93DF93CDB793
:104EF000DEB72C970FB6F894DEBF0FBECDBFDC0136
:104F0000ED91FC911197309759F02081222341F0C7
:104F100012964D915C912681378142175307D9F043
:104F200089E0E82EF12CC7012C960FB6F894DEBF6D
:104F30000FBECDBFDF91CF911F910F91FF90EF90EA
:104F4000DF90CF90BF90AF909F908F907F906F90A9
:104F50005F904F9008956B018C01CF010E94101259
:104F60007C01892B01F7CE010196F801958B848B8A
:104F700081E396E0978B868BC114D10409F48AC033
:104F800088248A9499249A9484E090E02DE0522E0B
:104F900036EDA32E31E0B32E0CC02F3091F19924C1
:104FA0009A9470E060E0C8010E94E515009709F04E
:104FB00078C0F8014685578560897189411551058A
:104FC0006105710509F4D4C0D8018D919C910E94AE
:104FD0005311009709F065C0D8015296ED91FC91EC
:104FE00053978081882309F468C0853EC1F28E32D0
:104FF000B1F29385292F2F7393FDCFCF2F3009F076
:10500000CEC086FF44C08584982EE89496F8D801D7
:1050100014968D919C91159759969C938E935897C1
:1050200085858811BCCFD80156966D907C90808183
:105030008F738150990B589E9001599E300D112409
:105040008AEC91E061E041E050E015C0203231058A
:105050000CF0A5CFD901AA0FBB1FA60DB71D6D93EC
:105060007C93AB012F5F3F4FA816B90609F487C0A8
:10507000DC016D91CD01DF01A60FB11D6D917C9119
:105080004115510519F76F3F7F4F71F388CF891193
:1050900086CFC6CF70E060E0C8010E94C5127C01D7
:1050A00042CFD8011E961D921D921D921C925197BF
:1050B0008430910541F07C0136CF1E961D921D92E1
:1050C0001D921C925197F60139964F01F4011082FE
:1050D000D60156968D909C9081149104D1F1F801DF
:1050E00086859785A089B189892B8A2B8B2B79F1AD
:1050F000808D918D019659F1D8015696ED91FC91D4
:105100002F01B2E04B0E511C808191810097F9F084
:105110003401B12CA12C15C0F601208D318D215008
:105120003109A216B3069CF4FFEFAF1ABF0AD301F0
:105130008D933D01F201819191912F01009709F426
:10514000C7C070E060E00E947029009729F7D40181
:105150001C9270E060E0C8010E94E5158430910562
:1051600009F0A9CFF80116861786108A118ADBCEBE
:10517000009709F096CFC60109964C01A7CF808110
:1051800086FF0BC0203231050CF009CF220F331FF0
:10519000260D371DF901118210829A9402CF9110C9
:1051A00010C0DF0111969F01255F3F4F01C08D9117
:1051B00090FA979497F8980EA217B307C1F798142E
:1051C00039F08FEF9FEFD80159969C938E935897A3
:1051D000460129E0820E911C9401D8011E964D9142
:1051E0005D916D917C915197452B462B472B09F48E
:1051F0006DCF9485BF014601B1E18B0E911C892FC3
:105200008870B82EDB018D91BD018032C1F08530F0
:1052100009F45CC0BB2029F04FEB480F4A3108F479
:10522000805EA9014F5F5F4FD9018C93841695066C
:1052300039F09A01DB018D91BD01803241F74901BE
:105240008085803241F194012F5F3F4F8EE2D4017F
:105250008C93AF01485F5F4FB4E08B0E911C90714F
:10526000DA018D91AD018032A9F0992329F06FEB1D
:10527000680F6A3108F4805EB9016F5F7F4FD90112
:105280008C936815790539F09B01DA018D91AD0198
:10529000803259F749018385D60118968C93189767
:1052A000448D558D668D778D4D935D936D937C9375
:1052B0001397808D918D15969C938E931497868964
:1052C000978917969C938E93169700CF85EEA9CF5A
:1052D0008A0C9B1C3CCF60EC73EB89E494E308954B
:1052E00080389105F0F0672BB1F423E735E050E00A
:1052F00040E007C04F5F5F4F2E5F3F4F4038510582
:1053000071F0F901659174918617970799F7CA01B1
:1053100080589F4F08958F3F910521F018F090E03D
:1053200080E00895FC01EE0FFF1FED58FB4F8591C3
:105330009491089523E933E0F90145915491452B67
:1053400041F1F901459154918417950711F125E92F
:1053500033E050E040E009C0F90165917491F90132
:1053600032966817790741F09F014F5F5F4FF9014F
:1053700065917491672B81F7F90125913491232B65
:1053800039F0FA01EE0FFF1FED54FE4F8591949115
:10539000089550E040E0F0CF80B186958170089587
:1053A000882381F082B18D6282B916988DE681B929
:1053B0008FE39CE90197F1F700C0000080B186956A
:1053C000817008951098169A81B1827D81B9F0CFCD
:1053D0001298129A089590E027E030E006C0139AE0
:1053E0001298129A2150310978F0AC01022E02C0B5
:1053F000559547950A94E2F740FDF1CF139812981E
:10540000129A2150310988F7089527E030E080E0B2
:1054100061E070E01298129A049B07C0AB01022E63
:1054200001C0440F0A94EAF7842B2150310990F708
:105430000895159886E00E94EB29159A089515980D
:1054400084E00E94EB29159A0895CF93C82F1598F0
:1054500081E00E94EB298C2F0E94EB29159ACF91B5
:105460000895159885E00E94EB2927E030E080E060
:1054700061E070E01298129A049B07C0AB01022E03
:1054800001C0440F0A94EAF7842B2150310990F7A8
:10549000159A0895CF93DF93C8EED3E002C020970A
:1054A00089F021970E94312AEFE3FCE93197F1F767
:1054B00000C000008111F3CF81E0CD2B19F0DF9106
:1054C000CF91089580E0DF91CF9108950E944A2AFC
:1054D000159886E00E94EB29159A159887EC0E9492
:1054E000EB29159A0C944A2A1F93CF93DF93EB0173
:1054F000182F159A0E944A2A159886E00E94EB29D7
:10550000159A159882E00E94EB29812F0E94EB29C1
:105510008D2F0E94EB298C2FDF91CF911F910C943E
:10552000EB290C944A2A0F931F93CF93DF930E9489
:10553000312A082F81E397E00E94230A802F0E94DE
:105540004B0A8DE297E00E94230A10E0C7E0D0E00A
:1055500006C08BE297E00E94230A219778F0980119
:105560000C2E02C0359527950A94E2F720FDF1CF65
:1055700089E297E00E94230A219788F7DF91CF9173
:105580001F910F910C948B0A81E00E94D0291598ED
:105590008BEA0E94EB2980E00E94EB2980E00E94C8
:1055A000EB2980E00E94EB290E94052A159A805180
:1055B000873068F4E82FF0E0EE0FFF1FEE0FFF1FBB
:1055C000EA52FE4F6081718182819381089560E08B
:1055D00070E0CB010895682F70E030E020E080E0BB
:1055E000AB01022E02C0559547950A94E2F7880F49
:1055F00040FD81602F5F3F4F2830310589F70895C6
:105600007F928F929F92AF92BF92CF92DF92EF9252
:10561000FF920F931F93CF93DF93CDB7DEB7A3977E
:105620000FB6F894DEBF0FBECDBF8C014A015B01FF
:105630007E2C0E94340A87E297E00E94230A60E0F1
:1056400070E0CB010E945F0A85E297E00E94230A86
:1056500060E070E0CB010E945F0A0E948B0A4AE082
:10566000B801CE0101960E94361D7C01892B09F0FC
:1056700096C081E00E94D029159883E00E94EB2912
:1056800080E00E94EB2980E00E94EB2980E00E94EC
:10569000EB291AA219A281149104A104B10409F4FE
:1056A0003FC0C12CD12C760121C08BA39E012F5D60
:1056B0003F4F41E050E0BE016D5D7F4FCE0101964E
:1056C0000E941F228FEFC81AD80AE80AF80AD701E9
:1056D000C6019F70AA27BB27892B8A2B8B2B09F425
:1056E0004AC08C149D04AE04BF04D1F00E94052A68
:1056F0007110DBCF682F70E090E030E020E0AB016C
:10570000022E02C0559547950A94E2F7990F40FD85
:1057100091602F5F3F4F2830310589F79BA3C6CF9B
:10572000159A80E00E94D0298BEE96E00E94230A11
:10573000CE0101960E94B92485EE96E00E94230ACC
:10574000C8010E94340A89ED96E00E94230AA396BC
:105750000FB6F894DEBF0FBECDBFDF91CF911F9182
:105760000F91FF90EF90DF90CF90BF90AF909F9000
:105770008F907F9008958DEF96E00E94230AD701C5
:10578000C6012AE0B695A795979587952A95D1F7F2
:105790000E94560A88EF96E00E94230AA2CF8BE06F
:1057A00097E00E94230AC7010E945133C1CF9F9204
:1057B000AF92BF92CF92DF92EF92FF920F931F931F
:1057C000CF93DF93CDB7DEB7A3970FB6F894DEBFC4
:1057D0000FBECDBF8C01A22E0E94340A87ED96E049
:1057E0000E94230A60E070E0CB010E945F0A0E94E1
:1057F0008B0A41E0B801CE0101960E94361D7C0162
:10580000892B09F0B5C081E00E94D0298BEA96E08F
:105810000E94230AA0980E94662A84EA96E00E94C9
:10582000230A1AA219A2B12CC12CD12C76019924D9
:1058300093949E012F5D3F4F41E050E0BE016D5DAE
:105840007F4FCE0101960E94922089A19AA10197D3
:1058500009F04DC0AA2071F1CC2009F441C08BA100
:105860000E94EB292FEFC21AD20AE20AF20AD701EC
:10587000C6019F70AA27BB27892B8A2B8B2BC9F6C1
:1058800086E996E00E94230AD701C6012AE0B69570
:10589000A795979587952A95D1F70E94560A81E991
:1058A00096E00E94230ABB2001F1A09A392D3B19F2
:1058B000B32EBFCF6BA170E020E090E080E0AB01A1
:1058C000082E02C0559547950A94E2F7220F40FD35
:1058D000216001968830910591F72BA3C110BFCFAD
:1058E000C701B6010E94742ABACFA098DFCF0E94E8
:1058F000912A80E00E94D02985E896E00E94230A40
:1059000082E3A09A9FEF29EF30E091502040304091
:10591000E1F700C00000A0989FEF29EF30E0915020
:1059200020403040E1F700C00000815051F7CE0127
:1059300001960E94B9248FE796E00E94230AC801CD
:105940000E94340A83E796E00E94230AA3960FB6CA
:10595000F894DEBF0FBECDBFDF91CF911F910F91A5
:10596000FF90EF90DF90CF90BF90AF909F90089501
:105970008FEB96E00E94230AC7010E945133D7CFD4
:105980008F929F92AF92BF92EF920F931F93CF93FC
:10599000DF93EC010E94C42A4B015C0180910E014F
:1059A00090910F01A0911001B09111010297A105F2
:1059B000B10550F08BE897E00E94230AC501B401BD
:1059C0000E945F0A0E948B0AE12C00E010E098011F
:1059D000B501A401CE010E94002BDF91CF911F9150
:1059E0000F91EF90BF90AF909F908F90089520E01F
:1059F00040E050E0BA010C94D72BCF92DF92EF92A7
:105A0000FF92CF9381E00E94D0290E94932A15989B
:105A10008BEA0E94EB2980E00E94EB2980E00E9443
:105A2000EB2980E00E94EB290E94052AC82F159AD5
:105A300080E00E94D0298EE797E00E94230A8C2FF5
:105A40000E944B0A8CE797E00E94230AC43109F4B4
:105A50004EC018F5C03109F440C0C23161F580E78D
:105A600097E00E94230AC12CD12C38E0E32EF12CC0
:105A70000E948B0A83E497E00E94230AC701B601C3
:105A80000E945F0A8DE397E00E94230ACF91FF9066
:105A9000EF90DF90CF900C948B0AC531A1F0C63106
:105AA00051F48AE597E00E94230AC12CD12C80E8AA
:105AB000E82EF12CDDCF8CE497E00E94230AC12C64
:105AC000D12C7601D5CF81E697E00E94230AC12C24
:105AD000D12C90E4E92EF12CCBCF86E797E00E9401
