:100000000C944E0A0C946B0A0C946B0A0C943A44B0
:100010000C946B0A0C941E4D0C946C4C0C94454C37
:100020000C94A64C0C946B0A0C94A90A0C942C4DBD
:100030000C946B0A0C94F80A0C946B0A0C946B0ADF
:100040000C946B0A0C946B0A0C946B0A0C946B0A5C
:100050000C946B0A0C946B0A0C946B0A6364696EC3
:100060006F70737578585B0045464765666700207A
:100070002B2D2E3031323334353637383968000D78
:100080000A0074696D656F7574202E2E2E204650FF
:100090004741206C6F6164206661696C65640D0A7C
:1000A000007761697420636F6E66202E2E2E0D0A14
:1000B000000D0A002E0A0D002072657300636F7236
:1000C0006520726573657420000D0A002E0A0D000C
:1000D00020726573007265736574200020633020A0
:1000E0000020633120002072302000207231200077
:1000F0002E2E2E0020726573002E2E2E002072658B
:1001000073002E2E2E0020726573002E2E2E0020DE
:1001100063726573002E2E2E002063726573002EAD
:100120002E2E0020726573002A2A20496E697420E1
:10013000646F6E65202A2A0D0A0052617720566F7F
:100140006C746167653A20002A2A20506F776572C7
:10015000206F6E20646F6E65202A2A0D0A002A2AFD
:1001600020506F77657220696E697420646F6E65C8
:100170002028706F776572206F666629202A2A0D05
:100180000A002A2A20554152542D496E6974206470
:100190006F6E65202A2A0D0A00206661696C65640D
:1001A0000D0A00206F6B0D0A002063616C632063F1
:1001B00072633A2000554D413A206D6D63206372A1
:1001C000633A2000206661696C207772697465204B
:1001D000636D640D0A0052656164792C2072657448
:1001E000726965732072656D61696E696E673A2028
:1001F000006D6D635F696E6974204572726F720085
:100200004361726454797065203A00200020002018
:100210000020004F4352203A002000200020002000
:10022000004F435231203A00205265747269657361
:100230002072656D61696E696E673A20005265745F
:1002400075726E3A2000554D413A2073656E6420F8
:10025000636D640D0A00203A20006D6D6320636DAC
:10026000643A20004100420043004400450046003B
:100270004700480049004A004B004C004D004E002A
:100280004F005000510052005300540055005600DA
:100290005700580059005A002100E0FFE1FFE5FF38
:1002A000E2FFE3FFC000C100C200C300C400C500FC
:1002B000C600C700C800C900CA00CB00CC00CD00F2
:1002C000CE00CF00D000D100D200D300D400D500A2
:1002D000D600D800D900DA00DB00DC00DD00DE004B
:1002E0007801000102010401060108010A010C0164
:1002F0000E01100112011401160118011A011C014E
:100300001E01200122012401260128012A012C01BD
:100310002E01300132013401360139013B013D012A
:100320003F0141014301450147014A014C014E0192
:10033000500152015401560158015A015C015E01FD
:10034000600162016401660168016A016C016E016D
:10035000700172017401760179017B017D019101C7
:1003600091039203930394039503960397039803D1
:1003700099039A039B039C039D039E039F03A00381
:10038000A103A303A403A503A603A703A803A9032A
:10039000AA0310041104120413041404150416040F
:1003A0001704180419041A041B041C041D041E0459
:1003B0001F04200421042204230424042504260409
:1003C0002704280429042A042B042C042D042E04B9
:1003D0002F040104020403040404050406040704B2
:1003E000080409040A040B040C040E040F04602121
:1003F00061216221632164216521662167216821D1
:1004000069216A216B216C216D216E216F2121FFF1
:1004100022FF23FF24FF25FF26FF27FF28FF29FFB8
:100420002AFF2BFF2CFF2DFF2EFF2FFF30FF31FF68
:1004300032FF33FF34FF35FF36FF37FF38FF39FF18
:100440003AFF00006100620063006400650066001E
:100450006700680069006A006B006C006D006E0048
:100460006F007000710072007300740075007600F8
:100470007700780079007A00A100A200A300A5000F
:10048000AC00AF00E000E100E200E300E400E500C2
:10049000E600E700E800E900EA00EB00EC00ED0010
:1004A000EE00EF00F000F100F200F300F400F500C0
:1004B000F600F800F900FA00FB00FC00FD00FE0069
:1004C000FF00010103010501070109010B010D01F5
:1004D0000F01110113011501170119011B011D0164
:1004E0001F01210123012501270129012B012D01D4
:1004F0002F0131013301350137013A013C013E0141
:10050000400142014401460148014B014D014F01A8
:10051000510153015501570159015B015D015F0113
:10052000610163016501670169016B016D016F0183
:1005300071017301750177017A017C017E019201DD
:10054000B103B203B303B403B503B603B703B803EF
:10055000B903BA03BB03BC03BD03BE03BF03C0039F
:10056000C103C303C403C503C603C703C803C90348
:10057000CA0330043104320433043404350436042D
:100580003704380439043A043B043C043D043E0477
:100590003F04400441044204430444044504460427
:1005A0004704480449044A044B044C044D044E04D7
:1005B0004F04510452045304540455045604570480
:1005C000580459045A045B045C045E045F047021FF
:1005D000712172217321742175217621772178216F
:1005E00079217A217B217C217D217E217F2141FF80
:1005F00042FF43FF44FF45FF46FF47FF48FF49FFD7
:100600004AFF4BFF4CFF4DFF4EFF4FFF50FF51FF86
:1006100052FF53FF54FF55FF56FF57FF58FF59FF36
:100620005AFF0000C700FC00E900E200E400E0001F
:10063000E500E700EA00EB00E800EF00EE00EC0068
:10064000C400C500C900E600C600F400F600F200D0
:10065000FB00F900FF00D600DC00F800A300D80082
:10066000D7009201E100ED00F300FA00F100D100A3
:10067000AA00BA00BF00AE00AC00BD00BC00A100E3
:10068000AB00BB0091259225932502252425C100AE
:10069000C200C000A9006325512557255025A2009E
:1006A000A5001025142534252C251C2500253C25C6
:1006B000E300C3005A255425692566256025502589
:1006C0006C25A400F000D000CA00CB00C800AC200C
:1006D000CD00CE00CF0018250C2588258425C60026
:1006E000CC008025D300DF00D400D200F500D50077
:1006F000B500FE00DE00DA00DB00D900FD00DD0001
:10070000AF00B400AD00B1001720BE00B600A700D6
:10071000F700B800B000A800B700B900B300B200FD
:10072000A025A00020666C61736865642E0A0D0028
:1007300046696C65200020646F6E65202E2E2E0A9F
:100740000D00204B420D00462D77726974696E676B
:1007500020203078006572726F720A0D00646F6E2F
:10076000650A0D00464C6173683A206572617369D1
:100770006E67202E2E2E20004572726F723A205521
:100780006E61626C6520746F20726561643A20004E
:10079000200020637265617465642E0A0D0046694D
:1007A0006C6520000A0D646F6E65202E2E2E0A0DDA
:1007B00000204B420D00462D72656164696E672012
:1007C000203078004572726F723A20556E61626C0B
:1007D0006520746F206372656174653A20002000A3
:1007E0002000204B420D00462D636865636B696EE7
:1007F00067202030780030003100203A200041533B
:100800002D5374617475733A200041532D446973FC
:1008100061626C65640020427974650053697A6591
:100820003A203078002A2A20756E6B6E6F776E2022
:100830002A2A00617373756D65204D6963726F6E4E
:100840000057323551313238004550435336340069
:1008500045504353513332004550435331360045E0
:100860005043533400455043533100200053696CCA
:1008700069636F6E2D49443A2000736B697070652F
:10088000643A206C656E3D3D300D0A006C656E3D2E
:1008900020003E003C004572726F723A20556E6136
:1008A000626C6520746F206F70656E3A20002D2D8C
:1008B0002D2D2D2D2D2D2D2D2D2D0A0D00202D2DE5
:1008C00020002A2A2059482D465047412D5368655B
:1008D0006C6C202A2A0D0A00434D443A206361744F
:1008E0000D0A00434D443A206865780D0A00202A1D
:1008F0002000202A2000506172616D657465723A93
:100900002000202A2000506172616D657465723A82
:100910002000506172616D657465723A2000202D6F
:100920002D20006D697373696E6720706172616D4F
:10093000657465723A20002000506172616D6574C3
:1009400065723A20002000436F6D6D616E643A203D
:100950000000D60C3832CC0C00C60C3432BC0C0073
:10096000B70CF93DAB0C01A50C7D32910C018B0C41
:10097000A9327B0C01740CC13C660C00630CF8328C
:100980004D0C01490C2A333F0C013B0CFB322E0C61
:10099000012B0C23351C0C01180C9A0E090C0104B8
:1009A0000CDE0EF00B02E80B6A30CA0B01C10BEB38
:1009B00030A20B00990B0731880B00810BF1306BD3
:1009C0000B01630BFA414D0B03460B27402A0B0228
:1009D000220B1A41070B02000B3E3FEB0A01E50A0E
:1009E0005B4FD90A00D30A1A50CD0A01C60A8150BA
:1009F000BA0A02B40AB54FA60A019F0A804F8E0AAE
:100A0000028B0A9942760A00720A1643680A016448
:100A10000A18434E0A004A0A3E43380A0000000002
:100A200000000000000000000000000000000000C6
:100A3000000000000000000073686F777320696E8B
:100A4000666F206F6E206F7364006F7364006A6F4F
:100A5000792076616C7565202874657374206F6EDB
:100A60006C7929006A6F7900726573657420707300
:100A7000320070733200736420726177696D616750
:100A80006566696C65207479706500736400632D18
:100A900063617274203531326B2D536C6F74006357
:100AA0002D6361727400632D626974206269742021
:100AB00076616C00632D62697400632D73617665E5
:100AC000206D6F646500632D7361766500632D672B
:100AD000657400632D67657400632D73657420561B
:100AE000616C756500632D73657400662D64756DAA
:100AF00070203531324B2D536C6F74206C656E0055
:100B0000662D64756D7000662D7772697465203589
:100B100031324B2D536C6F742066726F6D66696C49
:100B20006500662D777269746500662D7265616473
:100B3000203531326B2D536C6F74206C656E2074D0
:100B40006F66696C6500662D7265616400662D656F
:100B500072617365203531326B2D536C6F742F6168
:100B60006C6C00662D657261736500436F6E66691B
:100B700067466C61736820706F776572646F776E1B
:100B80000061732D6F666600436F6E666967466C21
:100B900061736820496E666F0061732D67657469C3
:100BA00064007772697465202E7262662066696CD3
:100BB0006520746F20436F6E666967466C61736869
:100BC0000061732D777269746500726561642043FA
:100BD0006F6E666967466C617368206C656E2F6125
:100BE0006C6C2F757365640061732D7265616400B0
:100BF0006372657320636F726572657365746C658B
:100C000076656C006372657300726573207265733C
:100C100065746C6576656C007265730065786563F4
:100C200020626174636866696C6500646F00686562
:100C30007864756D702066696C650068657800730E
:100C4000686F772066696C6500636174006C697316
:100C50007420534443617264204469726563746F05
:100C60007279006C730070757A7A6C6520726F759A
:100C70006E64730070757A7A6C65007761697420B0
:100C800064656C74696D65206D730064656C617971
:100C900000656E61626C6520446562756720547200
:100CA0006163657300747261636500537973746581
:100CB0006D20496E666F00696E666F00706F7765B4
:100CC00072206F666600726573657400746869737C
:100CD00020546578740068656C7000424620667028
:100CE00067612D7368656C6C3A3E20004572726FC7
:100CF000723A20000A0D4156522D5265737461728A
:100D0000740D0A00424620667067612D7368656C39
:100D10006C3A3E20002A2A2A205375736B612D49B4
:100D200049492D424620465047412D5368656C6C19
:100D3000202A2A2A0D0A0046504741204465666150
:100D4000756C7420696E69742D46696C652028691C
:100D50006E69742E74787429206661696C65640DFF
:100D60000A0020667265733D004572726F723A2008
:100D7000556E61626C6520746F206F70656E3A20ED
:100D8000002000203A20004572726F723A20556EA2
:100D900061626C6520746F206F70656E3A20006927
:100DA000202D20696E666F0A006F202D206F706500
:100DB0006E2066696C6520626C6F636B696E670A92
:100DC0000064202D20646561637469766174652018
:100DD00066696C650A0061202D2061637469766123
:100DE00074652066696C650A0053442D46696C651C
:100DF0002064697361626C65640A00534420496E23
:100E0000666F0A005245510A0D0077616974202E01
:100E10002E2E2000204B420D0054462D777269740F
:100E2000696E672020307800204B420D0054462D1B
:100E300072656164696E6720203078002000203A76
:100E40002000465047412D56657273696F6E3A20F7
:100E500000292000556E6B6E6F776E20436F7265B0
:100E6000004D756C7469636F6D70205A3830004F97
:100E70006C6420436F726520776974686F757420A5
:100E80007479706500756E6B6E6F776E00415652A7
:100E90000054657374436F72652000756E6B6E6FDE
:100EA000776E00537061636520496E766164657288
:100EB0007300417263616465200020535445200033
:100EC0005375736B612D4949492F49562D422A00AC
:100ED0002046414C434F4E20005375736B612D49A2
:100EE00049492F49562D422A002054542000537559
:100EF000736B612D4949492F49562D422A002028FC
:100F0000002000465047412D436F7265747970652B
:100F10003A200041544D4547412D56657273696F23
:100F20006E3A2000496E70757420566F6C7461675C
:100F3000653A200072617720496E70757420566F93
:100F40006C746167653A2000756E6B6E6F776E002A
:100F5000574636384B303000574636384B31300024
:100F6000574636384B333000574636384B33304CC3
:100F7000004D6F7573653A20004B6579626F617241
:100F8000643A2000436865636B2050533220446507
:100F900076696365730A0D0020646F6E650A0D0043
:100FA0000A0D756E6B6E6F776E207265713A200058
:100FB000773A2000723A20000A0D7365656B20664F
:100FC00061696C65640A0D000A0D696C6C65676186
:100FD0006C207265713A20000A0D657869742043AF
:100FE0006D640A0D0000000000000000005555551A
:100FF00055555555552A2A2A2A2A2A2A2A141414BC
:10100000141414141400000000000000000000007C
:1010100000000000000000000000000000000000D0
:1010200000000000000000000000000000000000C0
:1010300000000000000000000000000000000000B0
:1010400000000000000000000000000000000000A0
:10105000000000000000C0C0E0781F00FFFF001F7C
:1010600078E0C0C00008081C1C3E3E7F7F7F7F3EAA
:101070003E1C1C08080010187C7C18100000103062
:101080007C7C3010001C1C1C1C1C1C000000001C64
:101090001C1C1C1C1C007C7C3838101000707C72DE
:1010A00072727C7000707070707C72020C3E3E2216
:1010B00022223E3E003E3E3E3E3E3E3E00000000BE
:1010C0000C0C000000000000000000000000000008
:1010D0000000000000000000000000000000000010
:1010E0000000000000000000000000000000000000
:1010F0005F5F0000000003030003030000147F7F14
:10110000147F7F140000242E6B6B3A12004C6A3659
:10111000186C563200307E4F59773A684000000410
:10112000070300000000001C3E6341000000004176
:10113000633E1C0000082A3E1C1C3E2A08000808CA
:101140003E3E080800000080E06000000000080843
:1011500008080808000000006060000000406030DF
:10116000180C060301003E7F594D7F3E0000040627
:101170007F7F00000000426371594F4600002263E8
:1011800049497F3600181C16137F7F10000027671F
:1011900045457D3900003C7E4B4979300000010116
:1011A00071790F070000367F49497F360000064FEE
:1011B00049693F1E000000006666000000000080D4
:1011C000E66600000000080814142222000014142F
:1011D000141414140000222214140808000002033E
:1011E00051590F06003E7F415D551F1E00007E7F56
:1011F00009097F7E00007F7F49497F3600001C3E41
:101200006341414100007F7F41633E1C00007F7FBE
:101210004949414100007F7F0909010100003E7FEB
:1012200041497B7A00007F7F08087F7F00000041F2
:101230007F7F41000000206040407F3F007F7F08AB
:101240001C36634100007F7F40404040007F7F06A6
:101250000C067F7F007F7F060C187F7F00003E7F9B
:1012600041417F3E00007F7F09090F06003E7F411C
:10127000617F7E4000007F7F09197F660000266F36
:101280004D597B32000001017F7F010100003F7F4B
:1012900040407F3F00000F3F70703F0F007F7F3066
:1012A00018307F7F004163361C1C36634101030602
:1012B0007C7C0603016171594D4743410000007F6A
:1012C0007F414100000103060C18306040000041DE
:1012D000417F7F0000080C0603060C080080808018
:1012E000808080800000000003070400000020745C
:1012F00054547C7800007F7F44447C380000387C64
:10130000444444000000387C44447F7F0000387C23
:1013100054545C180000047E7F050500000018BCD2
:10132000A4A4FC7C00007F7F04047C780000000003
:101330003D7D40000000808080FD7D0000007F7FBB
:1013400010386C44000000003F7F4000007C7C0CA3
:10135000180C7C7800007C7C04047C780000387CCD
:1013600044447C380000FCFC24243C180000183C59
:101370002424FCFC00007C7C04040C080000485C75
:10138000545474200000043F7F44440000003C7C1F
:1013900040407C7C00001C3C60603C1C003C7C604D
:1013A00030607C3C00446C3810386C4400001CBC3D
:1013B000E0603C1C00004464745C4C44000008087D
:1013C0003E774141000000007F7F00000000414166
:1013D000773E08080002010103020201007F7F7FBF
:1013E0007F7F7F7F00454550524F4D206E6F7420A8
:1013F00075706461746564202D2077726F6E67204C
:101400004D6F64650A0D00454550524F4D20757073
:1014100064617465642E0A0D00436F6E666967200F
:10142000454550524F4D206F6B0A0D007573652076
:10143000632D7361766520746F20757074646174B8
:101440006520454550524F4D0A0D00203A20004678
:101450005047412D436F6E66696720454550524F96
:101460004D3A20000A0D436172743A2000203A2060
:1014700000465047412D436F6E666967202020204B
:1014800052414D3A20004F7574206F662052616EB4
:1014900067652031362E2E33310A0D0011241FBE10
:1014A000CFEFD0E1DEBFCDBF16E0A0E0B1E0ECEFC2
:1014B000F2EB02C005900D92AC32B107D9F72BE0E8
:1014C000ACE2B6E001C01D92AE3BB207E1F70E946C
:1014D000CA510C947C590C940000F89428E024BD67
:1014E000019761F084B5856084BD8BE987BD8091EB
:1014F0006E00826080936E007894089584B5846055
:1015000084BD8DE387BD80916E00826080936E0004
:10151000789408950F931F938B019C010115110579
:101520002105310589F090E080E0EFE9FFE0319797
:10153000F1F700C000000196AC0170E060E04017D8
:1015400051076207730788F31F910F9108950C9458
:101550008A0A1F920F920FB60F9211248F939F93B6
:10156000AF93BF9380912C0690912D06A0912E06EB
:10157000B0912F060196A11DB11D80932C0690936A
:101580002D06A0932E06B0932F06BF91AF919F9189
:101590008F910F900FBE0F901F9018951092C5005D
:1015A0008093C40086E08093C20088E18093C100EC
:1015B00008959093C5008093C40008959FB7F89450
:1015C0008091C10080688093C1008091C6008091A5
:1015D000C00087FDFACF80EC8093C0009FBF42E33C
:1015E00061E877E083EB97E00E94520C78940895CD
:1015F0001F920F920FB60F9211242F933F934F9388
:101600008F939F93EF93FF934091C6009091B30700
:101610008091B4079817D0F4E091B707F091B8071C
:101620009F012F5F3F4F40838091BA078150D1F0D7
:101630008093BA073093B8072093B7079FB7F89401
:101640008091B3078F5F8093B3079FBFFF91EF91A6
:101650009F918F914F913F912F910F900FBE0F90BF
:101660001F9018958091B407281B3109E1CF83EBB7
:1016700097E00C94760C83EB97E00C945C0C9091C3
:10168000C00095FFFCCF8093C6000895CF93C82F6C
:101690008A3039F08C2F0E943F0B90E080E0CF9190
:1016A00008958DE00E94460BF5CFCF93DF93EC01B8
:1016B000FC018491882339F00E943F0B2196FE01A2
:1016C00084918111F9CFDF91CF910895CF93DF936A
:1016D000EC018881882331F021960E943F0B89918B
:1016E0008111FBCFDF91CF9108958A3018F4805D8E
:1016F0000C943F0B895C0C943F0BCF93C82F8295C1
:101700008F700E94750B8C2F8F70CF910C94750B7E
:10171000CF93C82F892F0E947D0B8C2FCF910C94D3
:101720007D0BCF92DF92EF92FF926B010E94880BAC
:10173000C601FF90EF90DF90CF900C94880BCF9371
:10174000DF93D82FC8E080E3D7FD81E30E943F0BF1
:10175000DD0FC150C1F7DF91CF910895CF93C82F0E
:1017600080E3C43630F08CE98C0F843690F0C85C8E
:1017700082E30E943F0B80E3CA3020F08F5FCA50A3
:10178000CA30E0F70E943F0B80E38C0FCF910C949E
:101790003F0BC82F81E3EDCF8FE790E00C94550B02
:1017A000EF92FF920F931F93CF93DF937C01D62F7D
:1017B000C0E010E000E008C0CF5F0C2F10E0F701A0
:1017C000E00FF11FCD17E8F483EB97E00E94760C51
:1017D000F701E00FF11F8F3F980799F080838D305C
:1017E00081F08A3071F0883039F7CC2399F010827B
:1017F000C1500C2F10E0F701E00FF11F1082CD1740
:1018000018F310828C2FDF91CF911F910F91FF90D1
:10181000EF900895F7011082F2CF0F931F93CF93AB
:10182000DF938C01D62FC0E00E949A4A83EB97E0A9
:101830000E94760C8F3F9807F9F0F801EC0FF11D2C
:1018400080838D3051F08A3041F08830F9F0CF5FDD
:10185000CD1750F3F801EC0FF11D10820D9781F4B4
:10186000C1110EC08DE0F801808311828C2FDF91B1
:10187000CF911F910F910895C111EACFF801108205
:101880008C2FDF91CF911F910F910895CC2339F0C8
:101890001082C150F801EC0FF11D1082D9CFF80170
:1018A0001082D6CFFC0110827583648373836283B8
:1018B0004183478346830895FC0180818823E9F3AF
:1018C000A281B3819D012F5F3F4F8C9196819150F2
:1018D00019F49181291B31093383228396832FB711
:1018E000F8949081915090832FBF0895FC018081DE
:1018F0008823B9F0A281B3819D012F5F3F4F8C9166
:101900009681915019F49181291B310933832283E7
:1019100096832FB7F8949081915090832FBF90E0D9
:1019200008958FEF9FEF08950F931F93CF93DF9349
:10193000EC01E9EFF2E0C11580E8D807B1F0CE0183
:10194000D7FD24C01092360626E336E00AE010E008
:1019500001C09F01F901B8010E945A54805D829331
:10196000CB010097B1F7D7FD06C0CF01DF91CF9132
:101970001F910F91089531978DE28083F90132977D
:10198000CF01DF91CF911F910F910895882799275B
:101990008C1B9D0BD7CFFC0140814D3259F1A1E04A
:1019A000B0E04B3211F180ED840F319670E060E0D1
:1019B0008A3028F59B01220F331F220F331F260F79
:1019C000371F220F331F4053550BBA01620F731F8D
:1019D000419180ED840F8A3068F36A9FC0016B9F4C
:1019E000900D7A9F900D1124089541813196A1E0C8
:1019F000B0E0D9CF41813196AFEFBFEFD4CF90E0C7
:101A000080E008958A3010F4805D0895895C08951F
:101A10001F93CF93DF93182F82958F700E94020D32
:101A2000CCE3D6E08883812F8F700E94020D8983DA
:101A30001A82CE01DF91CF911F9108950F931F93CA
:101A4000CF93DF938C01812F82958F700E94020DBE
:101A5000C7E3D6E08883812F8F700E94020D8983AF
:101A6000C801929582958F7089279F7089278F7002
:101A70000E94020D8A83802F8F700E94020D8B833B
:101A80001C82CE01DF91CF911F910F9108958F920B
:101A90009F92AF92BF92FF920F931F93CF93DF93CA
:101AA0004B015C011092460620E030E0A9010E9443
:101AB0008E52F12C87FF06C0B7FAB094B7F8B094F5
:101AC000FF24F39420E030E048EC52E4C501B40177
:101AD0000E94ED530E940C534B015C0124E630E060
:101AE00040E050E00E946E54C62F2AE030E040E013
:101AF00050E00E946E548DECC89F812D1124869574
:101B000086958695982F990F990F890F880FC81B76
:101B1000C63008F444C081E0820F2F5C8A3031F473
:101B200084E6880E911CA11CB11C20E3209345067D
:101B30008EE280934406C501B40124E630E040E023
:101B400050E00E946E54CA01B90103E416E02AE095
:101B5000822E912CA12CB12C611571058105910566
:101B600011F423C08E01E8012197A50194010E9480
:101B70006E54605D6983B901CA0161157105810503
:101B8000910581F7F1100DC0C801DF91CF911F9130
:101B90000F91FF90BF90AF909F908F900895205D20
:101BA000C5CF8DE288838E01EFCF80E3809343061B
:101BB00003E416E0E9CF813019F0E8F08230A9F0B3
:101BC00080917C00806C80937C0080917A0087609B
:101BD00080937A0080917C00807E80937C0080914D
:101BE0007A00806880937A00089580917C008F73DA
:101BF00080937C00EACF80917C008F738064809317
:101C00007C00E3CFECE7F0E09081907E892B80832D
:101C1000089580917A0086FB882780F991E08927D2
:101C20000895809178009091790008958A9A8BEEBA
:101C300090E00C94550B899A81EE90E00C94550B32
:101C400089988A98819A829A0895811109C08A9800
:101C500086EE90E00E94550B0E94554F0C94CC3DAF
:101C60000C94160E83E291E00E94550B0E94160E12
:101C70008FE191E00E94550B64EF71E080E090E00D
:101C80000E948A0A89E191E00E94550B0E941B0E76
:101C900085E191E00E94550B64EF71E080E090E0F7
:101CA0000E948A0A8FE091E00E94550B89988CED82
:101CB00090E00E94550B8BE091E00E94550B64EF81
:101CC00071E080E090E00E948A0A86E091E00E9444
:101CD000550B80E00E94250E82E091E00E94550B9A
:101CE00064EF71E080E090E00E948A0A8DEF90E05E
:101CF0000E94550B0E94160E89EF90E00E94550B32
:101D000064EF71E080E090E00E948A0A84EF90E046
:101D10000E94550B80E00E94250E80EF90E00C940D
:101D2000550B811105C089988CED90E00C94550BF2
:101D30000C941B0ECF93DF931F92CDB7DEB79E019D
:101D40002F5F3F4F3F932F9320E033E03F932F933C
:101D50009F938F930E94005685ED90E00E94550B53
:101D600089810F900F900F900F900F900F908230FD
:101D700051F00E94250E89EC90E00E94550B0F90C7
:101D8000DF91CF91089580ED90E00E94550B0E9465
:101D9000160E64EF71E080E090E00E948A0A80E015
:101DA0000E94250E8CEC90E00E94550B89EC90E08F
:101DB0000E94550B0F90DF91CF910895CF93DF9341
:101DC0001F92CDB7DEB79E012F5F3F4F3F932F93FA
:101DD00020E033E03F932F939F938F930E94005610
:101DE0008DEB90E00E94550B89810F900F900F9022
:101DF0000F900F900F90823051F00E94910E81EB66
:101E000090E00E94550B0F90DF91CF91089588EBE1
:101E100090E00E94550B0E941B0E64EF71E080E081
:101E200090E00E948A0A89988CED90E00E94550B00
:101E300084EB90E00E94550B81EB90E00E94550BE3
:101E40000F90DF91CF91089589988A98819A829A0C
:101E50008B98839A0C94F20FCF93DF93909147065F
:101E60009817B1F1D82F882329F18B9A64E670E096
:101E700080E090E00E948A0A019925C0CAE06CE2E5
:101E800071E080E090E00E948A0A81EA90E00E947E
:101E9000550BC150019920C0C111F1CF82E890E0EB
:101EA0000E94550B81E0DD2389F0D0934706DF9136
:101EB000CF9108958B9864E670E080E090E00E94F6
:101EC0008A0A019B03C081E0D111EFCF80E0EDCF02
:101ED00080E0DF91CF910895C111F5CFDFCF84B1BC
:101EE000866084B9089584B1897F84B90895282FC4
:101EF00098E080E065C000000000000000000000E5
:101F000000000000000000000000000000000000D1
:101F100000000000000000000000000000000000C1
:101F2000000000000000299A0000000000000000EE
:101F300000000000000000000000000000000000A1
:101F40000000000000000000000000000000000091
:101F50000000000000000000000000000000000081
:101F60000000000000000000000000000000000071
:101F70000000000000000000000000000000000061
:101F80000000000000000000299800000000000090
:101F90000000000000000000000000000000000041
:101FA0000000000000000000000000000000000031
:101FB00000000000000000000000220F915079F0A6
:101FC00027FD0EC02A98880F1B998160309150061A
:101FD000311191CF299A2998220F915089F70895AC
:101FE0002A9AF1CF2C9A2D9A259A249A08958091B5
:101FF000510608951F93CF93DF93C4EFD1E002C041
:10200000219730F08FEF0E94770F182F8F3FC1F785
:1020100080910E0190910F01A0911001B0911101DA
:102020000397A105B10558F086ED91E00E94550B8C
:10203000CE010E94940C0E94660B0E94CC0B812F53
:10204000DF91CF911F910895EF92FF920F931F930D
:10205000CF93DF93C82FD42F052FF62EE72E809134
:102060000E0190910F01A0911001B0911101039701
:10207000A105B10508F063C0C7FD7CC02C9A2C985F
:102080000E94FA0F1FEF8F3F09F051C080910E019F
:1020900090910F01A0911001B09111010397A1053A
:1020A000B10508F080C08C2F0E94770F8E2D0E9402
:1020B000770F8F2D0E94770F802F0E94770F8D2F23
:1020C0000E94770FC03409F46AC0C83409F05DC0BB
:1020D00087E80E94770FC4EFD1E002C0219731F06A
:1020E0008FEF0E94770F182F87FDF8CF80910E0198
:1020F00090910F01A0911001B09111010397A105DA
:10210000B105A8F08DE392E00E94550B812F90E07D
:102110000E94940C0E94660B88E292E00E94550B8C
:10212000CE010E94940C0E94660B0E94CC0B812F62
:10213000DF91CF911F910F91FF90EF9008958AE565
:1021400092E00E94550B8C2F0E947D0B86E592E059
:102150000E94550B8D2F0E947D0B802F0E947D0BBE
:102160008F2D0E947D0B8E2D0E947D0B0E94CC0B2B
:10217000C7FF84CF40E050E0BA0187E70E942410F7
:10218000182F8230A0F6CF7779CF81E00E94770FA9
:10219000CC3409F0A0CF8FEF0E94770F9CCF85E958
:1021A0000E94770F98CF86E492E00E94550B7BCF78
:1021B0008F929F92AF92BF92CF92DF92FF920F9336
:1021C0001F93CF93DF9300D000D0CDB7DEB72D980B
:1021D0002FEF83ED90E3215080409040E1F700C065
:1021E000000081E0809350061FE08FEF0E94770F80
:1021F0001150D9F7EFEFF1EE24E0E150F04020402C
:10220000E1F700C0000010E000E009C08FEF90E7A8
:10221000E2E081509040E040E1F700C0000040E083
:1022200050E0BA0180E40E942410F82EF1E08F17EC
:1022300009F10F5F1F4F0C30110541F71092510645
:102240002C9A81EF91E00E94550B0E94CC0B2D9AA5
:10225000F12C8F2D0F900F900F900F90DF91CF9159
:102260001F910F91FF90DF90CF90BF90AF909F9004
:102270008F9008954AEA51E060E070E088E40E949F
:102280002410813009F43DC040E050E0BA0189EEED
:102290000E94241098E0C92E29EED22E823020F020
:1022A000CC24C39481E4D82E08EE13E00AC08FE951
:1022B0009FE00197F1F700C000000150110909F4F7
:1022C000BDCF40E050E0BA018D2D0E942410811155
:1022D000EECF40E052E060E070E080E50E94241024
:1022E0008111ACCFC09251062C9A1092500680E01A
:1022F00092E00E94550B8C2D0E947D0B0E94CC0B0E
:10230000A8CFCE0101964C015E0195E0A90EB11C4B
:1023100064018FEF0E94770FF60181936F01AE1673
:10232000BF06B9F781E292E00E94550B89810E94B5
:102330007D0B8FE192E00E94550B8A810E947D0BFC
:102340008DE192E00E94550BBB808B2D0E947D0B8E
:102350008BE192E00E94550BAC808A2D0E947D0B90
:1023600089E192E00E94550B0E94CC0BF1E0BF1274
:1023700065CF2AEA0F5F1F4FA21260CF10C08FEF08
:1023800090E7E2E081509040E040E1F700C00000BB
:102390000F5F1F4F053FF1E01F0709F44FCF40E0EB
:1023A00050E060E070E489EE0E9424108111E7CFD4
:1023B000043F114008F042CF40E050E0BA018AE704
:1023C0000E94241081113ACF8FEF0E94770FF40101
:1023D00081934F01CE16DF06B9F7198180910E0166
:1023E00090910F01A0911001B09111010397A105E7
:1023F000B10580F416FF07C08CE0809351062C9A3B
:102400004CE0C42E72CF84E0809351062C9A34E0C5
:10241000C32E6BCF83E192E00E94550B812F0E9467
:102420007D0B81E192E00E94550B8A810E947D0B19
:102430008FE092E00E94550B8B810E947D0B8DE016
:1024400092E00E94550B8C810E947D0B8BE092E004
:102450000E94550B0E94CC0BCDCFDF92EF92FF92E2
:102460000F931F93CF93DF937A012091510623FDA1
:1024700007C029E0660F771F881F991F2A95D1F79B
:10248000AB01BC0188E50E942410D82E882349F0B6
:102490008D2DDF91CF911F910F91FF90EF90DF90E5
:1024A00008950E94FA0F8F3F19F0DD24D394F0CFE6
:1024B0008EEF0E94770F87018EEFF81AF801819155
:1024C0008F010E94770FF80131972081D2270D2EBE
:1024D0000294202D2F702D273D2F3025330F307E75
:1024E0002327302D3D27307F36950D2E000C331FCE
:1024F000D695D695D695DF71D327DC27C22F0E153A
:102500001F05E1F68D2F0E94770F8C2F0E94770F09
:102510008FEF0E94770F8F71853009F0C6CF8FEF54
:102520000E94770F8F3FD9F72C9AB2CFBF92CF92EC
:10253000DF92EF92FF920F931F93CF93DF937A0175
:102540002091510623FD07C029E0660F771F881FE1
:10255000991F2A95D1F7AB01BC0181E50E94241097
:10256000B82E8823C1F080910E0190910F01A091A7
:102570001001B09111010397A105B10508F078C0D1
:102580008B2DDF91CF911F910F91FF90EF90DF90F6
:10259000CF90BF900895C8EED3E008C08FE99FE0C8
:1025A0000197F1F700C00000219751F38FEF0E94CF
:1025B000770F8F3F99F38E3F19F7870167019EEFE1
:1025C000D91AF12CE12C8FEF0E94770FF80181933B
:1025D0008F01E701D8270D2E0294802D8F708D2753
:1025E0009D2F9025990F907E8927902D9D27907F74
:1025F00096950D2E000C991FD695D695D695DF7120
:10260000D927DC27C82F7E01CE16DF06E1F68FEF33
:102610000E94770F082F10E0102F00278FEF0E94E5
:10262000770F082B80910E0190910F01A09110015E
:10263000B09111010497A105B10548F52C9A80913C
:102640000E0190910F01A0911001B09111010C1792
:102650001D0799F0BB24B3940397A105B10508F4B5
:102660008FCF89E991E00E94550BBB24B39488CFAA
:1026700084EC91E00E94550B83CF0497A105B1052E
:1026800008F47ECF83EA91E00E94550B79CF85EB69
:1026900091E00E94550B812F0E947D0B802F0E949C
:1026A0007D0B89EA91E00E94550B8F2D0E947D0BD6
:1026B0008C2F0E947D0BC2CF5F926F927F928F9280
:1026C0009F92AF92BF92CF92DF92EF92FF920F93C1
:1026D0001F93CF93DF93CDB7DEB760970FB6F89413
:1026E000DEBF0FBECDBF00910E0110910F012091F2
:1026F000100130911101053011052105310508F453
:1027000072C06115710509F457C04C013C01660E99
:10271000771E8C01F12C8EE2582E0DC08083F3942D
:10272000C801881999098F709927892B21F10615FD
:10273000170509F441C080E20E943F0BF801819126
:102740008F010E947D0BF80131978081CF2CD12C15
:1027500090EE980FE1E0F0E0EC0FFD1FEC0DFD1D99
:102760009F35E0F25082F394C801881999098F705F
:102770009927892BE1F680E20E943F0BFF20A9F008
:10278000CE0101965C017C019FEFE91AF90ACE0C9B
:10279000DF1C03C0C70101967C01F5018081570150
:1027A0000E943F0BCE14DF04A9F70E94CC0BF12C42
:1027B0000615170509F0BFCF60960FB6F894DEBF77
:1027C0000FBECDBFDF91CF911F910F91FF90EF9082
:1027D000DF90CF90BF90AF909F908F907F906F9041
:1027E0005F900C94CC0B60960FB6F894DEBF0FBED2
:1027F000CDBFDF91CF911F910F91FF90EF90DF90B0
:10280000CF90BF90AF909F908F907F906F905F9090
:1028100008950E94D810882321F01092520680E07B
:10282000089583E08093520608958091520608959A
:10283000FB01CA01B901AF010E94961290E0089510
:10284000FB01CA01B901AF010E942D1290E0089569
:102850000F931F93CF93DF938A012C986623A9F0DF
:102860006A3039F40E94F70FF8018083D0E0C0E0AD
:1028700002C0C4E0D0E02C9A8FEF0E94770FCE0107
:10288000DF91CF911F910F9108950E94FA0F8F3F12
:1028900091F7ECCF4F925F926F927F92AF92BF927F
:1028A000CF92DF92EF92FF920F931F93CF93DF931C
:1028B000FC01C2A4D3A4E4A4F5A4C416D506E6067C
:1028C000F70661F02A013B01EC018481811117C0F8
:1028D000411451046104710409F047C090E080E0A4
:1028E000DF91CF911F910F91FF90EF90DF90CF90EC
:1028F000BF90AF907F906F905F904F9008955F0171
:10290000FEE2AF0EB11C01E0A7019601B50189817D
:102910000E942014892BC9F51C828E899F89A88D5D
:10292000B98D4E8D5F8D68A179A1480F591F6A1F1F
:102930007B1FC416D506E606F70650F61B8112303B
:1029400028F4C6CF8E899F89A88DB98DC80ED91E4F
:10295000EA1EFB1E01E0A7019601B50189810E94D4
:1029600020141150113071F7B3CF01E0A30192018F
:10297000BE01625D7F4F89810E941814892B29F462
:102980004AA65BA66CA67DA6A9CF81E090E0A8CF61
:102990000F93CF93DF93EC019A01AB01BC01625D11
:1029A0007F4F01E089810E941814892B59F5FE019F
:1029B000E45DFD4F8081918185359A4AF1F4E85CB0
:1029C000F14080819181A281B381BB2786349144FB
:1029D000A445B10569F0C058DF4F488159816A812B
:1029E0007B81772781E0463451446445710531F499
:1029F00080E0DF91CF910F91089582E0DF91CF9138
:102A00000F91089583E0DF91CF910F910895FC011C
:102A100081810E94151480FD03C090E080E008953C
:102A200083E090E008957F928F929F92AF92BF9241
:102A3000CF92DF92EF92FF920F931F93CF93DF938A
:102A4000EC016A017B018E8C9F8CA8A0B9A08881C3
:102A5000823009F472C0833009F44EC0813089F0AD
:102A60006FEF7FEFCB01DF91CF911F910F91FF901F
:102A7000EF90DF90CF90BF90AF909F908F907F901E
:102A800008958A0116950795040F151FC801892F0F
:102A900099278695B501A401480F591F611D711D25
:102AA000CE010E944A14892BD9F6F801F170EC0F7F
:102AB000FD1F76A40F5F1F4FC801892F99278695A8
:102AC000B501A401480F591F611D711DCE010E945F
:102AD0004A14892B29F61170C00FD11F6EA5762FCD
:102AE000672DC0FE45C0729562956F7067277F7035
:102AF000672790E080E0B7CF97E076956795579588
:102B000047959A95D1F7480D591D6A1D7B1DCE0139
:102B10000E944A14892B09F0A3CFCC0CDD1CCC0CED
:102B2000DD1C8CEFC82281E0D822CC0DDD1D6EA506
:102B30007FA588A999A99F7096CF77276F2D5E2DC5
:102B40004D2D480D591D6A1D7B1DCE010E944A1452
:102B5000892B09F085CFCC0CDD1CE894C0F881E00E
:102B6000D822CC0DDD1D6EA57FA590E080E07BCF47
:102B70007F7090E080E077CFAF92BF92CF92DF92EC
:102B8000EF92FF920F931F93CF93DF938C01EB0192
:102B9000DC0115967C936E93149716964D915D917A
:102BA0006D917C911997413051056105710509F4CA
:102BB0004DC0FC01A080B180F501828D938DA48D64
:102BC000B58D481759076A077B0708F03FC04115C4
:102BD00051056105710509F446C0F501E280F0E197
:102BE000EF9E70011124CE15DF0508F483C042303A
:102BF00051056105710550F1481759076A077B07B0
:102C000028F506C0CE19DF09CE15DF0508F472C01D
:102C1000C5010E941315AB01BC014F3F2FEF5207B6
:102C20006207720709F49DC04230510561057105C4
:102C300068F0D801AD90BC90F501828D938DA48D84
:102C4000B58D481759076A077B07E0F282E090E0EC
:102C5000DF91CF911F910F91FF90EF90DF90CF9078
:102C6000BF90AF90089520812330C9F1D8011A9602
:102C70001D921D921D921C921D97F50180859185D4
:102C8000C817D90718F782A193A1A4A1B5A19E01E5
:102C9000329522952F7023273F702327AC01BD0169
:102CA000420F531F611D711DD8011E964D935D93F8
:102CB0006D937C935197F501BE96CF70DD27CC0FB5
:102CC000DD1FC295D295D07FDC27C07FDC27CE0FD9
:102CD000DF1FF801D38BC28B90E080E0B9CF42A117
:102CE00053A164A175A1411551056105710509F054
:102CF00074CFBCCFF80142875387648775879A01E8
:102D0000AB0122503109410951090297A109B109CA
:102D1000281739074A075B0700F5F501A281B0E0E3
:102D20000E94BE54C6A0D7A0E0A4F1A46C0D7D1DE6
:102D30008E1D9F1D9E01329522952F7023273F7077
:102D40002327620F731F811D911DD8011E966D935D
:102D50007D938D939C935197AECF60E070E0CB0153
:102D6000E9CF81E090E074CF2F923F924F925F9233
:102D70006F927F928F929F92AF92BF92CF92DF928B
:102D8000EF92FF920F931F93CF93DF9300D000D069
:102D90001F92CDB7DEB79D838C836A017B0148010A
:102DA0005901FC01468C578C60A071A0F081F98319
:102DB000F23009F486C0F33009F460C002E010E09C
:102DC000F130E9F081E0EC81FD818483C8010F904E
:102DD0000F900F900F900F90DF91CF911F910F9157
:102DE000FF90EF90DF90CF90BF90AF909F908F902B
:102DF0007F906F905F904F903F902F9008951A01B1
:102E000036942794240E351EC101892F9927869563
:102E1000B301A201480F591F611D711D8C819D8155
:102E20000E944A148C01892B69F691013170C1010D
:102E300001969B838A83892F99278695B301A201E6
:102E4000480F591F611D711DC0FE57C0EC81FD81E7
:102E5000E20FF31F26A52F7030E1839EC0011124DD
:102E6000822B86A73981EC81FD813483CF010E94BA
:102E70004A14009709F45EC08C01A4CF27E0769530
:102E80006795579547952A95D1F7440D551D661DB1
:102E9000771D8C819D810E944A148C01892B09F039
:102EA00091CFF601EE0FFF1FEE0FFF1FEC7FF170C9
:102EB0008C819D81E80FF91F86A697A6A0AAB1AACA
:102EC00081CF77276F2D5E2D4D2D440D551D661D2D
:102ED000771D8C819D810E944A148C01892B09F0F9
:102EE00071CFF601EE0FFF1FEE7FF1708C819D8197
:102EF000E80FF91F97A686A665CF8C819D81280FC4
:102F0000391FF90186A63981FC0134830E944A14D5
:102F1000009709F0B1CFEA81FB81F1708C819D812E
:102F2000E80FF91F86A5807F992D9F70892E882A2A
:102F300086A648CFEA81FB81F17084E0B694A7941D
:102F4000979487948A95D1F78C819D81E80FF91F1A
:102F500086A638CF4F925F926F927F928F929F9208
:102F6000AF92BF92CF92DF92EF92FF920F931F9397
:102F7000CF93DF9300D000D000D0CDB7DEB79E83D3
:102F80008D8349835A836B837C83DC015A964D90F1
:102F90005D906D907C905D97452B462B472B09F0FB
:102FA00074C01A968D909D90AD90BC901D97811421
:102FB0009104A104B10409F092C0812C912C540118
:102FC00083947501640134C0B2E08B169104A104AE
:102FD000B10408F4A6C092E0C92ED12CE12CF12C4A
:102FE000ED81FE81828D938DA48DB58DC816D90695
:102FF000EA06FB0668F5B701A601CF010E9413158A
:10300000611571058105910509F470C06F3FFFEFEF
:103010007F078F079F0709F47FC061307105810525
:103020009105B1F08C149D04AE04BF0409F479C07D
:10303000AFEFCA1ADA0AEA0AFA0AC414D504E60497
:10304000F70410F6E2E0CE16D104E104F10440F6F4
:10305000C12CD12C7601C394C701B60126960FB6B8
:10306000F894DEBF0FBECDBFDF91CF911F910F91BE
:10307000FF90EF90DF90CF90BF90AF909F908F9098
:103080007F906F905F904F90089529813A814B8196
:103090005C812230310541055105D0F289819A8148
:1030A000AB81BC8184159505A605B70588F6AC01F2
:1030B000BD018D819E810E9413156B017C0192E000
:1030C000C916D104E104F10418F2C414D504E604CD
:1030D000F70410F289809A80AB80BC8072CF841490
:1030E0009504A604B70408F46CCF67CFED81FE8188
:1030F000828D938DA48DB58DC816D906EA06FB0680
:1031000058F40FEF1FEF2FEF3FE0B701A601CF01FB
:103110000E94B416892B49F0CC24CA94DC2C760189
:103120009BCFC12CD12C760197CF29813A814B813D
:103130005C81232B242B252BF9F029813A814B81AB
:103140005C81223031054105510530F3ED81FE816E
:10315000828D938DA48DB58D281739074A075B079B
:10316000D8F69701860149815A816B817C81CF0114
:103170000E94B416892B81F6AD81BE811A96CD923C
:10318000DD92ED92FC921D97FD0186859785A089C1
:10319000B1898F3FFFEF9F07AF07BF0709F45CCFEF
:1031A0000197A109B109ED81FE8186879787A08BE0
:1031B000B18B81E0858350CF4F925F926F927F9267
:1031C0008F929F92AF92BF92CF92DF92EF92FF9237
:1031D0000F931F93CF93DF93EC016B010C811D8143
:1031E0000F5F1F4F09F4A4C04E855F8568897989F8
:1031F000411551056105710509F49AC078012FE068
:10320000E222FF24E881F981E114F10409F078C099
:103210004F5F5F4F6F4F7F4F4E875F87688B798B14
:103220004A855B856C857D85411551056105710574
:1032300009F479C082818150990B980132952295C9
:103240002F7023273F70232782239323892B09F094
:1032500057C0423051056105710508F47CC0828D6C
:10326000938DA48DB58D481759076A077B0708F021
:1032700072C0CF010E9413154B015C0182E08816D9
:103280009104A104B10408F466C02FEF82169206DF
:10329000A206B20609F4DFC0E881F981828D938D20
:1032A000A48DB58D88169906AA06BB0608F056C0EF
:1032B0002401350122E0421A5108610871088A860A
:1032C0009B86AC86BD860297A109B109812C912C01
:1032D0005401481659066A067B0670F4A281B0E0D4
:1032E000A30192010E94BE5486A097A0A0A4B1A4FD
:1032F000860E971EA81EB91E8E869F86A88AB98A3A
:103300001D830C83BE96EE0CFF1CE294F29480EFBA
:10331000F822FE24E822FE24EE0EFF1EFB8AEA8A33
:1033200090E080E007C0808591850817190740F379
:1033300084E090E0DF91CF911F910F91FF90EF908B
:10334000DF90CF90BF90AF909F908F907F906F90C5
:103350005F904F90089582E090E0ECCFCD2841F34C
:103360004A855B856C857D85CF010E94AA174B013C
:103370005C0187E090E081149104A104B104D1F2D2
:1033800081E088169104A104B10429F32FEF82167D
:103390009206A206B20609F45EC040E050E0BA010F
:1033A000888199810E944A14892B09F054C0888130
:1033B0009981FC01BE96825D9D4F11928E179F07E9
:1033C000E1F7E881F9812401350182E0481A5108CA
:1033D00061087108D280828D938DA48DB58D02977E
:1033E000A109B109481659066A067B06B8F5AD2D44
:1033F000B0E0A30192010E94BE5426A137A140A5CE
:1034000051A5DC01CB01820F931FA41FB51F82A71A
:1034100093A7A4A7B5A7DD2029F1D12CCC24C39470
:1034200011C0E881F98182A593A5A4A5B5A501964F
:10343000A11DB11D82A793A7A4A7B5A7D39482818C
:10344000D81680F4C48240E050E0BA01CF010E9457
:103450004A14892B31F381E090E06CCF80E090E05A
:10346000DC01D5CF82A593A5A4A5B5A58D19910999
:10347000A109B10982A793A7A4A7B5A7828D938DAF
:10348000A48DB58D1CCF2F923F924F925F926F9279
:103490007F928F929F92AF92BF92CF92DF92EF92E4
:1034A000FF920F931F93CF93DF9300D000D0CDB73F
:1034B000DEB78C0122242A9433243A9436EDA32ECD
:1034C00031E0B32EEE24EA94FE2C0EC04F3009F406
:1034D00063C033243A9470E060E0C8010E94DC18B5
:1034E0009C01892B09F040C0D8011E964D915D9139
:1034F0006D917C9151978D919C910E944A149C01F1
:10350000892B91F5F8010288F389E02DFC83EB8388
:103510009081992309F4B9C08385482F4F73953E54
:10352000C1F283FDD3CF4F30B9F1332009F497C0F6
:10353000D8015996FC92EE9258975496ED91FC91D1
:1035400083854B815C81455F5F4F80FDC2CFAB813E
:10355000BC819D91BC83AB8381919813BACF8B8141
:103560009C814817590799F7C9010F900F900F9048
:103570000F90DF91CF911F910F91FF90EF90DF900F
:10358000CF90BF90AF909F908F907F906F905F9003
:103590004F903F902F900895D8015696CD90DC9093
:1035A0005797C114D10409F496CF96FF6BC0EB81F5
:1035B000FC812584392EE89436F814968D919C91DF
:1035C000159759969C938E935897AB81BC811D9605
:1035D0008C911D9782117DCF8C918F7B8150990B9F
:1035E000BDE0B89F3001B99F700C11242AEC822EE7
:1035F00021E0922EE1E081E090E00BC02F3F3F4FB1
:1036000009F067CFA814B90409F442C0D401ED91C0
:103610004D012B813C812E0F311DF901208131811B
:10362000009761F3C9010E94912C2C0130E26316CE
:1036300071040CF04ECFC30101969A838983660C06
:10364000771CF601E60DF71D808191810E94912C77
:103650004816590609F03DCF69807A80D3CFEB81B7
:10366000FC8131964B815C81455F5F4F01C0919138
:1036700030FA379437F8390E4E175F07C1F732101A
:1036800057CF72CF931125CFA0CF24E030E06CCF7D
:10369000EB81FC81208126FF0CC0892B51F0F301C6
:1036A000EE0FFF1FEC0DFD1D80819181892B09F02C
:1036B00010CF3A9410CF2F923F924F925F926F9219
:1036C0007F928F929F92AF92BF92CF92DF92EF92B2
:1036D000FF920F931F93CF93DF936C014B01DB019C
:1036E0008C918F3209F473C08C3509F470C0E601F7
:1036F0001E821F8218861986F4018081803208F4A8
:103700009BC170E2572EE5E03E2EE601AE88BF88F1
:10371000082E000C990B8032910508F443C08F32BB
:10372000910509F43FC08C359105E1F175018401E3
:103730000F5F1F4FE50166246394712C19C08993B4
:10374000999393012F5F3F4FF80181918F01082ECC
:10375000000C990B8032910508F469C18F329105F4
:10376000D1F18C359105B9F121323105D9F039010A
:1037700061E070E090E00E94672C009799F080383B
:103780009105E8F68232910569F0E5E0F3E02AE27E
:1037900003C02191222399F2022E000C330B8217D1
:1037A0009307B9F786E090E0DF91CF911F910F91D9
:1037B000FF90EF90DF90CF90BF90AF909F908F9051
:1037C0007F906F905F904F903F902F900895BFEF44
:1037D0008B1A9B0A8CCF820E931E412CF301EE0FA5
:1037E000FF1FEA0DFB1D929182918032910511F02D
:1037F0008E9729F421E0621A7108A9F7D3CFD3017B
:10380000AA0FBB1FAA0DBB1D11961C921E92E601AA
:10381000EC89FD89CF010B965192E817F907E1F782
:10382000D0E0C0E0F701819191917F018032910554
:1038300019F08E32910511F42196F4CF209719F0EA
:10384000F42DF3604F2E3E912E912E32310521F052
:1038500021E0621A7108B9F708E010E0F12CE12CC0
:10386000212C2196009709F45BC08032910509F460
:10387000BAC08E32910509F4BAC0E016F1060CF018
:10388000C5C0C615D70509F4B5C08038910500F547
:103890008B32910561F1EEE0F3E02CE2022E000C98
:1038A000330B8217930719F121912111F7CF9C0156
:1038B000215431092A31310508F4C6C09C01215632
:1038C00031092A313105B8F4689420F8805213C0C8
:1038D00070E060E00E94672C689441F8009739F02E
:1038E00087539F4FFC01808190E0009789F6F42D6B
:1038F000F3604F2E8FE5D6015496ED91FC91EE0DBD
:10390000FF1D8083F70131967F01FE01EE0FFF1F3F
:10391000EA0DFB1D808191812196009709F0A5CFCA
:10392000D6015496ED91FC9155978081853E21F406
:1039300030825496ED91FC910830110511F4220C5F
:10394000220C822D8C708C3009F46EC0922D9370F5
:10395000933009F469C041FC08C0913011F46894B7
:1039600044F8843011F4689443F8438670E060E0D2
:10397000C6010E94BC15009739F5C6010E94431A82
:10398000E601EC89FD8923852470009719F5211142
:103990000BCFEA89FB89838584FF22C084899589BE
:1039A000B0E0A0E0DC0199278827428D538D70E0BC
:1039B00060E0842B952BA62BB72B8E839F83A88743
:1039C000B987F4018081A1CED6015496ED91FC9186
:1039D000238524708430910509F0E6CE2111E4CED0
:1039E00085E090E0E1CE842D8360482E8ECFC61511
:1039F000D705C9F70B30110551F1220C220CE30158
:103A00000BE010E048E0E42EF12C7FCF0B301105E5
:103A1000F1F0C615D70589F3B42DB3604B2E6C16A3
:103A20007D060CF47DCFE9CF689441F89ECF820EDD
:103A3000931E24E0422ED2CE70E060E0C6010E94C8
:103A4000BC151B8A1A8AB0CE689421F854CF942DE5
:103A50009360492ED6015496ED91FC915597808143
:103A6000853E09F06ECF30825496ED91FC9169CF7E
:103A70000F931F93423051056105710570F0FC01F1
:103A8000028D138D248D358D401751076207730702
:103A900020F41F910F910C94131561E070E080E009
:103AA00090E01F910F910895CF92DF92EF92FF92D5
:103AB0000F931F93423051056105710598F0FC0189
:103AC000C28CD38CE48CF58C4C155D056E057F059E
:103AD00048F40E94B4161F910F91FF90EF90DF9071
:103AE000CF90089582E090E01F910F91FF90EF90AA
:103AF000DF90CF9008950F931F93FC019A01AB01C3
:103B00002250310941095109828D938DA48DB58DC3
:103B10000297A109B109281739074A075B0778F40A
:103B2000A281B0E00E94BE5406A117A120A531A534
:103B3000600F711F821F931F1F910F91089560E006
:103B400070E0CB011F910F910895EF92FF920F93B8
:103B50001F93CF93DF93CDB7DEB728970FB6F894B6
:103B6000DEBF0FBECDBF8C01F9017B01655F7F4FCA
:103B7000D7012D917D01DC012D93CD01E616F706CD
:103B8000B9F7E630F10568F0DA018D919D91E0FB1F
:103B9000F795E795F7F9E80FF91F8D919D9100973B
:103BA000B1F77E01B9E0EB0EF11C47E050E0415067
:103BB00051099F01ADECBCEC0E94AF5496958795DE
:103BC00096958795969587959C01220F331F220F16
:103BD000331F280F391F220F331FE21BF30BE05D49
:103BE000D701EE937D01FC01892B09F7E1E0F0E0BC
:103BF000EC0FFD1FE40FF51F8EE7808314161506EA
:103C00009CF5F8018081803279F1319630E020E036
:103C100003C08191803229F02F5F3F4F4217530735
:103C2000C1F7F801E20FF31F80E2483051054CF470
:103C3000A1E0B0E0AC0FBD1FA40FB51F8C914F5F8A
:103C40005F4F2F5F3F4F8193283031056CF32896EB
:103C50000FB6F894DEBF0FBECDBFDF91CF911F919D
:103C60000F91FF90EF90089530E020E0DACF2F928F
:103C70003F924F925F926F927F928F929F92AF92FC
:103C8000BF92CF92DF92EF92FF920F931F93CF9349
:103C9000DF9300D000D000D01F92CDB7DEB7DC019B
:103CA000ED91FC9111972081022E000C330B2053D3
:103CB00031092A30310520F451815A3309F429C1E0
:103CC0002090970630909806FB01318220822114C3
:103CD000310409F42DC1142FF1018081882321F1D1
:103CE00081810E94151480FD1FC0112311F082FDF7
:103CF0001CC190E080E027960FB6F894DEBF0FBE9F
:103D0000CDBFDF91CF911F910F91FF90EF90DF908A
:103D1000CF90BF90AF909F908F907F906F905F906B
:103D20004F903F902F900895D1011C9211961C92B4
:103D300080E00E94091480FDE9C0112311F082FD8A
:103D4000F4C040E050E0BA01C1010E94C814C12C87
:103D5000D12C7601813009F4EEC0833009F4E2C041
:103D60008111EFC0F10181AD92AD8115924009F052
:103D7000E8C0F101EC5BFF4F2081318150E040E071
:103D8000211531054105510529F43E9620813181E7
:103D900042815381D10156962D933D934D935C936F
:103DA0005997DE96AC91F101A383B0E00E94BE5416
:103DB0004B015C0144AD55AD70E060E02A013B0170
:103DC0004C0C5D1C6E1C7F1C468E578E60A271A22F
:103DD000B3ADBF83B283FF9620813181D1011996A3
:103DE0003C932E931897329680819181B0E0A0E0A9
:103DF0000097A105B10529F43D9680819181A281AA
:103E0000B381F901F295E295EF70EF27FF70EF278C
:103E10008F0130E020E009831A832B833C83841BCD
:103E2000950BA60BB70B88199909AA09BB09BC0108
:103E3000CD01601B710B820B930B1F81212F30E092
:103E400050E040E00E946E54DA01C9010296A11DC3
:103E5000B11DF101828F938FA48FB58F873FFFE053
:103E60009F07A105B10508F46FC0873F9F4FA105CB
:103E7000B10508F4D8C0F101E65AFF4F8081918165
:103E8000A281B381F10182A393A3A4A3B5A3098165
:103E90001A812B813C81400E511E621E731E840CC0
:103EA000951CA61CB71C86A297A2A0A6B1A68FEF50
:103EB0009FEFDC0186879787A08BB18B14821582D8
:103EC000E25AFF4F80819181A7019601280F391F87
:103ED000411D511DD10152962D933D934D935C93FD
:103EE000559701E0B101625D7F4F11968C910E9460
:103EF0001814892B49F4F101E45DFD4F8081918113
:103F000085359A4A09F460C083E03CC083E090E0C4
:103F1000F2CE3296ED93FC93232B09F4D1CE8BE0B5
:103F200090E0E9CE81E090E0E6CE8AE090E0E3CE5A
:103F30008CE090E0E0CEF101E051FE4F80818111F4
:103F400036C08DE090E0D7CE81E0840C951CA61C95
:103F5000B71CF10182A293A2A4A2B5A209811A8181
:103F60002B813C81800E911EA21EB31E86A297A2B9
:103F7000A0A6B1A64FEF5FEFBA0146875787608BC7
:103F8000718B1482D1018C93F10112A613A614A691
:103F900015A68091950690919606019690939606A7
:103FA000809395069783868390E080E0A4CEF1010C
:103FB000EC50FE4FC080D180E280F380B701A601B3
:103FC000C1010E94C814C9CEF10186A597A5A0A978
:103FD000B1A982359245A146B14409F095CFF101CE
:103FE000EE5EFD4F80819181A281B381823792473D
:103FF000A144B14609F088CF389680819181A28191
:10400000B381F10182879387A487B587EA5EFD4F6C
:1040100080819181A281B381F10186879787A08BEE
:10402000B18B83E0AFCF82E090CF811113C0E091DC
:104030009706F0919806309709F010826115710586
:1040400011F0FB011082709398066093970690E040
:1040500080E008958BE090E008952F923F924F9278
:104060005F926F927F928F929F92AF92BF92CF9208
:10407000DF92EF92FF920F931F93CF93DF93CDB711
:10408000DEB7C054D1090FB6F894DEBF0FBECDBF66
:104090007C017CAB6BABB42EDC011D921C924E718B
:1040A000BE016F5F7F4FCE01C3960E94371E6C0129
:1040B000892BD9F0C601C05CDF4F0FB6F894DEBF84
:1040C0000FBECDBFDF91CF911F910F91FF90EF9069
:1040D000DF90CF90BF90AF909F908F907F906F9028
:1040E0005F904F903F902F900895BB2DBF71BDAB57
:1040F0008E01095D1F4F1E8B0D8B83E596E0988F17
:104100008F8B6BA97CA9CE0101960E945B1B2B2D86
:104110002C71A9F40097C9F46B887C886114710430
:1041200009F4E9C1D3011B968C9184FDE4C1B1FE71
:10413000D3C080FFD1C087E0C82ED12CBBCF009761
:1041400031F08430910509F421C16C01B3CFB2FC88
:10415000D6C16B887C88962D872D6114710459F324
:10416000D3011B962C91217131F7BB2DB870BCAFD8
:10417000B3FEBEC1F30184899589B0E0A0E0DC0103
:1041800099278827428D538D70E060E08C019D0156
:10419000042B152B262B372B08AF19AF2AAF3BAFBB
:1041A000158A148A138E128E148E158E168E178E03
:1041B000E981FA81FFABEEAB81E0848302A513A510
:1041C00024A535A521960CAF1DAF2EAF3FAF21978B
:1041D00008AD19AD2AAD3BAD01151105210531051D
:1041E00009F474C1013011052105310509F470C0CD
:1041F000EEA9FFA9828D938DA48DB58D08AD19AD63
:104200002AAD3BAD081719072A073B0708F060C025
:1042100018012901B201A1018EA99FA90E941315BD
:104220004B015C0181149104A104B10409F43EC165
:1042300021E082169104A104B10409F449C03FEFC2
:1042400083169306A306B30609F45FC2EEA9FFA97D
:10425000828D938DA48DB58D281639064A065B068E
:10426000B8F500E010E09801B201A101CF010E9471
:10427000B416009709F069CFEEA9FFA98685978546
:10428000A089B1898F3FFFEF9F07AF07BF0759F0A4
:104290000196A11DB11DEEA9FFA986879787A08B66
:1042A000B18B01E00583EEA9FFA9828D938DA48DCA
:1042B000B58D88169906AA06BB0608F0F7C014014A
:1042C000250112E0211631044104510408F0A2CF67
:1042D00052E0C52ED12CEECEE981FA81962D872DA4
:1042E00042A553A564A575A5D7015A964D935D9334
:1042F0006D937C935D975E969C935E975F968C938F
:104300005F970DA914960C93D30154968D919C91AF
:10431000B0E0A0E09C0111270027D3015A964D91EF
:104320005C9170E060E0402B512B622B732BD70126
:104330001E964D935D936D937C935197D3015C963C
:104340004D915D916D917C915F97D7011A964D9338
:104350005D936D937C931D9716961D921D921D92F1
:104360001C9219978FEF15968C93159756961D9260
:104370001D921D921C9259971196FC93EE93868183
:10438000978113969C938E93129794CE8D889E88D6
:10439000AF88B88CD401FE017B968D918193E01794
:1043A000F107D9F78EA180FF2EC0F4011386188E75
:1043B0001F8A01E010E00CC0CE0101960E94431A52
:1043C0000097B1F40F5F1F4F0436110509F4B3CE07
:1043D0009801A501BE01655E7F4FC4010E94A51D25
:1043E00070E060E0CE0101960E94BC15009721F3B9
:1043F0008430910509F0A9CE8EA1D4011B968C932F
:10440000B88EAF8A8EA181FFC9C0F50180819181EC
:10441000892B09F477C1329630E020E02F5F3F4FBF
:1044200081919191892BD1F7275E3F4FA5ECBEE496
:104430000E94AF545C01B694A794B694A79470E020
:1044400060E0CE0101960E94BC15009709F07DCE78
:10445000912C812C10E000E00DC08823D9F010E0F1
:1044600000E061E070E0CE0101960E94DC18009748
:1044700009F06BCE4F85588969897A8989819A813B
:104480000E944A14009709F060CEEB89FC89808174
:10449000853E19F70115110511F48D809E80C80124
:1044A00001968A159B0579F18C01DBCF09811A8170
:1044B0001FAB0EAB88AD99ADAAADBBAD0197A109FD
:1044C000B109F80182879387A487B58721964CADFF
:1044D0005DAD6EAD7FAD21978EA99FA90E944A1454
:1044E000009709F032CEFCADF11144C09B898C8954
:1044F000E981FA81F5CE94E0C92ED12CDBCD38E0EC
:10450000C32ED12CD7CDAA94AB2809F04BC04F8530
:10451000588969897A8989819A810E944A14009709
:1045200009F013CEAB89BC899D01CD018096FD01B8
:1045300011928E179F07E1F7ED89FE89AF01455F64
:104540005F4FBF01FB018191BF01F90181939F0181
:1045500046175707B9F7ED89FE89838588711C9640
:104560008C93E981FA8181E08483FDA9F860FDAB39
:104570006B887C88D3011B961C920E94622CF301ED
:1045800066877787808B918BE981FA8181E08483CC
:104590000DA900620DAB9B898C89A2CEAA24A3949D
:1045A000B12C4DCFB401CE0101960E94BC150097ED
:1045B00009F0CBCDED89FE899F01255F3F4F312C5E
:1045C00030FA379437F88191380E2E173F07C1F72C
:1045D000FFE06F2E7724739444244A94542C19AF2F
:1045E00008AF4F85588969897A8989819A810E94A3
:1045F0004A14009709F0A9CD28ACAB89BC898F88F3
:10460000988C1D963C921D971B966C921B971C963E
:104610001C921C975B961C921E925A97022D015079
:10462000110B98011DE0129FC001139F900D1124E2
:10463000E1E030E020E050E040E019C06D3071056D
:104640000CF040C067537E4FFB018081FD01E80FF5
:10465000F11D518240824E5F5F4F2FEF3FEF4D3093
:10466000510524F5FA01E753FE4FE081C501BD0174
:104670006E0F711D7FAB6EABBA016F5F7F4F2F3F27
:104680003207C9F15C01FFEFAF1ABF0A880F991F0B
:10469000880D991DFC0120813181EEA9FFA931838C
:1046A00020832115310551F2AB01D9CF2F3F3F4F68
:1046B00049F0AA0CBB1CA80CB91CF50180819181A2
:1046C000892B11F4689426F82C92E981FA8174827E
:1046D00070E060E0CE0101960E94DC18009709F0BE
:1046E00034CD08AD19AD0150110919AF08AF012B38
:1046F00009F077CF0CCFEEA9FFA931832083AB015E
:104700005C01ADCF30E020E08FCECC24C394D12C1F
:10471000D1CC2F923F924F925F926F927F928F9265
:104720009F92AF92BF92CF92DF92EF92FF920F9340
:104730001F93CF93DF93EC014B015A016901F901FB
:1047400011821082E881F981309751F080818823AD
:1047500039F02A813B818681978128173907B9F082
:1047600029E0E22EF12CC701DF91CF911F910F912B
:10477000FF90EF90DF90CF90BF90AF909F908F9081
:104780007F906F905F904F903F902F900895CF0152
:104790000E9407157C01892B31F78C8187FD2CC184
:1047A00080FF26C18E819F81A885B9854A855B855A
:1047B0006C857D85481B590B6A0B7B0B850130E0AE
:1047C00020E0401751076207730708F4DEC0A11408
:1047D000B10449F2E881F981AC01BD01517066274D
:1047E0007727452B462B472B09F05AC03D81228164
:1047F000321708F09AC06A897B898C899D899B0150
:10480000AC012250310941095109828D938DA48D4B
:10481000B58D0297A109B109281739074A075B0727
:1048200008F0EEC01281A12FB0E00E94BE5446A055
:1048300057A060A471A4460E571E681E791E41142D
:1048400051046104710409F4DBC08D81480E511CD0
:10485000611C711C1501232C33242694211431046E
:1048600009F4BBC090E0AC01420D531D212F30E094
:104870002417350718F41901281A390A122D022DA8
:10488000A3019201B40181810E941814892B09F4BB
:1048900083C08C8180688C83EE24E394F12C63CFF9
:1048A0004E885F88688C798C9170212C42E0342E80
:1048B000281A390AA214B30408F41501B301A2019D
:1048C000CF010E944A14892B21F78E819F81A885F0
:1048D000B9859170AA27BB27FC01BE968881998172
:1048E000E80FF91FD40191012E0F3F1F81918D9385
:1048F0002E173F07D9F78E819F81A885B985820C35
:10490000931C820D931DA11DB11D8E839F83A887CB
:10491000B987F60120813181220D331D3183208337
:10492000A218B30809F056CF1ECF892B8A2B8B2BE8
:1049300071F14A895B896C897D8942305105610535
:10494000710508F45DC0828D938DA48DB58D4817D7
:1049500059076A077B0708F053C0CF010E9413155F
:10496000623071058105910508F44AC06F3FFFEF81
:104970007F078F079F0709F48CCF6A8B7B8B8C8B0B
:104980009D8B1D82E881F9813ACF5A0120CF6E8537
:104990007F8588899989E4CF28813981F9018481CB
:1049A000882381F082A593A5A4A5B5A584199509AE
:1049B000A609B709A10170E060E084179507A60772
:1049C000B70728F18D81180F1D83322C2224330C58
:1049D0008E819F81A885B98592CF4E8A5F8A688E25
:1049E000798E8F5F8D838E819F81A885B9855CCFFD
:1049F00087E0E82EF12CB7CE92E0E92EF12CB3CE71
:104A00008C8180688C83E2E0EE2EF12CACCEBE96D9
:104A1000982F8827990FD401A80FB91F225D3D4F09
:104A200081918D932E173F07D9F7CCCF2F923F92CC
:104A30004F925F926F927F928F929F92AF92BF92AE
:104A4000CF92DF92EF92FF920F931F93CF93DF935A
:104A5000EC017B014A016901F90111821082E881B0
:104A6000F981309751F08081882339F02A813B8188
:104A70008681978128173907B9F029E0A22EB12C39
:104A8000C501DF91CF911F910F91FF90EF90DF90C3
:104A9000CF90BF90AF909F908F907F906F905F90DE
:104AA0004F903F902F900895CF010E9407155C0111
:104AB000892B31F72C8127FD60C121FF23C14A8555
:104AC0005B856C857D858E819F81A885B9852A014E
:104AD0003B01480C591C611C711C441655066606A6
:104AE000770608F4E2C08114910409F4DEC0E8817D
:104AF000F981AC01BD01517066277727452B462B04
:104B0000472B09F088C03D812281321718F1892B8B
:104B10008A2B8B2B09F01AC16E857F85888999892C
:104B2000611571058105910509F440C16130710578
:104B30008105910509F457C16F3FFFEF7F078F078C
:104B40009F0709F461C06A8B7B8B8C8B9D8B1D82C8
:104B5000E881F98142A553A564A575A58E899F8931
:104B6000A88DB98D481759076A077B0709F4BEC09D
:104B70002A893B894C895D892250310941095109B3
:104B8000828D938DA48DB58D0297A109B109281747
:104B900039074A075B0708F026C11281A12FB0E050
:104BA0000E94BE5446A057A060A471A4460E571E92
:104BB000681E791E411451046104710409F413C183
:104BC0002D81420E511C611C711C1401232C3324B5
:104BD00026942114310409F474C030E0A901420D77
:104BE000531D812F90E08417950718F41C01221A99
:104BF000330A122D022DA3019201B70181810E9477
:104C00002014892B09F482C08C8180688C83AA24AB
:104C1000A394B12C35CF4E885F88688C798C9170C5
:104C2000212C42E0342E281A390A8214930408F405
:104C30001401B301A201CF010E944A14892B21F76C
:104C4000F7018E819F81A885B9859170AA27BB271E
:104C5000DC019E9688819981A80FB91FE20CF31C94
:104C600081918D93EE16FF06D9F78E819F81A885DD
:104C7000B985E881F98121E02483820D931DA11D6E
:104C8000B11D8E839F83A887B987F601208131816A
:104C9000220D331D318320838218930809F027CF1A
:104CA0004A855B856C857D852C81481759076A0785
:104CB0007B0720F48A879B87AC87BD8720622C8383
:104CC000DFCE8E819F81A885B9854A855B856C85FD
:104CD0007D8584179507A607B70708F052C04E8A4E
:104CE0005F8A688E798E2F5F2D8399CF40E050E0E8
:104CF000BA01CF010E944A14892B09F085CFE881BF
:104D0000F98136CF87E0A82EB12CBACEE881F9819F
:104D100082A593A5A4A5B5A584199509A609B709E7
:104D2000A10170E060E084179507A607B70708F4B3
:104D300048C08D81180F1D83322C2224330C8E81A4
:104D40009F81A885B985E20CF31C97CF4A895B89BE
:104D50006C897D89CF010E94AA17611571058105B3
:104D6000910509F0E3CE4A855B856C857D852C81B4
:104D70008E819F81A885B98598CF92E0A92EB12C0C
:104D80007FCE40E050E0BA01CF010E944A14892B47
:104D900009F03ACFE881F98142A653A664A675A628
:104DA0002D818E819F81A885B98599CF40E050E003
:104DB000BA01CF010E94AA176E877F87888B998BD3
:104DC000CCCF982F8827990FD701A80FB91FBE966F
:104DD0009D013E5F8D9181932A173B07D9F7E881AA
:104DE000F9811482A6CF8C8180688C83E2E0AE2E9C
:104DF000B12C46CE0F931F93CF93DF93DC01ED913F
:104E0000FC911197309759F02081222341F012969E
:104E10004D915C91268137814217530739F089E023
:104E200090E0DF91CF911F910F910895EC01CF0198
:104E30000E9407150097A9F72C8125FFF2CF4A8D14
:104E40005B8D6C8D7D8D888199810E944A140097BD
:104E500041F70E8D1F8DF8018385806283878A85D7
:104E60009B85AC85BD85848F958FA68FB78F8E85EA
:104E70009F85A889B989938F828FB58BA48B0E9457
:104E8000622CD80156966D937D938D939C93599780
:104E90008C818F7D8C830990D881C02D81E08C839B
:104EA00040E050E0BA01CE010E944A14009709F098
:104EB000B8CF8881833071F050E040E060E08981B4
:104EC0000E94281431E020E0892B09F430E0832F80
:104ED000922FA7CF8D81882379F31AA61BA61CA633
:104EE0001DA6BE01625D7F4FFB01CE01825D9D4F1D
:104EF00011928E179F07E1F785E59AEAFE01E45DBE
:104F0000FD4F9183808382E592E5A1E6B1E48EA70F
:104F10009FA7A8ABB9AB82E792E7A1E4B1E67A9785
:104F200080839183A283B3838E859F85A889B98965
:104F3000349680839183A283B3838A859B85AC85D5
:104F4000BD85349680839183A283B3832A893B896C
:104F50004C895D8901E089810E9420141D82ACCFBB
:104F6000CF93DF93EC010E94FA26009711F4198287
:104F70001882DF91CF9108952F923F924F925F92C6
:104F80006F927F928F929F92AF92BF92CF92DF9259
:104F9000EF92FF920F931F93CF93DF9300D000D037
:104FA00000D0CDB7DEB79E838D836A017B01DC0123
:104FB000ED91FC911197309759F08081882341F051
:104FC00012962D913C918681978128173907E1F03F
:104FD00009E010E0C80126960FB6F894DEBF0FBEB8
:104FE000CDBFDF91CF911F910F91FF90EF90DF9098
:104FF000CF90BF90AF909F908F907F906F905F9079
:105000004F903F902F900895CF010E9407158C017B
:10501000892B01F7ED81FE81848187FDCCC042851B
:105020005385648575854C155D056E057F0520F4F7
:1050300081FD02C06A017B01AD81BE8116964D9053
:105040005D906D907C901997FD01168217821086F5
:1050500011868FEF8583C114D104E104F10409F4B2
:10506000B9CF20803180D10112968C90912CB12C37
:10507000A12C99E0880C991CAA1CBB1C9A95D1F70D
:10508000411451046104710409F47EC0B1E04B1A6B
:10509000510861087108C701B601615071098109A1
:1050A0009109A50194010E946E5429833A834B8390
:1050B0005C83C301B201A50194010E946E548981F1
:1050C0009A81AB81BC8182179307A407B50708F4C6
:1050D0005BC088279927DC0188199909AA09BB09AF
:1050E00084219521A621B721ED81FE8186839783B6
:1050F000A087B187C81AD90AEA0AFB0A42895389EC
:1051000064897589411551056105710509F056C01D
:10511000ED81FE8186809780A084B184D501C40191
:105120009170AA27BB27ED81FE81892B8A2B8B2BBF
:1051300091F086899789A08DB18D84179507A60770
:10514000B70749F0AD81BE8156964D935D936D933F
:105150007C935997FD0182859385A485B585881533
:105160009905AA05BB0508F035CFAD81BE811A9619
:105170008D929D92AD92BC921D9714968C9114972E
:10518000806214968C9326CFAD81BE811E964D9180
:105190005D916D917C9151974115510561057105A6
:1051A00009F4D5C0AD81BE8152964D935D936D9348
:1051B0007C935597A7CF02E010E00CCF8C149D0490
:1051C000AE04BF0408F00AC1AD81BE81ED91FC912F
:1051D0009F01ED81FE81848181FD1AC0423051051D
:1051E0006105710568F0D9015A964D905D906D90FA
:1051F0007C905D97441555056605770508F4A1C0B8
:105200008068AD81BE8114968C9302E010E0E2CEFE
:10521000C9010E94AA17AB01BC01411551056105E6
:10522000710509F4D2C04F3FBFEF5B076B077B07E7
:1052300009F4C3C0423051056105710508F4A1C0ED
:10524000ED81FE8120813181F901828D938DA48DC4
:10525000B58D481759076A077B0708F092C0ED81A2
:10526000FE81428B538B648B758B86819781A085E1
:10527000B185880D991DAA1DBB1D86839783A087C4
:10528000B187C818D908EA08FB088C149D04AE043D
:10529000BF0408F49ECF46015701880E991EAA1E2E
:1052A000BB1EAD81BE8116968D929D92AD92BC9231
:1052B00019972601370189E07694679457944794AB
:1052C0008A95D1F715964C92B1E0DB22EE24FF24AB
:1052D000CD28CE28CF2809F461C0AD81BE81ED91E3
:1052E000FC919A01AB012250310941095109828D8B
:1052F000938DA48DB58D0297A109B109281739079F
:105300004A075B0708F042C0A281B0E00E94BE5489
:10531000C6A0D7A0E0A4F1A4AB01BC014C0D5D1D5B
:105320006E1D7F1D411551056105710579F1440D13
:10533000551D661D771D4394AD81BE8115964C9217
:10534000EDCEC9010E941315AB01BC016CCF40E04A
:1053500050E0BA01C1010E94AA17AB01BC01413063
:1053600051056105710591F04F3FFFEF5F076F0732
:105370007F07C1F0ED81FE8146875787608B718B77
:1053800011CFAD81BE8114968C913ACFED81FE8113
:1053900084818068848302E010E01CCE40E050E00D
:1053A000BA01BCCEAD81BE8114968C9114978068F1
:1053B00014968C9301E010E00DCEED81FE81848186
:1053C0008068848301E010E005CEED81FE81868156
:1053D0009781A085B185750164015DCFED81FE8166
:1053E00086819781A085B18556CF0F931F93CF9368
:1053F000DF93CDB7DEB72E970FB6F894DEBF0FBEA2
:10540000CDBF8C017E876D8740E0BC01CE010D963B
:105410000E94371E009759F02E960FB6F894DEBF03
:105420000FBECDBFDF91CF911F910F910895CE0197
:105430000196D80155969C938E93549783E596E0F8
:1054400057969C938E9356976D857E85C8010E94D2
:105450005B1B009761F5D8015296ED91FC91309756
:10546000B9F0838584FF27C084899589B0E0A0E0E6
:10547000DC0199278827428D538D70E060E0842BF2
:10548000952BA62BB72BF80186839783A087B1872E
:10549000D801ED91FC9111978681978113969C9389
:1054A0008E93129770E060E0C8010E94BC158430B2
:1054B000910509F0B1CF85E090E0AECF4F925F92B9
:1054C0006F927F928F929F92AF92BF92CF92DF9214
:1054D000EF92FF920F931F93CF93DF93CDB7DEB779
:1054E0002C970FB6F894DEBF0FBECDBFDC01ED9157
:1054F000FC911197309759F02081222341F01296A8
:105500004D915C912681378142175307D9F089E08C
:10551000E82EF12CC7012C960FB6F894DEBF0FBE13
:10552000CDBFDF91CF911F910F91FF90EF90DF9052
:10553000CF90BF90AF909F908F907F906F905F9033
:105540004F9008956B018C01CF010E9407157C01DB
:10555000892B01F7CE010196F801958B848B83E5A9
:1055600096E0978B868BC114D10409F48AC08824F5
:105570008A9499249A9484E090E02DE0522E36ED9E
:10558000A32E31E0B32E0CC02F3091F199249A94C0
:1055900070E060E0C8010E94DC18009709F078C054
:1055A000F801468557856089718941155105610566
:1055B000710509F4D4C0D8018D919C910E944A14C0
:1055C000009709F065C0D8015296ED91FC91539770
:1055D0008081882309F468C0853EC1F28E32B1F221
:1055E0009385292F2F7393FDCFCF2F3009F0CEC095
:1055F00086FF44C08584982EE89496F8D8011496C6
:105600008D919C91159759969C938E93589785856B
:105610008811BCCFD80156966D907C9080818F7395
:105620008150990B589E9001599E300D11248AEC9F
:1056300091E061E041E050E015C0203231050CF00E
:10564000A5CFD901AA0FBB1FA60DB71D6D937C93E3
:10565000AB012F5F3F4FA816B90609F487C0DC01E4
:105660006D91CD01DF01A60FB11D6D917C914115AA
:10567000510519F76F3F7F4F71F388CF891186CF9E
:10568000C6CF70E060E0C8010E94BC157C0142CF2B
:10569000D8011E961D921D921D921C925197843026
:1056A000910541F07C0136CF1E961D921D921D92F0
:1056B0001C925197F60139964F01F4011082D601E0
:1056C00056968D909C9081149104D1F1F8018685B5
:1056D0009785A089B189892B8A2B8B2B79F1808DB5
:1056E000918D019659F1D8015696ED91FC912F01BB
:1056F000B2E04B0E511C808191810097F9F034018A
:10570000B12CA12C15C0F601208D318D215031090D
:10571000A216B3069CF4FFEFAF1ABF0AD3018D9314
:105720003D01F201819191912F01009709F4C7C0C9
:1057300070E060E00E94672C009729F7D4011C926A
:1057400070E060E0C8010E94DC188430910509F027
:10575000A9CFF80116861786108A118ADBCE00972A
:1057600009F096CFC60109964C01A7CF808186FF2C
:105770000BC0203231050CF009CF220F331F260D4C
:10578000371DF901118210829A9402CF911010C036
:10579000DF0111969F01255F3F4F01C08D9190FA67
:1057A000979497F8980EA217B307C1F7981439F099
:1057B0008FEF9FEFD80159969C938E93589746018F
:1057C00029E0820E911C9401D8011E964D915D91A5
:1057D0006D917C915197452B462B472B09F46DCF4A
:1057E0009485BF014601B1E18B0E911C892F887011
:1057F000B82EDB018D91BD018032C1F0853009F4F6
:105800005CC0BB2029F04FEB480F4A3108F4805EA2
:10581000A9014F5F5F4FD9018C938416950639F02B
:105820009A01DB018D91BD01803241F749018085EC
:10583000803241F194012F5F3F4F8EE2D4018C936F
:10584000AF01485F5F4FB4E08B0E911C9071DA019D
:105850008D91AD018032A9F0992329F06FEB680F8B
:105860006A3108F4805EB9016F5F7F4FD9018C9374
:105870006815790539F09B01DA018D91AD0180320F
:1058800059F749018385D60118968C931897448D52
:10589000558D668D778D4D935D936D937C931397A6
:1058A000808D918D15969C938E93149786899789F8
:1058B00017969C938E93169700CF85EEA9CF8A0CEE
:1058C0009B1C3CCF60EC73EB89E494E30895803833
:1058D0009105F0F0672BB1F424E236E050E040E0AF
:1058E00007C04F5F5F4F2E5F3F4F4038510571F04B
:1058F000F901659174918617970799F7CA01805845
:105900009F4F08958F3F910521F018F090E080E0BF
:105910000895FC01EE0FFF1FEC5DFA4F8591949105
:10592000089524E434E0F90145915491452B41F167
:10593000F901459154918417950711F126E434E05B
:1059400050E040E009C0F90165917491F901329687
:105950006817790741F09F014F5F5F4FF90165912B
:105960007491672B81F7F90125913491232B39F03C
:10597000FA01EE0FFF1FEC59FD4F859194910895A8
:1059800050E040E0F0CF80B1869581700895882383
:1059900081F082B18D6282B916988DE681B98FE36C
:1059A0009CE90197F1F700C0000080B186958170F5
:1059B00008951098169A81B1827981B9F0CF129822
:1059C000129A089590E027E030E006C0139A1298EA
:1059D000129A2150310978F0AC01022E02C055957F
:1059E00047950A94E2F740FDF1CF13981298129A66
:1059F0002150310988F7089527E030E080E061E028
:105A000070E01298129A049B07C0AB01022E01C0ED
:105A1000440F0A94EAF7842B2150310990F7089536
:105A2000159886E00E94E22C159A0895159884E056
:105A30000E94E22C159A0895CF93C82F159881E003
:105A40000E94E22C8C2F0E94E22C159ACF9108958F
:105A5000159885E00E94E22C27E030E080E061E0CC
:105A600070E01298129A049B07C0AB01022E01C08D
:105A7000440F0A94EAF7842B2150310990F7159AC4
:105A80000895CF93DF93C0E7D7E102C0209789F054
:105A900021970E94282DEFE3FCE93197F1F700C030
:105AA00000008111F3CF81E0CD2B19F0DF91CF9170
:105AB000089580E0DF91CF9108950E94412D1598BF
:105AC00086E00E94E22C159A159887EC0E94E22C41
:105AD000159A0C94412D1F93CF93DF93EB01182F50
