:100000000C9437020C9454020C9454020C94540235
:100010000C9454020C9454020C9454020C94540208
:100020000C9454020C9454020C9454020C949202BA
:100030000C9454020C9454020C9454020C945402E8
:100040000C9454020C9454020C9454020C945402D8
:100050000C9454026364696E6F70737578585B001A
:1000600045464765666700202B2D2E3031323334EC
:10007000353637383968000D0A00776169742063B6
:100080006F6E66202E2E2E0D0A000D0A002E0A0D10
:10009000002072657300636F72652072657365740A
:1000A00020000D0A002E0A0D002072657300726593
:1000B000736574200020633020002063312000200D
:1000C0007230200020723120002E2E2E002072650A
:1000D00073002E2E2E0020726573002E2E2E00200F
:1000E000726573002E2E2E002063726573002E2E13
:1000F0002E002063726573002E2E2E002072657311
:10010000002A2A20496E697420646F6E65202A2AAD
:100110000D0A002A2A20506F776572206F6E2064C6
:100120006F6E65202A2A0D0A002A2A20506F7765F3
:100130007220696E697420646F6E652028706F7715
:100140006572206F666629202A2A0D0A002A2A2055
:10015000554152542D496E697420646F6E65202A92
:100160002A0D0A002D2D2D2D2D2D2D2D2D2D2D2D32
:100170000A0D00202D2D20002A2A2059482D4650F6
:1001800047412D5368656C6C202A2A0D0A00202AED
:100190002000202A2000506172616D657465723AFA
:1001A0002000202A2000506172616D657465723AEA
:1001B0002000506172616D657465723A2000202DD7
:1001C0002D20006D697373696E6720706172616DB7
:1001D000657465723A20002000506172616D65742B
:1001E00065723A20002000436F6D6D616E643A20A5
:1001F00000003903E2062F03002903DF061F030175
:1002000019032707050301FF025307EF0201E80264
:100210003C0EDA0201D6020F06C70201C2025506E1
:10022000AE0200000000000000000000000000001E
:1002300000000000000000000000000000000000BE
:1002400000000000000000000000000000000000AE
:10025000000000000000000000000000000000009E
:10026000000000000000000000000000000000008E
:10027000000000000000000000000000000000007E
:10028000000000000000000000000000000000006E
:10029000000000000000000000000000000000005E
:1002A0000000000000000000000000000000637279
:1002B000657320636F726572657365746C657665CE
:1002C0006C00637265730072657320726573657488
:1002D0006C6576656C007265730070757A7A6C6512
:1002E00020726F756E64730070757A7A6C65007732
:1002F0006169742064656C74696D65206D73006458
:10030000656C617900656E61626C6520446562753B
:100310006720547261636573007472616365007273
:10032000657365742061767200726573657400741C
:1003300068697320546578740068656C7000432D9B
:1003400053595320667067612D7368656C6C3A3E33
:1003500020004572726F723A20000A0D4156522DEC
:10036000526573746172740D0A00432D5359532002
:10037000667067612D7368656C6C3A3E20002A2AAE
:100380002A205375736B612D4949492D432D5359CB
:10039000534354524C20465047412D5368656C6C72
:1003A000202A2A2A0D0A00465047412D56657273AD
:1003B000696F6E3A2000292000556E6B6E6F776E64
:1003C00020436F7265004D756C7469636F6D7020AA
:1003D0005A3830004F6C6420436F7265207769741F
:1003E000686F7574207479706500756E6B6E6F77C9
:1003F0006E004156520054657374436F726520005D
:10040000756E6B6E6F776E00537061636520496E19
:1004100076616465727300417263616465200020D7
:1004200028002000465047412D436F726574797053
:10043000653A200041544D4547412D566572736918
:100440006F6E3A2000756E6B6E6F776E0057463692
:10045000384B303000574636384B3130005746362F
:10046000384B333000574636384B33304C0011246C
:100470001FBECFE5D4E0DEBFCDBF11E0A0E6B0E007
:10048000EAE1F0E302C005900D92A835B107D9F773
:1004900023E0A8E5B1E001C01D92A234B207E1F764
:1004A0000E9497110C940B180C94000008950F9360
:1004B0001F938B019C01011511052105310589F060
:1004C00090E080E0EFECF7E03197F1F700C000003A
:1004D0000196AC0170E060E04017510762077307B6
:1004E00088F31F910F9108950C94570210BC89B99D
:1004F00086E880BD88E18AB9089590BD89B90895DC
:100500009FB7F894579A8CB15F99FDCF80EC8BB967
:100510009FBF42E364E871E086EB91E00E94D9035B
:10052000789408951F920F920FB60F9211242F9373
:100530003F934F938F939F93EF93FF934CB1909181
:10054000B6018091B7019817D0F4E091BA01F0910B
:10055000BB019F012F5F3F4F40838091BD018150C0
:10056000D1F08093BD013093BB012093BA019FB7B6
:10057000F8948091B6018F5F8093B6019FBFFF9181
:10058000EF919F918F914F913F912F910F900FBEBF
:100590000F901F9018958091B701281B3109E1CF6A
:1005A00086EB91E00C94FD0386EB91E00C94E30361
:1005B0005D9BFECF8CB90895CF93C82F8A3039F058
:1005C0008C2F0E94D80290E080E0CF9108958DE0BA
:1005D0000E94DC02F5CFCF93DF93EC01FC01849104
:1005E000882339F00E94D8022196FE01849181115E
:1005F000F9CFDF91CF910895CF93DF93EC018881FC
:10060000882331F021960E94D80289918111FBCF75
:10061000DF91CF9108958A3018F4805D0C94D80250
:10062000895C0C94D802CF93C82F82958F700E945A
:100630000B038C2F8F70CF910C940B03CF93C82F8B
:10064000892F0E9413038C2FCF910C941303CF9208
:10065000DF92EF92FF926B010E941E03C601FF9092
:10066000EF90DF90CF900C941E03CF93C82F80E3C0
:10067000C43630F08CE98C0F843690F0C85C82E38D
:100680000E94D80280E3CA3020F08F5FCA50CA307F
:10069000E0F70E94D80280E38C0FCF910C94D8022F
:1006A000C82F81E3EDCF87E790E00C94EB02EF9247
:1006B000FF920F931F93CF93DF937C01D62FC0E05F
:1006C00010E000E008C0CF5F0C2F10E0F701E00F52
:1006D000F11FCD17E8F486EB91E00E94FD03F701CE
:1006E000E00FF11F8F3F980799F080838D3081F0E4
:1006F0008A3071F0883039F7CC2399F01082C150DC
:100700000C2F10E0F701E00FF11F1082CD1718F346
:1007100010828C2FDF91CF911F910F91FF90EF905E
:100720000895F7011082F2CF0F931F93CF93DF93B9
:100730008C01D62FC0E00E94791086EB91E00E94D8
:10074000FD038F3F9807F9F0F801EC0FF11D80834E
:100750008D3051F08A3041F08830F9F0CF5FCD17FD
:1007600050F3F801EC0FF11D10820D9781F4C111C7
:100770000EC08DE0F801808311828C2FDF91CF9124
:100780001F910F910895C111EACFF80110828C2FAB
:10079000DF91CF911F910F910895CC2339F01082F2
:1007A000C150F801EC0FF11D1082D9CFF801108271
:1007B000D6CFFC0110827583648373836283418387
:1007C000478346830895FC0180818823E9F3A28151
:1007D000B3819D012F5F3F4F8C919681915019F409
:1007E0009181291B31093383228396832FB7F89493
:1007F0009081915090832FBF0895FC0180818823C0
:10080000B9F0A281B3819D012F5F3F4F8C919681FA
:10081000915019F49181291B3109338322839683E6
:100820002FB7F8949081915090832FBF90E0089556
:100830008FEF9FEF08950F931F93CF93DF93EC01FA
:10084000E5EAF0E0C11580E8D807B1F0CE01D7FDA8
:1008500024C01092620122E631E00AE010E001C0FB
:100860009F01F901B8010E943B13805D8293CB0187
:100870000097B1F7D7FD06C0CF01DF91CF911F914F
:100880000F91089531978DE28083F9013297CF015E
:10089000DF91CF911F910F910895882799278C1B85
:1008A0009D0BD7CFFC0140814D3259F1A1E0B0E062
:1008B0004B3211F180ED840F319670E060E08A30A8
:1008C00028F59B01220F331F220F331F260F371FDE
:1008D000220F331F4053550BBA01620F731F419112
:1008E00080ED840F8A3068F36A9FC0016B9F900D82
:1008F0007A9F900D1124089541813196A1E0B0E0D6
:10090000D9CF41813196AFEFBFEFD4CF90E080E0F7
:1009100008958A3010F4805D0895895C08951F93CE
:10092000CF93DF93182F82958F700E948904C8E6B9
:10093000D1E08883812F8F700E94890489831A8275
:10094000CE01DF91CF911F9108950F931F93CF9305
:10095000DF938C01812F82958F700E948904C3E6FA
:10096000D1E08883812F8F700E9489048983C80118
:10097000929582958F7089279F7089278F700E942A
:1009800089048A83802F8F700E9489048B831C8244
:10099000CE01DF91CF911F910F9108958F929F9279
:1009A000AF92BF92FF920F931F93CF93DF934B01B0
:1009B0005C011092720120E030E0A9010E94251232
:1009C000F12C87FF06C0B7FAB094B7F8B094FF24B3
:1009D000F39420E030E048EC52E4C501B4010E94F9
:1009E000A6120E942A124B015C0124E630E040E08E
:1009F00050E00E944F13C62F2AE030E040E050E064
:100A00000E944F138DECC89F812D112486958695E9
:100A10008695982F990F990F890F880FC81BC6309C
:100A200008F444C081E0820F2F5C8A3031F484E600
:100A3000880E911CA11CB11C20E3209371018EE251
:100A400080937001C501B40124E630E040E050E03D
:100A50000E944F13CA01B9010FE611E02AE0822E6D
:100A6000912CA12CB12C611571058105910511F412
:100A700023C08E01E8012197A50194010E944F1324
:100A8000605D6983B901CA01611571058105910530
:100A900081F7F1100DC0C801DF91CF911F910F9127
:100AA000FF90BF90AF909F908F900895205DC5CF2D
:100AB0008DE288838E01EFCF80E380936F010FE694
:100AC00011E0E9CF813019F090F0823061F087B108
:100AD000806C87B986B1887F866086B987B1807E51
:100AE00087B9379A089587B18F7387B9F3CF87B1E4
:100AF0008F73806487B9EECF97B1907E892B87B9C9
:100B0000089586B186FB882780F991E089270895AA
:100B100084B195B10895AB9A84EC90E00C94EB020B
:100B2000AA9A8AEB90E00C94EB02AA98AB98A29A4E
:100B3000A39A08958CEF90E00E94EB020E948B052F
:100B400088EF90E00E94EB0264EF71E080E090E0BB
:100B50000E94570282EF90E00E94EB020E949005F3
:100B60008EEE90E00E94EB0264EF71E080E090E096
:100B70000E94570288EE90E00E94EB02AA9885EB53
:100B800090E00E94EB0284EE90E00E94EB0264EFA2
:100B900071E080E090E00E9457028FED90E00E94AB
:100BA000EB02AB988FEB90E00E94EB028BED90E0B4
:100BB0000E94EB0264EF71E080E090E00E94570237
:100BC00086ED90E00E94EB020E948B0582ED90E0A2
:100BD0000E94EB0264EF71E080E090E00E94570217
:100BE0008DEC90E00E94EB02AB988FEB90E00E94BE
:100BF000EB0289EC90E00C94EB02811105C0AB98FC
:100C00008FEB90E00C94EB020C948B05811105C0E6
:100C1000AA9885EB90E00C94EB020C949005CF938E
:100C2000DF931F92CDB7DEB79E012F5F3F4F3F93FB
:100C30002F932CEA30E03F932F939F938F930E9442
:100C4000A4148EEA90E00E94EB0289810F900F902D
:100C50000F900F900F900F90823051F00E94FD0581
:100C600082EA90E00E94EB020F90DF91CF9108950D
:100C700089EA90E00E94EB020E948B0564EF71E02C
:100C800080E090E00E945702AB988FEB90E00E94CA
:100C9000EB0285EA90E00E94EB0282EA90E00E947B
:100CA000EB020F90DF91CF910895CF93DF931F92C6
:100CB000CDB7DEB79E012F5F3F4F3F932F932CEAB6
:100CC00030E03F932F939F938F930E94A41486E963
:100CD00090E00E94EB0289810F900F900F900F908F
:100CE0000F900F90823051F00E9406068AE890E043
:100CF0000E94EB020F90DF91CF91089581E990E07F
:100D00000E94EB020E94900564EF71E080E090E0A9
:100D10000E945702AA9885EB90E00E94EB028DE8B2
:100D200090E00E94EB028AE890E00E94EB020F90B4
:100D3000DF91CF910895AA98AB98A29AA39A82B313
:100D40008F7082BB81B3806F81BBAD98A59AAF9A3B
:100D5000A79A0895CF93DF9390917301981759F153
:100D6000D82F82B3D1110FC08F7082BBAD9864E6CB
:100D700070E080E090E00E94570280E0D093730121
:100D8000DF91CF910895806F82BBAD9A64E670E0E9
:100D900080E090E00E945702CAE06CE271E080E0DF
:100DA00090E00E9457028AE790E00E94EB02C15057
:100DB000A1F781E0E3CF80E0DF91CF9108950C941B
:100DC000007C0895CF93DF9388E791E00E94EB02C7
:100DD0000E945303C1EFD1E023C048E050E084EC0F
:100DE00091E00E94EF136091F7017091F8014EE1DC
:100DF00050E083ED91E00E94EF1384EC91E00E94BB
:100E0000FC0283E791E00E94EB0283ED91E00E94F7
:100E1000FC020E945303279682E0CE3AD807A1F045
:100E200047E050E0BE0182EF91E00E94DB13609149
:100E3000F3017091F4016115710579F684E691E092
:100E4000DF91CF910C94EB02DF91CF910895CF9376
:100E5000DF9300D000D0CDB7DEB79E012F5F3F4FAC
:100E60003F932F932FEA30E03F932F939F938F93DD
:100E70000E94A41489819A81AB81BC8180936E0009
:100E800090936F00A0937000B09371000F900F903B
:100E90000F900F900F900F900F900F900F900F905A
:100EA000DF91CF910895CF93DF9300D000D0CDB7DD
:100EB000DEB79E012F5F3F4F3F932F932FEA30E025
:100EC0003F932F939F938F930E94A41489819A81BB
:100ED000AB81BC8136E0B695A795979587953A95F5
:100EE000D1F70F900F900F900F900F900F90892BCC
:100EF0008A2B8B2B01F140E050E0BA012FEF8FE8F5
:100F000091E0215080409040E1F700C000004F5F29
:100F10005F4F6F4F7F4F89819A81AB81BC8126E003
:100F2000B695A795979587952A95D1F748175907AC
:100F30006A077B0718F30F900F900F900F90DF91C7
:100F4000CF910895EF92FF920F931F93CF93DF936A
:100F50008C01C1EFD1E08EEAE82E82E0F82E24C0A9
:100F600048E050E084EC91E00E94EF136091F701BB
:100F70007091F8014EE150E083ED91E00E94EF1393
:100F800044EC51E0FA0101900020E9F7AF01455C23
:100F9000514064EC71E0C8010E94FE13892BD1F02E
:100FA0002796EC16FD0671F047E050E0BE0182EF97
:100FB00091E00E94DB136091F3017091F4016115DF
:100FC000710571F681E0DF91CF911F910F91FF9034
:100FD000EF900895C091F20180916E0090916F00A2
:100FE000A0917000B09171000297A105B10508F0C1
:100FF00060C065EC70E0C8010E94800940916E00FD
:1010000050916F006091700070917100CC2309F4D1
:101010005DC00DEC11E021C0F801819391938F0127
:1010200040916E0050916F0060917000709171005E
:10103000423051056105710570F00E94FC0287ED98
:1010400091E00E94EB0240916E0050916F00609120
:10105000700070917100CC23C9F1C150423051052C
:101060006105710520F089ED91E00E94EB0265ECCD
:1010700070E090E080E00E948009009769F683ECC0
:1010800091E00E94EB0284EC91E00E94FC028EEB66
:1010900091E00E94EB0283ED91E00E94FC020E942D
:1010A000530381E0DF91CF911F910F91FF90EF905B
:1010B000089587EE91E00E94EB0284EC91E00E949B
:1010C000FC0285EE91E00E94EB0293CF4230510585
:1010D0006105710510F00E9453038091F201813087
:1010E00009F481C008F478C0823009F444C0833028
:1010F00009F03FC080916E0090916F00A091700048
:10110000B0917100892B8A2B8B2B01F186E991E03C
:101110000E94EB028091CD019091CE010E94FC02D1
:1011200082E991E00E94EB028091CF019091D00181
:101130000E94FC028EE891E00E94EB028091D101B6
:101140009091D2010E94FC020E9453034091D10170
:101150005091D2016091CF017091D001E091F501E1
:10116000F091F6018091CD019091CE01099580E03A
:101170002ACF80E028CF80916E0090916F00A091DF
:101180007000B0917100892B8A2B8B2BB1F086EA0D
:1011900091E00E94EB028091CD019091CE010E94DE
:1011A000FC0282EA91E00E94EB028091CF019091D3
:1011B000D0010E94FC020E9453036091CF01709104
:1011C000D001E091F501F091F6018091CD0190916F
:1011D000CE01099580E0F7CEE091F501F091F6019E
:1011E000099580E0F0CE80916E0090916F00A09103
:1011F0007000B0917100892B8A2B8B2B61F082EBF0
:1012000091E00E94EB028091CD019091CE010E946D
:10121000FC020E945303E091F501F091F6018091E8
:10122000CD019091CE01099580E0CDCED39A0E9458
:10123000800283E0DB982FEF31EE94E021503040C4
:101240009040E1F700C00000DB9A2FEF31EE94E010
:10125000215030409040E1F700C00000815051F72C
:101260002FEF31EE84E0215030408040E1F700C0A4
:1012700000008EE793E00E94EB028AE693E00C9474
:10128000EB02CF93DF93CDB7DEB7E3970FB6F894B9
:10129000DEBF0FBECDBF198262E3CE0101960E9470
:1012A00094039981982B91F4DB9A0E9479108823FA
:1012B00091F38AE593E00E94EB02E3960FB6F8946F
:1012C000DEBF0FBECDBFDF91CF910895811106C063
:1012D0008EE393E00E94EB02DB9ADDCFDB98CE0138
:1012E00001960E94A207882399F382E593E00E9469
:1012F000EB02CE0101960E94FC020E945303E8CF4C
:1013000044E751E00C940C1410925D0210925C02C0
:1013100010924F0210924E021092570210925602F3
:10132000109253021092520210925B0210925A02D3
:10133000109232031092330310923403109235034B
:101340001092490210924A0210924B0248E652E073
:1013500083E6FA0125E030E0808381838283838302
:10136000848321503109359621153105A9F7475E4F
:101370005F4F92E0453E590761F7E5EEF2E083E604
:101380008083818382838383349693E0ED32F907EF
:10139000B9F7109251021092500210926702109207
:1013A0006602109255021092540210924D02109251
:1013B0004C0289E090E0909359028093580208957E
:1013C000CF92DF92EF92FF920F931F93CF93DF9311
:1013D0008091320390913303A0913403B09135038F
:1013E0000196A11DB11D8093320390933303A09306
:1013F0003403B0933503E0915602F0915702EE0F9B
:10140000FF1FEE0FFF1FE558FF4FA0810A2E000CB3
:10141000BB0B80915002909151029D01280F391F02
:10142000263031050CF057C0E1800E2C000CFF086F
:101430002091660230916702A701420F531F463088
:1014400051050CF048C06281062E000C770B4091CC
:10145000540250915502FB01E40FF51F3697DCF55D
:10146000161617060CF044C06901CC0CDD1CCC0C20
:10147000DD1CC20ED31EE9E1E89F9001E99F300D0B
:101480001124C20ED31EC40ED51E50E040E0C6018A
:1014900089599D4F6C014F5F5F4F1E141F042CF53F
:1014A000E601C40FD51F01E010E0FE0130E020E0AE
:1014B0001A161B064CF48081833669F42F5F3F4F68
:1014C0007996A217B307B9F70E151F0574F40F5FCD
:1014D0001F4F2596EACF80E0DF91CF911F910F91AA
:1014E000FF90EF90DF90CF900895461757079CF23A
:1014F00081E0F2CF7F928F929F92AF92BF92CF9274
:10150000DF92EF92FF920F931F93CF93DF9300919F
:10151000560210915702B801660F771F660F771FAA
:10152000DB01A558BF4F12967C901297C0905002D5
:10153000D0905102C0916602D0916702E0905402AF
:10154000F0905502B02E17147CF511969C901197CF
:1015500089E18C9DA0018D9D500D1124CE01880F35
:10156000991F880F991F8C0F9D1F480F591F4E0DF3
:101570005F1D48595D4F812C19148CF49C919A0180
:10158000A12CF90180E019162CF4B0828F5F7996B6
:101590009813FBCFA3942B5F3F4F9A10F2CF839405
:1015A0004F5F5F4F7810E8CFE0915202F091530205
:1015B000EE0FFF1FEE0FFF1FEB51FD4F0083C182A7
:1015C000C283E38265587F4FDB011396EC910E2EA8
:1015D000000CFF0BE75BFD4F80818F5F8083DF9105
:1015E000CF911F910F91FF90EF90DF90CF90BF9020
:1015F000AF909F908F907F900895DF92EF92FF922F
:101600000F931F93CF93DF930091520210915302D7
:10161000000F111F000F111FF801EB51FD4F9181B9
:10162000A2818381E0905602F0905702EE0CFF1CDD
:10163000EE0CFF1CE701C558DF4FDA801D144CF596
:10164000698125E0A202D001112429E19202A00DB6
:10165000B11D1124A80FB11D87FDBA95A859BD4F22
:1016600070E023E616168CF49881AD0130E0FA01A3
:1016700080E019162CF420838F5F79968913FBCFB5
:101680003F5F4B5F5F4F6313F2CF7F5F1196D712BF
:10169000E9CFF801EB51FD4F83E68083818382839C
:1016A0008383F701E558FF4FE3810E2E000CFF0BFB
:1016B000E75BFD4F808181508083DF91CF911F9147
:1016C0000F91FF90EF90DF900895CF9330915002EB
:1016D000209151026091660270916702409154021C
:1016E00050915502C9E1DB01AA0FBB1FAA0FBB1F16
:1016F000A60FB71F832F922FC89F9001C99F300D4F
:101700001124FD01E40FF51FE20FF31FE859FD4F0F
:1017100008C02081233629F10196799685309105FC
:1017200071F145305105ACF3909351028093500212
:10173000509355024093540270936702609366027F
:101740004530510561F484E090E090935502809318
:10175000540281E090E090935D0280935C02CF910F
:1017600008959093510280935002509355024093F4
:1017700054027093670260936602CF9108956F5F81
:101780007F4F159630E020E06530710509F0B2CF4B
:101790004F5F5F4F70E060E0A6CF0F931F93CF9332
:1017A000DF93609132037091330380913403909101
:1017B000350324EC39E040E050E00E947113672BC0
:1017C000682B692B31F580914C0290914D02019666
:1017D0008430910509F4D4C090934D0280934C025B
:1017E0001F9228E02F938E589F4FFC018081282F55
:1017F000082E000C330B3F938F9383EB90E09F9365
:101800008F930E9463140F900F900F900F900F9082
:101810000F9040914E0250914F024115510509F031
:101820006BC0E0915202F0915302EE0FFF1FEE0FDA
:10183000FF1FEB51FD4F2081022E000C330B309324
:10184000570220935602809158029091590201E06C
:101850000CC040914E0250914F0200E041155105DD
:10186000E1F620915602309157028217930719F042
:10187000013009F046C0E0915202F0915302EE0FA0
:10188000FF1FEE0FFF1FEB51FD4FD181C28113816E
:101890000E94FD0A809158029091590220915602AF
:1018A0003091570228173907A1F620915202309142
:1018B00053022150310930935302209352022F3F9B
:1018C0003207A1F0220F331F220F331FF901EB5112
:1018D000FD4F2081022E000C330B309357022093D2
:1018E000560240914E0250914F02B8CF81E090E0F5
:1018F00090934F0280934E02DF91CF911F910F91F1
:1019000008952F5F3F4F3093570220935602220FC6
:10191000331F220F331FF901E558FF4F8381082E33
:10192000000C990BFC01E75BFD4F88589F4F20810D
:10193000FC0180812817D4F48D2FDD0F990B909333
:101940005102809350020C2E000CDD0BD0936702E5
:10195000C0936602812F110F990B909355028093CB
:101960005402DF91CF911F910F91089580915202FF
:1019700090915302019790935302809352024DCF5E
:1019800010924D0210924C0290E080E029CF48E680
:1019900052E083E6FA0130E020E080838183828395
:1019A000838384832F5F3F4F359625303105A9F718
:1019B000475E5F4F92E0453E590761F70895E5EEB7
:1019C000F2E083E68083818382838383349693E08D
:1019D000ED32F907B9F70895EF92FF920F931F9335
:1019E000CF93DF9380915B028F9380915A028F9304
:1019F00088EB90E09F938F930E9463148091E5029F
:101A00000F900F900F900F908336C1F0C9EED2E087
:101A100007EC10E0282F082E000C330B3F938F9318
:101A20001F930F930E9463142496FE0134978081C4
:101A30000F900F900F900F90833661F760915801CF
:101A40007091590180915A0190915B0124E630E038
:101A500040E050E00E944F1320932E0330932F0359
:101A6000409330035093310380916202909163025E
:101A7000A0916402B091650279018A01E81AF90A1D
:101A80000A0B1B0BD801C701BF930F939F93EF92D3
:101A9000809135038F93809134038F93809133032A
:101AA0008F93809132038F938BEC90E09F938F9371
:101AB0000E9463140DB71EB7065F1F4F0FB6F89450
:101AC0001EBF0FBE0DBFDF91CF911F910F91FF90F1
:101AD000EF900895EF92FF920F931F93CF93DF93B0
:101AE00010922D03181619060CF062C0EC0109E0E3
:101AF00010E036E0E32EF12C8EED90E00E94791498
:101B00000E94840980914E0290914F02892B09F026
:101B100043C00E94E009813009F451C0809156020F
:101B20009091570201969093570280935602FC01C0
:101B3000EE0FFF1FEE0FFF1FE558FF4F2381022E10
:101B4000000C330BF901E75BFD4F28583F4F4081F4
:101B5000F90120814213D6CF893091050CF04DC098
:101B6000109357020093560290914B0280917A0095
:101B70009813C8CF8091520290915302019790938D
:101B80005302809352020E94CD0B80914E0290919D
:101B90004F02892B09F4BDCF80912D038F5F809375
:101BA0002D03082E000C990B8C179D070CF4A4CF65
:101BB000DF91CF911F910F91FF90EF9008950E94B8
:101BC0007A0A0E94650B80915C0290915D020197F8
:101BD00061F19091490280917800981794F41092E5
:101BE0005702109256028091520290915302019630
:101BF000909353028093520285CF099709F082CFC8
:101C0000B3CF90914A0280917900981704F5F09231
:101C10005702E0925602809152029091530201962F
:101C200090935302809352026DCF10925D021092F6
:101C30005C020E94EC0C80915A0290915B0201962A
:101C400090935B0280935A020E94CD0B5BCF9091E0
:101C50004B0280917A0098170CF095CF10935702A1
:101C600000935602809152029091530201969093F4
:101C700053028093520246CF4F925F926F927F92AF
:101C80008F929F92AF92BF92CF92DF92EF92FF928C
:101C900026E731E03F932F932CEA30E03F932F93D8
:101CA0009F938F930E94A4146091580170915901E1
:101CB00080915A0190915B0124E6C22ED12CE12C37
:101CC000F12CA70196010E944F13209362023093DA
:101CD0006302409364025093650280917601082E5E
:101CE000000C990B0E946A0D609158017091590186
:101CF00080915A0190915B01A70196010E944F13B8
:101D000020935E0230935F02409360025093610221
:101D10001F9288E08F9380917600282F082E000C68
:101D2000330B3F938F9383EB90E09F938F930E94AD
:101D3000631480915E0290915F02A0916002B09165
:101D4000610240916202509163026091640270915D
:101D50006502841B950BA60BB70BBF93AF939F93A4
:101D60008F938FEF90E09F938F930E946314409026
:101D70005E0250905F0260906002709061028091FC
:101D8000620290916302A0916402B0916502481AC8
:101D9000590A6A0A7B0A80907601082C000C99087F
:101DA000AA08BB08C301B201A50194010E947113E6
:101DB00069017A01C301B201660F771F881F991F5D
:101DC000660F771F881F991F640D751D861D971D4F
:101DD000660F771F881F991FA50194010E94711338
:101DE000D701C601880F991FAA1FBB1F880F991F13
:101DF000AA1FBB1F8C0D9D1DAE1DBF1D880F991FF7
:101E0000AA1FBB1F49015A01881A990AAA0ABB0ACC
:101E1000D501C401BF93AF929F938F92FF92EF922F
:101E2000DF92CF928BE191E09F938F930E94631496
:101E3000809135038F93809134038F938091330386
:101E40008F93809132038F9387E491E09F938F93D8
:101E50000E9463148DB79EB782960FB6F8949EBF0A
:101E60000FBE8DBFFF90EF90DF90CF90BF90AF90EF
:101E70009F908F907F906F905F904F90089584E334
:101E800094E00E94EB0267E175E084E290E20E9438
:101E900027030E94530384E294E00E94EB028091A6
:101EA000A4000E94130382E294E00E94EB0280915E
:101EB000A3000E9413038FE194E00E94EB02809143
:101EC000A400813109F440C058F18032E1F08A3A2F
:101ED000B1F584ED93E00E94EB0286EB93E00E9463
:101EE000EB020E94530387EA93E00E94EB026091A9
:101EF00038037091390380913A0390913B030E941B
:101F000027030C94530386EF93E00E94EB02809129
:101F1000A300811123C082EF93E00E94EB02DDCF8A
:101F2000803169F487E194E00E94EB028091A30084
:101F300081110FC088E094E00E94EB02CECF89EBC4
:101F400093E00E94EB02C9CF86EC93E00E94EB0283
:101F5000C4CF80E094E00E94EB02BFCF8AEE93E012
:101F60000E94EB02BACF8091A3008031B9F060F0FB
:101F7000803231F0803371F48DE594E00C94EB0203
:101F800085E694E00C94EB02811104C08DE494E0AA
:101F90000C94EB0285E494E00C94EB0285E594E06C
:101FA0000C94EB020895CF93C0918301C11121C01D
:101FB00080918201B29B51C081110EC0C1E080911D
:101FC0008101811101C0C0E081E00E94FD0581E036
:101FD000809382018093810184E6809383018091C4
:101FE0007801882331F18150809378018C2FCF9133
:101FF0000895C150C093830180917D0190917E012D
:10200000A0917F01B09180010196A11DB11D809327
:102010007D0190937E01A0937F01B0938001813A6E
:102020009648A140B10598F5C0E0809178018111F2
:10203000DACF80917701CD9B08C0882381F184E6B7
:10204000809378018C2FCF910895882379F280E0D6
:102050000E94060610927701C9CF10927D0110925E
:102060007E0110927F011092800181111FC080912A
:10207000790190917A01A0917B01B0917C01009748
:10208000A105B10529F510928101C0E0CECF80E015
:102090000E94AA06B299FECF0E94DF06C5CF81E05A
:1020A0000E94060681E080937701C9CF80E00E94FC
:1020B000FD051092820180E29EE4A0E0B0E08093F2
:1020C000790190937A01A0937B01B0937C01ADCF0D
:1020D0000197A109B1098093790190937A01A093A6
:1020E0007B01B0937C01892B8A2B8B2B09F09CCF31
:1020F000CACF0C94D30FABE0B0E0E1E8F0E10C9470
:1021000094136C017B013A01FC01178216828381D2
:1021100081FF0AC1CE0101964C01F601B380F7019F
:10212000B3FC0591B3FE01917F01002351F105320B
:1021300039F4B3FC0591B3FE01917F01053251F5ED
:10214000B601802F90E00E94331453013501E5CF92
:102150001068F701B3FC0591B3FE01917F0117FDF3
:102160000EC0002371F0602F70E087E690E00E94BF
:10217000E413892B71F7033259F00C3649F301113E
:102180000BC0F601868197812B96EEE00C94B0137C
:1021900010E1DFCF10E0E3CF602F70E080E690E049
:1021A0000E94E413892B51F05301F4E0AF0EB11CEF
:1021B000B6018FE390E00E943314C8CF033609F4D0
:1021C00057C0033709F45EC0033509F45AC004361A
:1021D00019F0093609F076C0530117FF68C0F4E022
:1021E000AF0EB11CF30160817181828193811F7EEA
:1021F00097FF08C090958095709561957F4F8F4FA0
:102200009F4F10642AE030E0A4010E94BD14082F03
:10221000081916FF05C0B6018DE290E00E94331444
:1022200014FF15C0FE01E00FF11D8081803379F0AD
:10223000B60180E390E00E94331412FF08C01072D0
:10224000812F90E0B601885A9F4F0E9433140150AD
:1022500010E00F5F1F4F080D191DF80182918F01CB
:10226000B60190E00E94331408151905B1F76ECF3E
:10227000530182E0A80EB11CB601F3018081918167
:102280009ACF11605301F2E0AF0EB11CF3016080F0
:102290007180F30110FD859110FF81913F0188232A
:1022A00009F454CFB60190E00E943314F2CFF2E06B
:1022B000AF0EB11CF30160817181072E000C880BF9
:1022C000990B95CF003709F140F4083501F10F362D
:1022D00009F057CF28E030E00CC0053739F0083757
:1022E00009F04FCF146220E130E003C01F7E2AE0E6
:1022F00030E0530117FF0FC0F4E0AF0EB11CF30143
:1023000060817181828193817FCF1061EBCF1460F6
:1023100020E132E0EECFF2E0AF0EB11CF3016081BC
:10232000718190E080E070CF8FEF9FEF2DCF84E63A
:1023300090E00E945602D39A83E0DB982FEF34E3BB
:102340009CE0215030409040E1F700C00000DB9A53
:102350002FEF34E39CE0215030409040E1F700C083
:102360000000815051F78CE00E9476020E948002AA
:102370008DE491E00E94EB020E949B0689E291E0CD
:102380000E94EB020BC00E94D002EC0168EE73E0E9
:1023900080E090E00E945702A39711F0B29BF3CF28
:1023A00081E00E94AA0683E191E00E94EB0262E3D1
:1023B00070E080E090E00E94570281E00E940606F3
:1023C00062E370E080E090E00E94570280E00E94AB
:1023D000060664EF71E080E090E00E94570281E021
:1023E0000E94FD0562E370E080E090E00E945702E9
:1023F00080E00E94FD0564EF71E080E090E00E94C3
:10240000570281E091E00E94EB0280E690E0909319
:102410003F0380933E030E943F0F8091A4008032CF
:1024200029F00E9416090E944109FBCF80E00E941A
:10243000060664E670E080E090E00E94570281E0CA
:102440000E9406060E945303ECCF0E94591208F422
:1024500081E008950E94851288F09F5798F0B92F67
:102460009927B751B0F0E1F0660F771F881F991FC9
:102470001AF0BA95C9F714C0B13091F00E949F12BA
:10248000B1E008950C949F12672F782F8827B85FCA
:1024900039F0B93FCCF3869577956795B395D9F721
:1024A0003EF490958095709561957F4F8F4F9F4F2B
:1024B0000895990F0008550FAA0BE0E8FEEF1616D5
:1024C0001706E807F907C0F012161306E407F50728
:1024D00098F0621B730B840B950B39F40A2661F09C
:1024E000232B242B252B21F408950A2609F4A1403F
:1024F000A6958FEF811D811D089557FD9058440FBB
:10250000551F59F05F3F71F04795880F97FB991F52
:1025100061F09F3F79F0879508951216130614060F
:10252000551FF2CF4695F1DF08C01616170618069C
:10253000991FF1CF86957105610508940895E89477
:10254000BB2766277727CB0197F908950E94B91218
:102550000C942A130E941C1338F00E94231320F0BD
:10256000952311F00C9413130C94191311240C944B
:10257000A0120E947D1270F3959FC1F3950F50E059
:10258000551F629FF001729FBB27F00DB11D639F25
:10259000AA27F00DB11DAA1F649F6627B00DA11DCB
:1025A000661F829F2227B00DA11D621F739FB00D71
:1025B000A11D621F839FA00D611D221F749F3327E1
:1025C000A00D611D231F849F600D211D822F762F7A
:1025D0006A2F11249F5750409AF0F1F088234AF057
:1025E000EE0FFF1FBB1F661F771F881F91505040C3
:1025F000A9F79E3F510580F00C9413130C94A01280
:102600005F3FE4F3983ED4F3869577956795B79549
:10261000F795E7959F5FC1F7FE2B880F911D969563
:10262000879597F9089597F99F6780E870E060E0D3
:1026300008959FEF80EC089500240A94161617065B
:1026400018060906089500240A94121613061406A3
:1026500005060895092E0394000C11F4882352F006
:10266000BB0F40F4BF2B11F460FF04C06F5F7F4FBE
:102670008F4F9F4F089597FB072E16F4009407D0B5
:1026800077FD09D00E94C71307FC05D03EF4909552
:1026900081959F4F0895709561957F4F0895A1E2B0
:1026A0001A2EAA1BBB1BFD010DC0AA1FBB1FEE1FCC
:1026B000FF1FA217B307E407F50720F0A21BB30B17
:1026C000E40BF50B661F771F881F991F1A9469F793
:1026D00060957095809590959B01AC01BD01CF01EF
:1026E0000895052E97FB1EF400940E94881357FD51
:1026F00007D00E944F1307FC03D04EF40C948813AC
:1027000050954095309521953F4F4F4F5F4F08951D
:1027100090958095709561957F4F8F4F9F4F08954D
:102720002F923F924F925F926F927F928F929F92E1
:10273000AF92BF92CF92DF92EF92FF920F931F93CF
:10274000CF93DF93CDB7DEB7CA1BDB0B0FB6F89480
:10275000DEBF0FBECDBF09942A88398848885F84C0
:102760006E847D848C849B84AA84B984C884DF8031
:10277000EE80FD800C811B81AA81B981CE0FD11D15
:102780000FB6F894DEBF0FBECDBFED010895AA1BB2
:10279000BB1B51E107C0AA1FBB1FA617B70710F04C
:1027A000A61BB70B881F991F5A95A9F7809590957E
:1027B000BC01CD010895FB01DC0102C005900D9222
:1027C00041505040D8F70895FC010590061621F0BD
:1027D0000020D9F7C00108953197CF010895FB017A
:1027E000DC014150504048F005900D920020C9F79F
:1027F00001C01D9241505040E0F70895FB01DC01FB
:102800004150504030F08D910190801919F4002012
:10281000B9F7881B990B0895FA01A191B08100972F
:1028200019F41097E1F0CD01DC01CD010D900020ED
:1028300011F4C00113C0FB012191222319F02015CE
:10284000D9F7F3CFFB012191201519F41E921196AF
:1028500006C02223C1F70D900020A1F7D001FA0194
:10286000A193B08308950F931F93CF93DF93182FF5
:10287000092FEB018B8181FD09C01FEF0FEF812F25
:10288000902FDF91CF911F910F91089582FF14C077
:102890002E813F818C819D81281739073CF4E88186
:1028A000F981CF0101969983888310838E819F815E
:1028B00001969F838E83E3CFE885F985812F099563
:1028C000892BA1F3DACFB0E0A0E0E9E6F4E10C94C3
:1028D000A013AE014B5F5F4FFA0161917191AF019F
:1028E00080913E0390913F030E947B10E2E00C94A4
:1028F000BC130F931F93CF93DF93E0913E03F091AE
:102900003F032381EC0110E000E021FD08C00FEF40
:102910001FEF14C00995892B11F00FEF1FEF89915C
:1029200060913E0370913F03DB011896ED91FC919D
:102930008111F0CF8AE00995892B49F7C801DF9111
:10294000CF911F910F910895AEE0B0E0EAEAF4E173
:102950000C94A01385E08C838B899C899A8389834E
:10296000AE01495E5F4F6D897E89CE0101960E945E
:10297000A6162E96E2E00C94BC13FA01AA27283082
:1029800051F1203181F1E8946F936E7F6E5F7F4F3C
:102990008F4F9F4FAF4FB1E03ED0B4E03CD0670FB8
:1029A000781F891F9A1FA11D680F791F8A1F911D0B
:1029B000A11D6A0F711D811D911DA11D20D009F45B
:1029C00068943F912AE0269F11243019305D31939D
:1029D000DEF6CF010895462F4770405D4193B3E086
:1029E0000FD0C9F7F6CF462F4F70405D4A3318F02D
:1029F000495D31FD4052419302D0A9F7EACFB4E0DE
:102A0000A6959795879577956795BA95C9F7009795
:102A10006105710508959B01AC010A2E0694579536
:102A2000479537952795BA95C9F7620F731F841F8D
:102A3000951FA01D089520FD09C0FC0123FD05C0C0
:102A400022FF02C07383628351834083089544FD53
:102A500017C046FD1DC0DB01FC01AA0FBB1FEE1F06
:102A6000FF1F1094D1F76A0F7B1F8E1F9F1F660FE9
:102A7000771F881F991F620F711D811D911D089579
:102A800033E0660F771F881F991F3150D1F7F3CFBE
:102A900034E0F7CF0F931F93CF93DF938C01C801DE
:102AA0000E94B417EC0197FD08C00E94AB17892B58
:102AB000B1F7B801CE010E94F017CE01DF91CF919E
:102AC0001F910F9108958F929F92AF92BF92EF92B4
:102AD000FF920F931F93CF93DF938C01D62F7A0130
:102AE000B22E0E94B4179C0133272B32310529F0F6
:102AF0002D323105A9F46894B7F8D15061F480E023
:102B0000DF91CF911F910F91FF90EF90BF90AF9009
:102B10009F908F900895C8010E94B41797FDEFCF42
:102B2000CB2DCD7F2B2D2073F9F48033E9F4AA242B
:102B3000AA94AD0E89F0C8010E94B41797FD0CC08D
:102B4000282F2F7D283561F4C264D25029F0C801A6
:102B50000E94B41797FF08C0812C912C54011BC010
:102B6000B6FE2BC0C260DA2D812C912C540120EDD1
:102B7000280F283028F1C4FD09C02A3008F1C6FF0B
:102B800005C02F7D3FEE320F3630C8F0B8010E94ED
:102B9000F017C1FFB4CFC7FF08C0B094A0949094C1
:102BA0008094811C911CA11CB11C2C2FB501A40187
:102BB000C7010E941B1581E0A3CFC261D4CF27506B
:102BC0004C2FC501B4010E9427154B015C01C26066
:102BD000D15009F3C8010E94B41797FFC8CFD9CFCD
:102BE000A0E2B0E0E6EFF5E10C9495135C01962EBF
:102BF0007A01CE0101966C0180E2F60111928A956C
:102C0000E9F7F501B381890130E020E0712C812CD6
:102C1000A0E041E050E0F801B3FD8591B3FF819160
:102C2000982F8F01811107C010E000E0C801A09625
:102C3000EDE00C94B1138E3519F42115310541F1F5
:102C4000A21713064CF48D3549F18D3229F4811009
:102C500006C0882483941DC0882009F464C0E92F2D
:102C6000E695E695E695EC0DFD2DF11D892F877013
:102C7000BA0101C0660F8A95EAF78081682B6083EC
:102C8000791651F0971510F49F5FE9CF9150E7CF77
:102C9000A1E02F5F3F4FBFCF812CFBCF882019F0E1
:102CA0008E8180628E83AA2359F0F6019E012F5DEA
:102CB0003F4F8081809580833196E217F307C9F7F3
:102CC00088248394C5010E94B41797FD16C0E82F8D
:102CD000E695E695E695EC0DFD2DF11D208130E0A1
:102CE000AC014770552702C0359527954A95E2F704
:102CF00020FD06C0B5010E94F017882069F094CF2E
:102D0000E114F10429F0F7018083C70101967C01E9
:102D10009A94812C9110D6CFE114F10409F486CF56
:102D2000F701108283CFE82FE695E695E695EC0D46
:102D3000FD2DF11D982F9770BA0101C0660F9A956D
:102D4000EAF79081692B6083782EA3CFB0E0A0E0F2
:102D5000ECEAF6E10C9493136C01EB015A01FC01CF
:102D600017821682512CF601E380FE01E3FC859167
:102D7000E3FE8191182FEF018823E9F090E00E9493
:102D8000AB17892B21F0C6010E944A15ECCF1532F2
:102D900041F4FE01E3FC1591E3FE1191EF011532C0
:102DA00069F4C6010E94B41797FD8EC01817D9F2B6
:102DB000B6010E94F017852D90E08AC000E01A321B
:102DC00031F4E3FC1591E3FE1191EF0101E0F12CE8
:102DD00020ED210F2A3048F101FF37C0FF2059F3C1
:102DE0001836B1F11C3609F43DC0112321F3612FCF
:102DF00070E084E590E00E94E413892BE1F2912CCD
:102E0000812C00FD06C0F50180809180C5010296ED
:102E10005C011E3679F5F6014681578170E060E06D
:102E2000202FC4010E941B159ECF02606F2D70E001
:102E300090E080E040E20E942715F62EFE01E3FCC0
:102E40001591E3FE1191EF01C3CFFF24FA94C8CF8F
:102E5000FE01E3FC1591E3FE1191EF01183609F034
:102E6000C4CF08600460FE01E3FC1591E3FE1191FC
:102E7000EF01BBCF1336C1F401FD02C0FF24F39470
:102E8000C6010E94B41797FD1FC08114910429F058
:102E9000F4018083C40101964C01FA94F110F0CF43
:102EA00000FD61CF53945FCF1B35B9F49E01A4019F
:102EB0006F2DC6010E94F015EC01892B89F7F601F0
:102EC0008381807309F477CF8FEF9FEF511073CF19
:102ED000CDB7DEB7EFE00C94AF13C6010E944A15E0
:102EE00097FDF2CF1F36A9F130F4143641F01936B0
:102EF00039F0006405C01337B9F01537D1F7006217
:102F0000202FA4016F2DC6010E9463158111C8CF27
:102F1000D6CF8114910429F0F4016082C401019696
:102F20004C01FA94FF2071F0C6010E94B4173C01D5
:102F300097FD08C00E94AB17892B59F3B601C30156
:102F40000E94F0178114910409F4AACFF4011082B1
:102F5000A7CF0061D5CF91110C940818803219F0D9
:102F600089508550C8F70895CF93DF93EC012B81EA
:102F700020FF1AC026FF0CC02F7B2B838E819F81E0
:102F800001969F838E838A8190E0DF91CF9108958F
:102F900022FF18C0E881F9818081082E000C990B6E
:102FA000009729F420622B838FEF9FEFEECF3196AD
:102FB000F983E8832E813F812F5F3F4F3F832E832C
:102FC0009927E3CFEA85FB85099597FFF3CF2B81FE
:102FD000019621F080E2822B8B83E6CF80E1FBCF4C
:102FE000FB01238120FF11C026FD0FC08F3F9807F2
:102FF00071F082832F7D20642383268137812150C5
:10300000310937832683992708958FEF9FEF08951D
:0A301000992788270895F894FFCF50
:10301A000000000200000000DC02000000000100C5
:10302A0000007C2F2D5C2000060605040201000426
:10303A00010200020401000201040001040200016D
:10304A000204000302020102030201020203010157
:10305A00010102FEAF2D33323736380025640025D0
:10306A006C6900256325630020204C6F6573756EBB
:10307A00672025643A2000256420002025396C64E5
:10308A0020566572732E20256C6420730A004B6FDC
:10309A006D62696E6174696F6E656E2077657264C0
:1030AA00656E20676573756368742E2E2E0A000A92
:1030BA000A4C6175667A6569743A20256C642053F6
:1030CA00656B756E64656E2E0A0A000A0A4C617594
:1030DA00667A6569743A20256C642E256C642053DF
:1030EA00656B756E64656E202870726F2052756EFE
:1030FA006465292E0A0A0056657273756368653A13
:08310A00202531306C640A003D
:0837F8000A00000000000000BF
:00000001FF
