:100000000C94FB060C9418070C9418070C94180712
:100010000C9418070C9418070C9418070C941807E4
:100020000C9418070C9418070C9418070C941807D4
:100030000C9418070C94D7070C9418070C94180705
:100040000C9418070C9418070C9418070C941807B4
:100050000C946F080C9418070C9418070C9418074C
:100060000C9418070C9418070C9418070C94180794
:100070006E616E00696E660000407A10F35A00A04F
:10008000724E18090010A5D4E80000E87648170061
:1000900000E40B54020000CA9A3B000000E1F505A1
:1000A000000080969800000040420F000000A086EB
:1000B00001000000102700000000E803000000001D
:1000C0006400000000000A000000000001000000C1
:1000D00000002C76D888DC674F0823DFC1DFAE59DB
:1000E000E1B1B796E5E3E453C63AE651997696E86E
:1000F000E6C28426EB898C9B62ED407C6FFCEFBCF2
:100100009C9F40F2BAA56FA5F490055A2AF75C931C
:100110006B6CF9676DC11BFCE0E40D47FEF520E652
:10012000B500D0ED902E0300943577050080841E35
:10013000080000204E0A000000C80C333333330F90
:10014000986E12831141EF8D2114893BE65516CF2D
:10015000FEE6DB18D1844B381BF77C1D901DA4BB39
:10016000E424203284725E228100C9F124ECA1E5EE
:100170003D276364696E6F70737578585B000D0A74
:10018000000D0A002072657300636F72652072654E
:1001900073657420000D0A00207265730072657328
:1001A000657420002063302000206331200020721D
:1001B00030200020723120002E2E2E002072657318
:1001C000002E2E2E0020726573002E2E2E0020721F
:1001D0006573002E2E2E002063726573002E2E2E66
:1001E000002063726573002E2E2E0020726573004E
:1001F0006D6D635F696E6974204572726F72004342
:1002000061726454797065203A002A2A20496E6927
:100210007420646F6E65202A2A0D0A002A2A204263
:100220007574746F6E20496E697420646F6E6520FA
:100230002A2A0D0A002A2A20554152542D496E6956
:100240007420646F6E65202A2A0D0A004100420066
:1002500043004400450046004700480049004A006A
:100260004B004C004D004E004F005000510052001A
:1002700053005400550056005700580059005A00CA
:100280002100E0FFE1FFE5FFE2FFE3FFC000C10066
:10029000C200C300C400C500C600C700C800C90032
:1002A000CA00CB00CC00CD00CE00CF00D000D100E2
:1002B000D200D300D400D500D600D800D900DA008F
:1002C000DB00DC00DD00DE0078010001020104013A
:1002D000060108010A010C010E01100112011401AE
:1002E000160118011A011C011E012001220124011E
:1002F000260128012A012C012E013001320134018E
:10030000360139013B013D013F01410143014501F6
:1003100047014A014C014E0150015201540156015E
:1003200058015A015C015E016001620164016601CD
:1003300068016A016C016E0170017201740176013D
:1003400079017B017D019101910392039303940351
:10035000950396039703980399039A039B039C03C1
:100360009D039E039F03A003A103A303A403A5036E
:10037000A603A703A803A903AA03100411041204E7
:1003800013041404150416041704180419041A0499
:100390001B041C041D041E041F0420042104220449
:1003A00023042404250426042704280429042A04F9
:1003B0002B042C042D042E042F0401040204030436
:1003C0000404050406040704080409040A040B04D1
:1003D0000C040E040F046021612162216321642159
:1003E000652166216721682169216A216B216C21C1
:1003F0006D216E216F2121FF22FF23FF24FF25FFA6
:1004000026FF27FF28FF29FF2AFF2BFF2CFF2DFFA8
:100410002EFF2FFF30FF31FF32FF33FF34FF35FF58
:1004200036FF37FF38FF39FF3AFF000061006200F6
:1004300063006400650066006700680069006A0088
:100440006B006C006D006E006F0070007100720038
:1004500073007400750076007700780079007A00E8
:10046000A100A200A300A500AC00AF00E000E100E5
:10047000E200E300E400E500E600E700E800E90050
:10048000EA00EB00EC00ED00EE00EF00F000F10000
:10049000F200F300F400F500F600F800F900FA00AD
:1004A000FB00FC00FD00FE00FF000101030105014F
:1004B000070109010B010D010F01110113011501C4
:1004C000170119011B011D011F0121012301250134
:1004D000270129012B012D012F01310133013501A4
:1004E00037013A013C013E0140014201440146010D
:1004F00048014B014D014F01510153015501570175
:1005000059015B015D015F016101630165016701E3
:1005100069016B016D016F01710173017501770153
:100520007A017C017E019201B103B203B303B403EB
:10053000B503B603B703B803B903BA03BB03BC03DF
:10054000BD03BE03BF03C003C103C303C403C5038C
:10055000C603C703C803C903CA0330043104320405
:1005600033043404350436043704380439043A04B7
:100570003B043C043D043E043F0440044104420467
:1005800043044404450446044704480449044A0417
:100590004B044C044D044E044F04510452045304C4
:1005A0005404550456045704580459045A045B046F
:1005B0005C045E045F047021712172217321742137
:1005C000752176217721782179217A217B217C215F
:1005D0007D217E217F2141FF42FF43FF44FF45FFF4
:1005E00046FF47FF48FF49FF4AFF4BFF4CFF4DFFC7
:1005F0004EFF4FFF50FF51FF52FF53FF54FF55FF77
:1006000056FF57FF58FF59FF5AFF0000C700FC0074
:10061000E900E200E400E000E500E700EA00EB00AA
:10062000E800EF00EE00EC00C400C500C900E600E1
:10063000C600F400F600F200FB00F900FF00D6004F
:10064000DC00F800A300D800D7009201E100ED0023
:10065000F300FA00F100D100AA00BA00BF00AE001A
:10066000AC00BD00BC00A100AB00BB0091259225F1
:10067000932502252425C100C200C000A9006325DE
:10068000512557255025A200A500102514253425F5
:100690002C251C2500253C25E300C3005A255425A4
:1006A00069256625602550256C25A400F000D00042
:1006B000CA00CB00C800AC20CD00CE00CF0018256A
:1006C0000C2588258425C600CC008025D300DF00BA
:1006D000D400D200F500D500B500FE00DE00DA003F
:1006E000DB00D900FD00DD00AF00B400AD00B100BB
:1006F0001720BE00B600A700F700B800B000A800A1
:10070000B700B900B300B200A025A00020666C615C
:10071000736865642E0A0D0046696C6520002064CC
:100720006F6E65202E2E2E0A0D00204B420D0046C6
:100730002D77726974696E672020307800646F6E5F
:10074000650A0D00464C6173683A206572617369F1
:100750006E67202E2E2E20004572726F723A205541
:100760006E61626C6520746F20726561643A20006E
:10077000200020637265617465642E0A0D0046696D
:100780006C6520000A0D646F6E65202E2E2E0A0DFA
:1007900000204B420D00462D72656164696E672032
:1007A000203078004572726F723A20556E61626C2B
:1007B0006520746F206372656174653A20002000C3
:1007C000200030003100203A200041532D53746145
:1007D0007475733A200020427974650053697A6514
:1007E0003A203078002A2A20756E6B6E6F776E2063
:1007F0002A2A004550435336340045504353513361
:100800003200455043533136004550435334004580
:100810005043533100200053696C69636F6E2D495A
:10082000443A2000466978656420506172616D65C4
:100830007465723A206C656E2C207573696E672042
:100840006C656E3D20003E003C004572726F723A4E
:1008500020556E61626C6520746F206F70656E3A12
:1008600020002D2D2D2D2D2D2D2D2D2D2D2D0A0D35
:1008700000202D2D20002A2A2059482D465047417E
:100880002D5368656C6C202A2A0D0A00434D443AAA
:10089000206361740D0A00434D443A206865780D69
:1008A0000A00202A2000202A2000506172616D6514
:1008B0007465723A2000202A2000506172616D65D3
:1008C0007465723A2000506172616D657465723AA8
:1008D0002000202D2D20006D697373696E672070D4
:1008E0006172616D657465723A200020005061721A
:1008F000616D657465723A20002000436F6D6D6113
:100900006E643A200000AA0BD92CA00B009A0BD6DB
:100910002C8D0B00880BD3387C0B01760B1E2D62BF
:100920000B015C0B4A2D4C0B01450BCA37370B00F2
:10093000340B992D1E0B011A0BCB2D100B010C0B38
:100940009C2DFF0A01FC0AB32FED0A01E90A0E0CE7
:10095000DA0A01D50A4B0CC10A01B90A152CA80AFA
:10096000019F0A4C2C800A00770A522C660A005E0E
:100970000A433C4E0A03470AA83A2E0A02260A7D79
:100980003B0E0A02070ACB39F50901F2095D3CE288
:100990000902DA097C3DC2090000000000000000E5
:1009A0000000000000000000000000000000000047
:1009B0000000000000000000000000000000000037
:1009C0000000722D7772697465206F6666736574B6
:1009D0002066726F6D66696C6500722D777269743E
:1009E0006500736420726177696D61676566696C23
:1009F0006500736400662D64756D70206F666673A4
:100A00006574206C656E00662D64756D7000662DD2
:100A10007772697465206F66667365742066726F9D
:100A20006D66696C6500662D777269746500662D68
:100A300072656164206F6666736574206C656E20F4
:100A4000746F66696C6500662D726561640065721D
:100A500061736520544F532D466C61736800662D99
:100A6000657261736500436F6E666967466C61739A
:100A70006820496E666F0061732D67657469640054
:100A80007772697465202E7262662066696C6520D3
:100A9000746F20436F6E666967466C6173680061AE
:100AA000732D7772697465007265616420436F6E9F
:100AB000666967466C6173680061732D7265616475
:100AC000006372657320636F726572657365746C21
:100AD0006576656C0063726573007265732072657C
:100AE0007365746C6576656C007265730065786516
:100AF0006320626174636866696C6500646F006896
:100B0000657864756D702066696C6500686578004D
:100B100073686F772066696C6500636174006C6947
:100B20007374205344436172642044697265637432
:100B30006F7279006C730070757A7A6C6520726FD1
:100B4000756E64730070757A7A6C6500776169748C
:100B50002064656C74696D65206D730064656C61FB
:100B60007900656E61626C6520446562756720542A
:100B700072616365730074726163650053797374A5
:100B8000656D20496E666F00696E666F006D6F75EA
:100B90006E7420534443617264007265736574001F
:100BA0007468697320546578740068656C700066B9
:100BB0007067612D7368656C6C3A3E2000457272F7
:100BC0006F723A200059482D667067612D73686511
:100BD0006C6C3A3E20002A2A2A205375736B612DD3
:100BE0004949492D4320465047412D5368656C6C57
:100BF000202A2A2A0D0A0046504741204465666192
:100C0000756C7420696E69742D46696C652028695D
:100C10006E69742E74787429206661696C65640D40
:100C20000A0020667265733D004572726F723A2049
:100C3000556E61626C6520746F206F70656E3A202E
:100C4000002000203A20004572726F723A20556EE3
:100C500061626C6520746F206F70656E3A200020B1
:100C60004B420D0046522D77726974696E672020E1
:100C700030780020646F6E650A0D00773A200072AC
:100C80003A20000A0D7365656B206661696C6564C6
:100C90000A0D000A0D696C6C6567616C20726571E4
:100CA0003A20000A0D6578697420436D640A0D00CE
:100CB0005245510A0D0077616974202E2E2E2000B6
:100CC000204B420D0054462D77726974696E67207F
:100CD00020307800204B420D0054462D726561642F
:100CE000696E672020307800465047412D56657266
:100CF00073696F6E3A2000292000556E6B6E6F7716
:100D00006E20436F7265004D756C7469636F6D7012
:100D1000205A3830004F6C6420436F726520776929
:100D200074686F7574207479706500756E6B6E6F82
:100D3000776E004156520054657374436F7265209C
:100D400000756E6B6E6F776E00537061636520493E
:100D50006E76616465727300417263616465200040
:100D60002046414C434F4E20005375736B612D4913
:100D700049492D43002053544520005375736B613E
:100D80002D4949492D430020280020004650474165
:100D90002D436F7265747970653A200041544D455A
:100DA00047412D56657273696F6E3A200053444374
:100DB000206F6E6C7900534443206F722046424F7F
:100DC0004F5400424F4F544156523A2000756E6BBB
:100DD0006E6F776E00574636384B303000574636C8
:100DE000384B313000574636384B33300057463693
:100DF000384B33304C0011241FBECFEFD0E1DEBFA3
:100E0000CDBF14E0A0E0B1E0E6E3F4E902C0059054
:100E10000D92A037B107D9F728E0A0E7B4E001C0F0
:100E20001D92A13FB207E1F70E945B420C94194A60
:100E30000C9400009093710480937004F8941092C5
:100E4000800028E0209381008130910531F18436C3
:100E5000910509F440C0883E934009F45AC080913E
:100E600081008560809381008BE990E090938900F8
:100E7000809388008AE090E0A0E0B0E080937A045C
:100E800090937B04A0937C04B0937D0480916F00C9
:100E9000826080936F0078940895809181008460CF
:100EA000809381008DE390E0909389008093880087
:100EB00081E090E0A0E0B0E080937A0490937B041E
:100EC000A0937C04B0937D0480916F008260809336
:100ED0006F007894089580918100856080938100EF
:100EE00089E196E0909389008093880084E690E001
:100EF000A0E0B0E080937A0490937B04A0937C04FC
:100F0000B0937D0480916F00826080936F0078942D
:100F100008958091810085608093810088E09DE341
:100F2000909389008093880088EE93E0A0E0B0E081
:100F300080937A0490937B04A0937C04B0937D0407
:100F400080916F00826080936F0078940895CF92B3
:100F5000DF92EF92FF92C0907604D0907704E090F9
:100F60007804F090790420917A0430917B044091C8
:100F70007C0450917D040E94FB43BA01A9014C0DF1
:100F80005D1D6E1D7F1D8091760490917704A09168
:100F90007804B091790484179507A607B70798F3EA
:100FA000FF90EF90DF90CF9008950C94A7071F92C9
:100FB0000F920FB60F9211248F939F93AF93BF930D
:100FC0008091760490917704A0917804B09179048F
:100FD0000196A11DB11D8093760490937704A09390
:100FE0007804B09379048091720490917304A09175
:100FF0007404B0917504892B8A2B8B2B99F0809106
:10100000720490917304A0917404B09175040197D7
:10101000A109B1098093720490937304A09374049E
:10102000B0937504BF91AF919F918F910F900FBEB8
:101030000F901F9018954091720450917304609125
:1010400074047091750481E0452B462B472B09F001
:1010500080E0089560937204709373048093740425
:1010600090937504089520917004309171042115B6
:10107000310539F040E050E00E94FB43CA01B9015C
:10108000089560E070E0CB0108951092C500809350
:10109000C40086E08093C20088E18093C100089577
:1010A0009093C5008093C40008959FB7F8948091F1
:1010B000C10080688093C1008091C6008091C0000B
:1010C00087FDFACF80EC8093C0009FBF42E365E0CC
:1010D00075E087E395E00E94C509789408951F9212
:1010E0000F920FB60F9211242F933F934F938F932C
:1010F0009F93EF93FF934091C600909137058091A5
:1011000038059817D0F4E0913B05F0913C059F011C
:101110002F5F3F4F408380913E058150D1F08093F7
:101120003E0530933C0520933B059FB7F894809192
:1011300037058F5F809337059FBFFF91EF919F9198
:101140008F914F913F912F910F900FBE0F901F9055
:10115000189580913805281B3109E1CF87E395E088
:101160000C94E90987E395E00C94CF099091C000B5
:1011700095FFFCCF8093C6000895CF93C82F8A3087
:1011800039F08C2F0E94B60880E090E0CF9108954E
:101190008DE00E94B6088C2F0E94B60880E090E097
:1011A000CF910895CF93DF93EC01FC0184918823C4
:1011B00039F00E94B6082196FE0184918111F9CF81
:1011C000DF91CF910895CF93DF93EC01888188233D
:1011D00031F021960E94B60889918111FBCFDF91F1
:1011E000CF9108958A3018F4805D0C94B608895C1C
:1011F0000C94B608CF93C82F82958F700E94F20886
:101200008C2F8F70CF910C94F208CF93C82F892F19
:101210000E94FA088C2FCF910C94FA08CF92DF929B
:10122000EF92FF926B017C01C7010E940509C60184
:10123000FF90EF90DF90CF900C940509CF93C82FCB
:101240008436B0F08CE98C0F8436A0F0C85C82E361
:101250000E94B60880E3CA3020F08F5FCA50CA30BF
:10126000E0F70E94B60880E38C0FCF910C94B6088B
:1012700080E3EECFC82F81E3EBCF8EE791E00C94B3
:10128000D208EF92FF920F931F93CF93DF937C01CD
:10129000D62FC0E000E010E008C0CF5F0C2F10E0B8
:1012A000F701E00FF11FCD17F0F487E395E00E94FE
:1012B000E909F701E00FF11F8F3F2FEF920799F037
:1012C00080838D3081F08A3071F0883031F7CC2303
:1012D00099F01082C1500C2F10E0F801EE0DFF1DA7
:1012E0001082CD1710F310828C2FDF91CF911F91B8
:1012F0000F91FF90EF900895E0E0F0E0EFCF0F93B3
:101300001F93CF93DF938C01D62FC0E00DC0F8015F
:10131000EC0FF11D80838D3049F18A3039F188302E
:10132000A9F0CF5FCD17F8F487E395E00E94E909B3
:101330008F3F2FEF920759F7C111F4CFF8011082B8
:101340008C2FDF91CF911F910F910895CC2341F005
:101350001082C150EC2FF0E0E00FF11F1082E2CFBD
:10136000E0E0F0E0F9CFF801EC0FF11D10820D97ED
:1013700039F7C111E5CF8DE0F801808311828C2F00
:10138000DF91CF911F910F910895FC011082758319
:101390006483738362834183478346830895FC019A
:1013A00090819923E9F3A281B3819D012F5F3F4F83
:1013B0008C919681915019F49181291B31093383C5
:1013C000228396832FB7F8949081915090832FBFFA
:1013D0000895FC0180818823B9F0A281B3819D0129
:1013E0002F5F3F4F8C919681915019F49181291B69
:1013F00031093383228396832FB7F89490819150DB
:1014000090832FBF90E008958FEF9FEF0895CF93C3
:10141000DF93EC01C11580E8D807E9F0CE01D7FDD4
:101420001FC010928404E4E8F4E02AE030E0B9013F
:101430000E94E743805D8293CB010097C1F7D7FDFF
:1014400004C0CF01DF91CF9108958DE28293CF0147
:10145000DF91CF9108958EEE91E0DF91CF910895C5
:10146000882799278C1B9D0BDCCFFC0190819D3236
:1014700049F19B3261F161E070E080ED890F8A30C3
:1014800058F5319620E030E0A901440F551F220F96
:10149000331F220F331F220F331F420F531F292FD9
:1014A00030E020533109240F351F919180ED890FD1
:1014B0008A3050F3269FC001279F900D369F900DD4
:1014C00011240895918131966FEF7FEFD6CF9181EE
:1014D000319661E070E0D1CF80E090E008958A30ED
:1014E00010F4805D0895895C08951F93CF93DF9376
:1014F000182F82958F700E946F0ACAE8D4E0888303
:10150000812F8F700E946F0A89831A82CE01DF912A
:10151000CF911F9108950F931F93CF93DF938C0169
:10152000812F82958F700E946F0AC5E8D4E088836E
:10153000C80188279F70892F0E946F0A8983C8017C
:10154000807F9927929582958F7089279F70892730
:101550000E946F0A8A83802F8F700E946F0A8B838C
:101560001C82CE01DF91CF911F910F9108958F9230
:101570009F92AF92BF92FF920F931F93CF93DF93EF
:101580004B015C011092940420E030E0A9010E941C
:10159000D14287FD7BC0F12C20E030E048EC52E4E2
:1015A000C501B4010E9452430E94D6424B015C0126
:1015B00024E630E040E050E00E94FB432DEC629FC7
:1015C000212D1124269526952695462F3AE0239F16
:1015D00040191124463008F447C02AE030E040E0CA
:1015E00050E00E94FB43293009F057C084E6880E82
:1015F000911CA11CB11C20E3209393048EE28093E4
:101600009204C501B40124E630E040E050E00E94BD
:10161000FB43CA01B901232B242B252B89F101E9B6
:1016200014E02AE0822E912CA12CB12C01C08E0155
:10163000E8012197A50194010E94FB43605D698345
:10164000B901CA01611571058105910581F7F11094
:1016500013C0C801DF91CF911F910F91FF90BF90F0
:10166000AF909F908F9008952AE030E040E050E0E6
:101670000E94FB43205DC0CF8DE288838E01E9CFBD
:1016800080E38093910401E914E0E3CFB7FAB094CA
:10169000B7F8B094FF24F3947FCF2F5CADCF8130A7
:1016A00019F0E8F08230A9F080917C00806C809382
:1016B0007C0080917A00876080937A0080917C0022
:1016C000807E80937C0080917A00806880937A008D
:1016D000089580917C008F7380937C00EACF809185
:1016E0007C008F73806480937C00E3CFECE7F0E0B4
:1016F0009081907E892B8083089580917A0086FB6B
:10170000882780F991E08927089580917800909149
:1017100079000895429A83EB91E00C94D208419AA3
:1017200089EA91E00C94D208419A429A399A3A9AFD
:1017300008958BEE91E00E94D20842988EEA91E0E3
:101740000E94D20887EE91E00E94D20864EF71E017
:1017500080E090E00E94D50781EE91E00E94D208DF
:10176000419884EA91E00E94D2088DED91E00E94B8
:10177000D20864EF71E080E090E00E94D50787ED29
:1017800091E00E94D2080E948F0B83ED91E00E94AD
:10179000D20864EF71E080E090E00E94D5078EEC03
:1017A00091E00E94D2080E948A0B8AEC91E00E948C
:1017B000D20864EF71E080E090E00E94D50785ECEC
:1017C00091E00E94D20842988EEA91E00E94D208ED
:1017D00081EC91E00E94D20864EF71E080E090E03B
:1017E0000E94D5078CEB91E00E94D2080E948A0BE0
:1017F00088EB91E00C94D208811105C042988EEAE2
:1018000091E00C94D2080C948A0B811105C0419888
:1018100084EA91E00C94D2080C948F0BCF93DF9361
:101820001F92CDB7DEB79E012F5F3F4F3F932F939F
:1018300025EF31E03F932F939F938F930E9487462C
:101840008DE991E00E94D2085B9889810F900F90FA
:101850000F900F900F900F90823059F00E94FC0B68
:101860005B9A85E991E00E94D2080F90DF91CF91B9
:10187000089588E991E00E94D20842988EEA91E0AA
:101880000E94D20864EF71E080E090E00E94D507EA
:101890000E948A0BE5CFCF93DF931F92CDB7DEB7BF
:1018A0009E012F5F3F4F3F932F9325EF31E03F93F2
:1018B0002F939F938F930E94874689E891E00E941F
:1018C000D2085B9889810F900F900F900F900F9026
:1018D0000F90823059F00E94050C5B9A81E891E0EC
:1018E0000E94D2080F90DF91CF91089584E891E093
:1018F0000E94D208419884EA91E00E94D20864EFE5
:1019000071E080E090E00E94D5070E948F0BE5CF48
:1019100084B18C6084B90895282F98E080E065C078
:1019200000000000000000000000000000000000B7
:1019300000000000000000000000000000000000A7
:101940000000000000000000000000000000000097
:101950002A9A0000000000000000000000000000C3
:101960000000000000000000000000000000000077
:101970000000000000000000000000000000000067
:101980000000220F00000000000000000000000026
:101990000000000000000000000000000000000047
:1019A0000000000000000000000000000000000037
:1019B000000000002A980000000000000000000065
:1019C0000000000000000000000000000000000017
:1019D0000000000000000000000000000000000007
:1019E000000000000000915079F027FD0EC02B98F8
:1019F000880F1C99816030919504311191CF2A9AFA
:101A0000220F2A98915089F708952B9AF1CF80914F
:101A1000960408952F9A279A0895CF93DF938FEF16
:101A20000E948C0CC5EFD1E002C0219729F08FEF06
:101A30000E948C0C8F3FC9F7DF91CF910895FF92E0
:101A40000F931F93CF93DF93C82FD42F152F062FFB
:101A5000F72E87FD0DC02F9A2F980E940D0D8F3FF6
:101A600089F08FEFDF91CF911F910F91FF90089533
:101A700040E050E0BA0187E70E941F0D823090F7E6
:101A8000CF77E9CF8C2F0E948C0C8F2D0E948C0C6D
:101A9000802F0E948C0C812F0E948C0C8D2F0E9415
:101AA0008C0CC03491F0C834A1F081E00E948C0C01
:101AB000CC3499F0C4EFD1E002C0219799F28FEFB6
:101AC0000E948C0C87FFCECFF8CF85E90E948C0C4A
:101AD000F1CF87E80E948C0CEDCF8FEF0E948C0C29
:101AE000E9CF8F929F92AF92BF92CF92DF92EF9207
:101AF000FF920F931F93CF93DF9300D000D0CDB709
:101B0000DEB72F9A279A2FEF81EE94E02150804084
:101B10009040E1F700C0000081E0809395041FE051
:101B20008FEF0E948C0C1150D9F7EFEFF1EE24E00B
:101B3000E150F0402040E1F700C00000E12CF12C22
:101B400009C0EFEFF0E722E0E150F0402040E1F77C
:101B500000C0000040E050E0BA0180E40E941F0D88
:101B6000813011F18FEFE81AF80A9CE0E916F104D0
:101B700041F7109296042F9A80EF91E00E94D208CC
:101B80000E943D09812F0F900F900F900F90DF91D1
:101B9000CF911F910F91FF90EF90DF90CF90BF906A
:101BA000AF909F908F9008954AEA51E060E070E016
:101BB00088E40E941F0D8130B9F140E050E0BA0185
:101BC00089EE0E941F0D823008F489C001E091E483
:101BD000D92E09C040E050E0BA018D2D0E941F0DA2
:101BE000882309F475C0FFEFEF1AFF0A29EEE21609
:101BF00023E0F20679F740E052E060E070E080E533
:101C00000E941F0D8111B5CF009396042F9A109258
:101C100095048FEF91E00E94D208802F0E94FA086D
:101C20000E943D0911E0AECFFE0131964F015E01E9
:101C3000F5E0AF0EB11C64018FEF0E948C0CF60131
:101C400081936F01AE16BF06B9F78B81813009F021
:101C500090CF8C818A3A09F08CCFFFEFEF1AFF0A00
:101C600012C02FEF80E792E0215080409040E1F7D2
:101C700000C00000EFEFEE1AFE0AF5EFEF16F1E0FC
:101C8000FF0609F476CF40E050E060E070E489EEB2
:101C90000E941F0D8111E5CF24EFE21621E0F2062C
:101CA00008F067CF40E050E0BA018AE70E941F0DBC
:101CB00081115FCF8FEF0E948C0CF40181934F0153
:101CC000AE16BF06B9F7898186FD0DC004E09CCF32
:101CD00088EEE81683E0F80609F44BCF8CCF02E0DB
:101CE00089EED82E80CF0CE08FCFCF92DF92EF928B
:101CF000FF920F931F93CF93DF937A012091960465
:101D000023FD07C029E0660F771F881F991F2A95BA
:101D1000D1F7AB01BC0188E50E941F0D882349F073
:101D2000DF91CF911F910F91FF90EF90DF90CF90B7
:101D300008950E940D0D8F3F11F081E0F1CF8EEFDD
:101D40000E948C0C87018EEFF81A6801F8018191CE
:101D50008F010E948C0CF6012081CE019227092E62
:101D60000294202D2F702927392F3025330F307EF4
:101D70002327302D3927307F3695092E000C331F4D
:101D80009695969596959F7193279827822FEC01AB
:101D90000E151F0509F0D9CF8D2F0E948C0C8C2FAA
:101DA0000E948C0C8FEF0E948C0C8F71853009F093
:101DB000C4CF8FEF0E948C0C8F3FD9F72F9A80E011
:101DC000AFCFEF92FF920F931F93CF93DF93D42F58
:101DD000C52F2091960423FD07C029E0660F771FC9
:101DE000881F991F2A95D1F7AB01BC0181E50E949C
:101DF0001F0D811140C08FEF0E948C0C8E3FD9F7D0
:101E00000D2F1C2F78018EEFF81AC0E0D0E08FEF75
:101E10000E948C0CF80181938F019E013827032EBC
:101E20000294802D8F708327932F9025990F907E99
:101E30008927902D9327907F9695032E000C991F4C
:101E40003695369536953F7139273227282FE90187
:101E5000EE15FF05E1F68FEF0E948C0C082F10E0C5
:101E6000102F00278FEF0E948C0C2F9A082B81E0F7
:101E70000C171D0739F0DF91CF911F910F91FF9043
:101E8000EF90089580E0DF91CF911F910F91FF9027
:101E9000EF90089508950E94710D882321F010920B
:101EA000970480E0089583E08093970408958091DB
:101EB00097040895FB01CA01B901AF010E94E10E28
:101EC00090E00895FB01CA01B901AF010E94750EAF
:101ED00090E008950F931F93CF93DF938A012F987B
:101EE0006623A9F06A3039F40E94070DF801808357
:101EF000C0E0D0E002C0C4E0D0E02F9A8FEF0E9493
:101F00008C0CCE01DF91CF911F910F9108950E940B
:101F10000D0D8F3F91F7ECCF4F925F926F927F92B2
:101F2000AF92BF92CF92DF92EF92FF920F931F93E7
:101F3000CF93DF93FC01C2A4D3A4E4A4F5A4C416F8
:101F4000D506E606F70659F02A013B01EC0184812B
:101F5000811126C0411451046104710489F480E0A8
:101F600090E0DF91CF911F910F91FF90EF90DF9064
:101F7000CF90BF90AF907F906F905F904F900895FB
:101F800001E0A3019201BE01625D7F4F89810E9441
:101F90005A0F892BE1F54AA65BA66CA67DA6DFCF7A
:101FA0005F01FEE2AF0EB11C01E0A7019601B50191
:101FB00089810E94620F892B51F51C828E899F892D
:101FC000A88DB98D4E8D5F8D68A179A1480F591FDD
:101FD0006A1F7B1FC416D506E606F70608F0BACFBF
:101FE0001B81123028F4B6CF8E899F89A88DB98DB8
:101FF000C80ED91EEA1EFB1E01E0A7019601B5011D
:1020000089810E94620F1150113071F7A3CF81E0D6
:1020100090E0A7CF0F93CF93DF93EC019A01AB0130
:10202000BC01625D7F4F01E089810E945A0F892BBC
:1020300029F083E0DF91CF910F910895FE01E45DD7
:10204000FD4F8081918185359A4A29F082E0DF91A8
:10205000CF910F910895E85CF14080819181A28138
:10206000B381BB2786349144A445B10569F0C058BB
:10207000DF4F488159816A817B81772781E046342F
:10208000514464457105B1F680E0D4CFFC018181F3
:102090000E94570F80FF03C083E090E0089580E026
:1020A00090E008957F928F929F92AF92BF92CF92CD
:1020B000DF92EF92FF920F931F93CF93DF93EC0188
:1020C0006A017B018E8C9F8CA8A0B9A08881823088
:1020D00009F475C0833009F44FC0813089F06FEF87
:1020E0007FEFCB01DF91CF911F910F91FF90EF9088
:1020F000DF90CF90BF90AF909F908F907F9008958A
:102100008A01169507950C0D1D1DC801892F992769
:102110008695B501A401480F591F611D711DCE019F
:102120000E948C0F892BD9F6F801F170EC0FFD1F7E
:1021300076A40F5F1F4FC801892F99278695B50197
:10214000A401480F591F611D711DCE010E948C0F03
:10215000892B29F61170C00FD11F8EA5672D70E055
:10216000782BC0FE47C0729562956F7067277F70AD
:10217000672780E090E0B6CF97E076956795579512
:1021800047959A95D1F7480D591D6A1D7B1DCE01C3
:102190000E948C0F892B09F0A2CFCC0CDD1CCC0C3B
:1021A000DD1C8CEFC82281E0D822CC0DDD1D8EA570
:1021B0009FA5A8A9B9A9BC01CD019F7093CF452FB8
:1021C000562F672F7727480D591D6A1D7B1DCE019D
:1021D0000E948C0F892B09F082CFCC0CDD1CE89477
:1021E000C0F881E0D822CC0DDD1D6EA57FA580E072
:1021F00090E078CF7F7080E090E074CFAF92BF9294
:10220000CF92DF92EF92FF920F931F93CF93DF93C2
:102210008C01EB01DC0115967C936E931497169656
:102220004D915D916D917C911997413051056105FA
:10223000710569F0FC01A080B180F501828D938D5C
:10224000A48DB58D481759076A077B0768F082E0AF
:1022500090E0DF91CF911F910F91FF90EF90DF9071
:10226000CF90BF90AF90089541155105610571055C
:1022700009F048C020812330D9F1D8011A961D9267
:102280001D921D921C921D97F50180859185C8179E
:10229000D907E8F682A193A1A4A1B5A19E01329528
:1022A00022952F7023273F702327AC01BD01420FD9
:1022B000531F611D711DD8011E964D935D936D9343
:1022C0007C935197F501BE96CF70DD27CC0FDD1FB3
:1022D000C295D295D07FDC27C07FDC27EC0FFD1F95
:1022E000D8015396FC93EE93529780E090E0B1CFE3
:1022F00042A153A164A175A1411551056105710564
:1023000009F4BBCFF501E280F0E1EF9E70011124EA
:10231000CE15DF0530F537C0C5010E945210AB0164
:10232000BC014F3FFFEF5F076F077F0709F45EC0F7
:10233000423051056105710508F489CFD801AD908F
:10234000BC90F501828D938DA48DB58D48175907EA
:102350006A077B0708F07BCFCE19DF09CE15DF05B2
:1023600090F0423051056105710508F470CFF50118
:10237000828D938DA48DB58D481759076A077B0709
:1023800008F065CFC9CFF801428753876487758706
:102390009A01AB0122503109410951090297A10963
:1023A000B109281739074A075B0718F5F501A2811B
:1023B000B0E00E944B44C6A0D7A0E0A4F1A4DC0189
:1023C000CB018C0D9D1DAE1DBF1D9E01329522952A
:1023D0002F7023273F702327820F931FA11DB11D4C
:1023E000F80186879787A08BB18B6CCF81E090E056
:1023F00030CF80E090E0DC01E8CF2F923F924F9207
:102400005F926F927F928F929F92AF92BF92CF9284
:10241000DF92EF92FF920F931F93CF93DF9300D041
:102420001F92CDB7DEB79B838A836A017B01480187
:102430005901FC01468C578C60A071A0F081F98392
:10244000F23009F488C0F33009F461C0F130E9F0EA
:1024500002E010E081E0EA81FB818483C8010F90F3
:102460000F900F90DF91CF911F910F91FF90EF9000
:10247000DF90CF90BF90AF909F908F907F906F90A4
:102480005F904F903F902F900895CA019695879541
:102490001C012C0C3D1CC101892F99278695B30185
:1024A000A201480F591F611D711D8A819B810E94E5
:1024B0008C0F8C01892B71F6F101F1708A819B815F
:1024C000E80FF91FC0FE64C086A5282F2F7030E1E9
:1024D000839EC0011124822B86A771018FEFE81A19
:1024E000F80A3981EA81FB813483C701892F992752
:1024F0008695B301A201480F591F611D711DCF01BF
:102500000E948C0F009709F46AC08C01A3CF27E0CA
:1025100076956795579547952A95D1F7440D551DA2
:10252000661D771D8A819B810E948C0F8C01892BEF
:1025300009F090CFCC0CDD1CCC0CDD1C9CEFC9222B
:1025400091E0D922EA81FB81EC0DFD1D86A697A6BC
:10255000A0AAB1AA7FCF77276F2D5E2D4D2D440DF8
:10256000551D661D771D8A819B810E948C0F8C01F1
:10257000892B09F06FCFCC0CDD1CF601EE7FF170DA
:10258000BE968A819B81E80FF91F9182808262CF7B
:1025900086A671019FEFE91AF90A3981EA81FB8168
:1025A0003483C701892F99278695B301A201480F6B
:1025B000591F611D711DCF010E948C0F009709F0FA
:1025C000A4CF31E0F322EA81FB81EE0DFF1D96A539
:1025D000907F892D8F70892E882A86A63BCFF1E0C7
:1025E000FF2284E0B694A794979487948A95D1F7B4
:1025F000EA81FB81EE0DFF1D86A62CCF4F925F92E4
:102600006F927F928F929F92AF92BF92CF92DF9202
:10261000EF92FF920F931F93CF93DF9300D000D0E0
:1026200000D0CDB7DEB79E838D8349835A836B83F9
:102630007C83DC015A964D905D906D907C905D9707
:10264000452B462B472B09F072C01A968D909D9012
:10265000AD90BC901D9781149104A104B10409F0C0
:102660008DC0812C912C540183947501640134C078
:10267000A2E08A169104A104B10408F495C082E096
:10268000C82ED12CE12CF12CED81FE81828D938D11
:10269000A48DB58DC816D906EA06FB0668F5B70104
:1026A000A601CF010E9452106115710581059105A7
:1026B00009F46BC06F3FFFEF7F078F079F0709F497
:1026C0006FC06130710581059105B1F08C149D04D6
:1026D000AE04BF0409F468C09FEFC91AD90AE90A19
:1026E000F90AC414D504E604F70410F6B2E0CB16D8
:1026F000D104E104F10440F661E070E080E090E094
:1027000026960FB6F894DEBF0FBECDBFDF91CF91F6
:102710001F910F91FF90EF90DF90CF90BF90AF90FF
:102720009F908F907F906F905F904F900895298138
:102730003A814B815C812230310541055105E0F23F
:1027400089819A81AB81BC8184159505A605B70561
:1027500098F6AC01BD018D819E810E9452106230BD
:1027600071058105910540F264157505860597058B
:1027700038F289809A80AB80BC8077CF841495042E
:10278000A604B70408F471CF6CCFED81FE81828D71
:10279000938DA48DB58DC816D906EA06FB0640F0C8
:1027A0006FEF7FEFCB01ACCF60E070E0CB01A8CF43
:1027B0000FEF1FEF2FEF3FE0B701A601CF010E94FF
:1027C000FD11892B69F729813A814B815C81232B8B
:1027D000242B252BF9F029813A814B815C81223011
:1027E000310541055105E0F2ED81FE81828D938D29
:1027F000A48DB58D281739074A075B0788F697011E
:10280000860149815A816B817C81CF010E94FD1133
:10281000892B31F6AD81BE811A96CD92DD92ED9273
:10282000FC921D97FD0186859785A089B1898F3F10
:10283000FFEF9F07AF07BF0759F00197A109B10943
:10284000ED81FE8186879787A08BB18B81E08583A0
:10285000C701B60155CF2F923F924F925F926F9270
:102860007F928F929F92AF92BF92CF92DF92EF9220
:10287000FF920F931F93CF93DF93DC011496CD91BA
:10288000DC9115972196A9F484E090E0DF91CF9137
:102890001F910F91FF90EF90DF90CF90BF90AF907E
:1028A0009F908F907F906F905F904F903F902F9070
:1028B0000895FC0186849784A088B18881149104CE
:1028C000A104B10409F37B018C016E01FFE0CF226A
:1028D000DD24C114D104D9F0DC01ED91FC91D801C3
:1028E0001596DC93CE931497BE96CC0CDD1CC29447
:1028F000D29480EFD822DC24C822DC24EC0DFD1D0C
:102900005396FC93EE93529780E090E0BFCFBFEFD9
:102910008B1A9B0AAB0ABB0AFC0186869786A08AA3
:10292000B18A4285538564857585411551056105D8
:10293000710511F10190F081E02D828190E0019705
:102940009E01329522952F7023273F7023278223E3
:102950009323892B21F6423051056105710548F01A
:10296000828D938DA48DB58D481759076A077B0713
:1029700068F082E090E08ACF0190F081E02D8085C0
:102980009185C817D90708F07FCFA9CFCF010E9442
:1029900052104B015C01623071058105910548F3CD
:1029A0006F3F7F4F8F4F9F4F09F451C0D801ED917A
:1029B000FC91428D538D648D758D84169506A60607
:1029C000B70670F524013501B2E04B1A51086108D1
:1029D0007108D8011A968D929D92AD92BC921D9766
:1029E000DB01CA010297A109B109481659066A0616
:1029F0007B0680F5A281B0E0A30192010E944B44C6
:102A000086A097A0A0A4B1A4860E971EA81EB91EEA
:102A1000D8011E968D929D92AD92BC9251975FCF38
:102A2000EF2809F431CFD8011A964D915D916D913F
:102A30007C911D97CF010E94FE124B015C01611534
:102A400071058105910551F487E090E01FCF81E089
:102A500090E01CCF812C912C5401DACF61307105AC
:102A60008105910509F485CF6F3F7F4F8F4F9F4FB1
:102A700071F340E050E0BA01D8018D919C910E9421
:102A80008C0F892B21F7F80180819181FC01BE9682
:102A9000825D9D4F1192E817F907E1F7D801ED909B
:102AA000FC9024013501B2E04B1A5108610871080D
:102AB000F701828D938DA48DB58D0297A109B1097F
:102AC000481659066A067B0608F04CC0A281B0E0A1
:102AD000A30192010E944B4426A137A140A551A514
:102AE000DC01CB01820F931FA41FB51FF70182A742
:102AF00093A7A4A7B5A7312C222423941EC0D701E5
:102B000014962C9240E050E0BA01F8018081918146
:102B10000E948C0F892B09F09ACFD801ED90FC9080
:102B2000F70182A593A5A4A5B5A50196A11DB11D88
:102B300082A793A7A4A7B5A73394F701828138167B
:102B4000F0F282A593A5A4A5B5A583199109A109C1
:102B5000B10982A793A7A4A7B5A7428D538D648D11
:102B6000758D37CF80E090E0DC01C0CF2F923F928F
:102B70004F925F926F927F928F929F92AF92BF928D
:102B8000CF92DF92EF92FF920F931F93CF93DF9339
:102B90008C01BB24BA9455245A94EE24EA94FE2C5A
:102BA0000DC02F3009F466C055245A9460E070E0DF
:102BB000C8010E942B14009709F049C0D8011E9645
:102BC0004D915D916D917C9151978D919C910E9459
:102BD0008C0F0097E1F5F801C289D3899881992378
:102BE00009F4A2C08B85282F2F73953EE9F283FD4F
:102BF000D8CF2F3009F43EC0511011C0FE013196DC
:102C00009E01255F3F4F80E001C0919180FB879539
:102C100087F9890F2E173F07C1F78B15B1F0D8013F
:102C20005996FC92EE9258975496ED91FC915597D7
:102C3000838580FDB9CF9E01255F3F4F999181919A
:102C40009813B2CF2C173D07C9F780E090E0DF91D1
:102C5000CF911F910F91FF90EF90DF90CF90BF9099
:102C6000AF909F908F907F906F905F904F903F902C
:102C70002F900895D8015696CD90DC905797C114A7
:102C8000D10409F493CF96FF4CC0BD849F7B592E8D
:102C900014968D919C91159759969C938E93589765
:102CA0004D844B1081CF88818F7B90E00197BDE0F0
:102CB000B89F4001B99F900C112426ECA22E21E070
:102CC000B22E21E081E090E00BC02F3F3F4FE9F5AD
:102CD000A2EDAA16A1E0BA0651F1F50121915F011A
:102CE000FE01E20FF11D20813181009771F3C901CE
:102CF0000E94F1283C01E0E28E16910434F51401A3
:102D0000FFEF2F1A3F0A880C991CF601E80DF91DF8
:102D1000808191810E94F12868167906B1F4410101
:102D2000D7CF951141CFBCCF84E090E090CF2881E0
:102D300026FF0FC0892B69F0F401EE0FFF1FEC0D89
:102D4000FD1D80819181892B21F0B42C55245A944A
:102D50002DCF5A94B42C2ACF2F923F924F925F924C
:102D60006F927F928F929F92AF92BF92CF92DF929B
:102D7000EF92FF920F931F93CF93DF937C015B0140
:102D8000DB018C918F3209F4B5C18C3509F4B2C1E5
:102D9000E7011E821F8218861986F5018081803224
:102DA00008F4C5C170E2572EE5E02E2EE701CE886B
:102DB000DF88082E000C990B8032910508F45FC162
:102DC0008F32910509F458C08C35910509F454C02F
:102DD0008601E501219688248394912C61E070E0BE
:102DE00090E00E94C728009791F18038910578F40F
:102DF0008232910561F1E9EFF1E006C0022E000C8C
:102E0000330B8217930719F121912111F7CFF801A4
:102E1000819391938F0194012F5F3F4F8991082EE9
:102E2000000C990B8032910508F42DC18F32910569
:102E300039F18C35910521F12132310541F04901FB
:102E400061E070E090E00E94C728009771F686E08C
:102E500090E0DF91CF911F910F91FF90EF90DF9065
:102E6000CF90BF90AF909F908F907F906F905F902A
:102E70004F903F902F90089521E030E0812C912CCD
:102E8000A20EB31E412C8114910409F3F401EE0F3C
:102E9000FF1FEC0DFD1D929182918032910511F082
:102EA0008E9729F421E0821A9108A9F7D0CFF40176
:102EB000EE0FFF1FD601AE0FBF1F11961C921E9280
:102EC000E701EC89FD89CF010B965192E817F907CC
:102ED000E1F7F601C0E0D0E0819191918032910557
:102EE00019F08E32910511F42196F6CF209719F042
:102EF000E42DE3604E2EFD01329122912E323105F8
:102F000021F021E0821A9108B9F708E010E0612C65
:102F1000712C312C2196009709F44EC08032910516
:102F200069F18E32910539F160167106B4F5C81554
:102F3000D90509F4ADC08038910508F0B5C08B32D1
:102F4000910509F4C3C0E2E0F2E007C0022E000CD4
:102F5000330B8217930709F4B9C021912111F6CFE1
:102F60009C01215431092A31310508F0F6C0232D86
:102F70002260322EAFC0C815D90559F0842D836068
:102F8000482EFE01EE0FFF1FEC0DFD1D808191818B
:102F9000C1CF601671060CF47BC00B30110509F42B
:102FA000ADC0C815D90509F476C0B42DB3604B2E59
:102FB0008C169D060CF06FC0D7015496ED91FC91D4
:102FC00055978081853E09F4A7C00830110509F4A2
:102FD000ABC0832D8C708C3009F488C0932D937016
:102FE000933009F483C041FC08C0932D9370913055
:102FF00009F4A9C0843009F4ACC0438660E070E0F5
:10300000C7010E94FE10009751F5C7010E94B61536
:10301000D7015496ED91FC91559723852470009724
:1030200029F5211116CFE701EA89FB89838584FF01
:1030300023C084899589A0E0B0E0DC019927882726
:10304000428D538D60E070E0842B952BA62BB72B1F
:103050008E839F83A887B987D5018C91A7CED7018E
:103060005496ED91FC9155972385247084309105F9
:1030700009F0EFCE2111EDCE85E090E0EACE21E01F
:1030800030E0812C912CA20EB31E94E0492EFBCE91
:103090000B30110599F1330C330CE4010BE010E017
:1030A00038E0632E712C6DCF60E070E00E94C7287D
:1030B000009709F444C0FC01EB53FF4F808190E07E
:1030C000E42DE2604E2E009709F039CFF42DF36025
:1030D0004F2E8FE5D7015496ED91FC915597E60D53
:1030E000F71D8083F30131963F014BCFD42DD26081
:1030F0004D2E79CFBFEFAB1ABB0A4ACE942D936009
:10310000492ED7015496ED91FC9155978081853ECB
:1031100009F05FCF0BE010E02082E701EC89FD8928
:103120000830110509F055CF330C330C52CF60E055
:1031300070E0C7010E94FE101B8A1A8A8ACEB42D45
:10314000B2604B2EC3CF242D2061422E843009F073
:1031500054CF842D8860482E50CF9C0121563109D0
:103160002A31310508F0B6CFA32DA1603A2E805246
:10317000B1CF0F931F93423051056105710570F077
:10318000FC01028D138D248D358D40175107620788
:10319000730720F41F910F910C94521061E070E0BE
:1031A00080E090E01F910F910895CF92DF92EF920F
:1031B000FF920F931F93423051056105710550F046
:1031C000FC01C28CD38CE48CF58C4C155D056E052E
:1031D0007F0548F082E090E01F910F91FF90EF9003
:1031E000DF90CF9008950E94FD111F910F91FF90E5
:1031F000EF90DF90CF9008950F931F93FC019A01F9
:10320000AB012250310941095109828D938DA48D62
:10321000B58D0297A109B109281739074A075B073D
:1032200078F4A281B0E00E944B4406A117A120A52A
:1032300031A5600F711F821F931F1F910F91089579
:1032400060E070E0CB011F910F910895EF92FF9223
:103250000F931F93CF93DF93CDB7DEB728970FB6A9
:10326000F894DEBF0FBECDBF8C01F901CB01780110
:10327000B801655F7F4FDC012D91CD01D7012D9302
:103280007D01A617B707B9F7E630F10508F476C057
:10329000DA018D919D91E0FBF795E795F7F9E80F3D
:1032A000F91F8D919D910097B1F77E01B9E0EB0E6A
:1032B000F11C47E050E0415051099F01ADECBCECDE
:1032C0000E943C4496958795969587959695879507
:1032D000BC01660F771F9C01220F331F220F331F83
:1032E000220F331F260F371FE21BF30BE05DD701C0
:1032F000EE937D01FC01892BF1F68EE7FE01E40FD0
:10330000F51F8183141615060CF03FC0F80180816B
:103310008032D9F1319620E030E003C081918032D3
:1033200029F02F5F3F4F24173507C4F3F801E20F50
:10333000F31F0DC0A1E0B0E0AC0FBD1FA40FB51F7F
:103340008C914F5F5F4F81932830310551F02F5F93
:103350003F4F4830510574F380E2819328303105A6
:10336000B1F728960FB6F894DEBF0FBECDBFDF9140
:10337000CF911F910F91FF90EF900895E05DE88746
:103380008EE78F8346E050E0C1CF20E030E0CECF23
:103390002F923F924F925F926F927F928F929F9265
:1033A000AF92BF92CF92DF92EF92FF920F931F9353
:1033B000CF93DF93CDB7DEB727970FB6F894DEBF74
:1033C0000FBECDBFDC01ED91FC912081022E000CDF
:1033D000330B205331092A30310518F451815A3307
:1033E000B1F12090DC043090DD04FB0131822082B9
:1033F0002114310489F0142FF1018081882381F197
:1034000081810E94570F80FD2BC0112311F082FD96
:1034100037C080E090E002C08CE090E027960FB6C5
:10342000F894DEBF0FBECDBFDF91CF911F910F91FA
:10343000FF90EF90DF90CF90BF90AF909F908F90D4
:103440007F906F905F904F903F902F9008953296AD
:10345000DC01ED93FC93232B21F28BE090E0DECF97
:10346000D1011C9211961C9280E00E944B0F80FFAC
:1034700003C083E090E0D2CF112329F082FF03C084
:103480008AE090E0CBCF40E050E0BA01C1010E9459
:103490000A10813059F0C12CD12C7601833009F407
:1034A000FEC08823B1F08DE090E0B8CFF101E0518B
:1034B000FE4F80818823B9F3F101EC50FE4FC080AC
:1034C000D180E280F380B701A601C1010E940A10F9
:1034D000E5CFF10181AD92AD8115924021F7F10167
:1034E000EC5BFF4F2081318140E050E02115310538
:1034F0004105510529F43E96208131814281538155
:10350000D10156962D933D934D935C935997DE963A
:10351000AC91F101A383B0E00E944B442B013C012C
:1035200044AD55AD60E070E046015701840E951E34
:10353000A61EB71E868E978EA0A2B1A2B3ADBF8382
:10354000B283FF9620813181D10119963C932E934D
:103550001897329680819181A0E0B0E00097A10594
:10356000B10529F43D9680819181A281B381F90151
:10357000F295E295EF70EF27FF70EF278F0120E0C3
:1035800030E009831A832B833C83841B950BA60BA5
:10359000B70B84199509A609B709BC01CD01601BB9
:1035A000710B820B930B1F81212F30E040E050E024
:1035B0000E94FB43DA01C9010296A11DB11DF10170
:1035C000828F938FA48FB58F873FFFE09F07A10560
:1035D000B10508F467C0873F9F4FA105B10508F406
:1035E000AFC0F101E65AFF4F80819181A281B38182
:1035F000F10182A393A3A4A3B5A309811A812B810E
:103600003C81800E911EA21EB31E480C591C6A1CE0
:103610007B1C46A257A260A671A68FEF9FEFDC012C
:1036200086879787A08BB18B14821582E25AFF4F51
:1036300080819181A7019601280F391F411D511DDD
:10364000D10152962D933D934D935C93559701E094
:10365000B101625D7F4F11968C910E945A0F892BA8
:1036600041F4F101E45DFD4F8081918185359A4AF5
:10367000C1F183E0D1018C93F10112A613A614A627
:1036800015A68091DA049091DB0401969093DB04F7
:103690008093DA049783868380E090E0BFCE81E058
:1036A00090E0BCCE81E0840C951CA61CB71CF101F7
:1036B00082A293A2A4A2B5A209811A812B813C8186
:1036C000800E911EA21EB31E86A297A2A0A6B1A62E
:1036D0004FEF5FEFBA0146875787608B718B14827B
:1036E000C9CFF10186A597A5A0A9B1A982359245B8
:1036F000A146B14409F0BDCFF101EE5EFD4F8081DE
:103700009181A281B38182379247A144B14609F0E9
:10371000B0CF389680819181A281B381F1018287F7
:103720009387A487B587EA5EFD4F80819181A2814E
:10373000B381F10186879787A08BB18B83E09ACF05
:1037400082E0B1CF882319F08BE090E00895E091FA
:10375000DC04F091DD04309709F0108261157105E9
:1037600011F0FB0110827093DD046093DC0480E0B3
:1037700090E008952F923F924F925F926F927F92C6
:103780008F929F92AF92BF92CF92DF92EF92FF9271
:103790000F931F93CF93DF93CDB7DEB7C054D109FA
:1037A0000FB6F894DEBF0FBECDBF7C017CAB6BAB18
:1037B000142FDC011D921C924E71BE016F5F7F4F72
:1037C000CE01C3960E94C8190097D1F0C05CDF4FAC
:1037D0000FB6F894DEBF0FBECDBFDF91CF911F9122
:1037E0000F91FF90EF90DF90CF90BF90AF909F90A0
:1037F0008F907F906F905F904F903F902F900895A3
:10380000B12FBF71BB2E6E01E7E2CE0ED11CDE8A56
:10381000CD8A88E994E0988F8F8B6BA97CA9CE0123
:1038200001960E94AC16212F2C7179F4009771F645
:10383000CB88DC88C114D10429F0D6011B968C9169
:1038400084FF2CC284E090E0C1CF009709F416C138
:103850008430910509F0BACF8D889E880F89188D24
:10386000D401FE017B968D918193EC15FD05D9F76E
:103870008EA180FF32C0D4011B961C92188E1F8A25
:10388000CC24C394D12C0EC0CE0101960E94B61553
:103890000097C1F4BFEFCB1ADB0AE4E6CE16D104E1
:1038A00009F4F1C09601A801BE01655E7F4FC40115
:1038B0000E94261960E070E0CE0101960E94FE1081
:1038C000009711F38430910509F080CF8EA1D401C7
:1038D0001B968C93188F0F8B8EA181FFFCC1F80172
:1038E00080819181892B09F47DC2329620E030E0FD
:1038F0002F5F3F4F81919191892BD1F7275E3F4FE9
:10390000A5ECBEE40E943C446C01D694C794D694C6
:10391000C79460E070E0CE0101960E94FE1000970F
:1039200009F054CF812C912C00E010E00BC000E096
:1039300010E061E070E0CE0101960E942B14009728
:1039400009F044CF4F85588969897A8989819A819C
:103950000E948C0F009709F039CFEB89FC89808198
:10396000853E11F08111E3CF0115110511F48D8011
:103970009E800F5F1F4F0C151D05D9F6B1E0CB16C9
:10398000D10409F4FAC0B401CE0101960E94FE10E0
:10399000009709F01BCFED89FE899F01255F3F4FFE
:1039A000712C70FA779477F88191780E2E173F0773
:1039B000C1F7F1E0CF1AD108BFE06B2E1DE0512E08
:1039C00002ED802E01E0902E442443944F855889C7
:1039D00069897A8989819A810E948C0F009709F000
:1039E000F5CE1C2D4B895C896F89788DDA011D9687
:1039F0007C921D971B966C921B971C961C921C9791
:103A00005B961C921E925A979601332721503109DA
:103A1000529EC001539E900D1124A6EC2A2EA1E0C7
:103A20003A2E01E0E0E0F0E01DC09C012F5F3F4F27
:103A3000880F991FFB01E80FF91F0190F081E02D1D
:103A4000CA01800F911DDC01ED93FC93309711F4B6
:103A5000EFEFFFEF8214930409F470C0D1010D91D0
:103A60001D01C901EF3FBFEFFB07F9F69A01200FD7
:103A7000311DD901ED93FC939C01ECCF12FF06C0E0
:103A800088E090E0A3CE87E090E0A0CECB88DC88F1
:103A9000C114D104C1F3D6011B968C911B9781717F
:103AA00091F713FF9CC054968D919C915597A0E07F
:103AB000B0E0DC0199278827F601428D538D60E044
:103AC00070E08C019D01042B152B262B372B09AFA1
:103AD0001AAF2BAF3CAF158A148A138E128E148E38
:103AE000158E168E178E89809A8081E0F40184836A
:103AF00002A513A524A535A521960CAF1DAF2EAFA9
:103B00003FAF219709AD1AAD2BAD3CAD01151105A5
:103B10002105310509F459C101301105210531058F
:103B200051F0828D938DA48DB58D081719072A0742
:103B30003B0708F4D4C082E090E048CE319649F0CB
:103B4000220F331FFB01E20FF31F80819181892B2C
:103B500009F41064FA011083E981FA81448260E07B
:103B600070E0CE0101960E942B14009709F02ECE32
:103B7000F1E0CF1AD10809F029CF4F85588969891A
:103B80007A8989819A810E948C0F009709F01ECE54
:103B9000AB89BC899D01CD018096FD0111928E17E4
:103BA0009F07E1F76D897E89AD01455F5F4FFB019E
:103BB0008191BF01F90181939F014E175F07B9F70A
:103BC000ED89FE89838588711C968C93E981FA8141
:103BD00081E08483FB2DF860BF2ECB88DC88B3FCAA
:103BE00066C0E981FA813B892C8942A553A564A569
:103BF00075A5D7015A964D935D936D937C935D9710
:103C00005E963C935E975F962C935F971496BC925A
:103C1000D60154968D919C915597A0E0B0E09C01FF
:103C200011270027D6015A964D915C915B9760E071
:103C300070E0402B512B622B732BD7011E964D93B6
:103C40005D936D937C935197D6015C964D915D91F8
:103C50006D917C915F97D7011A964D935D936D930B
:103C60007C931D9716961D921D921D921C9219977A
:103C70008FEF15968C93159756961D921D921D9257
:103C80001C9259971196FC93EE9386819781139617
:103C90009C938E93129780E090E098CD11FF02C024
:103CA00080FDF1CEE981FA813C2D2D2D9ECFD601EC
:103CB0001B961C920E94C228F60166877787808B2C
:103CC000918BE981FA8181E084830B2D0062B02E13
:103CD0003B892C898ACFCC24C394D12C1ACE0DAB2E
:103CE0001EAB2FAB38AFAA24A39452C0613071052C
:103CF0008105910509F41FCF6F3F7F4F8F4F9F4F75
:103D000009F473C0F401828D938DA48DB58D0DA936
:103D10001EA92FA938AD081719072A073B0708F075
:103D20000ACF00E010E098014DA95EA96FA978AD17
:103D3000C4010E94FD11009709F048CDF401868569
:103D40009785A089B1898F3FFFEF9F07AF07BF0716
:103D500049F00196A11DB11DF40186879787A08BBC
:103D6000B18BA582F401828D938DA48DB58D4816FB
:103D700059066A067B06D8F44DAA5EAA6FAA78AEE9
:103D8000A3019201223031054105510508F4D3CE3B
:103D90004DA95EA96FA978ADC4010E9452102B01F4
:103DA0003C01611571058105910509F09FCF89805E
:103DB0009A8089AD9AADABADBCAD0197A109B109AF
:103DC000F40182879387A487B58721964CAD5DADBA
:103DD0006EAD7FAD2197C4010E948C0F009709F44E
:103DE000FECEF4CC20E030E089CD81E090E0EECC56
:103DF0002F923F924F925F926F927F928F929F92FB
:103E0000AF92BF92CF92DF92EF92FF920F931F93E8
:103E1000CF93DF9300D000D000D0CDB7DEB79C8326
:103E20008B837B016A015901D9011D921C92DC012F
:103E3000ED91FC911197309719F0808181111DC08F
:103E400029E0822E912CC40126960FB6F894DEBF8D
:103E50000FBECDBFDF91CF911F910F91FF90EF90DB
:103E6000DF90CF90BF90AF909F908F907F906F909A
:103E70005F904F903F902F90089512962D913C9116
:103E800013978681978128173907D1F6CF010E94B1
:103E900046104C01892BB9F6EB81FC81848187FDAA
:103EA00006C080FD08C087E0882E912CCCCF92E020
:103EB000892E912CC8CF86819781A085B1854285B6
:103EC000538564857585481B590B6A0B7B0B8601EE
:103ED00020E030E0401751076207730708F46A01D9
:103EE000C114D10409F4AFCF212CE2E03E2EAC0185
:103EF000BD01517066277727EB81FC81452B462B4E
:103F0000472B09F44BC046895789608D718D01900C
:103F1000F081E02DFE83ED8391708101081B190B68
:103F2000C016D10608F486018D819E810E948C0FF7
:103F3000892B09F030C1EB81FC8186819781A085B6
:103F4000B1859170AA27BB27DC019E968081918163
:103F5000A80FB91FF701E00EF11E8D918193EE16A7
:103F6000FF06D9F7EB81FC8186819781A085B18519
:103F7000800F911FA11DB11DEB81FC81868397836A
:103F8000A087B187F50120813181200F311F318356
:103F90002083C01AD10A09F0AACF55CF0190F08131
:103FA000E02DFE83ED83EB81FC813581ED81FE8187
:103FB0002281321708F091C0EB81FC8182899389BC
:103FC000A489B5899C01AD012250310941095109EB
:103FD000ED81FE81828D938DA48DB58D0297A1090F
:103FE000B109281739074A075B0708F0C8C01281D2
:103FF000A12FB0E00E944B4446A057A060A471A43A
:10400000460E571E681E791E411451046104710446
:1040100009F4B5C0EB81FC812581420E511C611C65
:10402000711CA601452F552746955A834983411592
:10403000510509F47AC030E0420F531F812F90E000
:104040008417950728F4DC01A21BB30BBA83A9835C
:104050001981012FA3019201B701ED81FE818181B8
:104060000E945A0FAB81BC81892B09F096C0ED915B
:10407000FC918481882301F182A593A5A4A5B5A50F
:1040800084199509A609B70929813A81A90160E037
:1040900070E084179507A607B70770F4DC01BA2F04
:1040A000AA27BB0FBE96AE0DBF1DCD019E5F21910D
:1040B0002D938A179B07D9F7EB81FC818581180F17
:1040C000158309811A81102F0027110F868197818E
:1040D000A085B185E00EF11E4BCF892B8A2B8B2B4F
:1040E000C1F5AB81BC811E966D917D918D919C91A6
:1040F0005197623071058105910508F440C06F3F0A
:10410000FFEF7F078F079F0709F445C0EB81FC8114
:10411000628B738B848B958B15820190F081E02DDF
:10412000FE83ED83DC01CB014DCFAB81BC81569684
:104130004D925D926D927C9259972F5F15962C93BC
:104140001597FD0186819781A085B185A201B301F4
:10415000E3CEEB81FC8142895389648975894230C1
:1041600051056105710558F0ED81FE81828D938DB9
:10417000A48DB58D481759076A077B07C0F0AB813E
:10418000BC8114968C911497806814968C9372E07D
:10419000872E912C58CEAB81BC8114968C911497AC
:1041A000806814968C9388248394912C4CCECF01F4
:1041B0000E9452109ECF2F923F924F925F926F9229
:1041C0007F928F929F92AF92BF92CF92DF92EF92A7
:1041D000FF920F931F93CF93DF9300D000D000D0B6
:1041E000CDB7DEB79C838B836B017A014901D9017E
:1041F0001D921C92DC01ED91FC911197309719F002
:10420000808181111DC029E0A22EB12CC501269606
:104210000FB6F894DEBF0FBECDBFDF91CF911F91D7
:104220000F91FF90EF90DF90CF90BF90AF909F9055
:104230008F907F906F905F904F903F902F90089558
:1042400012962D913C9113978681978128173907F3
:10425000D1F6CF010E9446105C01892BB9F6EB81A3
:10426000FC81848187FD06C081FD08C087E0A82EFF
:10427000B12CCCCF92E0A92EB12CC8CF02851385EA
:1042800024853585B901A8014E0D5F1D611D711D85
:10429000401751076207730708F499C1E114F1044C
:1042A00009F4FEC1EB81FC8186819781A085B185EF
:1042B000212CF2E03F2EAC01BD015170662777271B
:1042C000EB81FC81452B462B472B09F462C04689C4
:1042D0005789608D718D0190F081E02DFE83ED8313
:1042E00091708101081B190BE016F10608F4870193
:1042F0008D819E810E948C0F892B09F043C1EB8137
:10430000FC8186819781A085B1859170AA27BB2702
:10431000FC01BE96AB81BC818D919C91D601E80FCA
:10432000F91FCF01800F911F2D912193E817F907F5
:10433000D9F7AB81BC81ED91FC91B1E0B483C00EA3
:10434000D11EEB81FC814681578160857185DB013F
:10435000CA01800F911FA11DB11DAC01BD01868353
:104360009783A087B187F40120813181200F311F0D
:1043700031832083E01AF10A09F09DCFAB81BC8123
:104380001A960D911D912D913C911D9714968C912B
:1043900022C10190F081E02DFE83ED83EB81FC8151
:1043A0003581ED81FE812281321778F1892B8A2BAC
:1043B0008B2B09F0F3C0AB81BC811E966D917D9172
:1043C0008D919C915197611571058105910509F4B5
:1043D00045C1613071058105910509F44CC16F3FFC
:1043E000BFEF7B078B079B0709F451C1AB81BC81F1
:1043F00052966D937D938D939C93559715961C9231
:104400001597ED91FC91FE83ED83ED81FE8142A530
:1044100053A564A575A5EB81FC8186899789A08D3C
:10442000B18D481759076A077B0709F406C1EB816C
:10443000FC8182899389A489B5899C01AD012250B0
:10444000310941095109ED81FE81828D938DA48D41
:10445000B58D0297A109B109281739074A075B07EB
:1044600008F009C11281A12FB0E00E944B4446A080
:1044700057A060A471A4460E571E681E791E4114F1
:1044800051046104710409F4F6C0EB81FC812581BB
:10449000420E511C611C711CA701452F55274695E2
:1044A0005A8349834115510509F451C030E0420F48
:1044B000531F812F90E08417950728F4DC01A21B7D
:1044C000B30BBA83A9831981012FA3019201B6010D
:1044D000ED81FE8181810E94620FAB81BC81892BBD
:1044E00009F052C0ED91FC9182A593A5A4A5B5A5B4
:1044F00084199509A609B70929813A81A90160E0C3
:1045000070E084179507A607B707B0F4982F88279F
:10451000990F8C0D9D1DDF019E96AF01425D5D4F91
:10452000FC012191CF012D934A175B07C9F7AB819D
:10453000BC81ED91FC911482EB81FC818581180F87
:10454000158309811A81102F0027110FF8CEEB81F6
:10455000FC8186819781A085B185428553856485DC
:10456000758584179507A607B70708F045C0EB8146
:10457000FC81468A578A608E718E2F5F2583A20147
:10458000B301AECEAB81BC8114968C911497806838
:1045900014968C93AA24A394B12C38CEAB81BC8101
:1045A00052964D915D916D917C9155978D819E8133
:1045B0000E94FE12611571058105910509F009CF70
:1045C000EB81FC81028513852485358584814681B4
:1045D000578160857185041715072607370730F462
:1045E000EB81FC8142875387648775878062AB814A
:1045F000BC8114968C930ACE40E050E0BA018D81C4
:104600009E810E948C0F892B09F0BCCFEB81FC812D
:104610000190F081E02DFE83ED8342A653A664A6AF
:1046200075A6AB81BC8115962C91159716968D9128
:104630009D910D90BC91A02D9ACF40E050E0BA0121
:104640008D819E810E948C0F892B09F5AB81BC81E5
:104650000D90BC91A02DBE83AD83E9CE40E050E02B
:10466000BA01CF010E94FE12EB81FC816687778739
:10467000808B918B9FCFAB81BC8114968C911497CA
:10468000806814968C9372E0A72EB12CBFCDEB817D
:10469000FC81848180688483AA24A394B12CB6CD44
:1046A000AB81BC8116964D915D916D917C9119976E
:1046B00092CF0F931F93CF93DF93DC01ED91FC9189
:1046C0001197309719F02081211107C089E090E0FF
:1046D000DF91CF911F910F91089512964D915C91AA
:1046E0001397268137814217530781F7EC01CF01D9
:1046F0000E944610009761F72C8125FFE9CF4A8D73
:104700005B8D6C8D7D8D888199810E948C0F0097C7
:10471000F9F60E8D1F8DF8018385806283878A8567
:104720009B85AC85BD85848F958FA68FB78F8E8531
:104730009F85A889B989938F828FB58BA48B0E949E
:10474000C228D80156966D937D938D939C9359976B
:104750008C818F7D8C83E881F98181E0848309904D
:10476000D881C02D40E050E0BA01CE010E948C0FEC
:10477000009709F0ADCF8881833079F040E050E0B8
:1047800060E089810E946A0F31E020E0892B19F0F6
:10479000832F922F9DCF30E0FBCF8D81882371F343
:1047A0001AA61BA61CA61DA6BE01625D7F4FFB01BB
:1047B000CE01825D9D4F11928E179F07E1F785E52F
:1047C0009AEAFE01E45DFD4F9183808382E592E5E4
:1047D000A1E6B1E48EA79FA7A8ABB9AB82E792E7A9
:1047E000A1E4B1E67A9780839183A283B3838E8517
:1047F0009F85A889B989349680839183A283B383E6
:104800008A859B85AC85BD85349680839183A28300
:10481000B3832A893B894C895D8901E089810E94A3
:10482000620F1D82ABCFCF93DF93EC010E9459231F
:10483000009711F419821882DF91CF9108952F9279
:104840003F924F925F926F927F928F929F92AF9220
:10485000BF92CF92DF92EF92FF920F931F93CF936D
:10486000DF9300D000D000D0CDB7DEB79E838D831C
:104870006A017B01DC01ED91FC911197309719F0F1
:10488000808181111CC009E010E0C80126960FB696
:10489000F894DEBF0FBECDBFDF91CF911F910F9176
:1048A000FF90EF90DF90CF90BF90AF909F908F9050
:1048B0007F906F905F904F903F902F900895129649
:1048C0002D913C9113978681978128173907D9F646
:1048D000CF010E9446108C01892BB9F6ED81FE8133
:1048E000848187FDB3C042855385648575854C15E9
:1048F0005D056E057F0520F481FD02C06A017B0124
:10490000AD81BE8116964D915D916D917C91199707
:10491000FD0116821782108611868FEF8583C114E0
:10492000D104E104F10409F4B0CF20803180D10139
:1049300012968C90912CA12CB12C99E0880C991C8A
:10494000AA1CBB1C9A95D1F741155105610571054B
:1049500029F12A013B01B1E04B1A510861087108A5
:10496000C701B6016150710981099109A50194013E
:104970000E94FB4329833A834B835C83C301B201CA
:10498000A50194010E94FB4389819A81AB81BC817E
:1049900082179307A407B50708F023C1AD81BE8134
:1049A0001E964D915D916D917C91519741155105E8
:1049B0006105710509F42FC1AD81BE8152964D93F9
:1049C0005D936D937C935597411551056105710574
:1049D00009F03FC0ED81FE8186809780A084B1847C
:1049E00080E090E0DC01B501A401517066277727D3
:1049F000ED81FE81452B462B472B79F0468957895F
:104A0000608D718D84179507A607B70731F0ED818A
:104A1000FE81868B978BA08FB18F82859385A4852D
:104A2000B58588159905AA05BB0508F02ECFAD817F
:104A3000BE811A968D929D92AD92BC921D9714964E
:104A40008C911497806214968C931FCF02E010E033
:104A50001CCF8C149D04AE04BF0408F023C1AD81AB
:104A6000BE81ED91FC919F01ED81FE81848181FDEC
:104A70001AC0423051056105710568F0D9015A9696
:104A80004D905D906D907C905D9744155505660541
:104A9000770508F4A0C08068AD81BE8114968C9320
:104AA00002E010E0F2CEC9010E94FE12AB01BC018F
:104AB000411551056105710509F4E0C04F3FBFEF95
:104AC0005B076B077B0709F4C8C0423051056105DD
:104AD000710508F4CAC0ED81FE8120813181F901A0
:104AE000828D938DA48DB58D481759076A077B0772
:104AF00008F0BBC0ED81FE81428B538B648B758BBC
:104B000086819781A085B185880D991DAA1DBB1D41
:104B100086839783A087B187C818D908EA08FB085D
:104B20008C149D04AE04BF0408F49ECF46015701C7
:104B3000880E991EAA1EBB1EAD81BE8116968D924F
:104B40009D92AD92BC9219972601370189E0769427
:104B50006794579447948A95D1F715964C92B1E093
:104B6000DB22EE24FF24CD28CE28CF2809F482C0F2
:104B7000AD81BE81ED91FC919A01AB0122503109CA
:104B800041095109828D938DA48DB58D0297A1099C
:104B9000B109281739074A075B0708F056C0A281F8
:104BA000B0E00E944B44C6A0D7A0E0A4F1A4DC0171
:104BB000CB018C0D9D1DAE1DBF1D0097A105B1053C
:104BC00009F443C0840D951DA61DB71D4394ED81C6
:104BD000FE81458208CFC9010E945210AB01BC0181
:104BE0006DCF88279927DC0188199909AA09BB0983
:104BF00084219521A621B721ED81FE8186839783AB
:104C0000A087B187C81AD90AEA0AFB0A42895389E0
:104C100064897589D9CE40E050E0BA01C1010E9493
:104C2000FE12AB01BC01413051056105710569F00F
:104C30004F3FFFEF5F076F077F0749F1ED81FE816F
:104C400046875787608B718BB7CEED81FE8184815B
:104C50008068848302E010E018CEED81FE818481BB
:104C60008068848301E010E010CEAD81BE8114968F
:104C70008C9111CF80E090E0DC01B5CEED81FE811A
:104C800086819781A085B185750164014FCFAD8183
:104C9000BE8114968C911497806814968C9301E0D1
:104CA00010E0F3CDED81FE8186819781A085B185ED
:104CB0003DCF0F931F93CF93DF93CDB7DEB72E97E2
:104CC0000FB6F894DEBF0FBECDBF8C017E876D8717
:104CD00040E0BC01CE010D960E94C819009759F022
:104CE0002E960FB6F894DEBF0FBECDBFDF91CF91E9
:104CF0001F910F910895CE010196D80155969C936E
:104D00008E93549788E994E057969C938E93569788
:104D10006D857E85C8010E94AC16009769F5D801A3
:104D20005296ED91FC9153973097B9F0838584FFAB
:104D300027C084899589A0E0B0E0DC019927882705
:104D4000428D538D60E070E0842B952BA62BB72B02
:104D5000F80186839783A087B187D801ED91FC91F4
:104D600011978681978113969C938E93129760E09A
:104D700070E0C8010E94FE108430910509F0B0CFA8
:104D800085E090E0ADCF4F925F926F927F928F92CD
:104D90009F92AF92BF92CF92DF92EF92FF920F93CA
:104DA0001F93CF93DF93CDB7DEB72C970FB6F89450
:104DB000DEBF0FBECDBFDC01ED91FC9111973097A6
:104DC00019F02081211119C089E090E02C960FB6CE
:104DD000F894DEBF0FBECDBFDF91CF911F910F9131
:104DE000FF90EF90DF90CF90BF90AF909F908F900B
:104DF0007F906F905F904F90089512964D915C91C7
:104E000013972681378142175307F1F67B018C01F6
:104E1000CF010E9446100097C9F6CE010196F80115
:104E2000958B848B88E994E0978B868BE114F10451
:104E300009F411C199249A94DD24DA9484E090E075
:104E40002DE0C22E32EDA32E31E0B32E0CC02F3058
:104E500091F1DD24DA9460E070E0C8010E942B1427
:104E6000009709F078C0F8014685578560897189F7
:104E7000411551056105710509F46BC0D8018D918B
:104E80009C910E948C0F009709F065C0D801529642
:104E9000ED91FC9153978081882309F4C5C0853E2C
:104EA000C1F28E32B1F29385292F2F7393FDCFCFAC
:104EB0002F3009F0D6C086FF49C095848F7BD82E4D
:104EC000D80114968D919C91159759969C938E9329
:104ED000589785848910BDCFD80156966D917C91E5
:104EE000579780818F7390E00197C89E9001C99E6B
:104EF000300D1124B6EC4B2EB1E05B2E81E041E089
:104F000050E015C020323105ECF4A901440F551FC3
:104F1000460F571FDA018D939C93AC012F5F3F4FD3
:104F2000A414B50409F486C0D2018D912D013F016E
:104F3000680E711CD3018D919C914115510511F79B
:104F4000019671F3982CDD24DA9485CF8D1181CFF1
:104F5000C0CF009761F0D8011E961D921D921D9240
:104F60001C9251979C012B7F232B09F02FCF5701C7
:104F7000B9E0AB0EB11CF5011082D70156966D90C9
:104F80007C90579761147104E1F1F801868597854B
:104F9000A089B189892B8A2B8B2B69F1808D918D0A
:104FA000019649F10688F789E02D5F01B2E0AB0E6A
:104FB000B11C808191810097F1F04301C12CD12C6B
:104FC00014C0F701208D318D21503109C216D3064E
:104FD00094F4FFEFCF1ADF0AD4018D934D01F50150
:104FE000819191915F01009741F060E070E00E9433
:104FF000C728009731F7C12CD12CF301EC0DFD1D12
:10500000108260E070E0C8010E942B14843091058A
:1050100009F0DCCED8011E961D921D921D921C92A5
:10502000519780E090E0D2CEF80116861786108A5C
:10503000118A9DCF808186FF0BC0203231050CF094
:1050400081CF220F331FFB01E20FF31F1182108269
:10505000DA94982C00CF60E070E0C8010E94FE1046
:10506000B5CED11011C0DF0111969F01255F3F4FD2
:1050700090E001C08D9190FB979597F9980F2A17B2
:105080003B07C1F7991539F08FEF9FEFD80159967B
:105090009C938E9358979701275F3F4FD8011E9698
:1050A0004D915D916D917C915197452B462B472BEE
:1050B00009F466C0D484AF01570181E1A80EB11C88
:1050C0009D2D987011C0992329F06FEB680F6A31FC
:1050D00008F4805E2F5F3F4FB90161507109DB0119
:1050E0008C932A153B0551F0DA018D91AD01803288
:1050F00021F0853041F785EEEDCF59018085803272
:1051000011F1C50101962EE2D5012C93AF01485F44
:105110005F4FB4E0AB0EB11C3D2D3071DA012D9123
:10512000AD01203259F1332329F06FEB620F6A3160
:1051300008F4205E0196BC0161507109DB012C93DB
:105140008A159B0559F78385D70118968C93189774
:10515000448D558D668D778D4D935D936D937C93C6
:105160001397808D918D15969C938E9314978689B5
:10517000978917969C938E931697FDCE5C01E3CF8B
:105180005901F9CE60EC73EB89E494E3089580381B
:105190009105F0F0672BB1F42CE036E040E050E0F0
:1051A00007C04F5F5F4F2E5F3F4F4038510571F092
:1051B000F901659174918617970799F7CA0180588C
:1051C0009F4F08958F3F910521F018F080E090E007
:1051D0000895FC01EE0FFF1FE45FFA4F8591949153
:1051E00008952CE234E0F90145915491452B41F1A9
:1051F000F901459154918417950711F12EE234E09D
:1052000040E050E009C0F90165917491F9013296CE
:105210006817790741F09F014F5F5F4FF901659172
:105220007491672B81F7F90125913491232B39F083
:10523000FA01EE0FFF1FE45BFD4F859194910895F5
:1052400040E050E0F0CF80B18695817008958823CA
:1052500079F082B18D6282B98DE281B98FE39CE9E8
:105260000197F1F700C0000080B186958170089524
:10527000109881B1827D81B9F1CF1298129A089568
:1052800090E027E030E006C0139A1298129A21505D
:10529000310978F0AC01022E02C0559547950A9469
:1052A000E2F740FDF1CF13981298129A215031097C
:1052B00088F7089527E030E080E061E070E0129820
:1052C000129A049B07C0AB01022E01C0440F0A943E
:1052D000EAF7842B2150310990F70895159886E05C
:1052E0000E944029159A0895159884E00E9440294B
:1052F000159A0895CF93C82F159881E00E944029F0
:105300008C2F0E944029159ACF910895159885E019
:105310000E94402927E030E080E061E070E01298D0
:10532000129A049B07C0AB01022E01C0440F0A94DD
:10533000EAF7842B2150310990F7159A0895CF93FD
:10534000DF93C8EED3E002C0209789F021970E9436
:105350008629EFE3FCE93197F1F700C000008111E5
:10536000F3CF81E0CD2B19F0DF91CF91089580E04C
:10537000DF91CF9108950E949F29159886E00E94A1
:105380004029159A159887EC0E944029159A0C948B
:105390009F291F93CF93DF93EB01182F159A0E943B
:1053A0009F29159886E00E944029159A159882E059
:1053B0000E944029812F0E9440298D2F0E94402960
:1053C0008C2FDF91CF911F910C9440290C949F2931
:1053D0000F931F93CF93DF930E948629082F8AECA7
:1053E00097E00E94D208802F0E94FA0886EC97E08E
:1053F0000E94D20810E0C7E0D0E006C084EC97E03D
:105400000E94D208219778F098010C2E02C03595A1
:1054100027950A94E2F720FDF1CF82EC97E00E94F5
:10542000D208219788F7DF91CF911F910F910C94AB
:105430003D0981E00E94272915988BEA0E944029A6
:1054400080E00E94402980E00E94402980E00E9484
:1054500040290E945A29159A8051873068F4E82F14
:10546000F0E0EE0FFF1FEE0FFF1FEE52FE4F6081C8
:10547000718182819381089560E070E0CB0108958D
:10548000682F70E020E030E080E0AB01022E02C027
:10549000559547950A94E2F7880F40FD81602F5F8C
:1054A0003F4F2830310589F708957F928F929F9260
:1054B000AF92BF92CF92DF92EF92FF920F931F9322
:1054C000CF93DF93CDB7DEB7A3970FB6F894DEBFC7
:1054D0000FBECDBF8C014A015B017E2C0E94E30808
:1054E00080EC97E00E94D20860E070E0CB010E945F
:1054F0000E098EEB97E00E94D20860E070E0CB01CD
:105500000E940E090E943D094AE0B801CE010196B1
:105510000E94BA1B7C01892B09F099C081E00E948E
:105520002729159883E00E94402980E00E944029A5
:1055300080E00E94402980E00E9440291AA219A21E
:1055400081149104A104B10409F456C0C12CD12CDA
:10555000760120C08BA39E012F5D3F4F41E050E0BC
:10556000BE016D5D7F4FCE0101960E94DB208FEF63
:10557000C81AD80AE80AF80AD701C6019F70AA27F4
:10558000BB27892B8A2B8B2BF9F08C149D04AE043E
:10559000BF0491F10E945A297110DCCF682F70E08E
:1055A00020E030E090E0AB01022E02C05595479517
:1055B0000A94E2F7990F40FD91602F5F3F4F28302A
:1055C000310589F79BA3C7CF86E997E00E94D208EF
:1055D000D701C6012AE0B695A795979587952A9594
:1055E000D1F70E94050981E997E00E94D2088C1446
:1055F0009D04AE04BF0471F6159A80E00E9427292D
:1056000084E897E00E94D208CE0101960E941324FC
:105610008EE797E00E94D208C8010E94E30882E763
:1056200097E00E94D208A3960FB6F894DEBF0FBE93
:10563000CDBFDF91CF911F910F91FF90EF90DF9041
:10564000CF90BF90AF909F908F907F90089584EA05
:1056500097E00E94D208C7010E94D531D5CF9F9212
:10566000AF92BF92CF92DF92EF92FF920F931F9370
:10567000CF93DF93CDB7DEB7A3970FB6F894DEBF15
:105680000FBECDBF8C01A22E0E94E30880E797E0F9
:105690000E94D20860E070E0CB010E940E090E94D7
:1056A0003D0941E0B801CE0101960E94BA1B7C0180
:1056B000892B09F0B2C081E00E94272984E497E099
:1056C0000E94D208289A0E94BB298DE397E00E948D
:1056D000D2081AA219A2B12CC12CD12C760199247E
:1056E00093949E012F5D3F4F41E050E0BE016D5D00
:1056F0007F4FCE0101960E94F81E89A19AA10197C1
:1057000009F04AC0A11014C06BA170E080E090E0E5
:1057100020E0AB01082E02C0559547950A94E2F7A8
:10572000220F40FD216001968830910591F72BA34F
:10573000CC2059F18BA10E9440292FEFC21AD20A26
:10574000E20AF20AD701C6019F70AA27BB27892B5C
:105750008A2B8B2B31F68FE297E00E94D208D7017B
:10576000C6012AE0B695A795979587952A95D1F712
:105770000E9405098AE297E00E94D208BB2051F0FE
:105780002898392D3B19B32EACCFC701B6010E9422
:10579000C929D0CF289AF5CF0E94E62980E00E943F
:1057A00027298EE197E00E94D20882E328989FEF94
:1057B00029EF30E0915020403040E1F700C0000078
:1057C000289A9FEF29EF30E0915020403040E1F7D8
:1057D00000C00000815051F7CE0101960E941324B1
:1057E00088E197E00E94D208C8010E94E3088CE09B
:1057F00097E00E94D208A3960FB6F894DEBF0FBEC2
:10580000CDBFDF91CF911F910F91FF90EF90DF906F
:10581000CF90BF90AF909F90089588E597E00E9449
:10582000D208C7010E94D531D7CF8F929F92AF92F5
:10583000BF92EF920F931F93CF93DF93EC010E94DF
:10584000192A4B015C0180910E0190910F01A091EA
:105850001001B09111010297A105B10550F084E249
:1058600098E00E94D208C501B4010E940E090E946E
:105870003D09E12C00E010E09801B501A401CE0142
:105880000E94552ADF91CF911F910F91EF90BF9009
:10589000AF909F908F90089520E040E050E0BA01D3
:1058A0000C942F2BCF92DF92EF92FF92CF9381E057
:1058B0000E9427290E94E82915988BEA0E94402916
:1058C00080E00E94402980E00E94402980E00E9400
:1058D00040290E945A29C82F159A80E00E94272942
:1058E00087E198E00E94D2088C2F0E94FA0885E197
:1058F00098E00E94D208C43109F44EC018F5C031B6
:1059000009F440C0C23161F589E098E00E94D208F4
:10591000C12CD12C38E0E32EF12C0E943D098CEDF6
:1059200097E00E94D208C701B6010E940E0986EDD9
:1059300097E00E94D208CF91FF90EF90DF90CF9038
:105940000C943D09C531A1F0C63151F483EF97E0C5
:105950000E94D208C12CD12C80E8E82EF12CDDCF9A
:1059600085EE97E00E94D208C12CD12C7601D5CFCC
:105970008AEF97E00E94D208C12CD12C90E4E92E46
:10598000F12CCBCF8FE098E00E94D208C12CD12C13
:1059900042E0E42EF12CC1CF82E098E00E94D208D0
:1059A000C12CD12C20E2E22EF12CB7CF0C94007C3C
:1059B0000895CF93DF9386E798E00E94D2080E9473
:1059C0003D09C5E0D9E023C048E050E085E495E01A
:1059D0000E94824560917805709179054EE150E012
:1059E00084E595E00E94824585E495E00E94E30805
:1059F00081E798E00E94D20884E595E00E94E308E0
:105A00000E943D09279689E0C23CD807A1F047E0F3
:105A100050E0BE0183E795E00E94794560917405EE
:105A2000709175056115710579F682E698E0DF9150
:105A3000CF910C94D208DF91CF910895CF93DF934B
:105A400000D000D0CDB7DEB79E012F5F3F4F3F9310
:105A50002F9328E032E03F932F939F938F930E94E0
:105A6000874689819A81AB81BC8180930E01909396
:105A70000F01A0931001B09311010F900F900F90A0
:105A80000F900F900F900F900F900F900F90DF914D
:105A9000CF910895CF93DF9300D000D0CDB7DEB77C
:105AA0009E012F5F3F4F3F932F9328E032E03F93BB
:105AB0002F939F938F930E94874689819A81AB8110
:105AC000BC8136E0B695A795979587953A95D1F71D
:105AD0000F900F900F900F900F900F90892B8A2BA3
