:100000000C9460090C947D090C947D090C94F641C4
:100010000C947D090C94D7480C9425480C94FE4709
:100020000C945F480C947D090C94DA090C94E54813
:100030000C947D090C94090D0C947D090C947D0998
:100040000C947D090C947D090C947D090C947D0918
:100050000C947D090C947D090C947D096E616E00F1
:10006000696E660000407A10F35A00A0724E1809BB
:100070000010A5D4E80000E87648170000E40B540F
:10008000020000CA9A3B000000E1F50500008096DE
:100090009800000040420F000000A0860100000010
:1000A000102700000000E8030000000064000000CA
:1000B00000000A00000000000100000000002C7693
:1000C000D888DC674F0823DFC1DFAE59E1B1B796AE
:1000D000E5E3E453C63AE651997696E8E6C284260B
:1000E000EB898C9B62ED407C6FFCEFBC9C9F40F2E7
:1000F000BAA56FA5F490055A2AF75C936B6CF96763
:100100006DC11BFCE0E40D47FEF520E6B500D0ED27
:10011000902E0300943577050080841E080000208F
:100120004E0A000000C80C333333330F986E12832D
:100130001141EF8D2114893BE65516CFFEE6DB1801
:10014000D1844B381BF77C1D901DA4BBE4242032C6
:1001500084725E228100C9F124ECA1E53D2763642D
:10016000696E6F70737578585B00206661696C20EA
:10017000777269746520636D640D0A0053442D4FD6
:1001800046460A0D006D6D635F696E6974204572A5
:10019000726F72004361726454797065203A002076
:1001A000002000200020004F4352203A0053442DED
:1001B0004F4E0A0D0053442D4F46460A0D000D0ABE
:1001C000000A0D4D6F7573653A20000A0D4B657975
:1001D000626F6172643A20002A2A20496E69742095
:1001E000646F6E65202A2A0D0A0052617720566FCF
:1001F0006C746167653A20002A2A20506F77657217
:10020000206F6E20646F6E65202A2A0D0A002A2A4C
:1002100020506F77657220696E697420646F6E6517
:100220002028706F776572206F666629202A2A0D54
:100230000A002A2A20554152542D496E69742064BF
:100240006F6E65202A2A0D0A0041004200430044D7
:1002500000450046004700480049004A004B004C5A
:10026000004D004E004F005000510052005300540A
:1002700000550056005700580059005A002100E070
:10028000FFE1FFE5FFE2FFE3FFC000C100C200C3E2
:1002900000C400C500C600C700C800C900CA00CB22
:1002A00000CC00CD00CE00CF00D000D100D200D3D2
:1002B00000D400D500D600D800D900DA00DB00DC7D
:1002C00000DD00DE007801000102010401060108E2
:1002D000010A010C010E011001120114011601188E
:1002E000011A011C011E01200122012401260128FE
:1002F000012A012C012E013001320134013601396D
:10030000013B013D013F0141014301450147014AD4
:10031000014C014E01500152015401560158015A3D
:10032000015C015E01600162016401660168016AAD
:10033000016C016E01700172017401760179017B1B
:10034000017D019101910392039303940395039618
:10035000039703980399039A039B039C039D039EB1
:10036000039F03A003A103A303A403A503A603A75C
:1003700003A803A903AA031004110412041304140C
:1003800004150416041704180419041A041B041C89
:10039000041D041E041F0420042104220423042439
:1003A00004250426042704280429042A042B042CE9
:1003B000042D042E042F0401040204030404040584
:1003C0000406040704080409040A040B040C040EC0
:1003D000040F04602161216221632164216521668B
:1003E000216721682169216A216B216C216D216EB1
:1003F000216F2121FF22FF23FF24FF25FF26FF2756
:10040000FF28FF29FF2AFF2BFF2CFF2DFF2EFF2F98
:10041000FF30FF31FF32FF33FF34FF35FF36FF3748
:10042000FF38FF39FF3AFF0000610062006300649B
:1004300000650066006700680069006A006B006C78
:10044000006D006E006F0070007100720073007428
:1004500000750076007700780079007A00A100A28C
:1004600000A300A500AC00AF00E000E100E200E363
:1004700000E400E500E600E700E800E900EA00EB40
:1004800000EC00ED00EE00EF00F000F100F200F3F0
:1004900000F400F500F600F800F900FA00FB00FC9B
:1004A00000FD00FE00FF0001010301050107010935
:1004B000010B010D010F01110113011501170119A4
:1004C000011B011D011F0121012301250127012914
:1004D000012B012D012F0131013301350137013A83
:1004E000013C013E01400142014401460148014BEB
:1004F000014D014F01510153015501570159015B54
:10050000015D015F01610163016501670169016BC3
:10051000016D016F0171017301750177017A017C31
:10052000017E019201B103B203B303B403B503B674
:1005300003B703B803B903BA03BB03BC03BD03BECF
:1005400003BF03C003C103C303C403C503C603C77A
:1005500003C803C903CA033004310432043304342A
:1005600004350436043704380439043A043B043CA7
:10057000043D043E043F0440044104420443044457
:1005800004450446044704480449044A044B044C07
:10059000044D044E044F04510452045304540455B2
:1005A0000456045704580459045A045B045C045E5E
:1005B000045F0470217121722173217421752176E9
:1005C000217721782179217A217B217C217D217E4F
:1005D000217F2141FF42FF43FF44FF45FF46FF4784
:1005E000FF48FF49FF4AFF4BFF4CFF4DFF4EFF4FB7
:1005F000FF50FF51FF52FF53FF54FF55FF56FF5767
:10060000FF58FF59FF5AFF0000C700FC00E900E255
:1006100000E400E000E500E700EA00EB00E800EF9E
:1006200000EE00EC00C400C500C900E600C600F4FE
:1006300000F600F200FB00F900FF00D600DC00F835
:1006400000A300D800D7009201E100ED00F300FA0A
:1006500000F100D100AA00BA00BF00AE00AC00BD9E
:1006600000BC00A100AB00BB0091259225932502A0
:10067000252425C100C200C000A9006325512557CB
:10068000255025A200A5001025142534252C251C55
:100690002500253C25E300C3005A2554256925661D
:1006A00025602550256C25A400F000D000CA00CBA1
:1006B00000C800AC20CD00CE00CF0018250C258846
:1006C000258425C600CC008025D300DF00D400D2CD
:1006D00000F500D500B500FE00DE00DA00DB00D931
:1006E00000FD00DD00AF00B400AD00B1001720BE7A
:1006F00000B600A700F700B800B000A800B700B926
:1007000000B300B200A025A00020666C617368658C
:10071000642E0A0D0046696C65200020646F6E65CA
:10072000202E2E2E0A0D00204B420D00462D7772F2
:100730006974696E672020307800646F6E650A0DF9
:1007400000464C6173683A2065726173696E672078
:100750002E2E2E20004572726F723A20556E616205
:100760006C6520746F20726561643A20002000205F
:10077000637265617465642E0A0D0046696C6520BC
:10078000000A0D646F6E65202E2E2E0A0D00204B80
:10079000420D00462D72656164696E6720203078D5
:1007A000004572726F723A20556E61626C652074FA
:1007B0006F206372656174653A200020002000306C
:1007C000003100203A200041532D53746174757339
:1007D0003A200020427974650053697A653A2030E6
:1007E00078002A2A20756E6B6E6F776E202A2A0099
:1007F000455043533634004550435351333200453E
:100800005043533136004550435334004550435311
:100810003100200053696C69636F6E2D49443A20A2
:1008200000466978656420506172616D6574657217
:100830003A206C656E2C207573696E67206C656E4E
:100840003D20003E003C004572726F723A20556EAA
:1008500061626C6520746F206F70656E3A20002DA8
:100860002D2D2D2D2D2D2D2D2D2D2D0A0D00202D35
:100870002D20002A2A2059482D465047412D5368E3
:10088000656C6C202A2A0D0A00434D443A206361AE
:10089000740D0A00434D443A206865780D0A0053F0
:1008A000442D4F46460A0D00202A2000202A200011
:1008B000506172616D657465723A2000202A2000D3
:1008C000506172616D657465723A200050617261A9
:1008D0006D657465723A2000202D2D20006D6973BE
:1008E00073696E6720706172616D657465723A201C
:1008F000002000506172616D657465723A200020BD
:1009000000436F6D6D616E643A200000E90B342D79
:10091000DF0B00D90B2C2DCF0B00CA0B4439BE0BBB
:1009200001B80B792DA40B019E0BA52D8E0B018711
:100930000B0038790B00760BF42D600B015C0B2655
:100940002E520B014E0BF72D410B013E0B0E302F9B
:100950000B01270B6B2C160B010D0BA22CEE0A00C2
:10096000E50AA82CD40A00CC0AA93DBD0A00B50AA4
:10097000753CA50A039E0A233B850A027D0AD23BE9
:10098000650A025E0A4E3A4C0A01490A8C3C390A51
:1009900001350A2C40260A01210A53400D0A00099C
:1009A0000AB33DFF0901FB09D63DE50900E109FC59
:1009B0003DCF090000000000000000000000000022
:1009C00000000000000000000000000000000073B4
:1009D000686F777320696E666F206F6E206F736427
:1009E000006F7364006A6F792076616C75652028EA
:1009F00074657374206F6E6C7929006A6F79007268
:100A000065736574207073320070733200637265B1
:100A10007320636F726572657365746C6576656C5F
:100A20000063726573007265732072657365746C20
:100A30006576656C00726573007364207261776916
:100A40006D61676566696C6500736400662D647529
:100A50006D70206F6666736574206C656E00662D20
:100A600064756D7000662D7772697465206F6666B7
:100A70007365742066726F6D66696C6500662D77AC
:100A80007269746500662D72656164206F666673B5
:100A90006574206C656E20746F66696C6500662DE8
:100AA0007265616400657261736520544F532D4611
:100AB0006C61736800662D657261736500616374B3
:100AC00069766174652046426F6F7400662D737499
:100AD00061727400436F6E666967466C617368206B
:100AE000496E666F0061732D676574696400777283
:100AF000697465202E7262662066696C6520746F69
:100B000020436F6E666967466C6173680061732D80
:100B10007772697465007265616420436F6E6669FF
:100B200067466C6173680061732D7265616400656E
:100B300078656320626174636866696C6500646FE0
:100B40000068657864756D702066696C650068651D
:100B5000780073686F772066696C65006361740064
:100B60006C697374205344436172642044697265F4
:100B700063746F7279006C730070757A7A6C65209B
:100B8000726F756E64730070757A7A6C6500776148
:100B900069742064656C74696D65206D73006465AB
:100BA0006C617900656E61626C6520446562756791
:100BB00020547261636573007472616365005379D8
:100BC0007374656D20496E666F00696E666F0070A4
:100BD0006F776572206F6666007265736574007466
:100BE00068697320546578740068656C700066707D
:100BF00067612D7368656C6C3A3E20004572726FB8
:100C0000723A20000A0D4156522D5265737461727A
:100C1000740D0A0059482D667067612D7368656C04
:100C20006C3A3E20002A2A2A205375736B612D49A5
:100C300049492D424620465047412D5368656C6C0A
:100C4000202A2A2A0D0A0046504741204465666141
:100C5000756C7420696E69742D46696C652028690D
:100C60006E69742E74787429206661696C65640DF0
:100C70000A0020667265733D004572726F723A20F9
:100C8000556E61626C6520746F206F70656E3A20DE
:100C9000002000203A20004572726F723A20556E93
:100CA00061626C6520746F206F70656E3A20004D34
:100CB0006F7573653A20004B6579626F6172643AB3
:100CC000200020646F6E650A0D00547269676765C5
:100CD000722066626F6F740020646F6E650A0D008B
:100CE000773A2000723A20000A0D7365656B206622
:100CF00061696C65640A0D000A0D696C6C65676159
:100D00006C207265713A20000A0D65786974204381
:100D10006D640A0D005245510A0D00776169742017
:100D20002E2E2E2000465047412D56657273696F56
:100D30006E3A2000292000556E6B6E6F776E20434F
:100D40006F7265004D756C7469636F6D70205A38F1
:100D500030004F6C6420436F726520776974686F50
:100D60007574207479706500756E6B6E6F776E00A8
:100D7000537061636520496E7661646572730041EA
:100D800072636164652000756E6B6E6F776E0057DD
:100D90004636384B303000574636384B31300057E6
:100DA0004636384B3330002053544520005375737A
:100DB0006B612D4949492D4246002046414C434F25
:100DC0004E20005375736B612D4949492D424600F1
:100DD00020545420005375736B612D4949492D42AD
:100DE00046002028002000465047412D436F726581
:100DF000747970653A200041544D4547412D566540
:100E00007273696F6E3A2000496E70757420566F68
:100E10006C746167653A200072617720496E707565
:100E20007420566F6C746167653A200074696D6553
:100E30006F7574202E2E2E2046504741206C6F6116
:100E400064206661696C65640D0A007761697420CD
:100E5000636F6E66202E2E2E0D0A000D0A00636F42
:100E6000726520726573657420000D0A00726573E7
:100E70006574200020633020002063312000207240
:100E800030200020723120002E2E2E00207265733B
:100E9000002E2E2E0020726573002E2E2E00207242
:100EA0006573002E2E2E002063726573002E2E2E89
:100EB000002063726573002E2E2E00207265730071
:100EC000000000000000000055555555555555557A
:100ED0002A2A2A2A2A2A2A2A141414141414141422
:100EE0000000000000000000000000000000000002
:100EF00000000000000000000000000000000000F2
:100F000000000000000000000000000000000000E1
:100F100000000000000000000000000000000000D1
:100F200000000000000000000000000000000000C1
:100F300000C0C0E0781F00FFFF001F78E0C0C000C5
:100F400008081C1C3E3E7F7F7F7F3E3E1C1C08081D
:100F50000010187C7C1810000010307C7C301000D1
:100F60001C1C1C1C1C1C000000001C1C1C1C1C1C31
:100F7000007C7C3838101000707C7272727C7000BB
:100F8000707070707C72020C3E3E2222223E3E0047
:100F90003E3E3E3E3E3E3E000000000C0C00000087
:100FA0000000000000000000000000000000000041
:100FB0000000000000000000000000000000000031
:100FC00000000000000000000000005F5F00000063
:100FD0000003030003030000147F7F147F7F1400CD
:100FE00000242E6B6B3A12004C6A36186C56320095
:100FF000307E4F59773A6840000004070300000034
:1010000000001C3E63410000000041633E1C0000E4
:10101000082A3E1C1C3E2A080008083E3E0808001C
:10102000000080E0600000000008080808080800D0
:101030000000006060000000406030180C060301F2
:10104000003E7F594D7F3E000004067F7F00000078
:1010500000426371594F460000226349497F3600C0
:10106000181C16137F7F100000276745457D390047
:10107000003C7E4B4979300000010171790F070077
:1010800000367F49497F360000064F49693F1E0000
:101090000000006666000000000080E666000000B8
:1010A000000808141422220000141414141414004C
:1010B000002222141408080000020351590F0600F0
:1010C0003E7F415D551F1E00007E7F09097F7E0027
:1010D000007F7F49497F3600001C3E63414141004B
:1010E000007F7F41633E1C00007F7F4949414100F2
:1010F000007F7F0909010100003E7F41497B7A00A2
:10110000007F7F08087F7F000000417F7F41000053
:1011100000206040407F3F007F7F081C3663410015
:10112000007F7F40404040007F7F060C067F7F00AD
:101130007F7F060C187F7F00003E7F41417F3E008D
:10114000007F7F09090F06003E7F41617F7E4000DE
:10115000007F7F09197F660000266F4D597B3200A2
:101160000001017F7F010100003F7F40407F3F0081
:10117000000F3F70703F0F007F7F3018307F7F007F
:101180004163361C1C3663410103067C7C06030167
:101190006171594D4743410000007F7F414100008C
:1011A0000103060C18306040000041417F7F0000C1
:1011B000080C0603060C0800808080808080800078
:1011C000000000030704000000207454547C7800E1
:1011D000007F7F44447C380000387C444444000055
:1011E00000387C44447F7F0000387C54545C1800F5
:1011F00000047E7F050500000018BCA4A4FC7C0050
:10120000007F7F04047C78000000003D7D400000EA
:1012100000808080FD7D0000007F7F10386C4400DE
:101220000000003F7F4000007C7C0C180C7C7800A4
:10123000007C7C04047C780000387C44447C3800CA
:1012400000FCFC24243C180000183C2424FCFC0076
:10125000007C7C04040C080000485C54547420009A
:1012600000043F7F44440000003C7C40407C7C0004
:10127000001C3C60603C1C003C7C6030607C3C009E
:10128000446C3810386C4400001CBCE0603C1C000E
:10129000004464745C4C44000008083E77414100FF
:1012A0000000007F7F000000004141773E080800F9
:1012B00002010103020201007F7F7F7F7F7F7F00A9
:1012C00011241FBECFEFD0E1DEBFCDBF15E0A0E0FF
:1012D000B1E0ECE9FDEA02C005900D92AA3DB1072C
:1012E000D9F72BE0AAEDB5E001C01D92AF33B207EC
:1012F000E1F70E94014E0C94CC560C940000F89437
:1013000028E024BD019761F084B5856084BD8BE938
:1013100087BD80916E00826080936E0078940895FE
:1013200084B5846084BD8DE387BD80916E0082604A
:1013300080936E00789408950F931F930091DA05BF
:101340001091DB052091DC053091DD05AB01BC017E
:10135000400F511F621F731F8091DA059091DB05CA
:10136000A091DC05B091DD0584179507A607B707A6
:1013700098F31F910F9108950F931F938B019C0178
:10138000672B682B692B89F080E090E0EFE9FFE0A4
:101390003197F1F700C000000196AC0160E070E009
:1013A000401751076207730788F31F910F91089543
:1013B0000C94BC091F920F920FB60F9211248F93B9
:1013C0009F93AF93BF938091DA059091DB05A09135
:1013D000DC05B091DD050196A11DB11D8093DA05F4
:1013E0009093DB05A093DC05B093DD05BF91AF9131
:1013F0009F918F910F900FBE0F901F90189584B101
:10140000866084B90895282F98E080E015C02A9856
:10141000880F1B998160000000000000299A0000DD
:1014200000000000220F00000000000029980000CA
:1014300000000000915021F027FFE9CF2A9AE8CF61
:1014400008958091DE0508952C9A2D9A85EB91E000
:101450000E946C0D259A249A0895CF93DF938FEF05
:101460000E94030AC5EFD1E002C0219729F08FEF57
:101470000E94030A8F3FC9F7DF91CF910895FF9231
:101480000F931F93CF93DF93C82FD42F152F062FC1
:10149000F72E87FD0DC02C9A2C980E942D0A8F3FA5
:1014A00089F08FEFDF91CF911F910F91FF900895F9
:1014B00040E050E0BA0187E70E943F0A823090F78F
:1014C000CF77E9CF8C2F0E94030A8F2D0E94030A49
:1014D000802F0E94030A812F0E94030A8D2F0E94F1
:1014E000030AC03491F0C834A1F081E00E94030ADD
:1014F000CC3499F0C4EFD1E002C0219799F28FEF7C
:101500000E94030A87FFCECFF8CF85E90E94030A25
:10151000F1CF87E80E94030AEDCF8FEF0E94030A04
:10152000E9CF8F929F92AF92BF92CF92DF92EF92CC
:10153000FF920F931F93CF93DF9300D000D0CDB7CE
:10154000DEB72D988DEA91E00E946C0D2FEF81EEB1
:1015500094E0215080409040E1F700C000001FE07F
:101560008FEF0E94030A1150D9F7EFEFF1EE24E05C
:10157000E150F0402040E1F700C00000E12CF12CE8
:1015800009C0EFEFF0E722E0E150F0402040E1F742
:1015900000C0000040E050E0BA0180E40E943F0A31
:1015A000813039F18FEFE81AF80A9CE0E916F1046E
:1015B00041F71092DE052C9A85E891E00E946C0DAF
:1015C0000E94D70D2D9A8CE791E00E946C0D812F1F
:1015D0000F900F900F900F90DF91CF911F910F916F
:1015E000FF90EF90DF90CF90BF90AF909F908F9043
:1015F00008954AEA51E060E070E088E40E943F0A02
:101600008130A9F140E050E0BA0189EE0E943F0A22
:10161000823008F4A9C001E091E4D92E09C040E06D
:1016200050E0BA018D2D0E943F0A882309F495C02D
:10163000FFEFEF1AFF0A29EEE21623E0F20679F730
:1016400040E052E060E070E080E50E943F0A8111D6
:10165000B0CF0093DE052C9A84E991E00E946C0DD6
:10166000802F0E94940D0E94D70D11E0B0CFFE0193
:1016700031964F015E01F5E0AF0EB11C64018FEFB2
:101680000E94030AF60181936F01AE16BF06B9F7F7
:101690008B81813009F08DCF8C818A3A09F089CF16
:1016A000FFEFEF1AFF0A12C02FEF80E792E0215000
:1016B00080409040E1F700C00000EFEFEE1AFE0A14
:1016C000F5EFEF16F1E0FF0609F473CF40E050E0CC
:1016D00060E070E489EE0E943F0A8111E5CF24EFBB
:1016E000E21621E0F20608F064CF40E050E0BA01D3
:1016F0008AE70E943F0A81115CCF8FEF0E94030AA4
:10170000F40181934F01AE16BF06B9F787EA91E065
:101710000E946C0D1981812F0E94940D85EA91E041
:101720000E946C0D8A810E94940D83EA91E00E94D0
:101730006C0D8B810E94940D81EA91E00E946C0DEA
:101740008C810E94940D8FE991E00E946C0D0E94A3
:10175000D70D16FD0DC004E07CCF88EEE81683E0BF
:10176000F80609F426CF6CCF02E089EED82E60CFC0
:101770000CE06FCFCF92DF92EF92FF920F931F9307
:10178000CF93DF937A012091DE0523FD07C029E086
:10179000660F771F881F991F2A95D1F7AB01BC01EF
:1017A00088E50E943F0A882349F0DF91CF911F917D
:1017B0000F91FF90EF90DF90CF9008950E942D0A37
:1017C0008F3F11F081E0F1CF8EEF0E94030A870175
:1017D0008EEFF81A6801F80181918F010E94030AC7
:1017E000F6012081CE019227092E0294202D2F7020
:1017F0002927392F3025330F307E2327302D3927E5
:10180000307F3695092E000C331F96959695969548
:101810009F7193279827822FEC010E151F0509F061
:10182000D9CF8D2F0E94030A8C2F0E94030A8FEFBD
:101830000E94030A8F71853009F0C4CF8FEF0E9498
:10184000030A8F3FD9F72C9A80E0AFCFEF92FF9237
:101850000F931F93CF93DF93F42ED52F2091DE05A6
:1018600023FD07C029E0660F771F881F991F2A955F
:10187000D1F7AB01BC0181E50E943F0AC82F81115D
:101880004FC08FEF0E94030A8E3FD9F70F2D1D2FF7
:1018900078018EEFF81AC0E0D0E08FEF0E94030AC3
:1018A000F80181938F019E013827032E0294802D29
:1018B0008F708327932F9025990F907E8927902DE5
:1018C0009327907F9695032E000C991F3695369599
:1018D00036953F7139273227282FE901EE15FF058C
:1018E000E1F68FEF0E94030A082F10E0102F002767
:1018F0008FEF0E94030A2C9A082B81E00C171D071A
:1019000039F0DF91CF911F910F91FF90EF900895E3
:1019100080E0DF91CF911F910F91FF90EF9008959C
:101920008AE691E00E946C0D8C2FDF91CF911F9180
:101930000F91FF90EF90089508950E94910A8823D7
:1019400021F01092DF0580E0089583E08093DF05A9
:1019500008958091DF050895FB01CA01B901AF0127
:101960000E94260C90E00895FB01CA01B901AF0165
:101970000E94BA0B90E008950F931F93CF93DF93CB
:101980008A012C986623A9F06A3039F40E94210A52
:10199000F8018083C0E0D0E002C0C4E0D0E02C9A1F
:1019A0008FEF0E94030ACE01DF91CF911F910F911B
:1019B00008950E942D0A8F3F91F7ECCF1092C50039
:1019C00089E18093C40086E08093C20088E180931F
:1019D000C10008959093C5008093C40008959FB7F7
:1019E000F8948091C10080688093C1008091C60006
:1019F0008091C00087FDFACF80EC8093C0009FBF2C
:101A000042E36CE277E08EE597E00E949C277894B1
:101A100008951F920F920FB60F9211242F933F93A8
:101A20004F938F939F93EF93FF934091C6009091B4
:101A30005E0780915F079817D0F4E0916207F091FC
:101A400063079F012F5F3F4F40838091650781505F
:101A5000D1F08093650730936307209362079FB7A7
:101A6000F89480915E078F5F80935E079FBFFF9120
:101A7000EF919F918F914F913F912F910F900FBEBA
:101A80000F901F90189580915F07281B3109E1CFB7
:101A90008EE597E00C94C0278EE597E00C94A6277E
:101AA0009091C00095FFFCCF8093C6000895CF931E
:101AB000C82F8A3039F08C2F0E94500D80E090E0C2
:101AC000CF9108958DE00E94500D8C2F0E94500DF3
:101AD00080E090E0CF910895CF93DF93EC01FC017B
:101AE0008491882339F00E94500D2196FE01849143
:101AF0008111F9CFDF91CF910895CF93DF93EC015E
:101B00008881882331F021960E94500D899181119E
:101B1000FBCFDF91CF9108958A3018F4805D0C944B
:101B2000500D895C0C94500DCF93C82F82958F7007
:101B30000E948C0D8C2F8F70CF910C948C0DCF93B5
:101B4000C82F892F0E94940D8C2FCF910C94940D47
:101B5000CF92DF92EF92FF926B017C01C7010E944E
:101B60009F0DC601FF90EF90DF90CF900C949F0DDA
:101B7000CF93C82F8436B0F08CE98C0F8436A0F058
:101B8000C85C82E30E94500D80E3CA3020F08F5F72
:101B9000CA50CA30E0F70E94500D80E38C0FCF91FD
:101BA0000C94500D80E3EECFC82F81E3EBCF8EEB8A
:101BB00091E00C946C0DEF92FF920F931F93CF93D3
:101BC000DF937C01D62FC0E000E010E008C0CF5FBB
:101BD0000C2F10E0F701E00FF11FCD17F0F48EE5A8
:101BE00097E00E94C027F701E00FF11F8F3F2FEF12
:101BF000920799F080838D3081F08A3071F08830BF
:101C000031F7CC2399F01082C1500C2F10E0F8016D
:101C1000EE0DFF1D1082CD1710F310828C2FDF9177
:101C2000CF911F910F91FF90EF900895E0E0F0E0C9
:101C3000EFCF0F931F93CF93DF938C01D62FC0E08C
:101C40000DC0F801EC0FF11D80838D3059F18A3001
:101C500049F18830B9F0CF5FCD1708F50E94C04137
:101C60008EE597E00E94C0278F3F2FEF920749F73C
:101C7000C111F2CFF80110828C2FDF91CF911F910B
:101C80000F910895CC2341F01082C150EC2FF0E069
:101C9000E00FF11F1082E0CFE0E0F0E0F9CFF801B3
:101CA000EC0FF11D10820D9739F7C111E5CF8DE0D2
:101CB000F801808311828C2FDF91CF911F910F91BA
:101CC00008954F925F926F927F92AF92BF92CF92A0
:101CD000DF92EF92FF920F931F93CF93DF93FC015C
:101CE000C2A4D3A4E4A4F5A4C416D506E606F70658
:101CF00059F02A013B01EC018481811126C0411475
:101D000051046104710489F480E090E0DF91CF9187
:101D10001F910F91FF90EF90DF90CF90BF90AF9009
:101D20007F906F905F904F90089501E0A301920122
:101D3000BE01625D7F4F89810E94AC0C892BE1F569
:101D40004AA65BA66CA67DA6DFCF5F01FEE2AF0EC2
:101D5000B11C01E0A7019601B50189810E94B40C74
:101D6000892B51F51C828E899F89A88DB98D4E8D46
:101D70005F8D68A179A1480F591F6A1F7B1FC41688
:101D8000D506E606F70608F0BACF1B81123028F414
:101D9000B6CF8E899F89A88DB98DC80ED91EEA1E2F
:101DA000FB1E01E0A7019601B50189810E94B40CD8
:101DB0001150113071F7A3CF81E090E0A7CF0F93BE
:101DC000CF93DF93EC019A01AB01BC01625D7F4FC1
:101DD00001E089810E94AC0C892B29F083E0DF911E
:101DE000CF910F910895FE01E45DFD4F80819181B7
:101DF00085359A4A29F082E0DF91CF910F910895BD
:101E0000E85CF14080819181A281B381BB27863457
:101E10009144A445B10569F0C058DF4F488159810C
:101E20006A817B81772781E046345144644571059E
:101E3000B1F680E0D4CFFC0181810E94A90C80FF23
:101E400003C083E090E0089580E090E008957F92E1
:101E50008F929F92AF92BF92CF92DF92EF92FF92BA
:101E60000F931F93CF93DF93EC016A017B018E8C5C
:101E70009F8CA8A0B9A08881823009F475C08330F6
:101E800009F44FC0813089F06FEF7FEFCB01DF9114
:101E9000CF911F910F91FF90EF90DF90CF90BF9067
:101EA000AF909F908F907F9008958A011695079527
:101EB0000C0D1D1DC801892F99278695B501A40118
:101EC000480F591F611D711DCE010E94610E892BA3
:101ED000D9F6F801F170EC0FFD1F76A40F5F1F4FCC
:101EE000C801892F99278695B501A401480F591F6C
:101EF000611D711DCE010E94610E892B29F61170A2
:101F0000C00FD11F8EA5672D70E0782BC0FE47C093
:101F1000729562956F7067277F70672780E090E009
:101F2000B6CF97E076956795579547959A95D1F7EF
:101F3000480D591D6A1D7B1DCE010E94610E892B23
:101F400009F0A2CFCC0CDD1CCC0CDD1C8CEFC82220
:101F500081E0D822CC0DDD1D8EA59FA5A8A9B9A929
:101F6000BC01CD019F7093CF452F562F672F772748
:101F7000480D591D6A1D7B1DCE010E94610E892BE3
:101F800009F082CFCC0CDD1CE894C0F881E0D822A7
:101F9000CC0DDD1D6EA57FA580E090E078CF7F7031
:101FA00080E090E074CFAF92BF92CF92DF92EF9239
:101FB000FF920F931F93CF93DF938C01EB01DC0112
:101FC00015967C936E93149716964D915D916D9135
:101FD0007C911997413051056105710569F0FC014B
:101FE000A080B180F501828D938DA48DB58D4817A9
:101FF00059076A077B0768F082E090E0DF91CF9194
:102000001F910F91FF90EF90DF90CF90BF90AF9016
:102010000895411551056105710509F048C02081F9
:102020002330D9F1D8011A961D921D921D921C924F
:102030001D97F50180859185C817D907E8F682A11B
:1020400093A1A4A1B5A19E01329522952F702327BB
:102050003F702327AC01BD01420F531F611D711D4D
:10206000D8011E964D935D936D937C935197F50126
:10207000BE96CF70DD27CC0FDD1FC295D295D07FE5
:10208000DC27C07FDC27EC0FFD1FD8015396FC93A3
:10209000EE93529780E090E0B1CF42A153A164A1AA
:1020A00075A1411551056105710509F4BBCFF50115
:1020B000E280F0E1EF9E70011124CE15DF0530F5CE
:1020C00037C0C5010E94270FAB01BC014F3FFFEF96
:1020D0005F076F077F0709F45EC042305105610555
:1020E000710508F489CFD801AD90BC90F501828DBF
:1020F000938DA48DB58D481759076A077B0708F0A3
:102100007BCFCE19DF09CE15DF0590F042305105A7
:102110006105710508F470CFF501828D938DA48D52
:10212000B58D481759076A077B0708F065CFC9CFF7
:10213000F80142875387648775879A01AB01225063
:102140003109410951090297A109B1092817390735
:102150004A075B0718F5F501A281B0E00E94FE5026
:10216000C6A0D7A0E0A4F1A4DC01CB018C0D9D1D7D
:10217000AE1DBF1D9E01329522952F7023273F7003
:102180002327820F931FA11DB11DF8018687978712
:10219000A08BB18B6CCF81E090E030CF80E090E0FD
:1021A000DC01E8CF2F923F924F925F926F927F9225
:1021B0008F929F92AF92BF92CF92DF92EF92FF9257
:1021C0000F931F93CF93DF9300D01F92CDB7DEB74D
:1021D0009B838A836A017B0148015901FC01468C7B
:1021E000578C60A071A0F081F983F23009F488C0A7
:1021F000F33009F461C0F130E9F002E010E081E071
:10220000EA81FB818483C8010F900F900F90DF91CA
:10221000CF911F910F91FF90EF90DF90CF90BF90E3
:10222000AF909F908F907F906F905F904F903F9076
:102230002F900895CA01969587951C012C0C3D1C82
:10224000C101892F99278695B301A201480F591F13
:10225000611D711D8A819B810E94610E8C01892BF9
:1022600071F6F101F1708A819B81E80FF91FC0FEC0
:1022700064C086A5282F2F7030E1839EC0011124F1
:10228000822B86A771018FEFE81AF80A3981EA815B
:10229000FB813483C701892F99278695B301A20159
:1022A000480F591F611D711DCF010E94610E0097DB
:1022B00009F46AC08C01A3CF27E0769567955795FE
:1022C00047952A95D1F7440D551D661D771D8A81C6
:1022D0009B810E94610E8C01892B09F090CFCC0C60
:1022E000DD1CCC0CDD1C9CEFC92291E0D922EA81D7
:1022F000FB81EC0DFD1D86A697A6A0AAB1AA7FCFF3
:1023000077276F2D5E2D4D2D440D551D661D771DB4
:102310008A819B810E94610E8C01892B09F06FCF0D
:10232000CC0CDD1CF601EE7FF170BE968A819B819C
:10233000E80FF91F9182808262CF86A671019FEF1C
:10234000E91AF90A3981EA81FB813483C701892FAF
:1023500099278695B301A201480F591F611D711D70
:10236000CF010E94610E009709F0A4CF31E0F32263
:10237000EA81FB81EE0DFF1D96A5907F892D8F7060
:10238000892E882A86A63BCFF1E0FF2284E0B6940E
:10239000A794979487948A95D1F7EA81FB81EE0DF3
:1023A000FF1D86A62CCF4F925F926F927F928F92E5
:1023B0009F92AF92BF92CF92DF92EF92FF920F93D4
:1023C0001F93CF93DF9300D000D000D0CDB7DEB7FE
:1023D0009E838D8349835A836B837C83DC015A9669
:1023E0004D905D906D907C905D97452B462B472BD3
:1023F00009F072C01A968D909D90AD90BC901D977B
:1024000081149104A104B10409F08DC0812C912C98
:10241000540183947501640134C0A2E08A169104CA
:10242000A104B10408F495C082E0C82ED12CE12C9F
:10243000F12CED81FE81828D938DA48DB58DC81612
:10244000D906EA06FB0668F5B701A601CF010E948E
:10245000270F611571058105910509F46BC06F3F68
:10246000FFEF7F078F079F0709F46FC06130710589
:1024700081059105B1F08C149D04AE04BF0409F4EC
:1024800068C09FEFC91AD90AE90AF90AC414D50429
:10249000E604F70410F6B2E0CB16D104E104F1042F
:1024A00040F661E070E080E090E026960FB6F89488
:1024B000DEBF0FBECDBFDF91CF911F910F91FF9077
:1024C000EF90DF90CF90BF90AF909F908F907F90D4
:1024D0006F905F904F90089529813A814B815C8184
:1024E0002230310541055105E0F289819A81AB81A5
:1024F000BC8184159505A605B70598F6AC01BD010C
:102500008D819E810E94270F6230710581059105A2
:1025100040F2641575058605970538F289809A8022
:10252000AB80BC8077CF84149504A604B70408F46C
:1025300071CF6CCFED81FE81828D938DA48DB58D91
:10254000C816D906EA06FB0640F06FEF7FEFCB0115
:10255000ACCF60E070E0CB01A8CF0FEF1FEF2FEF03
:102560003FE0B701A601CF010E94D210892B69F785
:1025700029813A814B815C81232B242B252BF9F077
:1025800029813A814B815C81223031054105510519
:10259000E0F2ED81FE81828D938DA48DB58D28179B
:1025A00039074A075B0788F69701860149815A81F6
:1025B0006B817C81CF010E94D210892B31F6AD81D5
:1025C000BE811A96CD92DD92ED92FC921D97FD018F
:1025D00086859785A089B1898F3FFFEF9F07AF0759
:1025E000BF0759F00197A109B109ED81FE818687E6
:1025F0009787A08BB18B81E08583C701B60155CF4A
:102600002F923F924F925F926F927F928F929F9202
:10261000AF92BF92CF92DF92EF92FF920F931F93F0
:10262000CF93DF93DC011496CD91DC911597219621
:10263000A9F484E090E0DF91CF911F910F91FF907A
:10264000EF90DF90CF90BF90AF909F908F907F9052
:102650006F905F904F903F902F900895FC0186847B
:102660009784A088B18881149104A104B10409F36E
:102670007B018C016E01FFE0CF22DD24C114D10467
:10268000D9F0DC01ED91FC91D8011596DC93CE9345
:102690001497BE96CC0CDD1CC294D29480EFD82245
:1026A000DC24C822DC24EC0DFD1D5396FC93EE9334
:1026B000529780E090E0BFCFBFEF8B1A9B0AAB0A26
:1026C000BB0AFC0186869786A08AB18A428553851B
:1026D00064857585411551056105710511F10190FC
:1026E000F081E02D828190E001979E013295229544
:1026F0002F7023273F70232782239323892B21F6D2
:10270000423051056105710548F0828D938DA48D8D
:10271000B58D481759076A077B0768F082E090E09B
:102720008ACF0190F081E02D80859185C817D90767
:1027300008F07FCFA9CFCF010E94270F4B015C018A
:10274000623071058105910548F36F3F7F4F8F4FD0
:102750009F4F09F451C0D801ED91FC91428D538DEA
:10276000648D758D84169506A606B70670F524014E
:102770003501B2E04B1A510861087108D8011A9668
:102780008D929D92AD92BC921D97DB01CA0102977A
:10279000A109B109481659066A067B0680F5A2818F
:1027A000B0E0A30192010E94FE5086A097A0A0A4D1
:1027B000B1A4860E971EA81EB91ED8011E968D9232
:1027C0009D92AD92BC9251975FCFEF2809F431CF23
:1027D000D8011A964D915D916D917C911D97CF0115
:1027E0000E94D3114B015C016115710581059105B2
:1027F00051F487E090E01FCF81E090E01CCF812C66
:10280000912C5401DACF613071058105910509F4ED
:1028100085CF6F3F7F4F8F4F9F4F71F340E050E068
:10282000BA01D8018D919C910E94610E892B21F7EC
:10283000F80180819181FC01BE96825D9D4F1192CD
:10284000E817F907E1F7D801ED90FC902401350174
:10285000B2E04B1A510861087108F701828D938D1F
:10286000A48DB58D0297A109B109481659066A06CB
:102870007B0608F04CC0A281B0E0A30192010E9447
:10288000FE5026A137A140A551A5DC01CB01820F46
:10289000931FA41FB51FF70182A793A7A4A7B5A7ED
:1028A000312C222423941EC0D70114962C9240E090
:1028B00050E0BA01F801808191810E94610E892B5C
:1028C00009F09ACFD801ED90FC90F70182A593A56D
:1028D000A4A5B5A50196A11DB11D82A793A7A4A784
:1028E000B5A73394F70182813816F0F282A593A53B
:1028F000A4A5B5A583199109A109B10982A793A738
:10290000A4A7B5A7428D538D648D758D37CF80E018
:1029100090E0DC01C0CF2F923F924F925F926F9276
:102920007F928F929F92AF92BF92CF92DF92EF925F
:10293000FF920F931F93CF93DF938C01BB24BA9424
:1029400055245A94EE24EA94FE2C0DC02F3009F43D
:1029500066C055245A9460E070E0C8010E940013DC
:10296000009709F049C0D8011E964D915D916D9177
:102970007C9151978D919C910E94610E0097E1F599
:10298000F801C289D3899881992309F4A2C08B8563
:10299000282F2F73953EE9F283FDD8CF2F3009F40D
:1029A0003EC0511011C0FE0131969E01255F3F4F80
:1029B00080E001C0919180FB879587F9890F2E17E0
:1029C0003F07C1F78B15B1F0D8015996FC92EE92F2
:1029D00058975496ED91FC915597838580FDB9CF1A
:1029E0009E01255F3F4F999181919813B2CF2C178B
:1029F0003D07C9F780E090E0DF91CF911F910F91E3
:102A0000FF90EF90DF90CF90BF90AF909F908F900E
:102A10007F906F905F904F903F902F900895D801D6
:102A20005696CD90DC905797C114D10409F493CFFA
:102A300096FF4CC0BD849F7B592E14968D919C911E
:102A4000159759969C938E9358974D844B1081CF30
:102A500088818F7B90E00197BDE0B89F4001B99FCE
:102A6000900C112429ECA22E21E0B22E21E081E06D
:102A700090E00BC02F3F3F4FE9F5A5EDAA16A1E06E
:102A8000BA0651F1F50121915F01FE01E20FF11D3E
:102A900020813181009771F3C9010E9450293C01C6
:102AA000E0E28E16910434F51401FFEF2F1A3F0A6D
:102AB000880C991CF601E80DF91D808191810E9416
:102AC000502968167906B1F44101D7CF951141CF4D
:102AD000BCCF84E090E090CF288126FF0FC0892BE7
:102AE00069F0F401EE0FFF1FEC0DFD1D8081918157
:102AF000892B21F0B42C55245A942DCF5A94B42C00
:102B00002ACF2F923F924F925F926F927F928F9235
:102B10009F92AF92BF92CF92DF92EF92FF920F936C
:102B20001F93CF93DF937C015B01DB018C918F328C
:102B300009F4B5C18C3509F4B2C1E7011E821F82C8
:102B400018861986F5018081803208F4C5C170E2CB
:102B5000572EE5E02E2EE701CE88DF88082E000CE8
:102B6000990B8032910508F45FC18F32910509F409
:102B700058C08C35910509F454C08601E5012196B1
:102B800088248394912C61E070E090E00E942629D3
:102B9000009791F18038910578F48232910561F1C6
:102BA000E5E1F3E006C0022E000C330B8217930719
:102BB00019F121912111F7CFF801819391938F01A0
:102BC00094012F5F3F4F8991082E000C990B8032A2
:102BD000910508F42DC18F32910539F18C3591059D
:102BE00021F12132310541F0490161E070E090E0CE
:102BF0000E942629009771F686E090E0DF91CF9140
:102C00001F910F91FF90EF90DF90CF90BF90AF900A
:102C10009F908F907F906F905F904F903F902F90FC
:102C2000089521E030E0812C912CA20EB31E412C9E
:102C30008114910409F3F401EE0FFF1FEC0DFD1D4B
:102C4000929182918032910511F08E9729F421E0C2
:102C5000821A9108A9F7D0CFF401EE0FFF1FD60119
:102C6000AE0FBF1F11961C921E92E701EC89FD89E1
:102C7000CF010B965192E817F907E1F7F601C0E092
:102C8000D0E0819191918032910519F08E329105B9
:102C900011F42196F6CF209719F0E42DE3604E2E23
:102CA000FD01329122912E32310521F021E0821A6C
:102CB0009108B9F708E010E0612C712C312C2196B5
:102CC000009709F44EC08032910569F18E3291056A
:102CD00039F160167106B4F5C815D90509F4ADC00F
:102CE0008038910508F0B5C08B32910509F4C3C056
:102CF000EEE1F3E007C0022E000C330B82179307BE
:102D000009F4B9C021912111F6CF9C012154310958
:102D10002A31310508F0F6C0232D2260322EAFC0D3
:102D2000C815D90559F0842D8360482EFE01EE0F99
:102D3000FF1FEC0DFD1D80819181C1CF60167106D2
:102D40000CF47BC00B30110509F4ADC0C815D905D2
:102D500009F476C0B42DB3604B2E8C169D060CF092
:102D60006FC0D7015496ED91FC9155978081853EB7
:102D700009F4A7C00830110509F4ABC0832D8C708D
:102D80008C3009F488C0932D9370933009F483C07C
:102D900041FC08C0932D9370913009F4A9C0843090
:102DA00009F4ACC0438660E070E0C7010E94D30F15
:102DB000009751F5C7010E948B14D7015496ED91ED
:102DC000FC91559723852470009729F5211116CF82
:102DD000E701EA89FB89838584FF23C0848995897B
:102DE000A0E0B0E0DC0199278827428D538D60E098
:102DF00070E0842B952BA62BB72B8E839F83A887FF
:102E0000B987D5018C91A7CED7015496ED91FC914D
:102E10005597238524708430910509F0EFCE211158
:102E2000EDCE85E090E0EACE21E030E0812C912CDF
:102E3000A20EB31E94E0492EFBCE0B30110599F182
:102E4000330C330CE4010BE010E038E0632E712CFE
:102E50006DCF60E070E00E942629009709F444C01D
:102E6000FC01E853FF4F808190E0E42DE2604E2E9C
:102E7000009709F039CFF42DF3604F2E8FE5D7017D
:102E80005496ED91FC915597E60DF71D8083F30163
:102E900031963F014BCFD42DD2604D2E79CFBFEF6D
:102EA000AB1ABB0A4ACE942D9360492ED701549693
:102EB000ED91FC9155978081853E09F05FCF0BE045
:102EC00010E02082E701EC89FD890830110509F046
:102ED00055CF330C330C52CF60E070E0C7010E9435
:102EE000D30F1B8A1A8A8ACEB42DB2604B2EC3CF61
:102EF000242D2061422E843009F054CF842D886027
:102F0000482E50CF9C01215631092A31310508F055
:102F1000B6CFA32DA1603A2E8052B1CF0F931F934D
:102F2000423051056105710570F0FC01028D138D71
:102F3000248D358D401751076207730720F41F91C8
:102F40000F910C94270F61E070E080E090E01F91FA
:102F50000F910895CF92DF92EF92FF920F931F93FC
:102F6000423051056105710550F0FC01C28CD38CD3
:102F7000E48CF58C4C155D056E057F0548F082E00C
:102F800090E01F910F91FF90EF90DF90CF90089508
:102F90000E94D2101F910F91FF90EF90DF90CF9081
:102FA00008950F931F93FC019A01AB012250310940
:102FB00041095109828D938DA48DB58D0297A10988
:102FC000B109281739074A075B0778F4A281B0E0F6
:102FD0000E94FE5006A117A120A531A5600F711F08
:102FE000821F931F1F910F91089560E070E0CB0145
:102FF0001F910F910895EF92FF920F931F93CF931C
:10300000DF93CDB7DEB728970FB6F894DEBF0FBEBB
:10301000CDBF8C01F901CB017801B801655F7F4F0D
:10302000DC012D91CD01D7012D937D01A617B707A6
:10303000B9F7E630F10508F476C0DA018D919D917B
:10304000E0FBF795E795F7F9E80FF91F8D919D9152
:103050000097B1F77E01B9E0EB0EF11C47E050E0BC
:10306000415051099F01ADECBCEC0E94EF50969588
:1030700087959695879596958795BC01660F771FDE
:103080009C01220F331F220F331F220F331F260FE5
:10309000371FE21BF30BE05DD701EE937D01FC01CE
:1030A000892BF1F68EE7FE01E40FF51F81831416DC
:1030B00015060CF03FC0F80180818032D9F13196BD
:1030C00020E030E003C08191803229F02F5F3F4F34
:1030D00024173507C4F3F801E20FF31F0DC0A1E078
:1030E000B0E0AC0FBD1FA40FB51F8C914F5F5F4FB9
:1030F00081932830310551F02F5F3F4F4830510503
:1031000074F380E2819328303105B1F728960FB629
:10311000F894DEBF0FBECDBFDF91CF911F910F910D
:10312000FF90EF900895E05DE8878EE78F8346E09B
:1031300050E0C1CF20E030E0CECF2F923F924F92AF
:103140005F926F927F928F929F92AF92BF92CF9237
:10315000DF92EF92FF920F931F93CF93DF93CDB740
:10316000DEB727970FB6F894DEBF0FBECDBFDC01E8
:10317000ED91FC912081022E000C330B205331097C
:103180002A30310518F451815A33B1F120902406C8
:1031900030902506FB01318220822114310489F010
:1031A000142FF1018081882381F181810E94A90C73
:1031B00080FD2BC0112311F082FD37C080E090E02C
:1031C00002C08CE090E027960FB6F894DEBF0FBEE9
:1031D000CDBFDF91CF911F910F91FF90EF90DF90C6
:1031E000CF90BF90AF909F908F907F906F905F90A7
:1031F0004F903F902F9008953296DC01ED93FC9311
:10320000232B21F28BE090E0DECFD1011C921196AE
:103210001C9280E00E949D0C80FF03C083E090E040
:10322000D2CF112329F082FF03C08AE090E0CBCFF8
:1032300040E050E0BA01C1010E94DF0E813059F038
:10324000C12CD12C7601833009F4FEC08823B1F063
:103250008DE090E0B8CFF101E051FE4F80818823EE
:10326000B9F3F101EC50FE4FC080D180E280F380D1
:10327000B701A601C1010E94DF0EE5CFF10181ADCA
:1032800092AD8115924021F7F101EC5BFF4F208157
:10329000318140E050E0211531054105510529F407
:1032A0003E962081318142815381D10156962D93E2
:1032B0003D934D935C935997DE96AC91F101A383B6
:1032C000B0E00E94FE502B013C0144AD55AD60E0E2
:1032D00070E046015701840E951EA61EB71E868E0D
:1032E000978EA0A2B1A2B3ADBF83B283FF96208117
:1032F0003181D10119963C932E9318973296808193
:103300009181A0E0B0E00097A105B10529F43D96B8
:1033100080819181A281B381F901F295E295EF70EC
:10332000EF27FF70EF278F0120E030E009831A8339
:103330002B833C83841B950BA60BB70B8419950933
:10334000A609B709BC01CD01601B710B820B930B61
:103350001F81212F30E040E050E00E94AE50DA01A2
:10336000C9010296A11DB11DF101828F938FA48F17
:10337000B58F873FFFE09F07A105B10508F467C03F
:10338000873F9F4FA105B10508F4AFC0F101E65A90
:10339000FF4F80819181A281B381F10182A393A328
:1033A000A4A3B5A309811A812B813C81800E911EB3
:1033B000A21EB31E480C591C6A1C7B1C46A257A2B5
:1033C00060A671A68FEF9FEFDC0186879787A08BA1
:1033D000B18B14821582E25AFF4F80819181A7013F
:1033E0009601280F391F411D511DD10152962D9371
:1033F0003D934D935C93559701E0B101625D7F4F22
:1034000011968C910E94AC0C892B41F4F101E45D82
:10341000FD4F8081918185359A4AC1F183E0D101C8
:103420008C93F10112A613A614A615A6809122066C
:10343000909123060196909323068093220697830A
:10344000868380E090E0BFCE81E090E0BCCE81E05A
:10345000840C951CA61CB71CF10182A293A2A4A205
:10346000B5A209811A812B813C81800E911EA21E7A
:10347000B31E86A297A2A0A6B1A64FEF5FEFBA0136
:1034800046875787608B718B1482C9CFF10186A55F
:1034900097A5A0A9B1A982359245A146B14409F0EA
:1034A000BDCFF101EE5EFD4F80819181A281B3819C
:1034B00082379247A144B14609F0B0CF3896808157
:1034C0009181A281B381F10182879387A487B58717
:1034D000EA5EFD4F80819181A281B381F1018687EF
:1034E0009787A08BB18B83E09ACF82E0B1CF8823FE
:1034F00019F08BE090E00895E0912406F091250604
:10350000309709F010826115710511F0FB011082EE
:10351000709325066093240680E090E008952F9232
:103520003F924F925F926F927F928F929F92AF9253
:10353000BF92CF92DF92EF92FF920F931F93CF93A0
:10354000DF93CDB7DEB7C054D1090FB6F894DEBF14
:103550000FBECDBF7C017CAB6BAB142FDC011D9289
:103560001C924E71BE016F5F7F4FCE01C3960E94C9
:103570009D180097D1F0C05CDF4F0FB6F894DEBF06
:103580000FBECDBFDF91CF911F910F91FF90EF90B4
:10359000DF90CF90BF90AF909F908F907F906F9073
:1035A0005F904F903F902F900895B12FBF71BB2E29
:1035B0006E01E7E2CE0ED11CDE8ACD8A80EE95E068
:1035C000988F8F8B6BA97CA9CE0101960E948115E3
:1035D000212F2C7179F4009771F6CB88DC88C11407
:1035E000D10429F0D6011B968C9184FF2CC284E073
:1035F00090E0C1CF009709F416C18430910509F01D
:10360000BACF8D889E880F89188DD401FE017B96D4
:103610008D918193EC15FD05D9F78EA180FF32C005
:10362000D4011B961C92188E1F8ACC24C394D12CD3
:103630000EC0CE0101960E948B140097C1F4BFEF1B
:10364000CB1ADB0AE4E6CE16D10409F4F1C09601E8
:10365000A801BE01655E7F4FC4010E94FB1760E0B8
:1036600070E0CE0101960E94D30F009711F38430D1
:10367000910509F080CF8EA1D4011B968C93188FF1
:103680000F8B8EA181FFFCC1F80180819181892B74
:1036900009F47DC2329620E030E02F5F3F4F8191E8
:1036A0009191892BD1F7275E3F4FA5ECBEE40E9494
:1036B000EF506C01D694C794D694C79460E070E044
:1036C000CE0101960E94D30F009709F054CF812CB0
:1036D000912C00E010E00BC000E010E061E070E031
:1036E000CE0101960E940013009709F044CF4F8548
:1036F000588969897A8989819A810E94610E009727
:1037000009F039CFEB89FC898081853E11F0811168
:10371000E3CF0115110511F48D809E800F5F1F4FBF
:103720000C151D05D9F6B1E0CB16D10409F4FAC089
:10373000B401CE0101960E94D30F009709F01BCF70
:10374000ED89FE899F01255F3F4F712C70FA7794B8
:1037500077F88191780E2E173F07C1F7F1E0CF1A65
:10376000D108BFE06B2E1DE0512E05ED802E01E04B
:10377000902E442443944F85588969897A89898198
:103780009A810E94610E009709F0F5CE1C2D4B899D
:103790005C896F89788DDA011D967C921D971B9646
:1037A0006C921B971C961C921C975B961C921E9207
:1037B0005A979601332721503109529EC001539EDA
:1037C000900D1124A9EC2A2EA1E03A2E01E0E0E0B0
:1037D000F0E01DC09C012F5F3F4F880F991FFB0138
:1037E000E80FF91F0190F081E02DCA01800F911DB3
:1037F000DC01ED93FC93309711F4EFEFFFEF8214AF
:10380000930409F470C0D1010D911D01C901EF3F6E
:10381000BFEFFB07F9F69A01200F311DD901ED9397
:10382000FC939C01ECCF12FF06C088E090E0A3CE91
:1038300087E090E0A0CECB88DC88C114D104C1F32E
:10384000D6011B968C911B97817191F713FF9CC039
:1038500054968D919C915597A0E0B0E0DC0199279A
:103860008827F601428D538D60E070E08C019D0148
:10387000042B152B262B372B09AF1AAF2BAF3CAFE0
:10388000158A148A138E128E148E158E168E178E2C
:1038900089809A8081E0F401848302A513A524A580
:1038A00035A521960CAF1DAF2EAF3FAF219709ADC7
:1038B0001AAD2BAD3CAD011511052105310509F4FB
:1038C00059C1013011052105310551F0828D938DCB
:1038D000A48DB58D081719072A073B0708F4D4C033
:1038E00082E090E048CE319649F0220F331FFB0171
:1038F000E20FF31F80819181892B09F41064FA0192
:103900001083E981FA81448260E070E0CE01019683
:103910000E940013009709F02ECEF1E0CF1AD108D3
:1039200009F029CF4F85588969897A8989819A81D7
:103930000E94610E009709F01ECEAB89BC899D01E3
:10394000CD018096FD0111928E179F07E1F76D89D9
:103950007E89AD01455F5F4FFB018191BF01F90198
:1039600081939F014E175F07B9F7ED89FE89838523
:1039700088711C968C93E981FA8181E08483FB2D08
:10398000F860BF2ECB88DC88B3FC66C0E981FA8181
:103990003B892C8942A553A564A575A5D7015A96E4
:1039A0004D935D936D937C935D975E963C935E978C
:1039B0005F962C935F971496BC92D60154968D9186
:1039C0009C915597A0E0B0E09C0111270027D601FB
:1039D0005A964D915C915B9760E070E0402B512BC3
:1039E000622B732BD7011E964D935D936D937C9341
:1039F0005197D6015C964D915D916D917C915F9749
:103A0000D7011A964D935D936D937C931D971696EF
:103A10001D921D921D921C9219978FEF15968C93F3
:103A2000159756961D921D921D921C9259971196AC
:103A3000FC93EE938681978113969C938E931297B5
:103A400080E090E098CD11FF02C080FDF1CEE981C9
:103A5000FA813C2D2D2D9ECFD6011B961C920E94E3
:103A60009727F60166877787808B918BE981FA81AA
:103A700081E084830B2D0062B02E3B892C898ACF94
:103A8000CC24C394D12C1ACE0DAB1EAB2FAB38AFC8
:103A9000AA24A39452C0613071058105910509F4EF
:103AA0001FCF6F3F7F4F8F4F9F4F09F473C0F401BB
:103AB000828D938DA48DB58D0DA91EA92FA938AD2A
:103AC000081719072A073B0708F00ACF00E010E0A3
:103AD00098014DA95EA96FA978ADC4010E94D210CA
:103AE000009709F048CDF40186859785A089B189B2
:103AF0008F3FFFEF9F07AF07BF0749F00196A11D5A
:103B0000B11DF40186879787A08BB18BA582F40144
:103B1000828D938DA48DB58D481659066A067B0655
:103B2000D8F44DAA5EAA6FAA78AEA3019201223002
:103B300031054105510508F4D3CE4DA95EA96FA901
:103B400078ADC4010E94270F2B013C01611571055E
:103B50008105910509F09FCF89809A8089AD9AAD42
:103B6000ABADBCAD0197A109B109F4018287938780
:103B7000A487B58721964CAD5DAD6EAD7FAD219725
:103B8000C4010E94610E009709F4FECEF4CC20E03F
:103B900030E089CD81E090E0EECC2F923F924F92C1
:103BA0005F926F927F928F929F92AF92BF92CF92CD
:103BB000DF92EF92FF920F931F93CF93DF9300D08A
:103BC00000D000D0CDB7DEB79C838B837B016A0128
:103BD0005901D9011D921C92DC01ED91FC911197C4
:103BE000309719F0808181111DC029E0822E912C1F
:103BF000C40126960FB6F894DEBF0FBECDBFDF918D
:103C0000CF911F910F91FF90EF90DF90CF90BF90D9
:103C1000AF909F908F907F906F905F904F903F906C
:103C20002F90089512962D913C911397868197813C
:103C300028173907D1F6CF010E941B0F4C01892BA1
:103C4000B9F6EB81FC81848187FD06C080FD08C048
:103C500087E0882E912CCCCF92E0892E912CC8CF72
:103C600086819781A085B185428553856485758558
:103C7000481B590B6A0B7B0B860120E030E0401794
:103C800051076207730708F46A01C114D10409F4EB
:103C9000AFCF212CE2E03E2EAC01BD015170662772
:103CA0007727EB81FC81452B462B472B09F44BC032
:103CB00046895789608D718D0190F081E02DFE83DA
:103CC000ED8391708101081B190BC016D10608F411
:103CD00086018D819E810E94610E892B09F030C181
:103CE000EB81FC8186819781A085B1859170AA279F
:103CF000BB27DC019E9680819181A80FB91FF70137
:103D0000E00EF11E8D918193EE16FF06D9F7EB813F
:103D1000FC8186819781A085B185800F911FA11DAF
:103D2000B11DEB81FC8186839783A087B187F50164
:103D300020813181200F311F31832083C01AD10AA5
:103D400009F0AACF55CF0190F081E02DFE83ED83DD
:103D5000EB81FC813581ED81FE812281321708F0F3
:103D600091C0EB81FC8182899389A489B5899C01EA
:103D7000AD012250310941095109ED81FE81828D49
:103D8000938DA48DB58D0297A109B1092817390724
:103D90004A075B0708F0C8C01281A12FB0E00E945B
:103DA000FE5046A057A060A471A4460E571E681E80
:103DB000791E411451046104710409F4B5C0EB810A
:103DC000FC812581420E511C611C711CA601452FEE
:103DD000552746955A8349834115510509F47AC000
:103DE00030E0420F531F812F90E08417950728F48D
:103DF000DC01A21BB30BBA83A9831981012FA30194
:103E00009201B701ED81FE8181810E94AC0CAB81F2
:103E1000BC81892B09F096C0ED91FC9184818823A7
:103E200001F182A593A5A4A5B5A584199509A609B4
:103E3000B70929813A81A90160E070E084179507EC
:103E4000A607B70770F4DC01BA2FAA27BB0FBE96EE
:103E5000AE0DBF1DCD019E5F21912D938A179B074B
:103E6000D9F7EB81FC818581180F158309811A81AF
:103E7000102F0027110F86819781A085B185E00E54
:103E8000F11E4BCF892B8A2B8B2BC1F5AB81BC81CB
:103E90001E966D917D918D919C9151976230710527
:103EA0008105910508F440C06F3FFFEF7F078F0742
:103EB0009F0709F445C0EB81FC81628B738B848B77
:103EC000958B15820190F081E02DFE83ED83DC015E
:103ED000CB014DCFAB81BC8156964D925D926D92D8
:103EE0007C9259972F5F15962C931597FD0186812B
:103EF0009781A085B185A201B301E3CEEB81FC815E
:103F0000428953896489758942305105610571057B
:103F100058F0ED81FE81828D938DA48DB58D48176B
:103F200059076A077B07C0F0AB81BC8114968C915E
:103F30001497806814968C9372E0872E912C58CE3B
:103F4000AB81BC8114968C911497806814968C93E5
:103F500088248394912C4CCECF010E94270F9ECFB2
:103F60002F923F924F925F926F927F928F929F9289
:103F7000AF92BF92CF92DF92EF92FF920F931F9377
:103F8000CF93DF9300D000D000D0CDB7DEB79C83B5
:103F90008B836B017A014901D9011D921C92DC01CE
:103FA000ED91FC911197309719F0808181111DC01E
:103FB00029E0A22EB12CC50126960FB6F894DEBFDB
:103FC0000FBECDBFDF91CF911F910F91FF90EF906A
:103FD000DF90CF90BF90AF909F908F907F906F9029
:103FE0005F904F903F902F90089512962D913C91A5
:103FF00013978681978128173907D1F6CF010E9440
:104000001B0F5C01892BB9F6EB81FC81848187FD54
:1040100006C081FD08C087E0A82EB12CCCCF92E06D
:10402000A92EB12CC8CF0285138524853585B90109
:10403000A8014E0D5F1D611D711D401751076207DC
:10404000730708F499C1E114F10409F4FEC1EB818E
:10405000FC8186819781A085B185212CF2E03F2EDD
:10406000AC01BD01517066277727EB81FC81452BA0
:10407000462B472B09F462C046895789608D718DA4
:104080000190F081E02DFE83ED8391708101081B8A
:10409000190BE016F10608F487018D819E810E94BC
:1040A000610E892B09F043C1EB81FC8186819781E8
:1040B000A085B1859170AA27BB27FC01BE96AB8174
:1040C000BC818D919C91D601E80FF91FCF01800F23
:1040D000911F2D912193E817F907D9F7AB81BC8186
:1040E000ED91FC91B1E0B483C00ED11EEB81FC8157
:1040F0004681578160857185DB01CA01800F911F60
:10410000A11DB11DAC01BD0186839783A087B18736
:10411000F40120813181200F311F31832083E01A87
:10412000F10A09F09DCFAB81BC811A960D911D91CA
:104130002D913C911D9714968C9122C10190F08194
:10414000E02DFE83ED83EB81FC813581ED81FE81E5
:104150002281321778F1892B8A2B8B2B09F0F3C03F
:10416000AB81BC811E966D917D918D919C915197F3
:10417000611571058105910509F445C1613071052D
:104180008105910509F44CC16F3FBFEF7B078B0799
:104190009B0709F451C1AB81BC8152966D937D930D
:1041A0008D939C93559715961C921597ED91FC91C4
:1041B000FE83ED83ED81FE8142A553A564A575A51F
:1041C000EB81FC8186899789A08DB18D48175907AD
:1041D0006A077B0709F406C1EB81FC818289938918
:1041E000A489B5899C01AD012250310941095109C9
:1041F000ED81FE81828D938DA48DB58D0297A109ED
:10420000B109281739074A075B0708F009C112816D
:10421000A12FB0E00E94FE5046A057A060A471A458
:10422000460E571E681E791E411451046104710424
:1042300009F4F6C0EB81FC812581420E511C611C02
:10424000711CA701452F552746955A83498341156F
:10425000510509F451C030E0420F531F812F90E007
:104260008417950728F4DC01A21BB30BBA83A9833A
:104270001981012FA3019201B601ED81FE81818197
:104280000E94B40CAB81BC81892B09F052C0ED9126
:10429000FC9182A593A5A4A5B5A584199509A609A5
:1042A000B70929813A81A90160E070E08417950778
:1042B000A607B707B0F4982F8827990F8C0D9D1D7E
:1042C000DF019E96AF01425D5D4FFC012191CF0160
:1042D0002D934A175B07C9F7AB81BC81ED91FC9127
:1042E0001482EB81FC818581180F158309811A8165
:1042F000102F0027110FF8CEEB81FC81868197816A
:10430000A085B18542855385648575858417950799
:10431000A607B70708F045C0EB81FC81468A578A9B
:10432000608E718E2F5F2583A201B301AECEAB816B
:10433000BC8114968C911497806814968C93AA244F
:10434000A394B12C38CEAB81BC8152964D915D9136
:104350006D917C9155978D819E810E94D31161153D
:1043600071058105910509F009CFEB81FC8102857A
:1043700013852485358584814681578160857185C3
:10438000041715072607370730F4EB81FC814287B5
:104390005387648775878062AB81BC8114968C9348
:1043A0000ACE40E050E0BA018D819E810E94610EEC
:1043B000892B09F0BCCFEB81FC810190F081E02DCD
:1043C000FE83ED8342A653A664A675A6AB81BC818D
:1043D00015962C91159716968D919D910D90BC91E7
:1043E000A02D9ACF40E050E0BA018D819E810E94BD
:1043F000610E892B09F5AB81BC810D90BC91A02D7C
:10440000BE83AD83E9CE40E050E0BA01CF010E9407
:10441000D311EB81FC8166877787808B918B9FCF4F
:10442000AB81BC8114968C911497806814968C9300
:1044300072E0A72EB12CBFCDEB81FC818481806816
:104440008483AA24A394B12CB6CDAB81BC811696EB
:104450004D915D916D917C91199792CF0F931F9320
:10446000CF93DF93DC01ED91FC911197309719F018
:104470002081211107C089E090E0DF91CF911F9149
:104480000F91089512964D915C9113972681378173
:104490004217530781F7EC01CF010E941B0F0097D1
:1044A00061F72C8125FFE9CF4A8D5B8D6C8D7D8D69
:1044B000888199810E94610E0097F9F60E8D1F8DFB
:1044C000F8018385806283878A859B85AC85BD855D
:1044D000848F958FA68FB78F8E859F85A889B98980
:1044E000938F828FB58BA48B0E949727D801569605
:1044F0006D937D938D939C9359978C818F7D8C8345
:10450000E881F98181E084830990D881C02D40E061
:1045100050E0BA01CE010E94610E009709F0ADCFC4
:104520008881833079F040E050E060E089810E942A
:10453000BC0C31E020E0892B19F0832F922F9DCF06
:1045400030E0FBCF8D81882371F31AA61BA61CA631
:104550001DA6BE01625D7F4FFB01CE01825D9D4FB6
:1045600011928E179F07E1F785E59AEAFE01E45D57
:10457000FD4F9183808382E592E5A1E6B1E48EA7A9
:104580009FA7A8ABB9AB82E792E7A1E4B1E67A971F
:1045900080839183A283B3838E859F85A889B989FF
:1045A000349680839183A283B3838A859B85AC856F
:1045B000BD85349680839183A283B3832A893B8906
:1045C0004C895D8901E089810E94B40C1D82ABCFCA
:1045D000CF93DF93EC010E942E22009711F41982F1
:1045E0001882DF91CF9108952F923F924F925F9260
:1045F0006F927F928F929F92AF92BF92CF92DF92F3
:10460000EF92FF920F931F93CF93DF9300D000D0D0
:1046100000D0CDB7DEB79E838D836A017B01DC01BC
:10462000ED91FC911197309719F0808181111CC098
:1046300009E010E0C80126960FB6F894DEBF0FBE61
:10464000CDBFDF91CF911F910F91FF90EF90DF9041
:10465000CF90BF90AF909F908F907F906F905F9022
:104660004F903F902F90089512962D913C91139763
:104670008681978128173907D9F6CF010E941B0F31
:104680008C01892BB9F6ED81FE81848187FDB3C051
:1046900042855385648575854C155D056E057F05DE
:1046A00020F481FD02C06A017B01AD81BE811696B6
:1046B0004D915D916D917C911997FD011682178244
:1046C000108611868FEF8583C114D104E104F104B3
:1046D00009F4B0CF20803180D10112968C90912CBA
:1046E000A12CB12C99E0880C991CAA1CBB1C9A9592
:1046F000D1F7411551056105710529F12A013B01E9
:10470000B1E04B1A510861087108C701B601615048
:10471000710981099109A50194010E94AE50298374
:104720003A834B835C83C301B201A50194010E94CB
:10473000AE5089819A81AB81BC8182179307A4070F
:10474000B50708F023C1AD81BE811E964D915D91E4
:104750006D917C915197411551056105710509F4E1
:104760002FC1AD81BE8152964D935D936D937C9325
:104770005597411551056105710509F03FC0ED815F
:10478000FE8186809780A084B18480E090E0DC0187
:10479000B501A401517066277727ED81FE81452B75
:1047A000462B472B79F046895789608D718D841788
:1047B0009507A607B70731F0ED81FE81868B978BB1
:1047C000A08FB18F82859385A485B58588159905BD
:1047D000AA05BB0508F02ECFAD81BE811A968D9239
:1047E0009D92AD92BC921D9714968C911497806205
:1047F00014968C931FCF02E010E01CCF8C149D0404
:10480000AE04BF0408F023C1AD81BE81ED91FC91DF
:104810009F01ED81FE81848181FD1AC042305105E6
:104820006105710568F0D9015A964D905D906D90C3
:104830007C905D97441555056605770508F4A0C082
:104840008068AD81BE8114968C9302E010E0F2CEB8
:10485000C9010E94D311AB01BC014115510561058D
:10486000710509F4E0C04F3FBFEF5B076B077B07A3
:1048700009F4C8C0423051056105710508F4CAC089
:10488000ED81FE8120813181F901828D938DA48D8E
:10489000B58D481759076A077B0708F0BBC0ED8143
:1048A000FE81428B538B648B758B86819781A085AB
:1048B000B185880D991DAA1DBB1D86839783A0878E
:1048C000B187C818D908EA08FB088C149D04AE0407
:1048D000BF0408F49ECF46015701880E991EAA1EF8
:1048E000BB1EAD81BE8116968D929D92AD92BC92FB
:1048F00019972601370189E0769467945794479475
:104900008A95D1F715964C92B1E0DB22EE24FF2474
:10491000CD28CE28CF2809F482C0AD81BE81ED918B
:10492000FC919A01AB012250310941095109828D54
:10493000938DA48DB58D0297A109B1092817390768
:104940004A075B0708F056C0A281B0E00E94FE5003
:10495000C6A0D7A0E0A4F1A4DC01CB018C0D9D1D65
:10496000AE1DBF1D0097A105B10509F443C0840D1C
:10497000951DA61DB71D4394ED81FE81458208CF8C
:10498000C9010E94270FAB01BC016DCF8827992771
:10499000DC0188199909AA09BB0984219521A6215E
:1049A000B721ED81FE8186839783A087B187C81ADE
:1049B000D90AEA0AFB0A4289538964897589D9CEE2
:1049C00040E050E0BA01C1010E94D311AB01BC012B
:1049D000413051056105710569F04F3FFFEF5F07F9
:1049E0006F077F0749F1ED81FE8146875787608B0E
:1049F000718BB7CEED81FE8184818068848302E073
:104A000010E018CEED81FE8184818068848301E00E
:104A100010E010CEAD81BE8114968C9111CF80E054
:104A200090E0DC01B5CEED81FE8186819781A08585
:104A3000B185750164014FCFAD81BE8114968C9113
:104A40001497806814968C9301E010E0F3CDED810B
:104A5000FE8186819781A085B1853DCF0F931F93FD
:104A6000CF93DF93CDB7DEB72E970FB6F894DEBFA6
:104A70000FBECDBF8C017E876D8740E0BC01CE01AB
:104A80000D960E949D18009759F02E960FB6F89437
:104A9000DEBF0FBECDBFDF91CF911F910F91089563
:104AA000CE010196D80155969C938E93549780EE33
:104AB00095E057969C938E9356976D857E85C80199
:104AC0000E948115009769F5D8015296ED91FC91ED
:104AD00053973097B9F0838584FF27C084899589DF
:104AE000A0E0B0E0DC0199278827428D538D60E07B
:104AF00070E0842B952BA62BB72BF8018683978328
:104B0000A087B187D801ED91FC911197868197819B
:104B100013969C938E93129760E070E0C8010E94F8
:104B2000D30F8430910509F0B0CF85E090E0ADCF90
:104B30004F925F926F927F928F929F92AF92BF92AD
:104B4000CF92DF92EF92FF920F931F93CF93DF9359
:104B5000CDB7DEB72C970FB6F894DEBF0FBECDBF32
:104B6000DC01ED91FC911197309719F02081211112
:104B700019C089E090E02C960FB6F894DEBF0FBE06
:104B8000CDBFDF91CF911F910F91FF90EF90DF90FC
:104B9000CF90BF90AF909F908F907F906F905F90DD
:104BA0004F90089512964D915C911397268137810D
:104BB00042175307F1F67B018C01CF010E941B0FB6
:104BC0000097C9F6CE010196F801958B848B80EE93
:104BD00095E0978B868BE114F10409F411C19924B7
:104BE0009A94DD24DA9484E090E02DE0C22E35ED35
:104BF000A32E31E0B32E0CC02F3091F1DD24DA94D6
:104C000060E070E0C8010E940013009709F078C0CE
:104C1000F8014685578560897189411551056105FF
:104C2000710509F46BC0D8018D919C910E94610EB1
:104C3000009709F065C0D8015296ED91FC91539709
:104C40008081882309F4C5C0853EC1F28E32B1F25D
:104C50009385292F2F7393FDCFCF2F3009F0D6C026
:104C600086FF49C095848F7BD82ED80114968D91EC
:104C70009C91159759969C938E935897858489108B
:104C8000BDCFD80156966D917C91579780818F73D7
:104C900090E00197C89E9001C99E300D1124B9EC97
:104CA0004B2EB1E05B2E81E041E050E015C0203298
:104CB0003105ECF4A901440F551F460F571FDA01C7
:104CC0008D939C93AC012F5F3F4FA414B50409F45E
:104CD00086C0D2018D912D013F01680E711CD30158
:104CE0008D919C914115510511F7019671F3982C06
:104CF000DD24DA9485CF8D1181CFC0CF009761F08C
:104D0000D8011E961D921D921D921C9251979C01D6
:104D10002B7F232B09F02FCF5701B9E0AB0EB11C2D
:104D2000F5011082D70156966D907C9057976114CB
:104D30007104E1F1F80186859785A089B189892BF5
:104D40008A2B8B2B69F1808D918D019649F1068814
:104D5000F789E02D5F01B2E0AB0EB11C808191813B
:104D60000097F1F04301C12CD12C14C0F701208D24
:104D7000318D21503109C216D30694F4FFEFCF1ABA
:104D8000DF0AD4018D934D01F501819191915F016D
:104D9000009741F060E070E00E942629009731F70B
:104DA000C12CD12CF301EC0DFD1D108260E070E0F0
:104DB000C8010E9400138430910509F0DCCED801AF
:104DC0001E961D921D921D921C92519780E090E0BC
:104DD000D2CEF80116861786108A118A9DCF80815F
:104DE00086FF0BC0203231050CF081CF220F331F1C
:104DF000FB01E20FF31F11821082DA94982C00CF8E
:104E000060E070E0C8010E94D30FB5CED11011C090
:104E1000DF0111969F01255F3F4F90E001C08D910A
:104E200090FB979597F9980F2A173B07C1F79915AB
:104E300039F08FEF9FEFD80159969C938E93589736
:104E40009701275F3F4FD8011E964D915D916D915F
:104E50007C915197452B462B472B09F466C0D4848F
:104E6000AF01570181E1A80EB11C9D2D987011C0B2
:104E7000992329F06FEB680F6A3108F4805E2F5F89
:104E80003F4FB90161507109DB018C932A153B0535
:104E900051F0DA018D91AD01803221F0853041F77A
:104EA00085EEEDCF59018085803211F1C501019663
:104EB0002EE2D5012C93AF01485F5F4FB4E0AB0EFB
:104EC000B11C3D2D3071DA012D91AD01203259F127
:104ED000332329F06FEB620F6A3108F4205E0196EC
:104EE000BC0161507109DB012C938A159B0559F7B0
:104EF0008385D70118968C931897448D558D668DB0
:104F0000778D4D935D936D937C931397808D918DE9
:104F100015969C938E9314978689978917969C93E0
:104F20008E931697FDCE5C01E3CF5901F9CE60EC6C
:104F300073EB89E494E30895FC0110827583648324
:104F4000738362834183478346830895FC01908184
:104F50009923E9F3A281B3819D012F5F3F4F8C918B
:104F60009681915019F49181291B31093383228351
:104F700096832FB7F8949081915090832FBF089516
:104F8000FC0180818823B9F0A281B3819D012F5F4C
:104F90003F4F8C919681915019F49181291B3109D1
:104FA0003383228396832FB7F89490819150908316
:104FB0002FBF90E008958FEF9FEF0895CF93DF9379
:104FC000EC01C11580E8D807E9F0CE01D7FD1FC07C
:104FD00010923406E4E3F6E02AE030E0B9010E94E2
:104FE0009A50805D8293CB010097C1F7D7FD04C032
:104FF000CF01DF91CF9108958DE28293CF01DF91B0
:10500000CF91089584E293E0DF91CF9108958827AE
:1050100099278C1B9D0BDCCFFC0190819D3249F1BF
:105020009B3261F161E070E080ED890F8A3058F5C4
:10503000319620E030E0A901440F551F220F331FA5
:10504000220F331F220F331F420F531F292F30E02F
:1050500020533109240F351F919180ED890F8A303B
:1050600050F3269FC001279F900D369F900D11246D
:105070000895918131966FEF7FEFD6CF9181319670
:1050800061E070E0D1CF80E090E008958A3010F4C4
:10509000805D0895895C08951F93CF93DF93182F47
:1050A00082958F700E944628CAE3D6E08883812FBC
:1050B0008F700E94462889831A82CE01DF91CF919A
:1050C0001F9108950F931F93CF93DF938C01812F2E
:1050D00082958F700E944628C5E3D6E08883C80178
:1050E00088279F70892F0E9446288983C801807F66
:1050F0009927929582958F7089279F7089270E94A2
:1051000046288A83802F8F700E9446288B831C82BA
:10511000CE01DF91CF911F910F9108958F929F92B1
:10512000AF92BF92FF920F931F93CF93DF934B01E8
:105130005C011092440620E030E0A9010E94D54EA7
:1051400087FD7BC0F12C20E030E048EC52E4C50143
:10515000B4010E942D500E944C4F4B015C0124E68B
:1051600030E040E050E00E94AE502DEC629F212DD7
:105170001124269526952695462F3AE0239F40191F
:105180001124463008F447C02AE030E040E050E007
:105190000E94AE50293009F057C084E6880E911C59
:1051A000A11CB11C20E3209343068EE280934206AB
:1051B000C501B40124E630E040E050E00E94AE506A
:1051C000CA01B901232B242B252B89F101E416E018
:1051D0002AE0822E912CA12CB12C01C08E01E80175
:1051E0002197A50194010E94AE50605D6983B901C9
:1051F000CA01611571058105910581F7F11013C090
:10520000C801DF91CF911F910F91FF90BF90AF9098
:105210009F908F9008952AE030E040E050E00E9497
:10522000AE50205DC0CF8DE288838E01E9CF80E350
:105230008093410601E416E0E3CFB7FAB094B7F8E3
:10524000B094FF24F3947FCF2F5CADCF80389105CD
:10525000F0F0672BB1F429E036E040E050E007C001
:105260004F5F5F4F2E5F3F4F4038510571F0F9019E
:10527000659174918617970799F7CA0180589F4FD7
:1052800008958F3F910521F018F080E090E0089597
:10529000FC01EE0FFF1FE75FFA4F8591949108958F
:1052A00029E234E0F90145915491452B41F1F9018E
:1052B000459154918417950711F12BE234E040E0B9
:1052C00050E009C0F90165917491F90132966817AF
:1052D000790741F09F014F5F5F4FF901659174912C
:1052E000672B81F7F90125913491232B39F0FA01CD
:1052F000EE0FFF1FE75BFD4F85919491089540E00D
:1053000050E0F0CF80B1869581700895882381F0B8
:1053100082B18D6282B916988DE681B98FE39CE9DE
:105320000197F1F700C0000080B186958170089563
:10533000109881B1827981B9F1CF1298129A0895AB
:1053400090E027E030E006C0139A1298129A21509C
:10535000310978F0AC01022E02C0559547950A94A8
:10536000E2F740FDF1CF13981298129A21503109BB
:1053700088F7089527E030E080E061E070E012985F
:10538000129A049B07C0AB01022E01C0440F0A947D
:10539000EAF7842B2150310990F70895159886E09B
:1053A0000E94A029159A0895159884E00E94A029CA
:1053B000159A0895CF93C82F159881E00E94A029CF
:1053C0008C2F0E94A029159ACF910895159885E0F9
:1053D0000E94A02927E030E080E061E070E01298B0
:1053E000129A049B07C0AB01022E01C0440F0A941D
:1053F000EAF7842B2150310990F7159A0895CF933D
:10540000DF93C8EED3E002C0209789F021970E9475
:10541000E629EFE3FCE93197F1F700C000008111C4
:10542000F3CF81E0CD2B19F0DF91CF91089580E08B
:10543000DF91CF9108950E94FF29159886E00E9480
:10544000A029159A159887EC0E94A029159A0C940A
:10545000FF291F93CF93DF93EB01182F159A0E941A
:10546000FF29159886E00E94A029159A159882E0D8
:105470000E94A029812F0E94A0298D2F0E94A0297F
:105480008C2FDF91CF911F910C94A0290C94FF29B0
:105490000F931F93CF93DF930E94E629082F87EC89
:1054A00097E00E946C0D802F0E94940D83EC97E092
:1054B0000E946C0D10E0C7E0D0E006C081EC97E0E0
:1054C0000E946C0D219778F098010C2E02C0359542
:1054D00027950A94E2F720FDF1CF8FEB97E00E9429
:1054E0006C0D219788F7DF91CF911F910F910C944C
:1054F000D70D81E00E94862915988BEA0E94A02989
:1055000080E00E94A02980E00E94A02980E00E9403
:10551000A0290E94BA29159A8051873068F4E82F93
:10552000F0E0EE0FFF1FEE0FFF1FEB52FE4F60810A
:10553000718182819381089560E070E0CB010895CC
:10554000682F70E020E030E080E0AB01022E02C066
:10555000559547950A94E2F7880F40FD81602F5FCB
:105560003F4F2830310589F708957F928F929F929F
:10557000AF92BF92CF92DF92EF92FF920F931F9361
:10558000CF93DF93CDB7DEB7A3970FB6F894DEBF06
:105590000FBECDBF8C014A015B017E2C0E947D0DA8
:1055A0008DEB97E00E946C0D60E070E0CB010E94F3
:1055B000A80D8BEB97E00E946C0D60E070E0CB01D2
:1055C0000E94A80D0E94D70D4AE0B801CE010196B5
:1055D0000E948F1A7C01892B09F094C081E00E94FF
:1055E0008629159883E00E94A02980E00E94A029C6
:1055F00080E00E94A02980E00E94A0291AA219A29E
:1056000081149104A104B10409F451C0C12CD12C1E
:10561000760120C08BA39E012F5D3F4F41E050E0FB
:10562000BE016D5D7F4FCE0101960E94B01F8FEFCE
:10563000C81AD80AE80AF80AD701C6019F70AA2733
:10564000BB27892B8A2B8B2BF9F08C149D04AE047D
:10565000BF0469F10E94BA297110DCCF682F70E095
:1056600020E030E090E0AB01022E02C05595479556
:105670000A94E2F7990F40FD91602F5F3F4F283069
:10568000310589F79BA3C7CF83E997E00E946C0D92
:10569000BB27AF2D9E2D8D2D0E949F0D8EE897E08C
:1056A0000E946C0D8C149D04AE04BF0499F6159AEB
:1056B00080E00E94862981E897E00E946C0DCE016F
:1056C00001960E94E8228BE797E00E946C0DC801CA
:1056D0000E947D0D8FE697E00E946C0DA3960FB699
:1056E000F894DEBF0FBECDBFDF91CF911F910F9118
:1056F000FF90EF90DF90CF90BF90AF909F908F90F2
:105700007F90089581EA97E00E946C0DC7010E9486
:105710003C32D5CF9F92AF92BF92CF92DF92EF9261
:10572000FF920F931F93CF93DF93CDB7DEB7A3976D
:105730000FB6F894DEBF0FBECDBF8C01A22E0E9423
:105740007D0D8DE697E00E946C0D60E070E0CB016E
:105750000E94A80D0E94D70D41E0B801CE0101962C
:105760000E948F1A7C01892B09F0ADC081E00E9454
:10577000862981E497E00E946C0DA0980E941B2A64
:105780008AE397E00E946C0D1AA219A2B12CC12CD9
:10579000D12C7601992493949E012F5D3F4F41E0D7
:1057A00050E0BE016D5D7F4FCE0101960E94CD1D80
:1057B00089A19AA1019709F045C0A11014C06BA15D
:1057C00070E080E090E020E0AB01082E02C055952B
:1057D00047950A94E2F7220F40FD21600196883038
:1057E000910591F72BA3CC2031F18BA10E94A02928
:1057F0002FEFC21AD20AE20AF20AD701C6019F703D
:10580000AA27BB27892B8A2B8B2B31F68CE297E0BA
:105810000E946C0DBB27AF2D9E2D8D2D0E949F0DDC
:1058200087E297E00E946C0DBB2051F0A09A392DC1
:105830003B19B32EB1CFC701B6010E94292AD5CF9B
:10584000A098F5CF0E94462A80E00E9486298BE12D
:1058500097E00E946C0D82E3A09A9FEF29EF30E061
:10586000915020403040E1F700C00000A0989FEF29
:1058700029EF30E0915020403040E1F700C00000B7
:10588000815051F7CE0101960E94E82285E197E010
:105890000E946C0DC8010E947D0D89E097E00E9476
:1058A0006C0DA3960FB6F894DEBF0FBECDBFDF918F
:1058B000CF911F910F91FF90EF90DF90CF90BF900D
:1058C000AF909F90089585E597E00E946C0DC70109
:1058D0000E943C32D7CF8F929F92AF92BF92EF92AD
:1058E0000F931F93CF93DF93EC010E94792A4B0112
:1058F0005C0180910E0190910F01A0911001B09177
:1059000011010297A105B10550F081E298E00E94D3
:105910006C0DC501B4010E94A80D0E94D70DE12CA9
:1059200000E010E09801B501A401CE010E94B52A63
:10593000DF91CF911F910F91EF90BF90AF909F900B
:105940008F90089520E040E050E0BA010C948A2B3B
:10595000CF92DF92EF92FF92CF9381E00E9486294F
:105960000E94482A15988BEA0E94A02980E00E9494
:10597000A02980E00E94A02980E00E94A0290E9426
:10598000BA29C82F159A80E00E94862984E198E000
:105990000E946C0D8C2F0E94940D82E198E00E9471
:1059A0006C0DC43109F44EC018F5C03109F440C083
:1059B000C23161F586E098E00E946C0DC12CD12CBB
:1059C00038E0E32EF12C0E94D70D89ED97E00E947C
:1059D0006C0DC701B6010E94A80D83ED97E00E94EF
:1059E0006C0DCF91FF90EF90DF90CF900C94D70D7E
:1059F000C531A1F0C63151F480EF97E00E946C0DE3
:105A0000C12CD12C80E8E82EF12CDDCF82EE97E07E
:105A10000E946C0DC12CD12C7601D5CF87EF97E079
:105A20000E946C0DC12CD12C90E4E92EF12CCBCF2F
:105A30008CE098E00E946C0DC12CD12C42E0E42E49
:105A4000F12CC1CF8FEF97E00E946C0DC12CD12CAF
:105A500020E2E22EF12CB7CF2D9A8FE998E00E9438
:105A60006C0D0C94007C0895CF93DF9383E798E04E
:105A70000E946C0D0E94D70DCBE0D9E023C048E016
:105A800050E08CE697E00E94355260919F0770913C
:105A9000A0074EE150E08BE797E00E9435528CE67C
:105AA00097E00E947D0D8EE698E00E946C0D8BE7DA
:105AB00097E00E947D0D0E94D70D279689E0CF3C8C
:105AC000D807A1F047E050E0BE018AE997E00E94C4
:105AD0002C5260919B0770919C076115710579F6B6
